{
  "_format": "hh-sol-artifact-1",
  "contractName": "MockController",
  "sourceName": "contracts/mocks/MockController.sol",
  "abi": [
    {
      "inputs": [
        {
          "internalType": "address payable",
          "name": "_depositToken",
          "type": "address"
        }
      ],
      "stateMutability": "nonpayable",
      "type": "constructor"
    },
    {
      "inputs": [],
      "name": "BidDoesNotBelongToProject",
      "type": "error"
    },
    {
      "inputs": [],
      "name": "BidsAreClosed",
      "type": "error"
    },
    {
      "inputs": [],
      "name": "EtherNotAccepted",
      "type": "error"
    },
    {
      "inputs": [],
      "name": "OnlyAdminCanResolveDispute",
      "type": "error"
    },
    {
      "inputs": [],
      "name": "OnlyProjectOwnerCanAcceptDelivery",
      "type": "error"
    },
    {
      "inputs": [],
      "name": "OnlyProjectOwnerCanDenyDelivery",
      "type": "error"
    },
    {
      "inputs": [],
      "name": "OnlyProjectOwnerCanProcessExtension",
      "type": "error"
    },
    {
      "inputs": [],
      "name": "OnlyWorkerCanOpenDispute",
      "type": "error"
    },
    {
      "inputs": [],
      "name": "OnlyWorkerCanProposeExtension",
      "type": "error"
    },
    {
      "inputs": [],
      "name": "OnlyWorkerCanRequestDelivery",
      "type": "error"
    },
    {
      "inputs": [],
      "name": "OnlyWorkerCanStartProject",
      "type": "error"
    },
    {
      "inputs": [],
      "name": "ProjectAlreadyExists",
      "type": "error"
    },
    {
      "inputs": [],
      "name": "ProjectDoesNotExist",
      "type": "error"
    },
    {
      "inputs": [],
      "name": "ProjectNotInDeliveryProposed",
      "type": "error"
    },
    {
      "inputs": [],
      "name": "ProjectNotInDispute",
      "type": "error"
    },
    {
      "inputs": [],
      "name": "ProjectNotOpenToBids",
      "type": "error"
    },
    {
      "inputs": [],
      "name": "ProjectNotStarted",
      "type": "error"
    },
    {
      "inputs": [],
      "name": "ProposalExtensionDoesNotExist",
      "type": "error"
    },
    {
      "anonymous": false,
      "inputs": [
        {
          "indexed": true,
          "internalType": "uint256",
          "name": "projectId",
          "type": "uint256"
        },
        {
          "indexed": false,
          "internalType": "uint256",
          "name": "proposedBudget",
          "type": "uint256"
        },
        {
          "indexed": false,
          "internalType": "uint256",
          "name": "proposedDeadline",
          "type": "uint256"
        },
        {
          "indexed": false,
          "internalType": "uint256",
          "name": "proposedAt",
          "type": "uint256"
        }
      ],
      "name": "AcceptProposedExtension",
      "type": "event"
    },
    {
      "anonymous": false,
      "inputs": [
        {
          "indexed": true,
          "internalType": "address",
          "name": "arbitrator",
          "type": "address"
        },
        {
          "indexed": false,
          "internalType": "bool",
          "name": "status",
          "type": "bool"
        }
      ],
      "name": "ArbitratorStatusChanged",
      "type": "event"
    },
    {
      "anonymous": false,
      "inputs": [
        {
          "indexed": true,
          "internalType": "uint256",
          "name": "projectId",
          "type": "uint256"
        },
        {
          "indexed": false,
          "internalType": "uint256",
          "name": "acceptedAt",
          "type": "uint256"
        }
      ],
      "name": "DeliveryAccepted",
      "type": "event"
    },
    {
      "anonymous": false,
      "inputs": [
        {
          "indexed": true,
          "internalType": "uint256",
          "name": "projectId",
          "type": "uint256"
        },
        {
          "indexed": false,
          "internalType": "uint256",
          "name": "requestedAt",
          "type": "uint256"
        }
      ],
      "name": "DeliveryProposed",
      "type": "event"
    },
    {
      "anonymous": false,
      "inputs": [
        {
          "indexed": true,
          "internalType": "uint256",
          "name": "projectId",
          "type": "uint256"
        },
        {
          "indexed": false,
          "internalType": "uint256",
          "name": "acceptedAt",
          "type": "uint256"
        },
        {
          "indexed": false,
          "internalType": "string",
          "name": "reason",
          "type": "string"
        }
      ],
      "name": "DeliveryRejected",
      "type": "event"
    },
    {
      "anonymous": false,
      "inputs": [
        {
          "indexed": true,
          "internalType": "uint256",
          "name": "projectId",
          "type": "uint256"
        },
        {
          "indexed": false,
          "internalType": "uint256",
          "name": "openedAt",
          "type": "uint256"
        },
        {
          "indexed": false,
          "internalType": "string",
          "name": "reason",
          "type": "string"
        }
      ],
      "name": "DisputeOpened",
      "type": "event"
    },
    {
      "anonymous": false,
      "inputs": [
        {
          "indexed": true,
          "internalType": "uint256",
          "name": "projectId",
          "type": "uint256"
        },
        {
          "indexed": false,
          "internalType": "uint256",
          "name": "resolvedAt",
          "type": "uint256"
        },
        {
          "indexed": false,
          "internalType": "bool",
          "name": "inWorkersFavor",
          "type": "bool"
        },
        {
          "indexed": false,
          "internalType": "string",
          "name": "reason",
          "type": "string"
        }
      ],
      "name": "DisputeResolved",
      "type": "event"
    },
    {
      "anonymous": false,
      "inputs": [
        {
          "indexed": true,
          "internalType": "address",
          "name": "previousOwner",
          "type": "address"
        },
        {
          "indexed": true,
          "internalType": "address",
          "name": "newOwner",
          "type": "address"
        }
      ],
      "name": "OwnershipTransferred",
      "type": "event"
    },
    {
      "anonymous": false,
      "inputs": [
        {
          "indexed": true,
          "internalType": "address",
          "name": "clientAddress",
          "type": "address"
        },
        {
          "indexed": true,
          "internalType": "address",
          "name": "workerAddress",
          "type": "address"
        },
        {
          "indexed": true,
          "internalType": "uint256",
          "name": "projectId",
          "type": "uint256"
        },
        {
          "indexed": false,
          "internalType": "uint256",
          "name": "deadline",
          "type": "uint256"
        },
        {
          "indexed": false,
          "internalType": "uint256",
          "name": "budget",
          "type": "uint256"
        }
      ],
      "name": "ProjectCreated",
      "type": "event"
    },
    {
      "anonymous": false,
      "inputs": [
        {
          "indexed": true,
          "internalType": "uint256",
          "name": "projectId",
          "type": "uint256"
        },
        {
          "indexed": false,
          "internalType": "uint256",
          "name": "startedAt",
          "type": "uint256"
        }
      ],
      "name": "ProjectStarted",
      "type": "event"
    },
    {
      "anonymous": false,
      "inputs": [
        {
          "indexed": true,
          "internalType": "uint256",
          "name": "projectId",
          "type": "uint256"
        },
        {
          "indexed": false,
          "internalType": "uint256",
          "name": "proposedBudget",
          "type": "uint256"
        },
        {
          "indexed": false,
          "internalType": "uint256",
          "name": "proposedDeadline",
          "type": "uint256"
        },
        {
          "indexed": false,
          "internalType": "uint256",
          "name": "proposedAt",
          "type": "uint256"
        }
      ],
      "name": "ProposalExtension",
      "type": "event"
    },
    {
      "stateMutability": "payable",
      "type": "fallback"
    },
    {
      "inputs": [
        {
          "internalType": "uint256",
          "name": "projectId",
          "type": "uint256"
        }
      ],
      "name": "acceptDeliveryAndPay",
      "outputs": [],
      "stateMutability": "nonpayable",
      "type": "function"
    },
    {
      "inputs": [
        {
          "internalType": "uint256",
          "name": "projectId",
          "type": "uint256"
        }
      ],
      "name": "acceptProposal",
      "outputs": [],
      "stateMutability": "nonpayable",
      "type": "function"
    },
    {
      "inputs": [
        {
          "internalType": "address",
          "name": "",
          "type": "address"
        }
      ],
      "name": "arbitrators",
      "outputs": [
        {
          "internalType": "bool",
          "name": "",
          "type": "bool"
        }
      ],
      "stateMutability": "view",
      "type": "function"
    },
    {
      "inputs": [
        {
          "internalType": "uint256",
          "name": "_budget",
          "type": "uint256"
        },
        {
          "internalType": "uint256",
          "name": "_deadline",
          "type": "uint256"
        },
        {
          "internalType": "address",
          "name": "_worker",
          "type": "address"
        }
      ],
      "name": "createProject",
      "outputs": [],
      "stateMutability": "nonpayable",
      "type": "function"
    },
    {
      "inputs": [
        {
          "internalType": "uint256",
          "name": "projectId",
          "type": "uint256"
        },
        {
          "internalType": "string",
          "name": "reason",
          "type": "string"
        }
      ],
      "name": "declineDelivery",
      "outputs": [],
      "stateMutability": "nonpayable",
      "type": "function"
    },
    {
      "inputs": [],
      "name": "depositToken",
      "outputs": [
        {
          "internalType": "contract IERC20",
          "name": "",
          "type": "address"
        }
      ],
      "stateMutability": "view",
      "type": "function"
    },
    {
      "inputs": [
        {
          "internalType": "address",
          "name": "owner",
          "type": "address"
        }
      ],
      "name": "getProjectIdsByOwner",
      "outputs": [
        {
          "internalType": "uint256[]",
          "name": "",
          "type": "uint256[]"
        }
      ],
      "stateMutability": "view",
      "type": "function"
    },
    {
      "inputs": [
        {
          "internalType": "uint256",
          "name": "projectId",
          "type": "uint256"
        }
      ],
      "name": "getProjectInfoById",
      "outputs": [
        {
          "components": [
            {
              "internalType": "address",
              "name": "clientAddress",
              "type": "address"
            },
            {
              "internalType": "address",
              "name": "workerAddress",
              "type": "address"
            },
            {
              "internalType": "enum ControllerLite.ProjectStage",
              "name": "stage",
              "type": "uint8"
            },
            {
              "internalType": "uint256",
              "name": "tsAdded",
              "type": "uint256"
            },
            {
              "internalType": "uint256",
              "name": "tsDeadline",
              "type": "uint256"
            },
            {
              "internalType": "uint256",
              "name": "budget",
              "type": "uint256"
            }
          ],
          "internalType": "struct ControllerLite.ProjectInfo",
          "name": "",
          "type": "tuple"
        }
      ],
      "stateMutability": "view",
      "type": "function"
    },
    {
      "inputs": [
        {
          "internalType": "uint256",
          "name": "projectId",
          "type": "uint256"
        },
        {
          "internalType": "string",
          "name": "reason",
          "type": "string"
        }
      ],
      "name": "openDispute",
      "outputs": [],
      "stateMutability": "nonpayable",
      "type": "function"
    },
    {
      "inputs": [],
      "name": "owner",
      "outputs": [
        {
          "internalType": "address",
          "name": "",
          "type": "address"
        }
      ],
      "stateMutability": "view",
      "type": "function"
    },
    {
      "inputs": [
        {
          "internalType": "uint256",
          "name": "",
          "type": "uint256"
        }
      ],
      "name": "projects",
      "outputs": [
        {
          "internalType": "address",
          "name": "clientAddress",
          "type": "address"
        },
        {
          "internalType": "address",
          "name": "workerAddress",
          "type": "address"
        },
        {
          "internalType": "enum ControllerLite.ProjectStage",
          "name": "stage",
          "type": "uint8"
        },
        {
          "internalType": "uint256",
          "name": "tsAdded",
          "type": "uint256"
        },
        {
          "internalType": "uint256",
          "name": "tsDeadline",
          "type": "uint256"
        },
        {
          "internalType": "uint256",
          "name": "budget",
          "type": "uint256"
        }
      ],
      "stateMutability": "view",
      "type": "function"
    },
    {
      "inputs": [
        {
          "internalType": "address",
          "name": "",
          "type": "address"
        },
        {
          "internalType": "uint256",
          "name": "",
          "type": "uint256"
        }
      ],
      "name": "projectsByOwner",
      "outputs": [
        {
          "internalType": "uint256",
          "name": "",
          "type": "uint256"
        }
      ],
      "stateMutability": "view",
      "type": "function"
    },
    {
      "inputs": [
        {
          "internalType": "uint256",
          "name": "projectId",
          "type": "uint256"
        }
      ],
      "name": "proposeDelivery",
      "outputs": [],
      "stateMutability": "nonpayable",
      "type": "function"
    },
    {
      "inputs": [
        {
          "internalType": "uint256",
          "name": "projectId",
          "type": "uint256"
        },
        {
          "internalType": "uint256",
          "name": "proposedNewDeadLine",
          "type": "uint256"
        },
        {
          "internalType": "uint256",
          "name": "proposedNewBudget",
          "type": "uint256"
        },
        {
          "internalType": "string",
          "name": "reason",
          "type": "string"
        }
      ],
      "name": "proposeExtension",
      "outputs": [],
      "stateMutability": "nonpayable",
      "type": "function"
    },
    {
      "inputs": [],
      "name": "renounceOwnership",
      "outputs": [],
      "stateMutability": "nonpayable",
      "type": "function"
    },
    {
      "inputs": [
        {
          "internalType": "uint256",
          "name": "projectId",
          "type": "uint256"
        },
        {
          "internalType": "string",
          "name": "reason",
          "type": "string"
        }
      ],
      "name": "resolveDisputeInClientFavor",
      "outputs": [],
      "stateMutability": "nonpayable",
      "type": "function"
    },
    {
      "inputs": [
        {
          "internalType": "uint256",
          "name": "projectId",
          "type": "uint256"
        },
        {
          "internalType": "string",
          "name": "reason",
          "type": "string"
        }
      ],
      "name": "resolveDisputeInWorkerFavor",
      "outputs": [],
      "stateMutability": "nonpayable",
      "type": "function"
    },
    {
      "inputs": [
        {
          "internalType": "address",
          "name": "_arbitratorAddress",
          "type": "address"
        },
        {
          "internalType": "bool",
          "name": "_status",
          "type": "bool"
        }
      ],
      "name": "setArbitrator",
      "outputs": [],
      "stateMutability": "nonpayable",
      "type": "function"
    },
    {
      "inputs": [
        {
          "internalType": "uint256",
          "name": "projectId",
          "type": "uint256"
        }
      ],
      "name": "startWork",
      "outputs": [],
      "stateMutability": "nonpayable",
      "type": "function"
    },
    {
      "inputs": [
        {
          "internalType": "address",
          "name": "newOwner",
          "type": "address"
        }
      ],
      "name": "transferOwnership",
      "outputs": [],
      "stateMutability": "nonpayable",
      "type": "function"
    },
    {
      "stateMutability": "payable",
      "type": "receive"
    }
  ],
  "bytecode": "0x608060405234801561001057600080fd5b5060405162001cc738038062001cc7833981016040819052610031916100b8565b60016000558061004033610066565b600380546001600160a01b0319166001600160a01b0392909216919091179055506100e8565b600180546001600160a01b038381166001600160a01b0319831681179093556040519116919082907f8be0079c531659141344cd1fd0a4f28419497f9722a3daafe3b4186f6b6457e090600090a35050565b6000602082840312156100ca57600080fd5b81516001600160a01b03811681146100e157600080fd5b9392505050565b611bcf80620000f86000396000f3fe6080604052600436106101235760003560e01c80636c4d5743116100a05780639bd6f1fe116100645780639bd6f1fe146103d8578063c89039c5146103f8578063f2fde38b14610418578063f482086814610438578063f7e28f8e1461046657610141565b80636c4d574314610324578063715018a61461035157806387f2b7da14610366578063892e21bf146103865780638da5cb5b146103a657610141565b80632f2a96d3116100e75780632f2a96d31461025757806336f691c41461027757806351d0ea37146102975780635f19935c146102d757806360c5cc3a1461030457610141565b806303a250f91461015a578063107046bd1461017c57806310e1b82d146101f75780631b7d41eb146102175780632bc0b0761461023757610141565b3661014157604051630dccd20d60e21b815260040160405180910390fd5b604051630dccd20d60e21b815260040160405180910390fd5b34801561016657600080fd5b5061017a6101753660046115f6565b610486565b005b34801561018857600080fd5b506101dc6101973660046115f6565b600560205260009081526040902080546001820154600283015460038401546004909401546001600160a01b039384169493831693600160a01b90930460ff16929086565b6040516101ee96959493929190611647565b60405180910390f35b34801561020357600080fd5b5061017a6102123660046116a5565b6105b7565b34801561022357600080fd5b5061017a6102323660046115f6565b61070a565b34801561024357600080fd5b5061017a6102523660046116e8565b6107f3565b34801561026357600080fd5b5061017a6102723660046115f6565b61085a565b34801561028357600080fd5b5061017a6102923660046117c2565b61094a565b3480156102a357600080fd5b506102c76102b2366004611809565b60046020526000908152604090205460ff1681565b60405190151581526020016101ee565b3480156102e357600080fd5b506102f76102f23660046115f6565b610a2d565b6040516101ee919061182b565b34801561031057600080fd5b5061017a61031f3660046115f6565b610af9565b34801561033057600080fd5b5061034461033f366004611809565b610cb2565b6040516101ee9190611883565b34801561035d57600080fd5b5061017a610d1e565b34801561037257600080fd5b5061017a6103813660046118c7565b610d32565b34801561039257600080fd5b5061017a6103a13660046117c2565b610e87565b3480156103b257600080fd5b506001546001600160a01b03165b6040516001600160a01b0390911681526020016101ee565b3480156103e457600080fd5b5061017a6103f33660046117c2565b610f50565b34801561040457600080fd5b506003546103c0906001600160a01b031681565b34801561042457600080fd5b5061017a610433366004611809565b61104a565b34801561044457600080fd5b50610458610453366004611921565b6110c5565b6040519081526020016101ee565b34801561047257600080fd5b5061017a6104813660046117c2565b6110f6565b61048e6111f1565b600081815260056020526040902080546001600160a01b03166104c4576040516338fde52b60e01b815260040160405180910390fd5b60006001820154600160a01b900460ff1660088111156104e6576104e661160f565b14158015610514575060046001820154600160a01b900460ff1660088111156105115761051161160f565b14155b156105315760405162101cff60e51b815260040160405180910390fd5b60018101546001600160a01b0316331461055e57604051633ca6df7960e21b815260040160405180910390fd5b60018101805460ff60a01b1916600160a01b17905560405142815282907f0897c664c72bc8b676678ef3f10a93980aa3f57017782c69072afcea1d1eb0f6906020015b60405180910390a2506105b46001600055565b50565b6105bf6111f1565b60006105ca60025490565b33600081815260066020908152604080832080546001808201835591855283852001869055815160c0810183529485526001600160a01b03888116868501908152868401868152426060890152608088018c905260a088018d9052888752600590955292909420855181549086166001600160a01b03199182161782559251918101805492909516928216831785559251959650939485949293909290916001600160a81b031990911617600160a01b83600881111561068c5761068c61160f565b0217905550606082015160028201556080820151600382015560a090910151600490910155604080518581526020810187905283916001600160a01b0386169133917f49c402d71ea8ee24d57c9c55ef9f5029f6aecde77e44108d496be5714e632736910160405180910390a450506107056001600055565b505050565b6107126111f1565b600081815260056020526040902080546001600160a01b0316331461074a576040516328cecb5b60e01b815260040160405180910390fd5b60026001820154600160a01b900460ff16600881111561076c5761076c61160f565b1461078a576040516310e1254d60e31b815260040160405180910390fd5b600181018054600360a01b60ff60a01b1982161790915560048201546003546107c1926001600160a01b039182169291169061124a565b817f9460073959a64ba94729236a882edf6c098a69ac586654e5a50b46351d643c0a426040516105a191815260200190565b6107fb6112ad565b6001600160a01b038216600081815260046020908152604091829020805460ff191685151590811790915591519182527f6bb70bc24cee91214cf034d22050fa7a29d527493327b708fe7dc847cd9be4da910160405180910390a25050565b6108626111f1565b600081815260056020526040902080546001600160a01b0316610898576040516338fde52b60e01b815260040160405180910390fd5b60018101546001600160a01b031633146108c557604051633a161e7760e01b815260040160405180910390fd5b600180820154600160a01b900460ff1660088111156108e6576108e661160f565b146109035760405162101cff60e51b815260040160405180910390fd5b60018101805460ff60a01b1916600160a11b17905560405142815282907f0ba80f4dba9f04c4b9d3d0d790e86680390e337ef61aa42c8d28338e2e790f11906020016105a1565b6109526111f1565b600082815260056020526040902060018101546001600160a01b0316331461098d5760405163665837af60e11b815260040160405180910390fd5b60046001820154600160a01b900460ff1660088111156109af576109af61160f565b146109cd57604051634f66018b60e01b815260040160405180910390fd5b60018101805460ff60a01b1916600560a01b17905560405183907f47263ecda9ee979e294b3b972426ec18606938a3560942cccc5c74c682f9d29e90610a16904290869061199b565b60405180910390a250610a296001600055565b5050565b610a666040805160c081018252600080825260208201819052909182019081526020016000815260200160008152602001600081525090565b600082815260056020908152604091829020825160c08101845281546001600160a01b03908116825260018301549081169382019390935292909190830190600160a01b900460ff166008811115610ac057610ac061160f565b6008811115610ad157610ad161160f565b8152600282015460208201526003820154604082015260049091015460609091015292915050565b610b016111f1565b600081815260056020526040902080546001600160a01b03163314610b395760405163758c019560e11b815260040160405180910390fd5b600180820154600160a01b900460ff166008811115610b5a57610b5a61160f565b14610b775760405162101cff60e51b815260040160405180910390fd5b60008281526007602052604090208054158015610b9657506001810154155b15610bb457604051634cc0323560e11b815260040160405180910390fd5b600181015415610bc957600181015460038301555b805415610c4857600482015481541015610c105780546004830154600091610bf0916119b4565b600354909150610c0a906001600160a01b0316338361124a565b50610c40565b60048201548154600091610c23916119b4565b600354909150610c3e906001600160a01b0316333084611307565b505b805460048301555b600080825560018201819055600282015560048201546003830154604080519283526020830191909152429082015283907f8423ea5fcc76d0ad679210fb974d3000738079aca8afd159eee4afeca496dde49060600160405180910390a250506105b46001600055565b6001600160a01b038116600090815260066020908152604091829020805483518184028101840190945280845260609392830182828015610d1257602002820191906000526020600020905b815481526020019060010190808311610cfe575b50505050509050919050565b610d266112ad565b610d30600061133f565b565b610d3a6111f1565b600084815260056020526040902080546001600160a01b0316610d70576040516338fde52b60e01b815260040160405180910390fd5b600180820154600160a01b900460ff166008811115610d9157610d9161160f565b14610dae5760405162101cff60e51b815260040160405180910390fd5b60018101546001600160a01b03163314610ddb57604051638d0cecdd60e01b815260040160405180910390fd5b604080516080810182528481526020808201878152428385019081526060840187815260008b815260079094529490922083518155905160018201559051600282015591519091906003820190610e329082611a63565b50506040805185815260208101879052428183015290518792507f0ba5d9309e4ae279f85512e847a064efdc07b707b95c20a88098ff6eeefd431f9181900360600190a250610e816001600055565b50505050565b610e8f6111f1565b600082815260056020526040902080546001600160a01b03163314610ec75760405163081874f560e21b815260040160405180910390fd5b60026001820154600160a01b900460ff166008811115610ee957610ee961160f565b14610f07576040516310e1254d60e31b815260040160405180910390fd5b60018101805460ff60a01b1916600160a21b17905560405183907f941dbf0237c4ff970e962d9c3fde1a2003d5076dfde4c0deeada6393cdde60b290610a16904290869061199b565b610f586111f1565b60008281526005602090815260408083203384526004909252822054909160ff90911615159003610f9c57604051630ebe99d160e31b815260040160405180910390fd5b60056001820154600160a01b900460ff166008811115610fbe57610fbe61160f565b14610fdc57604051634f66018b60e01b815260040160405180910390fd5b80546004820154600354610ffe926001600160a01b039182169291169061124a565b60018101805460ff60a01b1916600760a01b17905560405183907fb00f0ef2c9545d8dfded4cd4bee55b3761b8d5d9d6a8df164995635bfed3c07a90610a169042906000908790611b23565b6110526112ad565b6001600160a01b0381166110bc5760405162461bcd60e51b815260206004820152602660248201527f4f776e61626c653a206e6577206f776e657220697320746865207a65726f206160448201526564647265737360d01b60648201526084015b60405180910390fd5b6105b48161133f565b600660205281600052604060002081815481106110e157600080fd5b90600052602060002001600091509150505481565b6110fe6111f1565b60008281526005602090815260408083203384526004909252822054909160ff9091161515900361114257604051630ebe99d160e31b815260040160405180910390fd5b60056001820154600160a01b900460ff1660088111156111645761116461160f565b1461118257604051634f66018b60e01b815260040160405180910390fd5b600181015460048201546003546111a7926001600160a01b039182169291169061124a565b6001818101805460ff60a01b1916600760a01b17905560405184917fb00f0ef2c9545d8dfded4cd4bee55b3761b8d5d9d6a8df164995635bfed3c07a91610a169142918790611b23565b6002600054036112435760405162461bcd60e51b815260206004820152601f60248201527f5265656e7472616e637947756172643a207265656e7472616e742063616c6c0060448201526064016110b3565b6002600055565b6040516001600160a01b03831660248201526044810182905261070590849063a9059cbb60e01b906064015b60408051601f198184030181529190526020810180516001600160e01b03166001600160e01b031990931692909217909152611391565b6001546001600160a01b03163314610d305760405162461bcd60e51b815260206004820181905260248201527f4f776e61626c653a2063616c6c6572206973206e6f7420746865206f776e657260448201526064016110b3565b6040516001600160a01b0380851660248301528316604482015260648101829052610e819085906323b872dd60e01b90608401611276565b600180546001600160a01b038381166001600160a01b0319831681179093556040519116919082907f8be0079c531659141344cd1fd0a4f28419497f9722a3daafe3b4186f6b6457e090600090a35050565b60006113e6826040518060400160405280602081526020017f5361666545524332303a206c6f772d6c6576656c2063616c6c206661696c6564815250856001600160a01b03166114669092919063ffffffff16565b90508051600014806114075750808060200190518101906114079190611b4d565b6107055760405162461bcd60e51b815260206004820152602a60248201527f5361666545524332303a204552433230206f7065726174696f6e20646964206e6044820152691bdd081cdd58d8d9595960b21b60648201526084016110b3565b6060611475848460008561147d565b949350505050565b6060824710156114de5760405162461bcd60e51b815260206004820152602660248201527f416464726573733a20696e73756666696369656e742062616c616e636520666f6044820152651c8818d85b1b60d21b60648201526084016110b3565b600080866001600160a01b031685876040516114fa9190611b6a565b60006040518083038185875af1925050503d8060008114611537576040519150601f19603f3d011682016040523d82523d6000602084013e61153c565b606091505b509150915061154d87838387611558565b979650505050505050565b606083156115c75782516000036115c0576001600160a01b0385163b6115c05760405162461bcd60e51b815260206004820152601d60248201527f416464726573733a2063616c6c20746f206e6f6e2d636f6e747261637400000060448201526064016110b3565b5081611475565b61147583838151156115dc5781518083602001fd5b8060405162461bcd60e51b81526004016110b39190611b86565b60006020828403121561160857600080fd5b5035919050565b634e487b7160e01b600052602160045260246000fd5b6009811061164357634e487b7160e01b600052602160045260246000fd5b9052565b6001600160a01b0387811682528616602082015260c0810161166c6040830187611625565b8460608301528360808301528260a0830152979650505050505050565b80356001600160a01b03811681146116a057600080fd5b919050565b6000806000606084860312156116ba57600080fd5b83359250602084013591506116d160408501611689565b90509250925092565b80151581146105b457600080fd5b600080604083850312156116fb57600080fd5b61170483611689565b91506020830135611714816116da565b809150509250929050565b634e487b7160e01b600052604160045260246000fd5b600082601f83011261174657600080fd5b813567ffffffffffffffff808211156117615761176161171f565b604051601f8301601f19908116603f011681019082821181831017156117895761178961171f565b816040528381528660208588010111156117a257600080fd5b836020870160208301376000602085830101528094505050505092915050565b600080604083850312156117d557600080fd5b82359150602083013567ffffffffffffffff8111156117f357600080fd5b6117ff85828601611735565b9150509250929050565b60006020828403121561181b57600080fd5b61182482611689565b9392505050565b81516001600160a01b0390811682526020808401519091169082015260408083015160c083019161185e90840182611625565b50606083015160608301526080830151608083015260a083015160a083015292915050565b6020808252825182820181905260009190848201906040850190845b818110156118bb5783518352928401929184019160010161189f565b50909695505050505050565b600080600080608085870312156118dd57600080fd5b843593506020850135925060408501359150606085013567ffffffffffffffff81111561190957600080fd5b61191587828801611735565b91505092959194509250565b6000806040838503121561193457600080fd5b61193d83611689565b946020939093013593505050565b60005b8381101561196657818101518382015260200161194e565b50506000910152565b6000815180845261198781602086016020860161194b565b601f01601f19169290920160200192915050565b828152604060208201526000611475604083018461196f565b818103818111156119d557634e487b7160e01b600052601160045260246000fd5b92915050565b600181811c908216806119ef57607f821691505b602082108103611a0f57634e487b7160e01b600052602260045260246000fd5b50919050565b601f82111561070557600081815260208120601f850160051c81016020861015611a3c5750805b601f850160051c820191505b81811015611a5b57828155600101611a48565b505050505050565b815167ffffffffffffffff811115611a7d57611a7d61171f565b611a9181611a8b84546119db565b84611a15565b602080601f831160018114611ac65760008415611aae5750858301515b600019600386901b1c1916600185901b178555611a5b565b600085815260208120601f198616915b82811015611af557888601518255948401946001909101908401611ad6565b5085821015611b135787850151600019600388901b60f8161c191681555b5050505050600190811b01905550565b8381528215156020820152606060408201526000611b44606083018461196f565b95945050505050565b600060208284031215611b5f57600080fd5b8151611824816116da565b60008251611b7c81846020870161194b565b9190910192915050565b602081526000611824602083018461196f56fea26469706673582212200ef948a8b64d7cc30cddf026f6eec531779fff13caacff87b5a8f014746bcb0b64736f6c63430008120033",
  "linkReferences": {},
  "deployedLinkReferences": {}
}