{"contracts/ControllerFull.sol":{"ControllerFull":{"abi":[{"inputs":[{"internalType":"address payable","name":"_depositToken","type":"address"}],"stateMutability":"nonpayable","type":"constructor"},{"inputs":[],"name":"BidDoesNotBelongToProject","type":"error"},{"inputs":[],"name":"BidsAreClosed","type":"error"},{"inputs":[],"name":"ClientAlreadyExists","type":"error"},{"inputs":[],"name":"EtherNotAccepted","type":"error"},{"inputs":[],"name":"OnlyAdminCanResolveDispute","type":"error"},{"inputs":[],"name":"OnlyProjectOwnerCanAcceptBids","type":"error"},{"inputs":[],"name":"OnlyProjectOwnerCanAcceptDelivery","type":"error"},{"inputs":[],"name":"OnlyProjectOwnerCanDenyDelivery","type":"error"},{"inputs":[],"name":"OnlyProjectOwnerCanProcessExtension","type":"error"},{"inputs":[],"name":"OnlyWorkerCanOpenDispute","type":"error"},{"inputs":[],"name":"OnlyWorkerCanProposeExtension","type":"error"},{"inputs":[],"name":"OnlyWorkerCanRequestDelivery","type":"error"},{"inputs":[],"name":"OnlyWorkerCanStartProject","type":"error"},{"inputs":[],"name":"ProjectAlreadyExists","type":"error"},{"inputs":[],"name":"ProjectDoesNotExist","type":"error"},{"inputs":[],"name":"ProjectNotInDeliveryProposed","type":"error"},{"inputs":[],"name":"ProjectNotInDispute","type":"error"},{"inputs":[],"name":"ProjectNotOpenToBids","type":"error"},{"inputs":[],"name":"ProjectNotStarted","type":"error"},{"inputs":[],"name":"ProposalExtensionDoesNotExist","type":"error"},{"inputs":[],"name":"TooHighProposedBudget","type":"error"},{"inputs":[],"name":"TooHighProposedDeadline","type":"error"},{"inputs":[],"name":"WorkerAlreadyExists","type":"error"},{"anonymous":false,"inputs":[{"indexed":true,"internalType":"uint256","name":"projectId","type":"uint256"},{"indexed":false,"internalType":"uint256","name":"proposedBudget","type":"uint256"},{"indexed":false,"internalType":"uint256","name":"proposedDeadline","type":"uint256"},{"indexed":false,"internalType":"uint256","name":"proposedAt","type":"uint256"}],"name":"AcceptProposedExtension","type":"event"},{"anonymous":false,"inputs":[{"indexed":true,"internalType":"address","name":"arbitrator","type":"address"},{"indexed":false,"internalType":"bool","name":"status","type":"bool"}],"name":"ArbitratorStatusChanged","type":"event"},{"anonymous":false,"inputs":[{"indexed":true,"internalType":"uint256","name":"projectId","type":"uint256"},{"indexed":true,"internalType":"uint256","name":"bidId","type":"uint256"},{"indexed":false,"internalType":"uint256","name":"proposedBudget","type":"uint256"},{"indexed":false,"internalType":"uint256","name":"proposedDeadline","type":"uint256"},{"indexed":false,"internalType":"uint256","name":"acceptedIn","type":"uint256"}],"name":"BidAccepted","type":"event"},{"anonymous":false,"inputs":[{"indexed":true,"internalType":"uint256","name":"projectId","type":"uint256"},{"indexed":true,"internalType":"address","name":"worker","type":"address"},{"indexed":false,"internalType":"uint256","name":"proposedBudget","type":"uint256"},{"indexed":false,"internalType":"uint256","name":"proposedDeadline","type":"uint256"}],"name":"BidToProject","type":"event"},{"anonymous":false,"inputs":[{"indexed":true,"internalType":"address","name":"clientAddress","type":"address"},{"indexed":false,"internalType":"string","name":"name","type":"string"}],"name":"ClientRegistered","type":"event"},{"anonymous":false,"inputs":[{"indexed":true,"internalType":"uint256","name":"projectId","type":"uint256"},{"indexed":false,"internalType":"uint256","name":"acceptedAt","type":"uint256"}],"name":"DeliveryAccepted","type":"event"},{"anonymous":false,"inputs":[{"indexed":true,"internalType":"uint256","name":"projectId","type":"uint256"},{"indexed":false,"internalType":"uint256","name":"requestedAt","type":"uint256"}],"name":"DeliveryProposed","type":"event"},{"anonymous":false,"inputs":[{"indexed":true,"internalType":"uint256","name":"projectId","type":"uint256"},{"indexed":false,"internalType":"uint256","name":"acceptedAt","type":"uint256"},{"indexed":false,"internalType":"string","name":"reason","type":"string"}],"name":"DeliveryRejected","type":"event"},{"anonymous":false,"inputs":[{"indexed":true,"internalType":"uint256","name":"projectId","type":"uint256"},{"indexed":false,"internalType":"uint256","name":"openedAt","type":"uint256"},{"indexed":false,"internalType":"string","name":"reason","type":"string"}],"name":"DisputeOpened","type":"event"},{"anonymous":false,"inputs":[{"indexed":true,"internalType":"uint256","name":"projectId","type":"uint256"},{"indexed":false,"internalType":"uint256","name":"resolvedAt","type":"uint256"},{"indexed":false,"internalType":"bool","name":"inWorkersFavor","type":"bool"},{"indexed":false,"internalType":"string","name":"reason","type":"string"}],"name":"DisputeResolved","type":"event"},{"anonymous":false,"inputs":[{"indexed":true,"internalType":"address","name":"previousOwner","type":"address"},{"indexed":true,"internalType":"address","name":"newOwner","type":"address"}],"name":"OwnershipTransferred","type":"event"},{"anonymous":false,"inputs":[{"indexed":true,"internalType":"address","name":"clientAddress","type":"address"},{"indexed":true,"internalType":"uint256","name":"projectId","type":"uint256"},{"indexed":false,"internalType":"uint256","name":"maxAcceptableAmount","type":"uint256"},{"indexed":false,"internalType":"uint256","name":"maxAcceptableDeadline","type":"uint256"},{"indexed":false,"internalType":"string","name":"description","type":"string"}],"name":"ProjectCreated","type":"event"},{"anonymous":false,"inputs":[{"indexed":true,"internalType":"uint256","name":"projectId","type":"uint256"},{"indexed":false,"internalType":"uint256","name":"startedAt","type":"uint256"}],"name":"ProjectStarted","type":"event"},{"anonymous":false,"inputs":[{"indexed":true,"internalType":"uint256","name":"projectId","type":"uint256"},{"indexed":false,"internalType":"uint256","name":"proposedBudget","type":"uint256"},{"indexed":false,"internalType":"uint256","name":"proposedDeadline","type":"uint256"},{"indexed":false,"internalType":"uint256","name":"proposedAt","type":"uint256"}],"name":"ProposalExtension","type":"event"},{"anonymous":false,"inputs":[{"indexed":true,"internalType":"address","name":"worker","type":"address"},{"indexed":false,"internalType":"string","name":"name","type":"string"}],"name":"WorkerRegistered","type":"event"},{"stateMutability":"payable","type":"fallback"},{"inputs":[{"internalType":"uint256","name":"bidId","type":"uint256"}],"name":"acceptBid","outputs":[],"stateMutability":"nonpayable","type":"function"},{"inputs":[{"internalType":"uint256","name":"projectId","type":"uint256"}],"name":"acceptDeliveryAndPay","outputs":[],"stateMutability":"nonpayable","type":"function"},{"inputs":[{"internalType":"uint256","name":"projectId","type":"uint256"}],"name":"acceptProposal","outputs":[],"stateMutability":"nonpayable","type":"function"},{"inputs":[{"internalType":"address","name":"","type":"address"}],"name":"arbitrators","outputs":[{"internalType":"bool","name":"","type":"bool"}],"stateMutability":"view","type":"function"},{"inputs":[{"internalType":"uint256","name":"projectId","type":"uint256"},{"internalType":"uint256","name":"proposedBudget","type":"uint256"},{"internalType":"uint256","name":"proposedDeadline","type":"uint256"}],"name":"bidToProject","outputs":[],"stateMutability":"nonpayable","type":"function"},{"inputs":[{"internalType":"uint256","name":"","type":"uint256"},{"internalType":"uint256","name":"","type":"uint256"}],"name":"bidsByProjectId","outputs":[{"internalType":"uint256","name":"","type":"uint256"}],"stateMutability":"view","type":"function"},{"inputs":[{"internalType":"address","name":"","type":"address"}],"name":"clientInfo","outputs":[{"internalType":"string","name":"name","type":"string"},{"internalType":"address","name":"clientAddress","type":"address"},{"internalType":"uint256","name":"since","type":"uint256"},{"internalType":"uint256","name":"projectsCount","type":"uint256"}],"stateMutability":"view","type":"function"},{"inputs":[{"internalType":"uint256","name":"_maxAcceptableAmount","type":"uint256"},{"internalType":"uint256","name":"_maxAcceptableDeadline","type":"uint256"},{"internalType":"string","name":"_description","type":"string"}],"name":"createProject","outputs":[],"stateMutability":"nonpayable","type":"function"},{"inputs":[{"internalType":"uint256","name":"projectId","type":"uint256"},{"internalType":"string","name":"reason","type":"string"}],"name":"declineDelivery","outputs":[],"stateMutability":"nonpayable","type":"function"},{"inputs":[],"name":"depositToken","outputs":[{"internalType":"contract IERC20","name":"","type":"address"}],"stateMutability":"view","type":"function"},{"inputs":[{"internalType":"uint256","name":"projectId","type":"uint256"}],"name":"getAcceptedBidInfo","outputs":[{"components":[{"internalType":"uint256","name":"projectId","type":"uint256"},{"internalType":"uint256","name":"bidId","type":"uint256"},{"internalType":"address","name":"worker","type":"address"},{"internalType":"uint256","name":"proposedBudget","type":"uint256"},{"internalType":"uint256","name":"proposedDeadline","type":"uint256"},{"internalType":"bool","name":"accepted","type":"bool"},{"internalType":"uint256","name":"addedAt","type":"uint256"},{"internalType":"uint256","name":"acceptedAt","type":"uint256"}],"internalType":"struct ControllerFull.BidInfo","name":"","type":"tuple"}],"stateMutability":"view","type":"function"},{"inputs":[{"internalType":"uint256","name":"bidId","type":"uint256"}],"name":"getBidInfoById","outputs":[{"components":[{"internalType":"uint256","name":"projectId","type":"uint256"},{"internalType":"uint256","name":"bidId","type":"uint256"},{"internalType":"address","name":"worker","type":"address"},{"internalType":"uint256","name":"proposedBudget","type":"uint256"},{"internalType":"uint256","name":"proposedDeadline","type":"uint256"},{"internalType":"bool","name":"accepted","type":"bool"},{"internalType":"uint256","name":"addedAt","type":"uint256"},{"internalType":"uint256","name":"acceptedAt","type":"uint256"}],"internalType":"struct ControllerFull.BidInfo","name":"","type":"tuple"}],"stateMutability":"view","type":"function"},{"inputs":[{"internalType":"address","name":"_clientAddress","type":"address"}],"name":"getClientInfoByAddress","outputs":[{"components":[{"internalType":"string","name":"name","type":"string"},{"internalType":"address","name":"clientAddress","type":"address"},{"internalType":"uint256","name":"since","type":"uint256"},{"internalType":"uint256","name":"projectsCount","type":"uint256"}],"internalType":"struct ControllerFull.ClientInfo","name":"client","type":"tuple"}],"stateMutability":"view","type":"function"},{"inputs":[{"internalType":"uint256","name":"projectId","type":"uint256"}],"name":"getProjectBids","outputs":[{"internalType":"uint256[]","name":"","type":"uint256[]"}],"stateMutability":"view","type":"function"},{"inputs":[{"internalType":"address","name":"owner","type":"address"}],"name":"getProjectIdsByOwner","outputs":[{"internalType":"uint256[]","name":"","type":"uint256[]"}],"stateMutability":"view","type":"function"},{"inputs":[{"internalType":"uint256","name":"projectId","type":"uint256"}],"name":"getProjectInfoById","outputs":[{"components":[{"internalType":"address","name":"clientAddress","type":"address"},{"internalType":"uint256","name":"maxAcceptableAmount","type":"uint256"},{"internalType":"uint256","name":"maxAcceptableDeadline","type":"uint256"},{"internalType":"string","name":"description","type":"string"},{"internalType":"enum ControllerFull.ProjectStage","name":"stage","type":"uint8"},{"internalType":"uint256","name":"addedAt","type":"uint256"},{"internalType":"uint256","name":"bidAccepted","type":"uint256"},{"internalType":"uint256","name":"bidAcceptedAt","type":"uint256"},{"internalType":"uint256","name":"bidAcceptedAmount","type":"uint256"},{"internalType":"uint256","name":"bidAcceptedDeadline","type":"uint256"}],"internalType":"struct ControllerFull.ProjectInfo","name":"","type":"tuple"}],"stateMutability":"view","type":"function"},{"inputs":[{"internalType":"address","name":"_workerAddress","type":"address"}],"name":"getWorkerInfoByAddress","outputs":[{"components":[{"internalType":"string","name":"name","type":"string"},{"internalType":"address","name":"paymentAddress","type":"address"},{"internalType":"uint256","name":"since","type":"uint256"},{"internalType":"uint256","name":"projectsCount","type":"uint256"}],"internalType":"struct ControllerFull.WorkerInfo","name":"worker","type":"tuple"}],"stateMutability":"view","type":"function"},{"inputs":[{"internalType":"uint256","name":"projectId","type":"uint256"},{"internalType":"string","name":"reason","type":"string"}],"name":"openDispute","outputs":[],"stateMutability":"nonpayable","type":"function"},{"inputs":[],"name":"owner","outputs":[{"internalType":"address","name":"","type":"address"}],"stateMutability":"view","type":"function"},{"inputs":[{"internalType":"uint256","name":"","type":"uint256"}],"name":"projects","outputs":[{"internalType":"address","name":"clientAddress","type":"address"},{"internalType":"uint256","name":"maxAcceptableAmount","type":"uint256"},{"internalType":"uint256","name":"maxAcceptableDeadline","type":"uint256"},{"internalType":"string","name":"description","type":"string"},{"internalType":"enum ControllerFull.ProjectStage","name":"stage","type":"uint8"},{"internalType":"uint256","name":"addedAt","type":"uint256"},{"internalType":"uint256","name":"bidAccepted","type":"uint256"},{"internalType":"uint256","name":"bidAcceptedAt","type":"uint256"},{"internalType":"uint256","name":"bidAcceptedAmount","type":"uint256"},{"internalType":"uint256","name":"bidAcceptedDeadline","type":"uint256"}],"stateMutability":"view","type":"function"},{"inputs":[{"internalType":"address","name":"","type":"address"},{"internalType":"uint256","name":"","type":"uint256"}],"name":"projectsByOwner","outputs":[{"internalType":"uint256","name":"","type":"uint256"}],"stateMutability":"view","type":"function"},{"inputs":[{"internalType":"uint256","name":"projectId","type":"uint256"}],"name":"proposeDelivery","outputs":[],"stateMutability":"nonpayable","type":"function"},{"inputs":[{"internalType":"uint256","name":"projectId","type":"uint256"},{"internalType":"uint256","name":"proposedNewDeadLine","type":"uint256"},{"internalType":"uint256","name":"proposedNewBudget","type":"uint256"},{"internalType":"string","name":"reason","type":"string"}],"name":"proposeExtension","outputs":[],"stateMutability":"nonpayable","type":"function"},{"inputs":[{"internalType":"string","name":"_name","type":"string"}],"name":"registerAsClient","outputs":[],"stateMutability":"nonpayable","type":"function"},{"inputs":[{"internalType":"string","name":"_name","type":"string"}],"name":"registerAsWorker","outputs":[],"stateMutability":"nonpayable","type":"function"},{"inputs":[],"name":"renounceOwnership","outputs":[],"stateMutability":"nonpayable","type":"function"},{"inputs":[{"internalType":"uint256","name":"projectId","type":"uint256"},{"internalType":"string","name":"reason","type":"string"}],"name":"resolveDisputeInClientFavor","outputs":[],"stateMutability":"nonpayable","type":"function"},{"inputs":[{"internalType":"uint256","name":"projectId","type":"uint256"},{"internalType":"string","name":"reason","type":"string"}],"name":"resolveDisputeInWorkerFavor","outputs":[],"stateMutability":"nonpayable","type":"function"},{"inputs":[{"internalType":"address","name":"_arbitratorAddress","type":"address"},{"internalType":"bool","name":"_status","type":"bool"}],"name":"setArbitrator","outputs":[],"stateMutability":"nonpayable","type":"function"},{"inputs":[{"internalType":"uint256","name":"projectId","type":"uint256"}],"name":"startWork","outputs":[],"stateMutability":"nonpayable","type":"function"},{"inputs":[{"internalType":"address","name":"newOwner","type":"address"}],"name":"transferOwnership","outputs":[],"stateMutability":"nonpayable","type":"function"},{"inputs":[{"internalType":"uint256","name":"","type":"uint256"}],"name":"workerByAddress","outputs":[{"internalType":"address","name":"","type":"address"}],"stateMutability":"view","type":"function"},{"inputs":[{"internalType":"address","name":"","type":"address"}],"name":"workerInfo","outputs":[{"internalType":"string","name":"name","type":"string"},{"internalType":"address","name":"paymentAddress","type":"address"},{"internalType":"uint256","name":"since","type":"uint256"},{"internalType":"uint256","name":"projectsCount","type":"uint256"}],"stateMutability":"view","type":"function"},{"stateMutability":"payable","type":"receive"}],"evm":{"bytecode":{"linkReferences":{},"object":"60806040523480156200001157600080fd5b506040516200568f3803806200568f8339818101604052810190620000379190620001df565b60016000819055506200005f62000053620000a760201b60201c565b620000af60201b60201c565b80600460006101000a81548173ffffffffffffffffffffffffffffffffffffffff021916908373ffffffffffffffffffffffffffffffffffffffff1602179055505062000211565b600033905090565b6000600160009054906101000a900473ffffffffffffffffffffffffffffffffffffffff16905081600160006101000a81548173ffffffffffffffffffffffffffffffffffffffff021916908373ffffffffffffffffffffffffffffffffffffffff1602179055508173ffffffffffffffffffffffffffffffffffffffff168173ffffffffffffffffffffffffffffffffffffffff167f8be0079c531659141344cd1fd0a4f28419497f9722a3daafe3b4186f6b6457e060405160405180910390a35050565b600080fd5b600073ffffffffffffffffffffffffffffffffffffffff82169050919050565b6000620001a7826200017a565b9050919050565b620001b9816200019a565b8114620001c557600080fd5b50565b600081519050620001d981620001ae565b92915050565b600060208284031215620001f857620001f762000175565b5b60006200020884828501620001c8565b91505092915050565b61546e80620002216000396000f3fe6080604052600436106101f25760003560e01c80635f19935c1161010d57806398116e19116100a0578063c89039c51161006f578063c89039c5146107da578063f2fde38b14610805578063f3472b3d1461082e578063f482086814610857578063f7e28f8e1461089457610229565b806398116e19146107225780639bd6f1fe1461074b578063a17fabb614610774578063b98389b1146107b157610229565b8063758dde96116100dc578063758dde961461066557806387f2b7da146106a5578063892e21bf146106ce5780638da5cb5b146106f757610229565b80635f19935c146105ab57806360c5cc3a146105e85780636c4d574314610611578063715018a61461064e57610229565b80632bb003c31161018557806331537e561161015457806331537e56146104cb57806336f691c41461050857806344bafb241461053157806351d0ea371461056e57610229565b80632bb003c3146103ff5780632bc0b0761461043c5780632f2a96d31461046557806330790b651461048e57610229565b80631b7d41eb116101c15780631b7d41eb1461034757806320f7a505146103705780632863db7b146103995780632b1fd58a146103d657610229565b806303a250f91461025b5780630a6f050314610284578063107046bd146102c45780631596a5d51461030a57610229565b36610229576040517f3733483400000000000000000000000000000000000000000000000000000000815260040160405180910390fd5b6040517f3733483400000000000000000000000000000000000000000000000000000000815260040160405180910390fd5b34801561026757600080fd5b50610282600480360381019061027d9190613f66565b6108bd565b005b34801561029057600080fd5b506102ab60048036038101906102a69190613ff1565b610b2f565b6040516102bb94939291906140cc565b60405180910390f35b3480156102d057600080fd5b506102eb60048036038101906102e69190613f66565b610c07565b6040516103019a9998979695949392919061418f565b60405180910390f35b34801561031657600080fd5b50610331600480360381019061032c9190613f66565b610d10565b60405161033e919061430d565b60405180910390f35b34801561035357600080fd5b5061036e60048036038101906103699190613f66565b610deb565b005b34801561037c57600080fd5b506103976004803603810190610392919061445e565b611004565b005b3480156103a557600080fd5b506103c060048036038101906103bb9190613f66565b6113bd565b6040516103cd919061430d565b60405180910390f35b3480156103e257600080fd5b506103fd60048036038101906103f89190613f66565b6114ae565b005b34801561040b57600080fd5b5061042660048036038101906104219190613f66565b611857565b604051610433919061457c565b60405180910390f35b34801561044857600080fd5b50610463600480360381019061045e91906145ca565b6118c2565b005b34801561047157600080fd5b5061048c60048036038101906104879190613f66565b611973565b005b34801561049a57600080fd5b506104b560048036038101906104b09190613f66565b611ba1565b6040516104c2919061460a565b60405180910390f35b3480156104d757600080fd5b506104f260048036038101906104ed9190614625565b611be0565b6040516104ff9190614665565b60405180910390f35b34801561051457600080fd5b5061052f600480360381019061052a9190614680565b611c11565b005b34801561053d57600080fd5b5061055860048036038101906105539190613ff1565b611db8565b6040516105659190614789565b60405180910390f35b34801561057a57600080fd5b5061059560048036038101906105909190613ff1565b611f0d565b6040516105a291906147ba565b60405180910390f35b3480156105b757600080fd5b506105d260048036038101906105cd9190613f66565b611f2d565b6040516105df91906148be565b60405180910390f35b3480156105f457600080fd5b5061060f600480360381019061060a9190613f66565b6120c4565b005b34801561061d57600080fd5b5061063860048036038101906106339190613ff1565b61240a565b604051610645919061457c565b60405180910390f35b34801561065a57600080fd5b506106636124a1565b005b34801561067157600080fd5b5061068c60048036038101906106879190613ff1565b6124b5565b60405161069c94939291906140cc565b60405180910390f35b3480156106b157600080fd5b506106cc60048036038101906106c791906148e0565b61258d565b005b3480156106da57600080fd5b506106f560048036038101906106f09190614680565b61287c565b005b34801561070357600080fd5b5061070c612a07565b604051610719919061460a565b60405180910390f35b34801561072e57600080fd5b5061074960048036038101906107449190614963565b612a31565b005b34801561075757600080fd5b50610772600480360381019061076d9190614680565b612c80565b005b34801561078057600080fd5b5061079b60048036038101906107969190613ff1565b612e84565b6040516107a89190614a0f565b60405180910390f35b3480156107bd57600080fd5b506107d860048036038101906107d39190614963565b612fd9565b005b3480156107e657600080fd5b506107ef613228565b6040516107fc9190614a90565b60405180910390f35b34801561081157600080fd5b5061082c60048036038101906108279190613ff1565b61324e565b005b34801561083a57600080fd5b5061085560048036038101906108509190614aab565b6132d1565b005b34801561086357600080fd5b5061087e60048036038101906108799190614afe565b613620565b60405161088b9190614665565b60405180910390f35b3480156108a057600080fd5b506108bb60048036038101906108b69190614680565b613651565b005b6108c5613871565b6000600c60008381526020019081526020016000209050600060116000836006015481526020019081526020016000209050600073ffffffffffffffffffffffffffffffffffffffff168260000160009054906101000a900473ffffffffffffffffffffffffffffffffffffffff1673ffffffffffffffffffffffffffffffffffffffff1603610981576040517f38fde52b00000000000000000000000000000000000000000000000000000000815260040160405180910390fd5b6001600981111561099557610994614118565b5b8260040160009054906101000a900460ff1660098111156109b9576109b8614118565b5b141580156109fd5750600560098111156109d6576109d5614118565b5b8260040160009054906101000a900460ff1660098111156109fa576109f9614118565b5b14155b15610a34576040517f02039fe000000000000000000000000000000000000000000000000000000000815260040160405180910390fd5b3373ffffffffffffffffffffffffffffffffffffffff168160020160009054906101000a900473ffffffffffffffffffffffffffffffffffffffff1673ffffffffffffffffffffffffffffffffffffffff1614610abd576040517ff29b7de400000000000000000000000000000000000000000000000000000000815260040160405180910390fd5b60028260040160006101000a81548160ff02191690836009811115610ae557610ae4614118565b5b0217905550827f0897c664c72bc8b676678ef3f10a93980aa3f57017782c69072afcea1d1eb0f642604051610b1a9190614665565b60405180910390a25050610b2c6138c0565b50565b6006602052806000526040600020600091509050806000018054610b5290614b6d565b80601f0160208091040260200160405190810160405280929190818152602001828054610b7e90614b6d565b8015610bcb5780601f10610ba057610100808354040283529160200191610bcb565b820191906000526020600020905b815481529060010190602001808311610bae57829003601f168201915b5050505050908060010160009054906101000a900473ffffffffffffffffffffffffffffffffffffffff16908060020154908060030154905084565b600c6020528060005260406000206000915090508060000160009054906101000a900473ffffffffffffffffffffffffffffffffffffffff1690806001015490806002015490806003018054610c5c90614b6d565b80601f0160208091040260200160405190810160405280929190818152602001828054610c8890614b6d565b8015610cd55780601f10610caa57610100808354040283529160200191610cd5565b820191906000526020600020905b815481529060010190602001808311610cb857829003601f168201915b5050505050908060040160009054906101000a900460ff1690806005015490806006015490806007015490806008015490806009015490508a565b610d18613dc8565b601160008381526020019081526020016000206040518061010001604052908160008201548152602001600182015481526020016002820160009054906101000a900473ffffffffffffffffffffffffffffffffffffffff1673ffffffffffffffffffffffffffffffffffffffff1673ffffffffffffffffffffffffffffffffffffffff16815260200160038201548152602001600482015481526020016005820160009054906101000a900460ff16151515158152602001600682015481526020016007820154815250509050919050565b610df3613871565b6000600c600083815260200190815260200160002090503373ffffffffffffffffffffffffffffffffffffffff168160000160009054906101000a900473ffffffffffffffffffffffffffffffffffffffff1673ffffffffffffffffffffffffffffffffffffffff1614610e93576040517f28cecb5b00000000000000000000000000000000000000000000000000000000815260040160405180910390fd5b60036009811115610ea757610ea6614118565b5b8160040160009054906101000a900460ff166009811115610ecb57610eca614118565b5b14610f02576040517f87092a6800000000000000000000000000000000000000000000000000000000815260040160405180910390fd5b60048160040160006101000a81548160ff02191690836009811115610f2a57610f29614118565b5b0217905550600060116000836006015481526020019081526020016000209050610fbf8160020160009054906101000a900473ffffffffffffffffffffffffffffffffffffffff168360080154600460009054906101000a900473ffffffffffffffffffffffffffffffffffffffff1673ffffffffffffffffffffffffffffffffffffffff166138ca9092919063ffffffff16565b827f9460073959a64ba94729236a882edf6c098a69ac586654e5a50b46351d643c0a42604051610fef9190614665565b60405180910390a250506110016138c0565b50565b61100c613871565b600e60003373ffffffffffffffffffffffffffffffffffffffff1673ffffffffffffffffffffffffffffffffffffffff168152602001908152602001600020816040516110599190614bda565b908152602001604051809103902060009054906101000a900460ff16156110ac576040517fb60c1ae400000000000000000000000000000000000000000000000000000000815260040160405180910390fd5b6001600e60003373ffffffffffffffffffffffffffffffffffffffff1673ffffffffffffffffffffffffffffffffffffffff168152602001908152602001600020826040516110fb9190614bda565b908152602001604051809103902060006101000a81548160ff021916908315150217905550600061112c6002613950565b9050600d60003373ffffffffffffffffffffffffffffffffffffffff1673ffffffffffffffffffffffffffffffffffffffff168152602001908152602001600020819080600181540180825580915050600190039060005260206000200160009091909190915055600960003373ffffffffffffffffffffffffffffffffffffffff1673ffffffffffffffffffffffffffffffffffffffff16815260200190815260200160002060030160008154809291906111e790614c20565b919050555060006040518061014001604052803373ffffffffffffffffffffffffffffffffffffffff1681526020018681526020018581526020018481526020016000600981111561123c5761123b614118565b5b81526020014281526020016000815260200160008152602001600081526020016000815250905080600c600084815260200190815260200160002060008201518160000160006101000a81548173ffffffffffffffffffffffffffffffffffffffff021916908373ffffffffffffffffffffffffffffffffffffffff160217905550602082015181600101556040820151816002015560608201518160030190816112e79190614e0a565b5060808201518160040160006101000a81548160ff0219169083600981111561131357611312614118565b5b021790555060a0820151816005015560c0820151816006015560e0820151816007015561010082015181600801556101208201518160090155905050813373ffffffffffffffffffffffffffffffffffffffff167fd8c9df6950e7ea521827d53af272e4b2f29df683b9557003a02d7a0a94f12f5a8360200151846040015185606001516040516113a693929190614edc565b60405180910390a350506113b86138c0565b505050565b6113c5613dc8565b60116000600c60008581526020019081526020016000206006015481526020019081526020016000206040518061010001604052908160008201548152602001600182015481526020016002820160009054906101000a900473ffffffffffffffffffffffffffffffffffffffff1673ffffffffffffffffffffffffffffffffffffffff1673ffffffffffffffffffffffffffffffffffffffff16815260200160038201548152602001600482015481526020016005820160009054906101000a900460ff16151515158152602001600682015481526020016007820154815250509050919050565b6114b6613871565b60006011600083815260200190815260200160002090506000600c60008360000154815260200190815260200160002090506000600960003373ffffffffffffffffffffffffffffffffffffffff1673ffffffffffffffffffffffffffffffffffffffff16815260200190815260200160002090506000600660008560020160009054906101000a900473ffffffffffffffffffffffffffffffffffffffff1673ffffffffffffffffffffffffffffffffffffffff1673ffffffffffffffffffffffffffffffffffffffff16815260200190815260200160002090503373ffffffffffffffffffffffffffffffffffffffff168360000160009054906101000a900473ffffffffffffffffffffffffffffffffffffffff1673ffffffffffffffffffffffffffffffffffffffff161461161b576040517f38fde52b00000000000000000000000000000000000000000000000000000000815260040160405180910390fd5b6000600981111561162f5761162e614118565b5b8360040160009054906101000a900460ff16600981111561165357611652614118565b5b0361168a576040517f9a264d0000000000000000000000000000000000000000000000000000000000815260040160405180910390fd5b3373ffffffffffffffffffffffffffffffffffffffff168260010160009054906101000a900473ffffffffffffffffffffffffffffffffffffffff1673ffffffffffffffffffffffffffffffffffffffff1614611713576040517f3556120b00000000000000000000000000000000000000000000000000000000815260040160405180910390fd5b60018360040160006101000a81548160ff0219169083600981111561173b5761173a614118565b5b0217905550848360060181905550428360070181905550836003015483600801819055508360040154836009018190555060018460050160006101000a81548160ff0219169083151502179055504284600701819055508060030160008154809291906117a790614c20565b91905055506117ff33308660030154600460009054906101000a900473ffffffffffffffffffffffffffffffffffffffff1673ffffffffffffffffffffffffffffffffffffffff1661395e909392919063ffffffff16565b8484600001547f26ced84e7fcbbaaebd2c7b4da6342643cb90fd15d56673dfabe3954aea0bbe08866003015487600401544260405161184093929190614f1a565b60405180910390a3505050506118546138c0565b50565b6060601060008381526020019081526020016000208054806020026020016040519081016040528092919081815260200182805480156118b657602002820191906000526020600020905b8154815260200190600101908083116118a2575b50505050509050919050565b6118ca6139e7565b80600560008473ffffffffffffffffffffffffffffffffffffffff1673ffffffffffffffffffffffffffffffffffffffff16815260200190815260200160002060006101000a81548160ff0219169083151502179055508173ffffffffffffffffffffffffffffffffffffffff167f6bb70bc24cee91214cf034d22050fa7a29d527493327b708fe7dc847cd9be4da8260405161196791906147ba565b60405180910390a25050565b61197b613871565b6000600c60008381526020019081526020016000209050600060116000836006015481526020019081526020016000209050600073ffffffffffffffffffffffffffffffffffffffff168260000160009054906101000a900473ffffffffffffffffffffffffffffffffffffffff1673ffffffffffffffffffffffffffffffffffffffff1603611a37576040517f38fde52b00000000000000000000000000000000000000000000000000000000815260040160405180910390fd5b3373ffffffffffffffffffffffffffffffffffffffff168160020160009054906101000a900473ffffffffffffffffffffffffffffffffffffffff1673ffffffffffffffffffffffffffffffffffffffff1614611ac0576040517f3a161e7700000000000000000000000000000000000000000000000000000000815260040160405180910390fd5b60026009811115611ad457611ad3614118565b5b8260040160009054906101000a900460ff166009811115611af857611af7614118565b5b14611b2f576040517f02039fe000000000000000000000000000000000000000000000000000000000815260040160405180910390fd5b60038260040160006101000a81548160ff02191690836009811115611b5757611b56614118565b5b0217905550827f0ba80f4dba9f04c4b9d3d0d790e86680390e337ef61aa42c8d28338e2e790f1142604051611b8c9190614665565b60405180910390a25050611b9e6138c0565b50565b60088181548110611bb157600080fd5b906000526020600020016000915054906101000a900473ffffffffffffffffffffffffffffffffffffffff1681565b60106020528160005260406000208181548110611bfc57600080fd5b90600052602060002001600091509150505481565b611c19613871565b6000600c600084815260200190815260200160002090506000601160008360060154815260200190815260200160002090503373ffffffffffffffffffffffffffffffffffffffff168160020160009054906101000a900473ffffffffffffffffffffffffffffffffffffffff1673ffffffffffffffffffffffffffffffffffffffff1614611cd4576040517fccb06f5e00000000000000000000000000000000000000000000000000000000815260040160405180910390fd5b60056009811115611ce857611ce7614118565b5b8260040160009054906101000a900460ff166009811115611d0c57611d0b614118565b5b14611d43576040517f4f66018b00000000000000000000000000000000000000000000000000000000815260040160405180910390fd5b60068260040160006101000a81548160ff02191690836009811115611d6b57611d6a614118565b5b0217905550837f47263ecda9ee979e294b3b972426ec18606938a3560942cccc5c74c682f9d29e4285604051611da2929190614f51565b60405180910390a25050611db46138c0565b5050565b611dc0613e25565b600660008373ffffffffffffffffffffffffffffffffffffffff1673ffffffffffffffffffffffffffffffffffffffff168152602001908152602001600020604051806080016040529081600082018054611e1a90614b6d565b80601f0160208091040260200160405190810160405280929190818152602001828054611e4690614b6d565b8015611e935780601f10611e6857610100808354040283529160200191611e93565b820191906000526020600020905b815481529060010190602001808311611e7657829003601f168201915b505050505081526020016001820160009054906101000a900473ffffffffffffffffffffffffffffffffffffffff1673ffffffffffffffffffffffffffffffffffffffff1673ffffffffffffffffffffffffffffffffffffffff168152602001600282015481526020016003820154815250509050919050565b60056020528060005260406000206000915054906101000a900460ff1681565b611f35613e63565b600c6000838152602001908152602001600020604051806101400160405290816000820160009054906101000a900473ffffffffffffffffffffffffffffffffffffffff1673ffffffffffffffffffffffffffffffffffffffff1673ffffffffffffffffffffffffffffffffffffffff1681526020016001820154815260200160028201548152602001600382018054611fce90614b6d565b80601f0160208091040260200160405190810160405280929190818152602001828054611ffa90614b6d565b80156120475780601f1061201c57610100808354040283529160200191612047565b820191906000526020600020905b81548152906001019060200180831161202a57829003601f168201915b505050505081526020016004820160009054906101000a900460ff16600981111561207557612074614118565b5b600981111561208757612086614118565b5b8152602001600582015481526020016006820154815260200160078201548152602001600882015481526020016009820154815250509050919050565b6120cc613871565b6000600c600083815260200190815260200160002090506000600960003373ffffffffffffffffffffffffffffffffffffffff1673ffffffffffffffffffffffffffffffffffffffff16815260200190815260200160002090503373ffffffffffffffffffffffffffffffffffffffff168160010160009054906101000a900473ffffffffffffffffffffffffffffffffffffffff1673ffffffffffffffffffffffffffffffffffffffff16146121af576040517feb18032a00000000000000000000000000000000000000000000000000000000815260040160405180910390fd5b600260098111156121c3576121c2614118565b5b8260040160009054906101000a900460ff1660098111156121e7576121e6614118565b5b1461221e576040517f02039fe000000000000000000000000000000000000000000000000000000000815260040160405180910390fd5b6000600f600085815260200190815260200160002090506000816000015414801561224d575060008160010154145b15612284576040517f9980646a00000000000000000000000000000000000000000000000000000000815260040160405180910390fd5b60008160010154111561229f57806001015483600901819055505b42836007018190555060008160000154111561239a57826008015481600001541015612330576000816000015484600801546122db9190614f81565b905061232a3382600460009054906101000a900473ffffffffffffffffffffffffffffffffffffffff1673ffffffffffffffffffffffffffffffffffffffff166138ca9092919063ffffffff16565b50612399565b6000836008015482600001546123469190614f81565b9050612397333083600460009054906101000a900473ffffffffffffffffffffffffffffffffffffffff1673ffffffffffffffffffffffffffffffffffffffff1661395e909392919063ffffffff16565b505b5b600081600001819055506000816001018190555060008160020181905550837f8423ea5fcc76d0ad679210fb974d3000738079aca8afd159eee4afeca496dde484600801548560090154426040516123f493929190614f1a565b60405180910390a25050506124076138c0565b50565b6060600d60008373ffffffffffffffffffffffffffffffffffffffff1673ffffffffffffffffffffffffffffffffffffffff16815260200190815260200160002080548060200260200160405190810160405280929190818152602001828054801561249557602002820191906000526020600020905b815481526020019060010190808311612481575b50505050509050919050565b6124a96139e7565b6124b36000613a65565b565b60096020528060005260406000206000915090508060000180546124d890614b6d565b80601f016020809104026020016040519081016040528092919081815260200182805461250490614b6d565b80156125515780601f1061252657610100808354040283529160200191612551565b820191906000526020600020905b81548152906001019060200180831161253457829003601f168201915b5050505050908060010160009054906101000a900473ffffffffffffffffffffffffffffffffffffffff16908060020154908060030154905084565b612595613871565b6000600c60008681526020019081526020016000209050600060116000836006015481526020019081526020016000209050600073ffffffffffffffffffffffffffffffffffffffff168260000160009054906101000a900473ffffffffffffffffffffffffffffffffffffffff1673ffffffffffffffffffffffffffffffffffffffff1603612651576040517f38fde52b00000000000000000000000000000000000000000000000000000000815260040160405180910390fd5b6002600981111561266557612664614118565b5b8260040160009054906101000a900460ff16600981111561268957612688614118565b5b146126c0576040517f02039fe000000000000000000000000000000000000000000000000000000000815260040160405180910390fd5b3373ffffffffffffffffffffffffffffffffffffffff168160020160009054906101000a900473ffffffffffffffffffffffffffffffffffffffff1673ffffffffffffffffffffffffffffffffffffffff1614612749576040517f8d0cecdd00000000000000000000000000000000000000000000000000000000815260040160405180910390fd5b8160010154841115612787576040517fba74cad300000000000000000000000000000000000000000000000000000000815260040160405180910390fd5b81600201548511156127c5576040517ff8f0715a00000000000000000000000000000000000000000000000000000000815260040160405180910390fd5b604051806080016040528085815260200186815260200142815260200184815250600f6000888152602001908152602001600020600082015181600001556020820151816001015560408201518160020155606082015181600301908161282c9190614e0a565b50905050857f0ba5d9309e4ae279f85512e847a064efdc07b707b95c20a88098ff6eeefd431f85874260405161286493929190614f1a565b60405180910390a250506128766138c0565b50505050565b612884613871565b6000600c600084815260200190815260200160002090503373ffffffffffffffffffffffffffffffffffffffff168160000160009054906101000a900473ffffffffffffffffffffffffffffffffffffffff1673ffffffffffffffffffffffffffffffffffffffff1614612924576040517f2061d3d400000000000000000000000000000000000000000000000000000000815260040160405180910390fd5b6003600981111561293857612937614118565b5b8160040160009054906101000a900460ff16600981111561295c5761295b614118565b5b14612993576040517f87092a6800000000000000000000000000000000000000000000000000000000815260040160405180910390fd5b60058160040160006101000a81548160ff021916908360098111156129bb576129ba614118565b5b0217905550827f941dbf0237c4ff970e962d9c3fde1a2003d5076dfde4c0deeada6393cdde60b242846040516129f2929190614f51565b60405180910390a250612a036138c0565b5050565b6000600160009054906101000a900473ffffffffffffffffffffffffffffffffffffffff16905090565b612a39613871565b600781604051612a499190614bda565b908152602001604051809103902060009054906101000a900460ff1615612a9c576040517f430f177600000000000000000000000000000000000000000000000000000000815260040160405180910390fd5b6001600782604051612aae9190614bda565b908152602001604051809103902060006101000a81548160ff021916908315150217905550600060405180608001604052808381526020013373ffffffffffffffffffffffffffffffffffffffff168152602001428152602001600081525090506008339080600181540180825580915050600190039060005260206000200160009091909190916101000a81548173ffffffffffffffffffffffffffffffffffffffff021916908373ffffffffffffffffffffffffffffffffffffffff16021790555080600660003373ffffffffffffffffffffffffffffffffffffffff1673ffffffffffffffffffffffffffffffffffffffff1681526020019081526020016000206000820151816000019081612bc79190614e0a565b5060208201518160010160006101000a81548173ffffffffffffffffffffffffffffffffffffffff021916908373ffffffffffffffffffffffffffffffffffffffff16021790555060408201518160020155606082015181600301559050503373ffffffffffffffffffffffffffffffffffffffff167fb2bc7d962e634836b6f2383ee5f842b8829c7771d414c3f8862c577f4730a3e883604051612c6c9190614fb5565b60405180910390a250612c7d6138c0565b50565b612c88613871565b6000600c6000848152602001908152602001600020905060001515600560003373ffffffffffffffffffffffffffffffffffffffff1673ffffffffffffffffffffffffffffffffffffffff16815260200190815260200160002060009054906101000a900460ff16151503612d29576040517f75f4ce8800000000000000000000000000000000000000000000000000000000815260040160405180910390fd5b60066009811115612d3d57612d3c614118565b5b8160040160009054906101000a900460ff166009811115612d6157612d60614118565b5b14612d98576040517f4f66018b00000000000000000000000000000000000000000000000000000000815260040160405180910390fd5b612e0d8160000160009054906101000a900473ffffffffffffffffffffffffffffffffffffffff168260080154600460009054906101000a900473ffffffffffffffffffffffffffffffffffffffff1673ffffffffffffffffffffffffffffffffffffffff166138ca9092919063ffffffff16565b60088160040160006101000a81548160ff02191690836009811115612e3557612e34614118565b5b0217905550827fb00f0ef2c9545d8dfded4cd4bee55b3761b8d5d9d6a8df164995635bfed3c07a42600085604051612e6f93929190614fd7565b60405180910390a250612e806138c0565b5050565b612e8c613ede565b600960008373ffffffffffffffffffffffffffffffffffffffff1673ffffffffffffffffffffffffffffffffffffffff168152602001908152602001600020604051806080016040529081600082018054612ee690614b6d565b80601f0160208091040260200160405190810160405280929190818152602001828054612f1290614b6d565b8015612f5f5780601f10612f3457610100808354040283529160200191612f5f565b820191906000526020600020905b815481529060010190602001808311612f4257829003601f168201915b505050505081526020016001820160009054906101000a900473ffffffffffffffffffffffffffffffffffffffff1673ffffffffffffffffffffffffffffffffffffffff1673ffffffffffffffffffffffffffffffffffffffff168152602001600282015481526020016003820154815250509050919050565b612fe1613871565b600a81604051612ff19190614bda565b908152602001604051809103902060009054906101000a900460ff1615613044576040517fe3cd3ad400000000000000000000000000000000000000000000000000000000815260040160405180910390fd5b6001600a826040516130569190614bda565b908152602001604051809103902060006101000a81548160ff021916908315150217905550600060405180608001604052808381526020013373ffffffffffffffffffffffffffffffffffffffff16815260200142815260200160008152509050600b339080600181540180825580915050600190039060005260206000200160009091909190916101000a81548173ffffffffffffffffffffffffffffffffffffffff021916908373ffffffffffffffffffffffffffffffffffffffff16021790555080600960003373ffffffffffffffffffffffffffffffffffffffff1673ffffffffffffffffffffffffffffffffffffffff168152602001908152602001600020600082015181600001908161316f9190614e0a565b5060208201518160010160006101000a81548173ffffffffffffffffffffffffffffffffffffffff021916908373ffffffffffffffffffffffffffffffffffffffff16021790555060408201518160020155606082015181600301559050503373ffffffffffffffffffffffffffffffffffffffff167f1095d5bb47535aabc9770acbcd3f5f182a26902a02d9eaa8b8c1450e71412078836040516132149190614fb5565b60405180910390a2506132256138c0565b50565b600460009054906101000a900473ffffffffffffffffffffffffffffffffffffffff1681565b6132566139e7565b600073ffffffffffffffffffffffffffffffffffffffff168173ffffffffffffffffffffffffffffffffffffffff16036132c5576040517f08c379a00000000000000000000000000000000000000000000000000000000081526004016132bc90615087565b60405180910390fd5b6132ce81613a65565b50565b6132d9613871565b6000600c60008581526020019081526020016000209050600073ffffffffffffffffffffffffffffffffffffffff168160000160009054906101000a900473ffffffffffffffffffffffffffffffffffffffff1673ffffffffffffffffffffffffffffffffffffffff160361337a576040517f38fde52b00000000000000000000000000000000000000000000000000000000815260040160405180910390fd5b6000600981111561338e5761338d614118565b5b8160040160009054906101000a900460ff1660098111156133b2576133b1614118565b5b146133e9576040517f84ab70bb00000000000000000000000000000000000000000000000000000000815260040160405180910390fd5b8060010154831015613427576040517fba74cad300000000000000000000000000000000000000000000000000000000815260040160405180910390fd5b8060020154821115613465576040517ff8f0715a00000000000000000000000000000000000000000000000000000000815260040160405180910390fd5b60006134716003613950565b905060006040518061010001604052808781526020018381526020013373ffffffffffffffffffffffffffffffffffffffff16815260200186815260200185815260200160001515815260200142815260200160008152509050601060008781526020019081526020016000208290806001815401808255809150506001900390600052602060002001600090919091909150558060116000848152602001908152602001600020600082015181600001556020820151816001015560408201518160020160006101000a81548173ffffffffffffffffffffffffffffffffffffffff021916908373ffffffffffffffffffffffffffffffffffffffff160217905550606082015181600301556080820151816004015560a08201518160050160006101000a81548160ff02191690831515021790555060c0820151816006015560e082015181600701559050503373ffffffffffffffffffffffffffffffffffffffff16867f35a5422db59a8240104ba9a73e22ab1f401b3e478d570724a447b81f3c916d8e87876040516136089291906150a7565b60405180910390a350505061361b6138c0565b505050565b600d602052816000526040600020818154811061363c57600080fd5b90600052602060002001600091509150505481565b613659613871565b6000600c6000848152602001908152602001600020905060001515600560003373ffffffffffffffffffffffffffffffffffffffff1673ffffffffffffffffffffffffffffffffffffffff16815260200190815260200160002060009054906101000a900460ff161515036136fa576040517f75f4ce8800000000000000000000000000000000000000000000000000000000815260040160405180910390fd5b6006600981111561370e5761370d614118565b5b8160040160009054906101000a900460ff16600981111561373257613731614118565b5b14613769576040517f4f66018b00000000000000000000000000000000000000000000000000000000815260040160405180910390fd5b6000601160008360060154815260200190815260200160002090506137f98160020160009054906101000a900473ffffffffffffffffffffffffffffffffffffffff168360080154600460009054906101000a900473ffffffffffffffffffffffffffffffffffffffff1673ffffffffffffffffffffffffffffffffffffffff166138ca9092919063ffffffff16565b60088260040160006101000a81548160ff0219169083600981111561382157613820614118565b5b0217905550837fb00f0ef2c9545d8dfded4cd4bee55b3761b8d5d9d6a8df164995635bfed3c07a4260018660405161385b93929190614fd7565b60405180910390a2505061386d6138c0565b5050565b6002600054036138b6576040517f08c379a00000000000000000000000000000000000000000000000000000000081526004016138ad9061511c565b60405180910390fd5b6002600081905550565b6001600081905550565b61394b8363a9059cbb60e01b84846040516024016138e992919061513c565b604051602081830303815290604052907bffffffffffffffffffffffffffffffffffffffffffffffffffffffff19166020820180517bffffffffffffffffffffffffffffffffffffffffffffffffffffffff8381831617835250505050613b2b565b505050565b600081600001549050919050565b6139e1846323b872dd60e01b85858560405160240161397f93929190615165565b604051602081830303815290604052907bffffffffffffffffffffffffffffffffffffffffffffffffffffffff19166020820180517bffffffffffffffffffffffffffffffffffffffffffffffffffffffff8381831617835250505050613b2b565b50505050565b6139ef613bf3565b73ffffffffffffffffffffffffffffffffffffffff16613a0d612a07565b73ffffffffffffffffffffffffffffffffffffffff1614613a63576040517f08c379a0000000000000000000000000000000000000000000000000000000008152600401613a5a906151e8565b60405180910390fd5b565b6000600160009054906101000a900473ffffffffffffffffffffffffffffffffffffffff16905081600160006101000a81548173ffffffffffffffffffffffffffffffffffffffff021916908373ffffffffffffffffffffffffffffffffffffffff1602179055508173ffffffffffffffffffffffffffffffffffffffff168173ffffffffffffffffffffffffffffffffffffffff167f8be0079c531659141344cd1fd0a4f28419497f9722a3daafe3b4186f6b6457e060405160405180910390a35050565b6000613b8d826040518060400160405280602081526020017f5361666545524332303a206c6f772d6c6576656c2063616c6c206661696c65648152508573ffffffffffffffffffffffffffffffffffffffff16613bfb9092919063ffffffff16565b9050600081511480613baf575080806020019051810190613bae919061521d565b5b613bee576040517f08c379a0000000000000000000000000000000000000000000000000000000008152600401613be5906152bc565b60405180910390fd5b505050565b600033905090565b6060613c0a8484600085613c13565b90509392505050565b606082471015613c58576040517f08c379a0000000000000000000000000000000000000000000000000000000008152600401613c4f9061534e565b60405180910390fd5b6000808673ffffffffffffffffffffffffffffffffffffffff168587604051613c8191906153b5565b60006040518083038185875af1925050503d8060008114613cbe576040519150601f19603f3d011682016040523d82523d6000602084013e613cc3565b606091505b5091509150613cd487838387613ce0565b92505050949350505050565b60608315613d42576000835103613d3a57613cfa85613d55565b613d39576040517f08c379a0000000000000000000000000000000000000000000000000000000008152600401613d3090615418565b60405180910390fd5b5b829050613d4d565b613d4c8383613d78565b5b949350505050565b6000808273ffffffffffffffffffffffffffffffffffffffff163b119050919050565b600082511115613d8b5781518083602001fd5b806040517f08c379a0000000000000000000000000000000000000000000000000000000008152600401613dbf9190614fb5565b60405180910390fd5b6040518061010001604052806000815260200160008152602001600073ffffffffffffffffffffffffffffffffffffffff168152602001600081526020016000815260200160001515815260200160008152602001600081525090565b604051806080016040528060608152602001600073ffffffffffffffffffffffffffffffffffffffff16815260200160008152602001600081525090565b604051806101400160405280600073ffffffffffffffffffffffffffffffffffffffff16815260200160008152602001600081526020016060815260200160006009811115613eb557613eb4614118565b5b815260200160008152602001600081526020016000815260200160008152602001600081525090565b604051806080016040528060608152602001600073ffffffffffffffffffffffffffffffffffffffff16815260200160008152602001600081525090565b6000604051905090565b600080fd5b600080fd5b6000819050919050565b613f4381613f30565b8114613f4e57600080fd5b50565b600081359050613f6081613f3a565b92915050565b600060208284031215613f7c57613f7b613f26565b5b6000613f8a84828501613f51565b91505092915050565b600073ffffffffffffffffffffffffffffffffffffffff82169050919050565b6000613fbe82613f93565b9050919050565b613fce81613fb3565b8114613fd957600080fd5b50565b600081359050613feb81613fc5565b92915050565b60006020828403121561400757614006613f26565b5b600061401584828501613fdc565b91505092915050565b600081519050919050565b600082825260208201905092915050565b60005b8381101561405857808201518184015260208101905061403d565b60008484015250505050565b6000601f19601f8301169050919050565b60006140808261401e565b61408a8185614029565b935061409a81856020860161403a565b6140a381614064565b840191505092915050565b6140b781613fb3565b82525050565b6140c681613f30565b82525050565b600060808201905081810360008301526140e68187614075565b90506140f560208301866140ae565b61410260408301856140bd565b61410f60608301846140bd565b95945050505050565b7f4e487b7100000000000000000000000000000000000000000000000000000000600052602160045260246000fd5b600a811061415857614157614118565b5b50565b600081905061416982614147565b919050565b60006141798261415b565b9050919050565b6141898161416e565b82525050565b6000610140820190506141a5600083018d6140ae565b6141b2602083018c6140bd565b6141bf604083018b6140bd565b81810360608301526141d1818a614075565b90506141e06080830189614180565b6141ed60a08301886140bd565b6141fa60c08301876140bd565b61420760e08301866140bd565b6142156101008301856140bd565b6142236101208301846140bd565b9b9a5050505050505050505050565b61423b81613f30565b82525050565b61424a81613fb3565b82525050565b60008115159050919050565b61426581614250565b82525050565b610100820160008201516142826000850182614232565b5060208201516142956020850182614232565b5060408201516142a86040850182614241565b5060608201516142bb6060850182614232565b5060808201516142ce6080850182614232565b5060a08201516142e160a085018261425c565b5060c08201516142f460c0850182614232565b5060e082015161430760e0850182614232565b50505050565b600061010082019050614323600083018461426b565b92915050565b600080fd5b600080fd5b7f4e487b7100000000000000000000000000000000000000000000000000000000600052604160045260246000fd5b61436b82614064565b810181811067ffffffffffffffff8211171561438a57614389614333565b5b80604052505050565b600061439d613f1c565b90506143a98282614362565b919050565b600067ffffffffffffffff8211156143c9576143c8614333565b5b6143d282614064565b9050602081019050919050565b82818337600083830152505050565b60006144016143fc846143ae565b614393565b90508281526020810184848401111561441d5761441c61432e565b5b6144288482856143df565b509392505050565b600082601f83011261444557614444614329565b5b81356144558482602086016143ee565b91505092915050565b60008060006060848603121561447757614476613f26565b5b600061448586828701613f51565b935050602061449686828701613f51565b925050604084013567ffffffffffffffff8111156144b7576144b6613f2b565b5b6144c386828701614430565b9150509250925092565b600081519050919050565b600082825260208201905092915050565b6000819050602082019050919050565b60006145058383614232565b60208301905092915050565b6000602082019050919050565b6000614529826144cd565b61453381856144d8565b935061453e836144e9565b8060005b8381101561456f57815161455688826144f9565b975061456183614511565b925050600181019050614542565b5085935050505092915050565b60006020820190508181036000830152614596818461451e565b905092915050565b6145a781614250565b81146145b257600080fd5b50565b6000813590506145c48161459e565b92915050565b600080604083850312156145e1576145e0613f26565b5b60006145ef85828601613fdc565b9250506020614600858286016145b5565b9150509250929050565b600060208201905061461f60008301846140ae565b92915050565b6000806040838503121561463c5761463b613f26565b5b600061464a85828601613f51565b925050602061465b85828601613f51565b9150509250929050565b600060208201905061467a60008301846140bd565b92915050565b6000806040838503121561469757614696613f26565b5b60006146a585828601613f51565b925050602083013567ffffffffffffffff8111156146c6576146c5613f2b565b5b6146d285828601614430565b9150509250929050565b600082825260208201905092915050565b60006146f88261401e565b61470281856146dc565b935061471281856020860161403a565b61471b81614064565b840191505092915050565b6000608083016000830151848203600086015261474382826146ed565b91505060208301516147586020860182614241565b50604083015161476b6040860182614232565b50606083015161477e6060860182614232565b508091505092915050565b600060208201905081810360008301526147a38184614726565b905092915050565b6147b481614250565b82525050565b60006020820190506147cf60008301846147ab565b92915050565b6147de8161416e565b82525050565b6000610140830160008301516147fd6000860182614241565b5060208301516148106020860182614232565b5060408301516148236040860182614232565b506060830151848203606086015261483b82826146ed565b915050608083015161485060808601826147d5565b5060a083015161486360a0860182614232565b5060c083015161487660c0860182614232565b5060e083015161488960e0860182614232565b5061010083015161489e610100860182614232565b506101208301516148b3610120860182614232565b508091505092915050565b600060208201905081810360008301526148d881846147e4565b905092915050565b600080600080608085870312156148fa576148f9613f26565b5b600061490887828801613f51565b945050602061491987828801613f51565b935050604061492a87828801613f51565b925050606085013567ffffffffffffffff81111561494b5761494a613f2b565b5b61495787828801614430565b91505092959194509250565b60006020828403121561497957614978613f26565b5b600082013567ffffffffffffffff81111561499757614996613f2b565b5b6149a384828501614430565b91505092915050565b600060808301600083015184820360008601526149c982826146ed565b91505060208301516149de6020860182614241565b5060408301516149f16040860182614232565b506060830151614a046060860182614232565b508091505092915050565b60006020820190508181036000830152614a2981846149ac565b905092915050565b6000819050919050565b6000614a56614a51614a4c84613f93565b614a31565b613f93565b9050919050565b6000614a6882614a3b565b9050919050565b6000614a7a82614a5d565b9050919050565b614a8a81614a6f565b82525050565b6000602082019050614aa56000830184614a81565b92915050565b600080600060608486031215614ac457614ac3613f26565b5b6000614ad286828701613f51565b9350506020614ae386828701613f51565b9250506040614af486828701613f51565b9150509250925092565b60008060408385031215614b1557614b14613f26565b5b6000614b2385828601613fdc565b9250506020614b3485828601613f51565b9150509250929050565b7f4e487b7100000000000000000000000000000000000000000000000000000000600052602260045260246000fd5b60006002820490506001821680614b8557607f821691505b602082108103614b9857614b97614b3e565b5b50919050565b600081905092915050565b6000614bb48261401e565b614bbe8185614b9e565b9350614bce81856020860161403a565b80840191505092915050565b6000614be68284614ba9565b915081905092915050565b7f4e487b7100000000000000000000000000000000000000000000000000000000600052601160045260246000fd5b6000614c2b82613f30565b91507fffffffffffffffffffffffffffffffffffffffffffffffffffffffffffffffff8203614c5d57614c5c614bf1565b5b600182019050919050565b60008190508160005260206000209050919050565b60006020601f8301049050919050565b600082821b905092915050565b600060088302614cca7fffffffffffffffffffffffffffffffffffffffffffffffffffffffffffffffff82614c8d565b614cd48683614c8d565b95508019841693508086168417925050509392505050565b6000614d07614d02614cfd84613f30565b614a31565b613f30565b9050919050565b6000819050919050565b614d2183614cec565b614d35614d2d82614d0e565b848454614c9a565b825550505050565b600090565b614d4a614d3d565b614d55818484614d18565b505050565b5b81811015614d7957614d6e600082614d42565b600181019050614d5b565b5050565b601f821115614dbe57614d8f81614c68565b614d9884614c7d565b81016020851015614da7578190505b614dbb614db385614c7d565b830182614d5a565b50505b505050565b600082821c905092915050565b6000614de160001984600802614dc3565b1980831691505092915050565b6000614dfa8383614dd0565b9150826002028217905092915050565b614e138261401e565b67ffffffffffffffff811115614e2c57614e2b614333565b5b614e368254614b6d565b614e41828285614d7d565b600060209050601f831160018114614e745760008415614e62578287015190505b614e6c8582614dee565b865550614ed4565b601f198416614e8286614c68565b60005b82811015614eaa57848901518255600182019150602085019450602081019050614e85565b86831015614ec75784890151614ec3601f891682614dd0565b8355505b6001600288020188555050505b505050505050565b6000606082019050614ef160008301866140bd565b614efe60208301856140bd565b8181036040830152614f108184614075565b9050949350505050565b6000606082019050614f2f60008301866140bd565b614f3c60208301856140bd565b614f4960408301846140bd565b949350505050565b6000604082019050614f6660008301856140bd565b8181036020830152614f788184614075565b90509392505050565b6000614f8c82613f30565b9150614f9783613f30565b9250828203905081811115614faf57614fae614bf1565b5b92915050565b60006020820190508181036000830152614fcf8184614075565b905092915050565b6000606082019050614fec60008301866140bd565b614ff960208301856147ab565b818103604083015261500b8184614075565b9050949350505050565b7f4f776e61626c653a206e6577206f776e657220697320746865207a65726f206160008201527f6464726573730000000000000000000000000000000000000000000000000000602082015250565b6000615071602683614029565b915061507c82615015565b604082019050919050565b600060208201905081810360008301526150a081615064565b9050919050565b60006040820190506150bc60008301856140bd565b6150c960208301846140bd565b9392505050565b7f5265656e7472616e637947756172643a207265656e7472616e742063616c6c00600082015250565b6000615106601f83614029565b9150615111826150d0565b602082019050919050565b60006020820190508181036000830152615135816150f9565b9050919050565b600060408201905061515160008301856140ae565b61515e60208301846140bd565b9392505050565b600060608201905061517a60008301866140ae565b61518760208301856140ae565b61519460408301846140bd565b949350505050565b7f4f776e61626c653a2063616c6c6572206973206e6f7420746865206f776e6572600082015250565b60006151d2602083614029565b91506151dd8261519c565b602082019050919050565b60006020820190508181036000830152615201816151c5565b9050919050565b6000815190506152178161459e565b92915050565b60006020828403121561523357615232613f26565b5b600061524184828501615208565b91505092915050565b7f5361666545524332303a204552433230206f7065726174696f6e20646964206e60008201527f6f74207375636365656400000000000000000000000000000000000000000000602082015250565b60006152a6602a83614029565b91506152b18261524a565b604082019050919050565b600060208201905081810360008301526152d581615299565b9050919050565b7f416464726573733a20696e73756666696369656e742062616c616e636520666f60008201527f722063616c6c0000000000000000000000000000000000000000000000000000602082015250565b6000615338602683614029565b9150615343826152dc565b604082019050919050565b600060208201905081810360008301526153678161532b565b9050919050565b600081519050919050565b600081905092915050565b600061538f8261536e565b6153998185615379565b93506153a981856020860161403a565b80840191505092915050565b60006153c18284615384565b915081905092915050565b7f416464726573733a2063616c6c20746f206e6f6e2d636f6e7472616374000000600082015250565b6000615402601d83614029565b915061540d826153cc565b602082019050919050565b60006020820190508181036000830152615431816153f5565b905091905056fea26469706673582212205c1d285dc49ed6698ff29b44583babe0bb8029c16c44071193a1a73622bd329764736f6c63430008120033","opcodes":"PUSH1 0x80 PUSH1 0x40 MSTORE CALLVALUE DUP1 ISZERO PUSH3 0x11 JUMPI PUSH1 0x0 DUP1 REVERT JUMPDEST POP PUSH1 0x40 MLOAD PUSH3 0x568F CODESIZE SUB DUP1 PUSH3 0x568F DUP4 CODECOPY DUP2 DUP2 ADD PUSH1 0x40 MSTORE DUP2 ADD SWAP1 PUSH3 0x37 SWAP2 SWAP1 PUSH3 0x1DF JUMP JUMPDEST PUSH1 0x1 PUSH1 0x0 DUP2 SWAP1 SSTORE POP PUSH3 0x5F PUSH3 0x53 PUSH3 0xA7 PUSH1 0x20 SHL PUSH1 0x20 SHR JUMP JUMPDEST PUSH3 0xAF PUSH1 0x20 SHL PUSH1 0x20 SHR JUMP JUMPDEST DUP1 PUSH1 0x4 PUSH1 0x0 PUSH2 0x100 EXP DUP2 SLOAD DUP2 PUSH20 0xFFFFFFFFFFFFFFFFFFFFFFFFFFFFFFFFFFFFFFFF MUL NOT AND SWAP1 DUP4 PUSH20 0xFFFFFFFFFFFFFFFFFFFFFFFFFFFFFFFFFFFFFFFF AND MUL OR SWAP1 SSTORE POP POP PUSH3 0x211 JUMP JUMPDEST PUSH1 0x0 CALLER SWAP1 POP SWAP1 JUMP JUMPDEST PUSH1 0x0 PUSH1 0x1 PUSH1 0x0 SWAP1 SLOAD SWAP1 PUSH2 0x100 EXP SWAP1 DIV PUSH20 0xFFFFFFFFFFFFFFFFFFFFFFFFFFFFFFFFFFFFFFFF AND SWAP1 POP DUP2 PUSH1 0x1 PUSH1 0x0 PUSH2 0x100 EXP DUP2 SLOAD DUP2 PUSH20 0xFFFFFFFFFFFFFFFFFFFFFFFFFFFFFFFFFFFFFFFF MUL NOT AND SWAP1 DUP4 PUSH20 0xFFFFFFFFFFFFFFFFFFFFFFFFFFFFFFFFFFFFFFFF AND MUL OR SWAP1 SSTORE POP DUP2 PUSH20 0xFFFFFFFFFFFFFFFFFFFFFFFFFFFFFFFFFFFFFFFF AND DUP2 PUSH20 0xFFFFFFFFFFFFFFFFFFFFFFFFFFFFFFFFFFFFFFFF AND PUSH32 0x8BE0079C531659141344CD1FD0A4F28419497F9722A3DAAFE3B4186F6B6457E0 PUSH1 0x40 MLOAD PUSH1 0x40 MLOAD DUP1 SWAP2 SUB SWAP1 LOG3 POP POP JUMP JUMPDEST PUSH1 0x0 DUP1 REVERT JUMPDEST PUSH1 0x0 PUSH20 0xFFFFFFFFFFFFFFFFFFFFFFFFFFFFFFFFFFFFFFFF DUP3 AND SWAP1 POP SWAP2 SWAP1 POP JUMP JUMPDEST PUSH1 0x0 PUSH3 0x1A7 DUP3 PUSH3 0x17A JUMP JUMPDEST SWAP1 POP SWAP2 SWAP1 POP JUMP JUMPDEST PUSH3 0x1B9 DUP2 PUSH3 0x19A JUMP JUMPDEST DUP2 EQ PUSH3 0x1C5 JUMPI PUSH1 0x0 DUP1 REVERT JUMPDEST POP JUMP JUMPDEST PUSH1 0x0 DUP2 MLOAD SWAP1 POP PUSH3 0x1D9 DUP2 PUSH3 0x1AE JUMP JUMPDEST SWAP3 SWAP2 POP POP JUMP JUMPDEST PUSH1 0x0 PUSH1 0x20 DUP3 DUP5 SUB SLT ISZERO PUSH3 0x1F8 JUMPI PUSH3 0x1F7 PUSH3 0x175 JUMP JUMPDEST JUMPDEST PUSH1 0x0 PUSH3 0x208 DUP5 DUP3 DUP6 ADD PUSH3 0x1C8 JUMP JUMPDEST SWAP2 POP POP SWAP3 SWAP2 POP POP JUMP JUMPDEST PUSH2 0x546E DUP1 PUSH3 0x221 PUSH1 0x0 CODECOPY PUSH1 0x0 RETURN INVALID PUSH1 0x80 PUSH1 0x40 MSTORE PUSH1 0x4 CALLDATASIZE LT PUSH2 0x1F2 JUMPI PUSH1 0x0 CALLDATALOAD PUSH1 0xE0 SHR DUP1 PUSH4 0x5F19935C GT PUSH2 0x10D JUMPI DUP1 PUSH4 0x98116E19 GT PUSH2 0xA0 JUMPI DUP1 PUSH4 0xC89039C5 GT PUSH2 0x6F JUMPI DUP1 PUSH4 0xC89039C5 EQ PUSH2 0x7DA JUMPI DUP1 PUSH4 0xF2FDE38B EQ PUSH2 0x805 JUMPI DUP1 PUSH4 0xF3472B3D EQ PUSH2 0x82E JUMPI DUP1 PUSH4 0xF4820868 EQ PUSH2 0x857 JUMPI DUP1 PUSH4 0xF7E28F8E EQ PUSH2 0x894 JUMPI PUSH2 0x229 JUMP JUMPDEST DUP1 PUSH4 0x98116E19 EQ PUSH2 0x722 JUMPI DUP1 PUSH4 0x9BD6F1FE EQ PUSH2 0x74B JUMPI DUP1 PUSH4 0xA17FABB6 EQ PUSH2 0x774 JUMPI DUP1 PUSH4 0xB98389B1 EQ PUSH2 0x7B1 JUMPI PUSH2 0x229 JUMP JUMPDEST DUP1 PUSH4 0x758DDE96 GT PUSH2 0xDC JUMPI DUP1 PUSH4 0x758DDE96 EQ PUSH2 0x665 JUMPI DUP1 PUSH4 0x87F2B7DA EQ PUSH2 0x6A5 JUMPI DUP1 PUSH4 0x892E21BF EQ PUSH2 0x6CE JUMPI DUP1 PUSH4 0x8DA5CB5B EQ PUSH2 0x6F7 JUMPI PUSH2 0x229 JUMP JUMPDEST DUP1 PUSH4 0x5F19935C EQ PUSH2 0x5AB JUMPI DUP1 PUSH4 0x60C5CC3A EQ PUSH2 0x5E8 JUMPI DUP1 PUSH4 0x6C4D5743 EQ PUSH2 0x611 JUMPI DUP1 PUSH4 0x715018A6 EQ PUSH2 0x64E JUMPI PUSH2 0x229 JUMP JUMPDEST DUP1 PUSH4 0x2BB003C3 GT PUSH2 0x185 JUMPI DUP1 PUSH4 0x31537E56 GT PUSH2 0x154 JUMPI DUP1 PUSH4 0x31537E56 EQ PUSH2 0x4CB JUMPI DUP1 PUSH4 0x36F691C4 EQ PUSH2 0x508 JUMPI DUP1 PUSH4 0x44BAFB24 EQ PUSH2 0x531 JUMPI DUP1 PUSH4 0x51D0EA37 EQ PUSH2 0x56E JUMPI PUSH2 0x229 JUMP JUMPDEST DUP1 PUSH4 0x2BB003C3 EQ PUSH2 0x3FF JUMPI DUP1 PUSH4 0x2BC0B076 EQ PUSH2 0x43C JUMPI DUP1 PUSH4 0x2F2A96D3 EQ PUSH2 0x465 JUMPI DUP1 PUSH4 0x30790B65 EQ PUSH2 0x48E JUMPI PUSH2 0x229 JUMP JUMPDEST DUP1 PUSH4 0x1B7D41EB GT PUSH2 0x1C1 JUMPI DUP1 PUSH4 0x1B7D41EB EQ PUSH2 0x347 JUMPI DUP1 PUSH4 0x20F7A505 EQ PUSH2 0x370 JUMPI DUP1 PUSH4 0x2863DB7B EQ PUSH2 0x399 JUMPI DUP1 PUSH4 0x2B1FD58A EQ PUSH2 0x3D6 JUMPI PUSH2 0x229 JUMP JUMPDEST DUP1 PUSH4 0x3A250F9 EQ PUSH2 0x25B JUMPI DUP1 PUSH4 0xA6F0503 EQ PUSH2 0x284 JUMPI DUP1 PUSH4 0x107046BD EQ PUSH2 0x2C4 JUMPI DUP1 PUSH4 0x1596A5D5 EQ PUSH2 0x30A JUMPI PUSH2 0x229 JUMP JUMPDEST CALLDATASIZE PUSH2 0x229 JUMPI PUSH1 0x40 MLOAD PUSH32 0x3733483400000000000000000000000000000000000000000000000000000000 DUP2 MSTORE PUSH1 0x4 ADD PUSH1 0x40 MLOAD DUP1 SWAP2 SUB SWAP1 REVERT JUMPDEST PUSH1 0x40 MLOAD PUSH32 0x3733483400000000000000000000000000000000000000000000000000000000 DUP2 MSTORE PUSH1 0x4 ADD PUSH1 0x40 MLOAD DUP1 SWAP2 SUB SWAP1 REVERT JUMPDEST CALLVALUE DUP1 ISZERO PUSH2 0x267 JUMPI PUSH1 0x0 DUP1 REVERT JUMPDEST POP PUSH2 0x282 PUSH1 0x4 DUP1 CALLDATASIZE SUB DUP2 ADD SWAP1 PUSH2 0x27D SWAP2 SWAP1 PUSH2 0x3F66 JUMP JUMPDEST PUSH2 0x8BD JUMP JUMPDEST STOP JUMPDEST CALLVALUE DUP1 ISZERO PUSH2 0x290 JUMPI PUSH1 0x0 DUP1 REVERT JUMPDEST POP PUSH2 0x2AB PUSH1 0x4 DUP1 CALLDATASIZE SUB DUP2 ADD SWAP1 PUSH2 0x2A6 SWAP2 SWAP1 PUSH2 0x3FF1 JUMP JUMPDEST PUSH2 0xB2F JUMP JUMPDEST PUSH1 0x40 MLOAD PUSH2 0x2BB SWAP5 SWAP4 SWAP3 SWAP2 SWAP1 PUSH2 0x40CC JUMP JUMPDEST PUSH1 0x40 MLOAD DUP1 SWAP2 SUB SWAP1 RETURN JUMPDEST CALLVALUE DUP1 ISZERO PUSH2 0x2D0 JUMPI PUSH1 0x0 DUP1 REVERT JUMPDEST POP PUSH2 0x2EB PUSH1 0x4 DUP1 CALLDATASIZE SUB DUP2 ADD SWAP1 PUSH2 0x2E6 SWAP2 SWAP1 PUSH2 0x3F66 JUMP JUMPDEST PUSH2 0xC07 JUMP JUMPDEST PUSH1 0x40 MLOAD PUSH2 0x301 SWAP11 SWAP10 SWAP9 SWAP8 SWAP7 SWAP6 SWAP5 SWAP4 SWAP3 SWAP2 SWAP1 PUSH2 0x418F JUMP JUMPDEST PUSH1 0x40 MLOAD DUP1 SWAP2 SUB SWAP1 RETURN JUMPDEST CALLVALUE DUP1 ISZERO PUSH2 0x316 JUMPI PUSH1 0x0 DUP1 REVERT JUMPDEST POP PUSH2 0x331 PUSH1 0x4 DUP1 CALLDATASIZE SUB DUP2 ADD SWAP1 PUSH2 0x32C SWAP2 SWAP1 PUSH2 0x3F66 JUMP JUMPDEST PUSH2 0xD10 JUMP JUMPDEST PUSH1 0x40 MLOAD PUSH2 0x33E SWAP2 SWAP1 PUSH2 0x430D JUMP JUMPDEST PUSH1 0x40 MLOAD DUP1 SWAP2 SUB SWAP1 RETURN JUMPDEST CALLVALUE DUP1 ISZERO PUSH2 0x353 JUMPI PUSH1 0x0 DUP1 REVERT JUMPDEST POP PUSH2 0x36E PUSH1 0x4 DUP1 CALLDATASIZE SUB DUP2 ADD SWAP1 PUSH2 0x369 SWAP2 SWAP1 PUSH2 0x3F66 JUMP JUMPDEST PUSH2 0xDEB JUMP JUMPDEST STOP JUMPDEST CALLVALUE DUP1 ISZERO PUSH2 0x37C JUMPI PUSH1 0x0 DUP1 REVERT JUMPDEST POP PUSH2 0x397 PUSH1 0x4 DUP1 CALLDATASIZE SUB DUP2 ADD SWAP1 PUSH2 0x392 SWAP2 SWAP1 PUSH2 0x445E JUMP JUMPDEST PUSH2 0x1004 JUMP JUMPDEST STOP JUMPDEST CALLVALUE DUP1 ISZERO PUSH2 0x3A5 JUMPI PUSH1 0x0 DUP1 REVERT JUMPDEST POP PUSH2 0x3C0 PUSH1 0x4 DUP1 CALLDATASIZE SUB DUP2 ADD SWAP1 PUSH2 0x3BB SWAP2 SWAP1 PUSH2 0x3F66 JUMP JUMPDEST PUSH2 0x13BD JUMP JUMPDEST PUSH1 0x40 MLOAD PUSH2 0x3CD SWAP2 SWAP1 PUSH2 0x430D JUMP JUMPDEST PUSH1 0x40 MLOAD DUP1 SWAP2 SUB SWAP1 RETURN JUMPDEST CALLVALUE DUP1 ISZERO PUSH2 0x3E2 JUMPI PUSH1 0x0 DUP1 REVERT JUMPDEST POP PUSH2 0x3FD PUSH1 0x4 DUP1 CALLDATASIZE SUB DUP2 ADD SWAP1 PUSH2 0x3F8 SWAP2 SWAP1 PUSH2 0x3F66 JUMP JUMPDEST PUSH2 0x14AE JUMP JUMPDEST STOP JUMPDEST CALLVALUE DUP1 ISZERO PUSH2 0x40B JUMPI PUSH1 0x0 DUP1 REVERT JUMPDEST POP PUSH2 0x426 PUSH1 0x4 DUP1 CALLDATASIZE SUB DUP2 ADD SWAP1 PUSH2 0x421 SWAP2 SWAP1 PUSH2 0x3F66 JUMP JUMPDEST PUSH2 0x1857 JUMP JUMPDEST PUSH1 0x40 MLOAD PUSH2 0x433 SWAP2 SWAP1 PUSH2 0x457C JUMP JUMPDEST PUSH1 0x40 MLOAD DUP1 SWAP2 SUB SWAP1 RETURN JUMPDEST CALLVALUE DUP1 ISZERO PUSH2 0x448 JUMPI PUSH1 0x0 DUP1 REVERT JUMPDEST POP PUSH2 0x463 PUSH1 0x4 DUP1 CALLDATASIZE SUB DUP2 ADD SWAP1 PUSH2 0x45E SWAP2 SWAP1 PUSH2 0x45CA JUMP JUMPDEST PUSH2 0x18C2 JUMP JUMPDEST STOP JUMPDEST CALLVALUE DUP1 ISZERO PUSH2 0x471 JUMPI PUSH1 0x0 DUP1 REVERT JUMPDEST POP PUSH2 0x48C PUSH1 0x4 DUP1 CALLDATASIZE SUB DUP2 ADD SWAP1 PUSH2 0x487 SWAP2 SWAP1 PUSH2 0x3F66 JUMP JUMPDEST PUSH2 0x1973 JUMP JUMPDEST STOP JUMPDEST CALLVALUE DUP1 ISZERO PUSH2 0x49A JUMPI PUSH1 0x0 DUP1 REVERT JUMPDEST POP PUSH2 0x4B5 PUSH1 0x4 DUP1 CALLDATASIZE SUB DUP2 ADD SWAP1 PUSH2 0x4B0 SWAP2 SWAP1 PUSH2 0x3F66 JUMP JUMPDEST PUSH2 0x1BA1 JUMP JUMPDEST PUSH1 0x40 MLOAD PUSH2 0x4C2 SWAP2 SWAP1 PUSH2 0x460A JUMP JUMPDEST PUSH1 0x40 MLOAD DUP1 SWAP2 SUB SWAP1 RETURN JUMPDEST CALLVALUE DUP1 ISZERO PUSH2 0x4D7 JUMPI PUSH1 0x0 DUP1 REVERT JUMPDEST POP PUSH2 0x4F2 PUSH1 0x4 DUP1 CALLDATASIZE SUB DUP2 ADD SWAP1 PUSH2 0x4ED SWAP2 SWAP1 PUSH2 0x4625 JUMP JUMPDEST PUSH2 0x1BE0 JUMP JUMPDEST PUSH1 0x40 MLOAD PUSH2 0x4FF SWAP2 SWAP1 PUSH2 0x4665 JUMP JUMPDEST PUSH1 0x40 MLOAD DUP1 SWAP2 SUB SWAP1 RETURN JUMPDEST CALLVALUE DUP1 ISZERO PUSH2 0x514 JUMPI PUSH1 0x0 DUP1 REVERT JUMPDEST POP PUSH2 0x52F PUSH1 0x4 DUP1 CALLDATASIZE SUB DUP2 ADD SWAP1 PUSH2 0x52A SWAP2 SWAP1 PUSH2 0x4680 JUMP JUMPDEST PUSH2 0x1C11 JUMP JUMPDEST STOP JUMPDEST CALLVALUE DUP1 ISZERO PUSH2 0x53D JUMPI PUSH1 0x0 DUP1 REVERT JUMPDEST POP PUSH2 0x558 PUSH1 0x4 DUP1 CALLDATASIZE SUB DUP2 ADD SWAP1 PUSH2 0x553 SWAP2 SWAP1 PUSH2 0x3FF1 JUMP JUMPDEST PUSH2 0x1DB8 JUMP JUMPDEST PUSH1 0x40 MLOAD PUSH2 0x565 SWAP2 SWAP1 PUSH2 0x4789 JUMP JUMPDEST PUSH1 0x40 MLOAD DUP1 SWAP2 SUB SWAP1 RETURN JUMPDEST CALLVALUE DUP1 ISZERO PUSH2 0x57A JUMPI PUSH1 0x0 DUP1 REVERT JUMPDEST POP PUSH2 0x595 PUSH1 0x4 DUP1 CALLDATASIZE SUB DUP2 ADD SWAP1 PUSH2 0x590 SWAP2 SWAP1 PUSH2 0x3FF1 JUMP JUMPDEST PUSH2 0x1F0D JUMP JUMPDEST PUSH1 0x40 MLOAD PUSH2 0x5A2 SWAP2 SWAP1 PUSH2 0x47BA JUMP JUMPDEST PUSH1 0x40 MLOAD DUP1 SWAP2 SUB SWAP1 RETURN JUMPDEST CALLVALUE DUP1 ISZERO PUSH2 0x5B7 JUMPI PUSH1 0x0 DUP1 REVERT JUMPDEST POP PUSH2 0x5D2 PUSH1 0x4 DUP1 CALLDATASIZE SUB DUP2 ADD SWAP1 PUSH2 0x5CD SWAP2 SWAP1 PUSH2 0x3F66 JUMP JUMPDEST PUSH2 0x1F2D JUMP JUMPDEST PUSH1 0x40 MLOAD PUSH2 0x5DF SWAP2 SWAP1 PUSH2 0x48BE JUMP JUMPDEST PUSH1 0x40 MLOAD DUP1 SWAP2 SUB SWAP1 RETURN JUMPDEST CALLVALUE DUP1 ISZERO PUSH2 0x5F4 JUMPI PUSH1 0x0 DUP1 REVERT JUMPDEST POP PUSH2 0x60F PUSH1 0x4 DUP1 CALLDATASIZE SUB DUP2 ADD SWAP1 PUSH2 0x60A SWAP2 SWAP1 PUSH2 0x3F66 JUMP JUMPDEST PUSH2 0x20C4 JUMP JUMPDEST STOP JUMPDEST CALLVALUE DUP1 ISZERO PUSH2 0x61D JUMPI PUSH1 0x0 DUP1 REVERT JUMPDEST POP PUSH2 0x638 PUSH1 0x4 DUP1 CALLDATASIZE SUB DUP2 ADD SWAP1 PUSH2 0x633 SWAP2 SWAP1 PUSH2 0x3FF1 JUMP JUMPDEST PUSH2 0x240A JUMP JUMPDEST PUSH1 0x40 MLOAD PUSH2 0x645 SWAP2 SWAP1 PUSH2 0x457C JUMP JUMPDEST PUSH1 0x40 MLOAD DUP1 SWAP2 SUB SWAP1 RETURN JUMPDEST CALLVALUE DUP1 ISZERO PUSH2 0x65A JUMPI PUSH1 0x0 DUP1 REVERT JUMPDEST POP PUSH2 0x663 PUSH2 0x24A1 JUMP JUMPDEST STOP JUMPDEST CALLVALUE DUP1 ISZERO PUSH2 0x671 JUMPI PUSH1 0x0 DUP1 REVERT JUMPDEST POP PUSH2 0x68C PUSH1 0x4 DUP1 CALLDATASIZE SUB DUP2 ADD SWAP1 PUSH2 0x687 SWAP2 SWAP1 PUSH2 0x3FF1 JUMP JUMPDEST PUSH2 0x24B5 JUMP JUMPDEST PUSH1 0x40 MLOAD PUSH2 0x69C SWAP5 SWAP4 SWAP3 SWAP2 SWAP1 PUSH2 0x40CC JUMP JUMPDEST PUSH1 0x40 MLOAD DUP1 SWAP2 SUB SWAP1 RETURN JUMPDEST CALLVALUE DUP1 ISZERO PUSH2 0x6B1 JUMPI PUSH1 0x0 DUP1 REVERT JUMPDEST POP PUSH2 0x6CC PUSH1 0x4 DUP1 CALLDATASIZE SUB DUP2 ADD SWAP1 PUSH2 0x6C7 SWAP2 SWAP1 PUSH2 0x48E0 JUMP JUMPDEST PUSH2 0x258D JUMP JUMPDEST STOP JUMPDEST CALLVALUE DUP1 ISZERO PUSH2 0x6DA JUMPI PUSH1 0x0 DUP1 REVERT JUMPDEST POP PUSH2 0x6F5 PUSH1 0x4 DUP1 CALLDATASIZE SUB DUP2 ADD SWAP1 PUSH2 0x6F0 SWAP2 SWAP1 PUSH2 0x4680 JUMP JUMPDEST PUSH2 0x287C JUMP JUMPDEST STOP JUMPDEST CALLVALUE DUP1 ISZERO PUSH2 0x703 JUMPI PUSH1 0x0 DUP1 REVERT JUMPDEST POP PUSH2 0x70C PUSH2 0x2A07 JUMP JUMPDEST PUSH1 0x40 MLOAD PUSH2 0x719 SWAP2 SWAP1 PUSH2 0x460A JUMP JUMPDEST PUSH1 0x40 MLOAD DUP1 SWAP2 SUB SWAP1 RETURN JUMPDEST CALLVALUE DUP1 ISZERO PUSH2 0x72E JUMPI PUSH1 0x0 DUP1 REVERT JUMPDEST POP PUSH2 0x749 PUSH1 0x4 DUP1 CALLDATASIZE SUB DUP2 ADD SWAP1 PUSH2 0x744 SWAP2 SWAP1 PUSH2 0x4963 JUMP JUMPDEST PUSH2 0x2A31 JUMP JUMPDEST STOP JUMPDEST CALLVALUE DUP1 ISZERO PUSH2 0x757 JUMPI PUSH1 0x0 DUP1 REVERT JUMPDEST POP PUSH2 0x772 PUSH1 0x4 DUP1 CALLDATASIZE SUB DUP2 ADD SWAP1 PUSH2 0x76D SWAP2 SWAP1 PUSH2 0x4680 JUMP JUMPDEST PUSH2 0x2C80 JUMP JUMPDEST STOP JUMPDEST CALLVALUE DUP1 ISZERO PUSH2 0x780 JUMPI PUSH1 0x0 DUP1 REVERT JUMPDEST POP PUSH2 0x79B PUSH1 0x4 DUP1 CALLDATASIZE SUB DUP2 ADD SWAP1 PUSH2 0x796 SWAP2 SWAP1 PUSH2 0x3FF1 JUMP JUMPDEST PUSH2 0x2E84 JUMP JUMPDEST PUSH1 0x40 MLOAD PUSH2 0x7A8 SWAP2 SWAP1 PUSH2 0x4A0F JUMP JUMPDEST PUSH1 0x40 MLOAD DUP1 SWAP2 SUB SWAP1 RETURN JUMPDEST CALLVALUE DUP1 ISZERO PUSH2 0x7BD JUMPI PUSH1 0x0 DUP1 REVERT JUMPDEST POP PUSH2 0x7D8 PUSH1 0x4 DUP1 CALLDATASIZE SUB DUP2 ADD SWAP1 PUSH2 0x7D3 SWAP2 SWAP1 PUSH2 0x4963 JUMP JUMPDEST PUSH2 0x2FD9 JUMP JUMPDEST STOP JUMPDEST CALLVALUE DUP1 ISZERO PUSH2 0x7E6 JUMPI PUSH1 0x0 DUP1 REVERT JUMPDEST POP PUSH2 0x7EF PUSH2 0x3228 JUMP JUMPDEST PUSH1 0x40 MLOAD PUSH2 0x7FC SWAP2 SWAP1 PUSH2 0x4A90 JUMP JUMPDEST PUSH1 0x40 MLOAD DUP1 SWAP2 SUB SWAP1 RETURN JUMPDEST CALLVALUE DUP1 ISZERO PUSH2 0x811 JUMPI PUSH1 0x0 DUP1 REVERT JUMPDEST POP PUSH2 0x82C PUSH1 0x4 DUP1 CALLDATASIZE SUB DUP2 ADD SWAP1 PUSH2 0x827 SWAP2 SWAP1 PUSH2 0x3FF1 JUMP JUMPDEST PUSH2 0x324E JUMP JUMPDEST STOP JUMPDEST CALLVALUE DUP1 ISZERO PUSH2 0x83A JUMPI PUSH1 0x0 DUP1 REVERT JUMPDEST POP PUSH2 0x855 PUSH1 0x4 DUP1 CALLDATASIZE SUB DUP2 ADD SWAP1 PUSH2 0x850 SWAP2 SWAP1 PUSH2 0x4AAB JUMP JUMPDEST PUSH2 0x32D1 JUMP JUMPDEST STOP JUMPDEST CALLVALUE DUP1 ISZERO PUSH2 0x863 JUMPI PUSH1 0x0 DUP1 REVERT JUMPDEST POP PUSH2 0x87E PUSH1 0x4 DUP1 CALLDATASIZE SUB DUP2 ADD SWAP1 PUSH2 0x879 SWAP2 SWAP1 PUSH2 0x4AFE JUMP JUMPDEST PUSH2 0x3620 JUMP JUMPDEST PUSH1 0x40 MLOAD PUSH2 0x88B SWAP2 SWAP1 PUSH2 0x4665 JUMP JUMPDEST PUSH1 0x40 MLOAD DUP1 SWAP2 SUB SWAP1 RETURN JUMPDEST CALLVALUE DUP1 ISZERO PUSH2 0x8A0 JUMPI PUSH1 0x0 DUP1 REVERT JUMPDEST POP PUSH2 0x8BB PUSH1 0x4 DUP1 CALLDATASIZE SUB DUP2 ADD SWAP1 PUSH2 0x8B6 SWAP2 SWAP1 PUSH2 0x4680 JUMP JUMPDEST PUSH2 0x3651 JUMP JUMPDEST STOP JUMPDEST PUSH2 0x8C5 PUSH2 0x3871 JUMP JUMPDEST PUSH1 0x0 PUSH1 0xC PUSH1 0x0 DUP4 DUP2 MSTORE PUSH1 0x20 ADD SWAP1 DUP2 MSTORE PUSH1 0x20 ADD PUSH1 0x0 KECCAK256 SWAP1 POP PUSH1 0x0 PUSH1 0x11 PUSH1 0x0 DUP4 PUSH1 0x6 ADD SLOAD DUP2 MSTORE PUSH1 0x20 ADD SWAP1 DUP2 MSTORE PUSH1 0x20 ADD PUSH1 0x0 KECCAK256 SWAP1 POP PUSH1 0x0 PUSH20 0xFFFFFFFFFFFFFFFFFFFFFFFFFFFFFFFFFFFFFFFF AND DUP3 PUSH1 0x0 ADD PUSH1 0x0 SWAP1 SLOAD SWAP1 PUSH2 0x100 EXP SWAP1 DIV PUSH20 0xFFFFFFFFFFFFFFFFFFFFFFFFFFFFFFFFFFFFFFFF AND PUSH20 0xFFFFFFFFFFFFFFFFFFFFFFFFFFFFFFFFFFFFFFFF AND SUB PUSH2 0x981 JUMPI PUSH1 0x40 MLOAD PUSH32 0x38FDE52B00000000000000000000000000000000000000000000000000000000 DUP2 MSTORE PUSH1 0x4 ADD PUSH1 0x40 MLOAD DUP1 SWAP2 SUB SWAP1 REVERT JUMPDEST PUSH1 0x1 PUSH1 0x9 DUP2 GT ISZERO PUSH2 0x995 JUMPI PUSH2 0x994 PUSH2 0x4118 JUMP JUMPDEST JUMPDEST DUP3 PUSH1 0x4 ADD PUSH1 0x0 SWAP1 SLOAD SWAP1 PUSH2 0x100 EXP SWAP1 DIV PUSH1 0xFF AND PUSH1 0x9 DUP2 GT ISZERO PUSH2 0x9B9 JUMPI PUSH2 0x9B8 PUSH2 0x4118 JUMP JUMPDEST JUMPDEST EQ ISZERO DUP1 ISZERO PUSH2 0x9FD JUMPI POP PUSH1 0x5 PUSH1 0x9 DUP2 GT ISZERO PUSH2 0x9D6 JUMPI PUSH2 0x9D5 PUSH2 0x4118 JUMP JUMPDEST JUMPDEST DUP3 PUSH1 0x4 ADD PUSH1 0x0 SWAP1 SLOAD SWAP1 PUSH2 0x100 EXP SWAP1 DIV PUSH1 0xFF AND PUSH1 0x9 DUP2 GT ISZERO PUSH2 0x9FA JUMPI PUSH2 0x9F9 PUSH2 0x4118 JUMP JUMPDEST JUMPDEST EQ ISZERO JUMPDEST ISZERO PUSH2 0xA34 JUMPI PUSH1 0x40 MLOAD PUSH32 0x2039FE000000000000000000000000000000000000000000000000000000000 DUP2 MSTORE PUSH1 0x4 ADD PUSH1 0x40 MLOAD DUP1 SWAP2 SUB SWAP1 REVERT JUMPDEST CALLER PUSH20 0xFFFFFFFFFFFFFFFFFFFFFFFFFFFFFFFFFFFFFFFF AND DUP2 PUSH1 0x2 ADD PUSH1 0x0 SWAP1 SLOAD SWAP1 PUSH2 0x100 EXP SWAP1 DIV PUSH20 0xFFFFFFFFFFFFFFFFFFFFFFFFFFFFFFFFFFFFFFFF AND PUSH20 0xFFFFFFFFFFFFFFFFFFFFFFFFFFFFFFFFFFFFFFFF AND EQ PUSH2 0xABD JUMPI PUSH1 0x40 MLOAD PUSH32 0xF29B7DE400000000000000000000000000000000000000000000000000000000 DUP2 MSTORE PUSH1 0x4 ADD PUSH1 0x40 MLOAD DUP1 SWAP2 SUB SWAP1 REVERT JUMPDEST PUSH1 0x2 DUP3 PUSH1 0x4 ADD PUSH1 0x0 PUSH2 0x100 EXP DUP2 SLOAD DUP2 PUSH1 0xFF MUL NOT AND SWAP1 DUP4 PUSH1 0x9 DUP2 GT ISZERO PUSH2 0xAE5 JUMPI PUSH2 0xAE4 PUSH2 0x4118 JUMP JUMPDEST JUMPDEST MUL OR SWAP1 SSTORE POP DUP3 PUSH32 0x897C664C72BC8B676678EF3F10A93980AA3F57017782C69072AFCEA1D1EB0F6 TIMESTAMP PUSH1 0x40 MLOAD PUSH2 0xB1A SWAP2 SWAP1 PUSH2 0x4665 JUMP JUMPDEST PUSH1 0x40 MLOAD DUP1 SWAP2 SUB SWAP1 LOG2 POP POP PUSH2 0xB2C PUSH2 0x38C0 JUMP JUMPDEST POP JUMP JUMPDEST PUSH1 0x6 PUSH1 0x20 MSTORE DUP1 PUSH1 0x0 MSTORE PUSH1 0x40 PUSH1 0x0 KECCAK256 PUSH1 0x0 SWAP2 POP SWAP1 POP DUP1 PUSH1 0x0 ADD DUP1 SLOAD PUSH2 0xB52 SWAP1 PUSH2 0x4B6D JUMP JUMPDEST DUP1 PUSH1 0x1F ADD PUSH1 0x20 DUP1 SWAP2 DIV MUL PUSH1 0x20 ADD PUSH1 0x40 MLOAD SWAP1 DUP2 ADD PUSH1 0x40 MSTORE DUP1 SWAP3 SWAP2 SWAP1 DUP2 DUP2 MSTORE PUSH1 0x20 ADD DUP3 DUP1 SLOAD PUSH2 0xB7E SWAP1 PUSH2 0x4B6D JUMP JUMPDEST DUP1 ISZERO PUSH2 0xBCB JUMPI DUP1 PUSH1 0x1F LT PUSH2 0xBA0 JUMPI PUSH2 0x100 DUP1 DUP4 SLOAD DIV MUL DUP4 MSTORE SWAP2 PUSH1 0x20 ADD SWAP2 PUSH2 0xBCB JUMP JUMPDEST DUP3 ADD SWAP2 SWAP1 PUSH1 0x0 MSTORE PUSH1 0x20 PUSH1 0x0 KECCAK256 SWAP1 JUMPDEST DUP2 SLOAD DUP2 MSTORE SWAP1 PUSH1 0x1 ADD SWAP1 PUSH1 0x20 ADD DUP1 DUP4 GT PUSH2 0xBAE JUMPI DUP3 SWAP1 SUB PUSH1 0x1F AND DUP3 ADD SWAP2 JUMPDEST POP POP POP POP POP SWAP1 DUP1 PUSH1 0x1 ADD PUSH1 0x0 SWAP1 SLOAD SWAP1 PUSH2 0x100 EXP SWAP1 DIV PUSH20 0xFFFFFFFFFFFFFFFFFFFFFFFFFFFFFFFFFFFFFFFF AND SWAP1 DUP1 PUSH1 0x2 ADD SLOAD SWAP1 DUP1 PUSH1 0x3 ADD SLOAD SWAP1 POP DUP5 JUMP JUMPDEST PUSH1 0xC PUSH1 0x20 MSTORE DUP1 PUSH1 0x0 MSTORE PUSH1 0x40 PUSH1 0x0 KECCAK256 PUSH1 0x0 SWAP2 POP SWAP1 POP DUP1 PUSH1 0x0 ADD PUSH1 0x0 SWAP1 SLOAD SWAP1 PUSH2 0x100 EXP SWAP1 DIV PUSH20 0xFFFFFFFFFFFFFFFFFFFFFFFFFFFFFFFFFFFFFFFF AND SWAP1 DUP1 PUSH1 0x1 ADD SLOAD SWAP1 DUP1 PUSH1 0x2 ADD SLOAD SWAP1 DUP1 PUSH1 0x3 ADD DUP1 SLOAD PUSH2 0xC5C SWAP1 PUSH2 0x4B6D JUMP JUMPDEST DUP1 PUSH1 0x1F ADD PUSH1 0x20 DUP1 SWAP2 DIV MUL PUSH1 0x20 ADD PUSH1 0x40 MLOAD SWAP1 DUP2 ADD PUSH1 0x40 MSTORE DUP1 SWAP3 SWAP2 SWAP1 DUP2 DUP2 MSTORE PUSH1 0x20 ADD DUP3 DUP1 SLOAD PUSH2 0xC88 SWAP1 PUSH2 0x4B6D JUMP JUMPDEST DUP1 ISZERO PUSH2 0xCD5 JUMPI DUP1 PUSH1 0x1F LT PUSH2 0xCAA JUMPI PUSH2 0x100 DUP1 DUP4 SLOAD DIV MUL DUP4 MSTORE SWAP2 PUSH1 0x20 ADD SWAP2 PUSH2 0xCD5 JUMP JUMPDEST DUP3 ADD SWAP2 SWAP1 PUSH1 0x0 MSTORE PUSH1 0x20 PUSH1 0x0 KECCAK256 SWAP1 JUMPDEST DUP2 SLOAD DUP2 MSTORE SWAP1 PUSH1 0x1 ADD SWAP1 PUSH1 0x20 ADD DUP1 DUP4 GT PUSH2 0xCB8 JUMPI DUP3 SWAP1 SUB PUSH1 0x1F AND DUP3 ADD SWAP2 JUMPDEST POP POP POP POP POP SWAP1 DUP1 PUSH1 0x4 ADD PUSH1 0x0 SWAP1 SLOAD SWAP1 PUSH2 0x100 EXP SWAP1 DIV PUSH1 0xFF AND SWAP1 DUP1 PUSH1 0x5 ADD SLOAD SWAP1 DUP1 PUSH1 0x6 ADD SLOAD SWAP1 DUP1 PUSH1 0x7 ADD SLOAD SWAP1 DUP1 PUSH1 0x8 ADD SLOAD SWAP1 DUP1 PUSH1 0x9 ADD SLOAD SWAP1 POP DUP11 JUMP JUMPDEST PUSH2 0xD18 PUSH2 0x3DC8 JUMP JUMPDEST PUSH1 0x11 PUSH1 0x0 DUP4 DUP2 MSTORE PUSH1 0x20 ADD SWAP1 DUP2 MSTORE PUSH1 0x20 ADD PUSH1 0x0 KECCAK256 PUSH1 0x40 MLOAD DUP1 PUSH2 0x100 ADD PUSH1 0x40 MSTORE SWAP1 DUP2 PUSH1 0x0 DUP3 ADD SLOAD DUP2 MSTORE PUSH1 0x20 ADD PUSH1 0x1 DUP3 ADD SLOAD DUP2 MSTORE PUSH1 0x20 ADD PUSH1 0x2 DUP3 ADD PUSH1 0x0 SWAP1 SLOAD SWAP1 PUSH2 0x100 EXP SWAP1 DIV PUSH20 0xFFFFFFFFFFFFFFFFFFFFFFFFFFFFFFFFFFFFFFFF AND PUSH20 0xFFFFFFFFFFFFFFFFFFFFFFFFFFFFFFFFFFFFFFFF AND PUSH20 0xFFFFFFFFFFFFFFFFFFFFFFFFFFFFFFFFFFFFFFFF AND DUP2 MSTORE PUSH1 0x20 ADD PUSH1 0x3 DUP3 ADD SLOAD DUP2 MSTORE PUSH1 0x20 ADD PUSH1 0x4 DUP3 ADD SLOAD DUP2 MSTORE PUSH1 0x20 ADD PUSH1 0x5 DUP3 ADD PUSH1 0x0 SWAP1 SLOAD SWAP1 PUSH2 0x100 EXP SWAP1 DIV PUSH1 0xFF AND ISZERO ISZERO ISZERO ISZERO DUP2 MSTORE PUSH1 0x20 ADD PUSH1 0x6 DUP3 ADD SLOAD DUP2 MSTORE PUSH1 0x20 ADD PUSH1 0x7 DUP3 ADD SLOAD DUP2 MSTORE POP POP SWAP1 POP SWAP2 SWAP1 POP JUMP JUMPDEST PUSH2 0xDF3 PUSH2 0x3871 JUMP JUMPDEST PUSH1 0x0 PUSH1 0xC PUSH1 0x0 DUP4 DUP2 MSTORE PUSH1 0x20 ADD SWAP1 DUP2 MSTORE PUSH1 0x20 ADD PUSH1 0x0 KECCAK256 SWAP1 POP CALLER PUSH20 0xFFFFFFFFFFFFFFFFFFFFFFFFFFFFFFFFFFFFFFFF AND DUP2 PUSH1 0x0 ADD PUSH1 0x0 SWAP1 SLOAD SWAP1 PUSH2 0x100 EXP SWAP1 DIV PUSH20 0xFFFFFFFFFFFFFFFFFFFFFFFFFFFFFFFFFFFFFFFF AND PUSH20 0xFFFFFFFFFFFFFFFFFFFFFFFFFFFFFFFFFFFFFFFF AND EQ PUSH2 0xE93 JUMPI PUSH1 0x40 MLOAD PUSH32 0x28CECB5B00000000000000000000000000000000000000000000000000000000 DUP2 MSTORE PUSH1 0x4 ADD PUSH1 0x40 MLOAD DUP1 SWAP2 SUB SWAP1 REVERT JUMPDEST PUSH1 0x3 PUSH1 0x9 DUP2 GT ISZERO PUSH2 0xEA7 JUMPI PUSH2 0xEA6 PUSH2 0x4118 JUMP JUMPDEST JUMPDEST DUP2 PUSH1 0x4 ADD PUSH1 0x0 SWAP1 SLOAD SWAP1 PUSH2 0x100 EXP SWAP1 DIV PUSH1 0xFF AND PUSH1 0x9 DUP2 GT ISZERO PUSH2 0xECB JUMPI PUSH2 0xECA PUSH2 0x4118 JUMP JUMPDEST JUMPDEST EQ PUSH2 0xF02 JUMPI PUSH1 0x40 MLOAD PUSH32 0x87092A6800000000000000000000000000000000000000000000000000000000 DUP2 MSTORE PUSH1 0x4 ADD PUSH1 0x40 MLOAD DUP1 SWAP2 SUB SWAP1 REVERT JUMPDEST PUSH1 0x4 DUP2 PUSH1 0x4 ADD PUSH1 0x0 PUSH2 0x100 EXP DUP2 SLOAD DUP2 PUSH1 0xFF MUL NOT AND SWAP1 DUP4 PUSH1 0x9 DUP2 GT ISZERO PUSH2 0xF2A JUMPI PUSH2 0xF29 PUSH2 0x4118 JUMP JUMPDEST JUMPDEST MUL OR SWAP1 SSTORE POP PUSH1 0x0 PUSH1 0x11 PUSH1 0x0 DUP4 PUSH1 0x6 ADD SLOAD DUP2 MSTORE PUSH1 0x20 ADD SWAP1 DUP2 MSTORE PUSH1 0x20 ADD PUSH1 0x0 KECCAK256 SWAP1 POP PUSH2 0xFBF DUP2 PUSH1 0x2 ADD PUSH1 0x0 SWAP1 SLOAD SWAP1 PUSH2 0x100 EXP SWAP1 DIV PUSH20 0xFFFFFFFFFFFFFFFFFFFFFFFFFFFFFFFFFFFFFFFF AND DUP4 PUSH1 0x8 ADD SLOAD PUSH1 0x4 PUSH1 0x0 SWAP1 SLOAD SWAP1 PUSH2 0x100 EXP SWAP1 DIV PUSH20 0xFFFFFFFFFFFFFFFFFFFFFFFFFFFFFFFFFFFFFFFF AND PUSH20 0xFFFFFFFFFFFFFFFFFFFFFFFFFFFFFFFFFFFFFFFF AND PUSH2 0x38CA SWAP1 SWAP3 SWAP2 SWAP1 PUSH4 0xFFFFFFFF AND JUMP JUMPDEST DUP3 PUSH32 0x9460073959A64BA94729236A882EDF6C098A69AC586654E5A50B46351D643C0A TIMESTAMP PUSH1 0x40 MLOAD PUSH2 0xFEF SWAP2 SWAP1 PUSH2 0x4665 JUMP JUMPDEST PUSH1 0x40 MLOAD DUP1 SWAP2 SUB SWAP1 LOG2 POP POP PUSH2 0x1001 PUSH2 0x38C0 JUMP JUMPDEST POP JUMP JUMPDEST PUSH2 0x100C PUSH2 0x3871 JUMP JUMPDEST PUSH1 0xE PUSH1 0x0 CALLER PUSH20 0xFFFFFFFFFFFFFFFFFFFFFFFFFFFFFFFFFFFFFFFF AND PUSH20 0xFFFFFFFFFFFFFFFFFFFFFFFFFFFFFFFFFFFFFFFF AND DUP2 MSTORE PUSH1 0x20 ADD SWAP1 DUP2 MSTORE PUSH1 0x20 ADD PUSH1 0x0 KECCAK256 DUP2 PUSH1 0x40 MLOAD PUSH2 0x1059 SWAP2 SWAP1 PUSH2 0x4BDA JUMP JUMPDEST SWAP1 DUP2 MSTORE PUSH1 0x20 ADD PUSH1 0x40 MLOAD DUP1 SWAP2 SUB SWAP1 KECCAK256 PUSH1 0x0 SWAP1 SLOAD SWAP1 PUSH2 0x100 EXP SWAP1 DIV PUSH1 0xFF AND ISZERO PUSH2 0x10AC JUMPI PUSH1 0x40 MLOAD PUSH32 0xB60C1AE400000000000000000000000000000000000000000000000000000000 DUP2 MSTORE PUSH1 0x4 ADD PUSH1 0x40 MLOAD DUP1 SWAP2 SUB SWAP1 REVERT JUMPDEST PUSH1 0x1 PUSH1 0xE PUSH1 0x0 CALLER PUSH20 0xFFFFFFFFFFFFFFFFFFFFFFFFFFFFFFFFFFFFFFFF AND PUSH20 0xFFFFFFFFFFFFFFFFFFFFFFFFFFFFFFFFFFFFFFFF AND DUP2 MSTORE PUSH1 0x20 ADD SWAP1 DUP2 MSTORE PUSH1 0x20 ADD PUSH1 0x0 KECCAK256 DUP3 PUSH1 0x40 MLOAD PUSH2 0x10FB SWAP2 SWAP1 PUSH2 0x4BDA JUMP JUMPDEST SWAP1 DUP2 MSTORE PUSH1 0x20 ADD PUSH1 0x40 MLOAD DUP1 SWAP2 SUB SWAP1 KECCAK256 PUSH1 0x0 PUSH2 0x100 EXP DUP2 SLOAD DUP2 PUSH1 0xFF MUL NOT AND SWAP1 DUP4 ISZERO ISZERO MUL OR SWAP1 SSTORE POP PUSH1 0x0 PUSH2 0x112C PUSH1 0x2 PUSH2 0x3950 JUMP JUMPDEST SWAP1 POP PUSH1 0xD PUSH1 0x0 CALLER PUSH20 0xFFFFFFFFFFFFFFFFFFFFFFFFFFFFFFFFFFFFFFFF AND PUSH20 0xFFFFFFFFFFFFFFFFFFFFFFFFFFFFFFFFFFFFFFFF AND DUP2 MSTORE PUSH1 0x20 ADD SWAP1 DUP2 MSTORE PUSH1 0x20 ADD PUSH1 0x0 KECCAK256 DUP2 SWAP1 DUP1 PUSH1 0x1 DUP2 SLOAD ADD DUP1 DUP3 SSTORE DUP1 SWAP2 POP POP PUSH1 0x1 SWAP1 SUB SWAP1 PUSH1 0x0 MSTORE PUSH1 0x20 PUSH1 0x0 KECCAK256 ADD PUSH1 0x0 SWAP1 SWAP2 SWAP1 SWAP2 SWAP1 SWAP2 POP SSTORE PUSH1 0x9 PUSH1 0x0 CALLER PUSH20 0xFFFFFFFFFFFFFFFFFFFFFFFFFFFFFFFFFFFFFFFF AND PUSH20 0xFFFFFFFFFFFFFFFFFFFFFFFFFFFFFFFFFFFFFFFF AND DUP2 MSTORE PUSH1 0x20 ADD SWAP1 DUP2 MSTORE PUSH1 0x20 ADD PUSH1 0x0 KECCAK256 PUSH1 0x3 ADD PUSH1 0x0 DUP2 SLOAD DUP1 SWAP3 SWAP2 SWAP1 PUSH2 0x11E7 SWAP1 PUSH2 0x4C20 JUMP JUMPDEST SWAP2 SWAP1 POP SSTORE POP PUSH1 0x0 PUSH1 0x40 MLOAD DUP1 PUSH2 0x140 ADD PUSH1 0x40 MSTORE DUP1 CALLER PUSH20 0xFFFFFFFFFFFFFFFFFFFFFFFFFFFFFFFFFFFFFFFF AND DUP2 MSTORE PUSH1 0x20 ADD DUP7 DUP2 MSTORE PUSH1 0x20 ADD DUP6 DUP2 MSTORE PUSH1 0x20 ADD DUP5 DUP2 MSTORE PUSH1 0x20 ADD PUSH1 0x0 PUSH1 0x9 DUP2 GT ISZERO PUSH2 0x123C JUMPI PUSH2 0x123B PUSH2 0x4118 JUMP JUMPDEST JUMPDEST DUP2 MSTORE PUSH1 0x20 ADD TIMESTAMP DUP2 MSTORE PUSH1 0x20 ADD PUSH1 0x0 DUP2 MSTORE PUSH1 0x20 ADD PUSH1 0x0 DUP2 MSTORE PUSH1 0x20 ADD PUSH1 0x0 DUP2 MSTORE PUSH1 0x20 ADD PUSH1 0x0 DUP2 MSTORE POP SWAP1 POP DUP1 PUSH1 0xC PUSH1 0x0 DUP5 DUP2 MSTORE PUSH1 0x20 ADD SWAP1 DUP2 MSTORE PUSH1 0x20 ADD PUSH1 0x0 KECCAK256 PUSH1 0x0 DUP3 ADD MLOAD DUP2 PUSH1 0x0 ADD PUSH1 0x0 PUSH2 0x100 EXP DUP2 SLOAD DUP2 PUSH20 0xFFFFFFFFFFFFFFFFFFFFFFFFFFFFFFFFFFFFFFFF MUL NOT AND SWAP1 DUP4 PUSH20 0xFFFFFFFFFFFFFFFFFFFFFFFFFFFFFFFFFFFFFFFF AND MUL OR SWAP1 SSTORE POP PUSH1 0x20 DUP3 ADD MLOAD DUP2 PUSH1 0x1 ADD SSTORE PUSH1 0x40 DUP3 ADD MLOAD DUP2 PUSH1 0x2 ADD SSTORE PUSH1 0x60 DUP3 ADD MLOAD DUP2 PUSH1 0x3 ADD SWAP1 DUP2 PUSH2 0x12E7 SWAP2 SWAP1 PUSH2 0x4E0A JUMP JUMPDEST POP PUSH1 0x80 DUP3 ADD MLOAD DUP2 PUSH1 0x4 ADD PUSH1 0x0 PUSH2 0x100 EXP DUP2 SLOAD DUP2 PUSH1 0xFF MUL NOT AND SWAP1 DUP4 PUSH1 0x9 DUP2 GT ISZERO PUSH2 0x1313 JUMPI PUSH2 0x1312 PUSH2 0x4118 JUMP JUMPDEST JUMPDEST MUL OR SWAP1 SSTORE POP PUSH1 0xA0 DUP3 ADD MLOAD DUP2 PUSH1 0x5 ADD SSTORE PUSH1 0xC0 DUP3 ADD MLOAD DUP2 PUSH1 0x6 ADD SSTORE PUSH1 0xE0 DUP3 ADD MLOAD DUP2 PUSH1 0x7 ADD SSTORE PUSH2 0x100 DUP3 ADD MLOAD DUP2 PUSH1 0x8 ADD SSTORE PUSH2 0x120 DUP3 ADD MLOAD DUP2 PUSH1 0x9 ADD SSTORE SWAP1 POP POP DUP2 CALLER PUSH20 0xFFFFFFFFFFFFFFFFFFFFFFFFFFFFFFFFFFFFFFFF AND PUSH32 0xD8C9DF6950E7EA521827D53AF272E4B2F29DF683B9557003A02D7A0A94F12F5A DUP4 PUSH1 0x20 ADD MLOAD DUP5 PUSH1 0x40 ADD MLOAD DUP6 PUSH1 0x60 ADD MLOAD PUSH1 0x40 MLOAD PUSH2 0x13A6 SWAP4 SWAP3 SWAP2 SWAP1 PUSH2 0x4EDC JUMP JUMPDEST PUSH1 0x40 MLOAD DUP1 SWAP2 SUB SWAP1 LOG3 POP POP PUSH2 0x13B8 PUSH2 0x38C0 JUMP JUMPDEST POP POP POP JUMP JUMPDEST PUSH2 0x13C5 PUSH2 0x3DC8 JUMP JUMPDEST PUSH1 0x11 PUSH1 0x0 PUSH1 0xC PUSH1 0x0 DUP6 DUP2 MSTORE PUSH1 0x20 ADD SWAP1 DUP2 MSTORE PUSH1 0x20 ADD PUSH1 0x0 KECCAK256 PUSH1 0x6 ADD SLOAD DUP2 MSTORE PUSH1 0x20 ADD SWAP1 DUP2 MSTORE PUSH1 0x20 ADD PUSH1 0x0 KECCAK256 PUSH1 0x40 MLOAD DUP1 PUSH2 0x100 ADD PUSH1 0x40 MSTORE SWAP1 DUP2 PUSH1 0x0 DUP3 ADD SLOAD DUP2 MSTORE PUSH1 0x20 ADD PUSH1 0x1 DUP3 ADD SLOAD DUP2 MSTORE PUSH1 0x20 ADD PUSH1 0x2 DUP3 ADD PUSH1 0x0 SWAP1 SLOAD SWAP1 PUSH2 0x100 EXP SWAP1 DIV PUSH20 0xFFFFFFFFFFFFFFFFFFFFFFFFFFFFFFFFFFFFFFFF AND PUSH20 0xFFFFFFFFFFFFFFFFFFFFFFFFFFFFFFFFFFFFFFFF AND PUSH20 0xFFFFFFFFFFFFFFFFFFFFFFFFFFFFFFFFFFFFFFFF AND DUP2 MSTORE PUSH1 0x20 ADD PUSH1 0x3 DUP3 ADD SLOAD DUP2 MSTORE PUSH1 0x20 ADD PUSH1 0x4 DUP3 ADD SLOAD DUP2 MSTORE PUSH1 0x20 ADD PUSH1 0x5 DUP3 ADD PUSH1 0x0 SWAP1 SLOAD SWAP1 PUSH2 0x100 EXP SWAP1 DIV PUSH1 0xFF AND ISZERO ISZERO ISZERO ISZERO DUP2 MSTORE PUSH1 0x20 ADD PUSH1 0x6 DUP3 ADD SLOAD DUP2 MSTORE PUSH1 0x20 ADD PUSH1 0x7 DUP3 ADD SLOAD DUP2 MSTORE POP POP SWAP1 POP SWAP2 SWAP1 POP JUMP JUMPDEST PUSH2 0x14B6 PUSH2 0x3871 JUMP JUMPDEST PUSH1 0x0 PUSH1 0x11 PUSH1 0x0 DUP4 DUP2 MSTORE PUSH1 0x20 ADD SWAP1 DUP2 MSTORE PUSH1 0x20 ADD PUSH1 0x0 KECCAK256 SWAP1 POP PUSH1 0x0 PUSH1 0xC PUSH1 0x0 DUP4 PUSH1 0x0 ADD SLOAD DUP2 MSTORE PUSH1 0x20 ADD SWAP1 DUP2 MSTORE PUSH1 0x20 ADD PUSH1 0x0 KECCAK256 SWAP1 POP PUSH1 0x0 PUSH1 0x9 PUSH1 0x0 CALLER PUSH20 0xFFFFFFFFFFFFFFFFFFFFFFFFFFFFFFFFFFFFFFFF AND PUSH20 0xFFFFFFFFFFFFFFFFFFFFFFFFFFFFFFFFFFFFFFFF AND DUP2 MSTORE PUSH1 0x20 ADD SWAP1 DUP2 MSTORE PUSH1 0x20 ADD PUSH1 0x0 KECCAK256 SWAP1 POP PUSH1 0x0 PUSH1 0x6 PUSH1 0x0 DUP6 PUSH1 0x2 ADD PUSH1 0x0 SWAP1 SLOAD SWAP1 PUSH2 0x100 EXP SWAP1 DIV PUSH20 0xFFFFFFFFFFFFFFFFFFFFFFFFFFFFFFFFFFFFFFFF AND PUSH20 0xFFFFFFFFFFFFFFFFFFFFFFFFFFFFFFFFFFFFFFFF AND PUSH20 0xFFFFFFFFFFFFFFFFFFFFFFFFFFFFFFFFFFFFFFFF AND DUP2 MSTORE PUSH1 0x20 ADD SWAP1 DUP2 MSTORE PUSH1 0x20 ADD PUSH1 0x0 KECCAK256 SWAP1 POP CALLER PUSH20 0xFFFFFFFFFFFFFFFFFFFFFFFFFFFFFFFFFFFFFFFF AND DUP4 PUSH1 0x0 ADD PUSH1 0x0 SWAP1 SLOAD SWAP1 PUSH2 0x100 EXP SWAP1 DIV PUSH20 0xFFFFFFFFFFFFFFFFFFFFFFFFFFFFFFFFFFFFFFFF AND PUSH20 0xFFFFFFFFFFFFFFFFFFFFFFFFFFFFFFFFFFFFFFFF AND EQ PUSH2 0x161B JUMPI PUSH1 0x40 MLOAD PUSH32 0x38FDE52B00000000000000000000000000000000000000000000000000000000 DUP2 MSTORE PUSH1 0x4 ADD PUSH1 0x40 MLOAD DUP1 SWAP2 SUB SWAP1 REVERT JUMPDEST PUSH1 0x0 PUSH1 0x9 DUP2 GT ISZERO PUSH2 0x162F JUMPI PUSH2 0x162E PUSH2 0x4118 JUMP JUMPDEST JUMPDEST DUP4 PUSH1 0x4 ADD PUSH1 0x0 SWAP1 SLOAD SWAP1 PUSH2 0x100 EXP SWAP1 DIV PUSH1 0xFF AND PUSH1 0x9 DUP2 GT ISZERO PUSH2 0x1653 JUMPI PUSH2 0x1652 PUSH2 0x4118 JUMP JUMPDEST JUMPDEST SUB PUSH2 0x168A JUMPI PUSH1 0x40 MLOAD PUSH32 0x9A264D0000000000000000000000000000000000000000000000000000000000 DUP2 MSTORE PUSH1 0x4 ADD PUSH1 0x40 MLOAD DUP1 SWAP2 SUB SWAP1 REVERT JUMPDEST CALLER PUSH20 0xFFFFFFFFFFFFFFFFFFFFFFFFFFFFFFFFFFFFFFFF AND DUP3 PUSH1 0x1 ADD PUSH1 0x0 SWAP1 SLOAD SWAP1 PUSH2 0x100 EXP SWAP1 DIV PUSH20 0xFFFFFFFFFFFFFFFFFFFFFFFFFFFFFFFFFFFFFFFF AND PUSH20 0xFFFFFFFFFFFFFFFFFFFFFFFFFFFFFFFFFFFFFFFF AND EQ PUSH2 0x1713 JUMPI PUSH1 0x40 MLOAD PUSH32 0x3556120B00000000000000000000000000000000000000000000000000000000 DUP2 MSTORE PUSH1 0x4 ADD PUSH1 0x40 MLOAD DUP1 SWAP2 SUB SWAP1 REVERT JUMPDEST PUSH1 0x1 DUP4 PUSH1 0x4 ADD PUSH1 0x0 PUSH2 0x100 EXP DUP2 SLOAD DUP2 PUSH1 0xFF MUL NOT AND SWAP1 DUP4 PUSH1 0x9 DUP2 GT ISZERO PUSH2 0x173B JUMPI PUSH2 0x173A PUSH2 0x4118 JUMP JUMPDEST JUMPDEST MUL OR SWAP1 SSTORE POP DUP5 DUP4 PUSH1 0x6 ADD DUP2 SWAP1 SSTORE POP TIMESTAMP DUP4 PUSH1 0x7 ADD DUP2 SWAP1 SSTORE POP DUP4 PUSH1 0x3 ADD SLOAD DUP4 PUSH1 0x8 ADD DUP2 SWAP1 SSTORE POP DUP4 PUSH1 0x4 ADD SLOAD DUP4 PUSH1 0x9 ADD DUP2 SWAP1 SSTORE POP PUSH1 0x1 DUP5 PUSH1 0x5 ADD PUSH1 0x0 PUSH2 0x100 EXP DUP2 SLOAD DUP2 PUSH1 0xFF MUL NOT AND SWAP1 DUP4 ISZERO ISZERO MUL OR SWAP1 SSTORE POP TIMESTAMP DUP5 PUSH1 0x7 ADD DUP2 SWAP1 SSTORE POP DUP1 PUSH1 0x3 ADD PUSH1 0x0 DUP2 SLOAD DUP1 SWAP3 SWAP2 SWAP1 PUSH2 0x17A7 SWAP1 PUSH2 0x4C20 JUMP JUMPDEST SWAP2 SWAP1 POP SSTORE POP PUSH2 0x17FF CALLER ADDRESS DUP7 PUSH1 0x3 ADD SLOAD PUSH1 0x4 PUSH1 0x0 SWAP1 SLOAD SWAP1 PUSH2 0x100 EXP SWAP1 DIV PUSH20 0xFFFFFFFFFFFFFFFFFFFFFFFFFFFFFFFFFFFFFFFF AND PUSH20 0xFFFFFFFFFFFFFFFFFFFFFFFFFFFFFFFFFFFFFFFF AND PUSH2 0x395E SWAP1 SWAP4 SWAP3 SWAP2 SWAP1 PUSH4 0xFFFFFFFF AND JUMP JUMPDEST DUP5 DUP5 PUSH1 0x0 ADD SLOAD PUSH32 0x26CED84E7FCBBAAEBD2C7B4DA6342643CB90FD15D56673DFABE3954AEA0BBE08 DUP7 PUSH1 0x3 ADD SLOAD DUP8 PUSH1 0x4 ADD SLOAD TIMESTAMP PUSH1 0x40 MLOAD PUSH2 0x1840 SWAP4 SWAP3 SWAP2 SWAP1 PUSH2 0x4F1A JUMP JUMPDEST PUSH1 0x40 MLOAD DUP1 SWAP2 SUB SWAP1 LOG3 POP POP POP POP PUSH2 0x1854 PUSH2 0x38C0 JUMP JUMPDEST POP JUMP JUMPDEST PUSH1 0x60 PUSH1 0x10 PUSH1 0x0 DUP4 DUP2 MSTORE PUSH1 0x20 ADD SWAP1 DUP2 MSTORE PUSH1 0x20 ADD PUSH1 0x0 KECCAK256 DUP1 SLOAD DUP1 PUSH1 0x20 MUL PUSH1 0x20 ADD PUSH1 0x40 MLOAD SWAP1 DUP2 ADD PUSH1 0x40 MSTORE DUP1 SWAP3 SWAP2 SWAP1 DUP2 DUP2 MSTORE PUSH1 0x20 ADD DUP3 DUP1 SLOAD DUP1 ISZERO PUSH2 0x18B6 JUMPI PUSH1 0x20 MUL DUP3 ADD SWAP2 SWAP1 PUSH1 0x0 MSTORE PUSH1 0x20 PUSH1 0x0 KECCAK256 SWAP1 JUMPDEST DUP2 SLOAD DUP2 MSTORE PUSH1 0x20 ADD SWAP1 PUSH1 0x1 ADD SWAP1 DUP1 DUP4 GT PUSH2 0x18A2 JUMPI JUMPDEST POP POP POP POP POP SWAP1 POP SWAP2 SWAP1 POP JUMP JUMPDEST PUSH2 0x18CA PUSH2 0x39E7 JUMP JUMPDEST DUP1 PUSH1 0x5 PUSH1 0x0 DUP5 PUSH20 0xFFFFFFFFFFFFFFFFFFFFFFFFFFFFFFFFFFFFFFFF AND PUSH20 0xFFFFFFFFFFFFFFFFFFFFFFFFFFFFFFFFFFFFFFFF AND DUP2 MSTORE PUSH1 0x20 ADD SWAP1 DUP2 MSTORE PUSH1 0x20 ADD PUSH1 0x0 KECCAK256 PUSH1 0x0 PUSH2 0x100 EXP DUP2 SLOAD DUP2 PUSH1 0xFF MUL NOT AND SWAP1 DUP4 ISZERO ISZERO MUL OR SWAP1 SSTORE POP DUP2 PUSH20 0xFFFFFFFFFFFFFFFFFFFFFFFFFFFFFFFFFFFFFFFF AND PUSH32 0x6BB70BC24CEE91214CF034D22050FA7A29D527493327B708FE7DC847CD9BE4DA DUP3 PUSH1 0x40 MLOAD PUSH2 0x1967 SWAP2 SWAP1 PUSH2 0x47BA JUMP JUMPDEST PUSH1 0x40 MLOAD DUP1 SWAP2 SUB SWAP1 LOG2 POP POP JUMP JUMPDEST PUSH2 0x197B PUSH2 0x3871 JUMP JUMPDEST PUSH1 0x0 PUSH1 0xC PUSH1 0x0 DUP4 DUP2 MSTORE PUSH1 0x20 ADD SWAP1 DUP2 MSTORE PUSH1 0x20 ADD PUSH1 0x0 KECCAK256 SWAP1 POP PUSH1 0x0 PUSH1 0x11 PUSH1 0x0 DUP4 PUSH1 0x6 ADD SLOAD DUP2 MSTORE PUSH1 0x20 ADD SWAP1 DUP2 MSTORE PUSH1 0x20 ADD PUSH1 0x0 KECCAK256 SWAP1 POP PUSH1 0x0 PUSH20 0xFFFFFFFFFFFFFFFFFFFFFFFFFFFFFFFFFFFFFFFF AND DUP3 PUSH1 0x0 ADD PUSH1 0x0 SWAP1 SLOAD SWAP1 PUSH2 0x100 EXP SWAP1 DIV PUSH20 0xFFFFFFFFFFFFFFFFFFFFFFFFFFFFFFFFFFFFFFFF AND PUSH20 0xFFFFFFFFFFFFFFFFFFFFFFFFFFFFFFFFFFFFFFFF AND SUB PUSH2 0x1A37 JUMPI PUSH1 0x40 MLOAD PUSH32 0x38FDE52B00000000000000000000000000000000000000000000000000000000 DUP2 MSTORE PUSH1 0x4 ADD PUSH1 0x40 MLOAD DUP1 SWAP2 SUB SWAP1 REVERT JUMPDEST CALLER PUSH20 0xFFFFFFFFFFFFFFFFFFFFFFFFFFFFFFFFFFFFFFFF AND DUP2 PUSH1 0x2 ADD PUSH1 0x0 SWAP1 SLOAD SWAP1 PUSH2 0x100 EXP SWAP1 DIV PUSH20 0xFFFFFFFFFFFFFFFFFFFFFFFFFFFFFFFFFFFFFFFF AND PUSH20 0xFFFFFFFFFFFFFFFFFFFFFFFFFFFFFFFFFFFFFFFF AND EQ PUSH2 0x1AC0 JUMPI PUSH1 0x40 MLOAD PUSH32 0x3A161E7700000000000000000000000000000000000000000000000000000000 DUP2 MSTORE PUSH1 0x4 ADD PUSH1 0x40 MLOAD DUP1 SWAP2 SUB SWAP1 REVERT JUMPDEST PUSH1 0x2 PUSH1 0x9 DUP2 GT ISZERO PUSH2 0x1AD4 JUMPI PUSH2 0x1AD3 PUSH2 0x4118 JUMP JUMPDEST JUMPDEST DUP3 PUSH1 0x4 ADD PUSH1 0x0 SWAP1 SLOAD SWAP1 PUSH2 0x100 EXP SWAP1 DIV PUSH1 0xFF AND PUSH1 0x9 DUP2 GT ISZERO PUSH2 0x1AF8 JUMPI PUSH2 0x1AF7 PUSH2 0x4118 JUMP JUMPDEST JUMPDEST EQ PUSH2 0x1B2F JUMPI PUSH1 0x40 MLOAD PUSH32 0x2039FE000000000000000000000000000000000000000000000000000000000 DUP2 MSTORE PUSH1 0x4 ADD PUSH1 0x40 MLOAD DUP1 SWAP2 SUB SWAP1 REVERT JUMPDEST PUSH1 0x3 DUP3 PUSH1 0x4 ADD PUSH1 0x0 PUSH2 0x100 EXP DUP2 SLOAD DUP2 PUSH1 0xFF MUL NOT AND SWAP1 DUP4 PUSH1 0x9 DUP2 GT ISZERO PUSH2 0x1B57 JUMPI PUSH2 0x1B56 PUSH2 0x4118 JUMP JUMPDEST JUMPDEST MUL OR SWAP1 SSTORE POP DUP3 PUSH32 0xBA80F4DBA9F04C4B9D3D0D790E86680390E337EF61AA42C8D28338E2E790F11 TIMESTAMP PUSH1 0x40 MLOAD PUSH2 0x1B8C SWAP2 SWAP1 PUSH2 0x4665 JUMP JUMPDEST PUSH1 0x40 MLOAD DUP1 SWAP2 SUB SWAP1 LOG2 POP POP PUSH2 0x1B9E PUSH2 0x38C0 JUMP JUMPDEST POP JUMP JUMPDEST PUSH1 0x8 DUP2 DUP2 SLOAD DUP2 LT PUSH2 0x1BB1 JUMPI PUSH1 0x0 DUP1 REVERT JUMPDEST SWAP1 PUSH1 0x0 MSTORE PUSH1 0x20 PUSH1 0x0 KECCAK256 ADD PUSH1 0x0 SWAP2 POP SLOAD SWAP1 PUSH2 0x100 EXP SWAP1 DIV PUSH20 0xFFFFFFFFFFFFFFFFFFFFFFFFFFFFFFFFFFFFFFFF AND DUP2 JUMP JUMPDEST PUSH1 0x10 PUSH1 0x20 MSTORE DUP2 PUSH1 0x0 MSTORE PUSH1 0x40 PUSH1 0x0 KECCAK256 DUP2 DUP2 SLOAD DUP2 LT PUSH2 0x1BFC JUMPI PUSH1 0x0 DUP1 REVERT JUMPDEST SWAP1 PUSH1 0x0 MSTORE PUSH1 0x20 PUSH1 0x0 KECCAK256 ADD PUSH1 0x0 SWAP2 POP SWAP2 POP POP SLOAD DUP2 JUMP JUMPDEST PUSH2 0x1C19 PUSH2 0x3871 JUMP JUMPDEST PUSH1 0x0 PUSH1 0xC PUSH1 0x0 DUP5 DUP2 MSTORE PUSH1 0x20 ADD SWAP1 DUP2 MSTORE PUSH1 0x20 ADD PUSH1 0x0 KECCAK256 SWAP1 POP PUSH1 0x0 PUSH1 0x11 PUSH1 0x0 DUP4 PUSH1 0x6 ADD SLOAD DUP2 MSTORE PUSH1 0x20 ADD SWAP1 DUP2 MSTORE PUSH1 0x20 ADD PUSH1 0x0 KECCAK256 SWAP1 POP CALLER PUSH20 0xFFFFFFFFFFFFFFFFFFFFFFFFFFFFFFFFFFFFFFFF AND DUP2 PUSH1 0x2 ADD PUSH1 0x0 SWAP1 SLOAD SWAP1 PUSH2 0x100 EXP SWAP1 DIV PUSH20 0xFFFFFFFFFFFFFFFFFFFFFFFFFFFFFFFFFFFFFFFF AND PUSH20 0xFFFFFFFFFFFFFFFFFFFFFFFFFFFFFFFFFFFFFFFF AND EQ PUSH2 0x1CD4 JUMPI PUSH1 0x40 MLOAD PUSH32 0xCCB06F5E00000000000000000000000000000000000000000000000000000000 DUP2 MSTORE PUSH1 0x4 ADD PUSH1 0x40 MLOAD DUP1 SWAP2 SUB SWAP1 REVERT JUMPDEST PUSH1 0x5 PUSH1 0x9 DUP2 GT ISZERO PUSH2 0x1CE8 JUMPI PUSH2 0x1CE7 PUSH2 0x4118 JUMP JUMPDEST JUMPDEST DUP3 PUSH1 0x4 ADD PUSH1 0x0 SWAP1 SLOAD SWAP1 PUSH2 0x100 EXP SWAP1 DIV PUSH1 0xFF AND PUSH1 0x9 DUP2 GT ISZERO PUSH2 0x1D0C JUMPI PUSH2 0x1D0B PUSH2 0x4118 JUMP JUMPDEST JUMPDEST EQ PUSH2 0x1D43 JUMPI PUSH1 0x40 MLOAD PUSH32 0x4F66018B00000000000000000000000000000000000000000000000000000000 DUP2 MSTORE PUSH1 0x4 ADD PUSH1 0x40 MLOAD DUP1 SWAP2 SUB SWAP1 REVERT JUMPDEST PUSH1 0x6 DUP3 PUSH1 0x4 ADD PUSH1 0x0 PUSH2 0x100 EXP DUP2 SLOAD DUP2 PUSH1 0xFF MUL NOT AND SWAP1 DUP4 PUSH1 0x9 DUP2 GT ISZERO PUSH2 0x1D6B JUMPI PUSH2 0x1D6A PUSH2 0x4118 JUMP JUMPDEST JUMPDEST MUL OR SWAP1 SSTORE POP DUP4 PUSH32 0x47263ECDA9EE979E294B3B972426EC18606938A3560942CCCC5C74C682F9D29E TIMESTAMP DUP6 PUSH1 0x40 MLOAD PUSH2 0x1DA2 SWAP3 SWAP2 SWAP1 PUSH2 0x4F51 JUMP JUMPDEST PUSH1 0x40 MLOAD DUP1 SWAP2 SUB SWAP1 LOG2 POP POP PUSH2 0x1DB4 PUSH2 0x38C0 JUMP JUMPDEST POP POP JUMP JUMPDEST PUSH2 0x1DC0 PUSH2 0x3E25 JUMP JUMPDEST PUSH1 0x6 PUSH1 0x0 DUP4 PUSH20 0xFFFFFFFFFFFFFFFFFFFFFFFFFFFFFFFFFFFFFFFF AND PUSH20 0xFFFFFFFFFFFFFFFFFFFFFFFFFFFFFFFFFFFFFFFF AND DUP2 MSTORE PUSH1 0x20 ADD SWAP1 DUP2 MSTORE PUSH1 0x20 ADD PUSH1 0x0 KECCAK256 PUSH1 0x40 MLOAD DUP1 PUSH1 0x80 ADD PUSH1 0x40 MSTORE SWAP1 DUP2 PUSH1 0x0 DUP3 ADD DUP1 SLOAD PUSH2 0x1E1A SWAP1 PUSH2 0x4B6D JUMP JUMPDEST DUP1 PUSH1 0x1F ADD PUSH1 0x20 DUP1 SWAP2 DIV MUL PUSH1 0x20 ADD PUSH1 0x40 MLOAD SWAP1 DUP2 ADD PUSH1 0x40 MSTORE DUP1 SWAP3 SWAP2 SWAP1 DUP2 DUP2 MSTORE PUSH1 0x20 ADD DUP3 DUP1 SLOAD PUSH2 0x1E46 SWAP1 PUSH2 0x4B6D JUMP JUMPDEST DUP1 ISZERO PUSH2 0x1E93 JUMPI DUP1 PUSH1 0x1F LT PUSH2 0x1E68 JUMPI PUSH2 0x100 DUP1 DUP4 SLOAD DIV MUL DUP4 MSTORE SWAP2 PUSH1 0x20 ADD SWAP2 PUSH2 0x1E93 JUMP JUMPDEST DUP3 ADD SWAP2 SWAP1 PUSH1 0x0 MSTORE PUSH1 0x20 PUSH1 0x0 KECCAK256 SWAP1 JUMPDEST DUP2 SLOAD DUP2 MSTORE SWAP1 PUSH1 0x1 ADD SWAP1 PUSH1 0x20 ADD DUP1 DUP4 GT PUSH2 0x1E76 JUMPI DUP3 SWAP1 SUB PUSH1 0x1F AND DUP3 ADD SWAP2 JUMPDEST POP POP POP POP POP DUP2 MSTORE PUSH1 0x20 ADD PUSH1 0x1 DUP3 ADD PUSH1 0x0 SWAP1 SLOAD SWAP1 PUSH2 0x100 EXP SWAP1 DIV PUSH20 0xFFFFFFFFFFFFFFFFFFFFFFFFFFFFFFFFFFFFFFFF AND PUSH20 0xFFFFFFFFFFFFFFFFFFFFFFFFFFFFFFFFFFFFFFFF AND PUSH20 0xFFFFFFFFFFFFFFFFFFFFFFFFFFFFFFFFFFFFFFFF AND DUP2 MSTORE PUSH1 0x20 ADD PUSH1 0x2 DUP3 ADD SLOAD DUP2 MSTORE PUSH1 0x20 ADD PUSH1 0x3 DUP3 ADD SLOAD DUP2 MSTORE POP POP SWAP1 POP SWAP2 SWAP1 POP JUMP JUMPDEST PUSH1 0x5 PUSH1 0x20 MSTORE DUP1 PUSH1 0x0 MSTORE PUSH1 0x40 PUSH1 0x0 KECCAK256 PUSH1 0x0 SWAP2 POP SLOAD SWAP1 PUSH2 0x100 EXP SWAP1 DIV PUSH1 0xFF AND DUP2 JUMP JUMPDEST PUSH2 0x1F35 PUSH2 0x3E63 JUMP JUMPDEST PUSH1 0xC PUSH1 0x0 DUP4 DUP2 MSTORE PUSH1 0x20 ADD SWAP1 DUP2 MSTORE PUSH1 0x20 ADD PUSH1 0x0 KECCAK256 PUSH1 0x40 MLOAD DUP1 PUSH2 0x140 ADD PUSH1 0x40 MSTORE SWAP1 DUP2 PUSH1 0x0 DUP3 ADD PUSH1 0x0 SWAP1 SLOAD SWAP1 PUSH2 0x100 EXP SWAP1 DIV PUSH20 0xFFFFFFFFFFFFFFFFFFFFFFFFFFFFFFFFFFFFFFFF AND PUSH20 0xFFFFFFFFFFFFFFFFFFFFFFFFFFFFFFFFFFFFFFFF AND PUSH20 0xFFFFFFFFFFFFFFFFFFFFFFFFFFFFFFFFFFFFFFFF AND DUP2 MSTORE PUSH1 0x20 ADD PUSH1 0x1 DUP3 ADD SLOAD DUP2 MSTORE PUSH1 0x20 ADD PUSH1 0x2 DUP3 ADD SLOAD DUP2 MSTORE PUSH1 0x20 ADD PUSH1 0x3 DUP3 ADD DUP1 SLOAD PUSH2 0x1FCE SWAP1 PUSH2 0x4B6D JUMP JUMPDEST DUP1 PUSH1 0x1F ADD PUSH1 0x20 DUP1 SWAP2 DIV MUL PUSH1 0x20 ADD PUSH1 0x40 MLOAD SWAP1 DUP2 ADD PUSH1 0x40 MSTORE DUP1 SWAP3 SWAP2 SWAP1 DUP2 DUP2 MSTORE PUSH1 0x20 ADD DUP3 DUP1 SLOAD PUSH2 0x1FFA SWAP1 PUSH2 0x4B6D JUMP JUMPDEST DUP1 ISZERO PUSH2 0x2047 JUMPI DUP1 PUSH1 0x1F LT PUSH2 0x201C JUMPI PUSH2 0x100 DUP1 DUP4 SLOAD DIV MUL DUP4 MSTORE SWAP2 PUSH1 0x20 ADD SWAP2 PUSH2 0x2047 JUMP JUMPDEST DUP3 ADD SWAP2 SWAP1 PUSH1 0x0 MSTORE PUSH1 0x20 PUSH1 0x0 KECCAK256 SWAP1 JUMPDEST DUP2 SLOAD DUP2 MSTORE SWAP1 PUSH1 0x1 ADD SWAP1 PUSH1 0x20 ADD DUP1 DUP4 GT PUSH2 0x202A JUMPI DUP3 SWAP1 SUB PUSH1 0x1F AND DUP3 ADD SWAP2 JUMPDEST POP POP POP POP POP DUP2 MSTORE PUSH1 0x20 ADD PUSH1 0x4 DUP3 ADD PUSH1 0x0 SWAP1 SLOAD SWAP1 PUSH2 0x100 EXP SWAP1 DIV PUSH1 0xFF AND PUSH1 0x9 DUP2 GT ISZERO PUSH2 0x2075 JUMPI PUSH2 0x2074 PUSH2 0x4118 JUMP JUMPDEST JUMPDEST PUSH1 0x9 DUP2 GT ISZERO PUSH2 0x2087 JUMPI PUSH2 0x2086 PUSH2 0x4118 JUMP JUMPDEST JUMPDEST DUP2 MSTORE PUSH1 0x20 ADD PUSH1 0x5 DUP3 ADD SLOAD DUP2 MSTORE PUSH1 0x20 ADD PUSH1 0x6 DUP3 ADD SLOAD DUP2 MSTORE PUSH1 0x20 ADD PUSH1 0x7 DUP3 ADD SLOAD DUP2 MSTORE PUSH1 0x20 ADD PUSH1 0x8 DUP3 ADD SLOAD DUP2 MSTORE PUSH1 0x20 ADD PUSH1 0x9 DUP3 ADD SLOAD DUP2 MSTORE POP POP SWAP1 POP SWAP2 SWAP1 POP JUMP JUMPDEST PUSH2 0x20CC PUSH2 0x3871 JUMP JUMPDEST PUSH1 0x0 PUSH1 0xC PUSH1 0x0 DUP4 DUP2 MSTORE PUSH1 0x20 ADD SWAP1 DUP2 MSTORE PUSH1 0x20 ADD PUSH1 0x0 KECCAK256 SWAP1 POP PUSH1 0x0 PUSH1 0x9 PUSH1 0x0 CALLER PUSH20 0xFFFFFFFFFFFFFFFFFFFFFFFFFFFFFFFFFFFFFFFF AND PUSH20 0xFFFFFFFFFFFFFFFFFFFFFFFFFFFFFFFFFFFFFFFF AND DUP2 MSTORE PUSH1 0x20 ADD SWAP1 DUP2 MSTORE PUSH1 0x20 ADD PUSH1 0x0 KECCAK256 SWAP1 POP CALLER PUSH20 0xFFFFFFFFFFFFFFFFFFFFFFFFFFFFFFFFFFFFFFFF AND DUP2 PUSH1 0x1 ADD PUSH1 0x0 SWAP1 SLOAD SWAP1 PUSH2 0x100 EXP SWAP1 DIV PUSH20 0xFFFFFFFFFFFFFFFFFFFFFFFFFFFFFFFFFFFFFFFF AND PUSH20 0xFFFFFFFFFFFFFFFFFFFFFFFFFFFFFFFFFFFFFFFF AND EQ PUSH2 0x21AF JUMPI PUSH1 0x40 MLOAD PUSH32 0xEB18032A00000000000000000000000000000000000000000000000000000000 DUP2 MSTORE PUSH1 0x4 ADD PUSH1 0x40 MLOAD DUP1 SWAP2 SUB SWAP1 REVERT JUMPDEST PUSH1 0x2 PUSH1 0x9 DUP2 GT ISZERO PUSH2 0x21C3 JUMPI PUSH2 0x21C2 PUSH2 0x4118 JUMP JUMPDEST JUMPDEST DUP3 PUSH1 0x4 ADD PUSH1 0x0 SWAP1 SLOAD SWAP1 PUSH2 0x100 EXP SWAP1 DIV PUSH1 0xFF AND PUSH1 0x9 DUP2 GT ISZERO PUSH2 0x21E7 JUMPI PUSH2 0x21E6 PUSH2 0x4118 JUMP JUMPDEST JUMPDEST EQ PUSH2 0x221E JUMPI PUSH1 0x40 MLOAD PUSH32 0x2039FE000000000000000000000000000000000000000000000000000000000 DUP2 MSTORE PUSH1 0x4 ADD PUSH1 0x40 MLOAD DUP1 SWAP2 SUB SWAP1 REVERT JUMPDEST PUSH1 0x0 PUSH1 0xF PUSH1 0x0 DUP6 DUP2 MSTORE PUSH1 0x20 ADD SWAP1 DUP2 MSTORE PUSH1 0x20 ADD PUSH1 0x0 KECCAK256 SWAP1 POP PUSH1 0x0 DUP2 PUSH1 0x0 ADD SLOAD EQ DUP1 ISZERO PUSH2 0x224D JUMPI POP PUSH1 0x0 DUP2 PUSH1 0x1 ADD SLOAD EQ JUMPDEST ISZERO PUSH2 0x2284 JUMPI PUSH1 0x40 MLOAD PUSH32 0x9980646A00000000000000000000000000000000000000000000000000000000 DUP2 MSTORE PUSH1 0x4 ADD PUSH1 0x40 MLOAD DUP1 SWAP2 SUB SWAP1 REVERT JUMPDEST PUSH1 0x0 DUP2 PUSH1 0x1 ADD SLOAD GT ISZERO PUSH2 0x229F JUMPI DUP1 PUSH1 0x1 ADD SLOAD DUP4 PUSH1 0x9 ADD DUP2 SWAP1 SSTORE POP JUMPDEST TIMESTAMP DUP4 PUSH1 0x7 ADD DUP2 SWAP1 SSTORE POP PUSH1 0x0 DUP2 PUSH1 0x0 ADD SLOAD GT ISZERO PUSH2 0x239A JUMPI DUP3 PUSH1 0x8 ADD SLOAD DUP2 PUSH1 0x0 ADD SLOAD LT ISZERO PUSH2 0x2330 JUMPI PUSH1 0x0 DUP2 PUSH1 0x0 ADD SLOAD DUP5 PUSH1 0x8 ADD SLOAD PUSH2 0x22DB SWAP2 SWAP1 PUSH2 0x4F81 JUMP JUMPDEST SWAP1 POP PUSH2 0x232A CALLER DUP3 PUSH1 0x4 PUSH1 0x0 SWAP1 SLOAD SWAP1 PUSH2 0x100 EXP SWAP1 DIV PUSH20 0xFFFFFFFFFFFFFFFFFFFFFFFFFFFFFFFFFFFFFFFF AND PUSH20 0xFFFFFFFFFFFFFFFFFFFFFFFFFFFFFFFFFFFFFFFF AND PUSH2 0x38CA SWAP1 SWAP3 SWAP2 SWAP1 PUSH4 0xFFFFFFFF AND JUMP JUMPDEST POP PUSH2 0x2399 JUMP JUMPDEST PUSH1 0x0 DUP4 PUSH1 0x8 ADD SLOAD DUP3 PUSH1 0x0 ADD SLOAD PUSH2 0x2346 SWAP2 SWAP1 PUSH2 0x4F81 JUMP JUMPDEST SWAP1 POP PUSH2 0x2397 CALLER ADDRESS DUP4 PUSH1 0x4 PUSH1 0x0 SWAP1 SLOAD SWAP1 PUSH2 0x100 EXP SWAP1 DIV PUSH20 0xFFFFFFFFFFFFFFFFFFFFFFFFFFFFFFFFFFFFFFFF AND PUSH20 0xFFFFFFFFFFFFFFFFFFFFFFFFFFFFFFFFFFFFFFFF AND PUSH2 0x395E SWAP1 SWAP4 SWAP3 SWAP2 SWAP1 PUSH4 0xFFFFFFFF AND JUMP JUMPDEST POP JUMPDEST JUMPDEST PUSH1 0x0 DUP2 PUSH1 0x0 ADD DUP2 SWAP1 SSTORE POP PUSH1 0x0 DUP2 PUSH1 0x1 ADD DUP2 SWAP1 SSTORE POP PUSH1 0x0 DUP2 PUSH1 0x2 ADD DUP2 SWAP1 SSTORE POP DUP4 PUSH32 0x8423EA5FCC76D0AD679210FB974D3000738079ACA8AFD159EEE4AFECA496DDE4 DUP5 PUSH1 0x8 ADD SLOAD DUP6 PUSH1 0x9 ADD SLOAD TIMESTAMP PUSH1 0x40 MLOAD PUSH2 0x23F4 SWAP4 SWAP3 SWAP2 SWAP1 PUSH2 0x4F1A JUMP JUMPDEST PUSH1 0x40 MLOAD DUP1 SWAP2 SUB SWAP1 LOG2 POP POP POP PUSH2 0x2407 PUSH2 0x38C0 JUMP JUMPDEST POP JUMP JUMPDEST PUSH1 0x60 PUSH1 0xD PUSH1 0x0 DUP4 PUSH20 0xFFFFFFFFFFFFFFFFFFFFFFFFFFFFFFFFFFFFFFFF AND PUSH20 0xFFFFFFFFFFFFFFFFFFFFFFFFFFFFFFFFFFFFFFFF AND DUP2 MSTORE PUSH1 0x20 ADD SWAP1 DUP2 MSTORE PUSH1 0x20 ADD PUSH1 0x0 KECCAK256 DUP1 SLOAD DUP1 PUSH1 0x20 MUL PUSH1 0x20 ADD PUSH1 0x40 MLOAD SWAP1 DUP2 ADD PUSH1 0x40 MSTORE DUP1 SWAP3 SWAP2 SWAP1 DUP2 DUP2 MSTORE PUSH1 0x20 ADD DUP3 DUP1 SLOAD DUP1 ISZERO PUSH2 0x2495 JUMPI PUSH1 0x20 MUL DUP3 ADD SWAP2 SWAP1 PUSH1 0x0 MSTORE PUSH1 0x20 PUSH1 0x0 KECCAK256 SWAP1 JUMPDEST DUP2 SLOAD DUP2 MSTORE PUSH1 0x20 ADD SWAP1 PUSH1 0x1 ADD SWAP1 DUP1 DUP4 GT PUSH2 0x2481 JUMPI JUMPDEST POP POP POP POP POP SWAP1 POP SWAP2 SWAP1 POP JUMP JUMPDEST PUSH2 0x24A9 PUSH2 0x39E7 JUMP JUMPDEST PUSH2 0x24B3 PUSH1 0x0 PUSH2 0x3A65 JUMP JUMPDEST JUMP JUMPDEST PUSH1 0x9 PUSH1 0x20 MSTORE DUP1 PUSH1 0x0 MSTORE PUSH1 0x40 PUSH1 0x0 KECCAK256 PUSH1 0x0 SWAP2 POP SWAP1 POP DUP1 PUSH1 0x0 ADD DUP1 SLOAD PUSH2 0x24D8 SWAP1 PUSH2 0x4B6D JUMP JUMPDEST DUP1 PUSH1 0x1F ADD PUSH1 0x20 DUP1 SWAP2 DIV MUL PUSH1 0x20 ADD PUSH1 0x40 MLOAD SWAP1 DUP2 ADD PUSH1 0x40 MSTORE DUP1 SWAP3 SWAP2 SWAP1 DUP2 DUP2 MSTORE PUSH1 0x20 ADD DUP3 DUP1 SLOAD PUSH2 0x2504 SWAP1 PUSH2 0x4B6D JUMP JUMPDEST DUP1 ISZERO PUSH2 0x2551 JUMPI DUP1 PUSH1 0x1F LT PUSH2 0x2526 JUMPI PUSH2 0x100 DUP1 DUP4 SLOAD DIV MUL DUP4 MSTORE SWAP2 PUSH1 0x20 ADD SWAP2 PUSH2 0x2551 JUMP JUMPDEST DUP3 ADD SWAP2 SWAP1 PUSH1 0x0 MSTORE PUSH1 0x20 PUSH1 0x0 KECCAK256 SWAP1 JUMPDEST DUP2 SLOAD DUP2 MSTORE SWAP1 PUSH1 0x1 ADD SWAP1 PUSH1 0x20 ADD DUP1 DUP4 GT PUSH2 0x2534 JUMPI DUP3 SWAP1 SUB PUSH1 0x1F AND DUP3 ADD SWAP2 JUMPDEST POP POP POP POP POP SWAP1 DUP1 PUSH1 0x1 ADD PUSH1 0x0 SWAP1 SLOAD SWAP1 PUSH2 0x100 EXP SWAP1 DIV PUSH20 0xFFFFFFFFFFFFFFFFFFFFFFFFFFFFFFFFFFFFFFFF AND SWAP1 DUP1 PUSH1 0x2 ADD SLOAD SWAP1 DUP1 PUSH1 0x3 ADD SLOAD SWAP1 POP DUP5 JUMP JUMPDEST PUSH2 0x2595 PUSH2 0x3871 JUMP JUMPDEST PUSH1 0x0 PUSH1 0xC PUSH1 0x0 DUP7 DUP2 MSTORE PUSH1 0x20 ADD SWAP1 DUP2 MSTORE PUSH1 0x20 ADD PUSH1 0x0 KECCAK256 SWAP1 POP PUSH1 0x0 PUSH1 0x11 PUSH1 0x0 DUP4 PUSH1 0x6 ADD SLOAD DUP2 MSTORE PUSH1 0x20 ADD SWAP1 DUP2 MSTORE PUSH1 0x20 ADD PUSH1 0x0 KECCAK256 SWAP1 POP PUSH1 0x0 PUSH20 0xFFFFFFFFFFFFFFFFFFFFFFFFFFFFFFFFFFFFFFFF AND DUP3 PUSH1 0x0 ADD PUSH1 0x0 SWAP1 SLOAD SWAP1 PUSH2 0x100 EXP SWAP1 DIV PUSH20 0xFFFFFFFFFFFFFFFFFFFFFFFFFFFFFFFFFFFFFFFF AND PUSH20 0xFFFFFFFFFFFFFFFFFFFFFFFFFFFFFFFFFFFFFFFF AND SUB PUSH2 0x2651 JUMPI PUSH1 0x40 MLOAD PUSH32 0x38FDE52B00000000000000000000000000000000000000000000000000000000 DUP2 MSTORE PUSH1 0x4 ADD PUSH1 0x40 MLOAD DUP1 SWAP2 SUB SWAP1 REVERT JUMPDEST PUSH1 0x2 PUSH1 0x9 DUP2 GT ISZERO PUSH2 0x2665 JUMPI PUSH2 0x2664 PUSH2 0x4118 JUMP JUMPDEST JUMPDEST DUP3 PUSH1 0x4 ADD PUSH1 0x0 SWAP1 SLOAD SWAP1 PUSH2 0x100 EXP SWAP1 DIV PUSH1 0xFF AND PUSH1 0x9 DUP2 GT ISZERO PUSH2 0x2689 JUMPI PUSH2 0x2688 PUSH2 0x4118 JUMP JUMPDEST JUMPDEST EQ PUSH2 0x26C0 JUMPI PUSH1 0x40 MLOAD PUSH32 0x2039FE000000000000000000000000000000000000000000000000000000000 DUP2 MSTORE PUSH1 0x4 ADD PUSH1 0x40 MLOAD DUP1 SWAP2 SUB SWAP1 REVERT JUMPDEST CALLER PUSH20 0xFFFFFFFFFFFFFFFFFFFFFFFFFFFFFFFFFFFFFFFF AND DUP2 PUSH1 0x2 ADD PUSH1 0x0 SWAP1 SLOAD SWAP1 PUSH2 0x100 EXP SWAP1 DIV PUSH20 0xFFFFFFFFFFFFFFFFFFFFFFFFFFFFFFFFFFFFFFFF AND PUSH20 0xFFFFFFFFFFFFFFFFFFFFFFFFFFFFFFFFFFFFFFFF AND EQ PUSH2 0x2749 JUMPI PUSH1 0x40 MLOAD PUSH32 0x8D0CECDD00000000000000000000000000000000000000000000000000000000 DUP2 MSTORE PUSH1 0x4 ADD PUSH1 0x40 MLOAD DUP1 SWAP2 SUB SWAP1 REVERT JUMPDEST DUP2 PUSH1 0x1 ADD SLOAD DUP5 GT ISZERO PUSH2 0x2787 JUMPI PUSH1 0x40 MLOAD PUSH32 0xBA74CAD300000000000000000000000000000000000000000000000000000000 DUP2 MSTORE PUSH1 0x4 ADD PUSH1 0x40 MLOAD DUP1 SWAP2 SUB SWAP1 REVERT JUMPDEST DUP2 PUSH1 0x2 ADD SLOAD DUP6 GT ISZERO PUSH2 0x27C5 JUMPI PUSH1 0x40 MLOAD PUSH32 0xF8F0715A00000000000000000000000000000000000000000000000000000000 DUP2 MSTORE PUSH1 0x4 ADD PUSH1 0x40 MLOAD DUP1 SWAP2 SUB SWAP1 REVERT JUMPDEST PUSH1 0x40 MLOAD DUP1 PUSH1 0x80 ADD PUSH1 0x40 MSTORE DUP1 DUP6 DUP2 MSTORE PUSH1 0x20 ADD DUP7 DUP2 MSTORE PUSH1 0x20 ADD TIMESTAMP DUP2 MSTORE PUSH1 0x20 ADD DUP5 DUP2 MSTORE POP PUSH1 0xF PUSH1 0x0 DUP9 DUP2 MSTORE PUSH1 0x20 ADD SWAP1 DUP2 MSTORE PUSH1 0x20 ADD PUSH1 0x0 KECCAK256 PUSH1 0x0 DUP3 ADD MLOAD DUP2 PUSH1 0x0 ADD SSTORE PUSH1 0x20 DUP3 ADD MLOAD DUP2 PUSH1 0x1 ADD SSTORE PUSH1 0x40 DUP3 ADD MLOAD DUP2 PUSH1 0x2 ADD SSTORE PUSH1 0x60 DUP3 ADD MLOAD DUP2 PUSH1 0x3 ADD SWAP1 DUP2 PUSH2 0x282C SWAP2 SWAP1 PUSH2 0x4E0A JUMP JUMPDEST POP SWAP1 POP POP DUP6 PUSH32 0xBA5D9309E4AE279F85512E847A064EFDC07B707B95C20A88098FF6EEEFD431F DUP6 DUP8 TIMESTAMP PUSH1 0x40 MLOAD PUSH2 0x2864 SWAP4 SWAP3 SWAP2 SWAP1 PUSH2 0x4F1A JUMP JUMPDEST PUSH1 0x40 MLOAD DUP1 SWAP2 SUB SWAP1 LOG2 POP POP PUSH2 0x2876 PUSH2 0x38C0 JUMP JUMPDEST POP POP POP POP JUMP JUMPDEST PUSH2 0x2884 PUSH2 0x3871 JUMP JUMPDEST PUSH1 0x0 PUSH1 0xC PUSH1 0x0 DUP5 DUP2 MSTORE PUSH1 0x20 ADD SWAP1 DUP2 MSTORE PUSH1 0x20 ADD PUSH1 0x0 KECCAK256 SWAP1 POP CALLER PUSH20 0xFFFFFFFFFFFFFFFFFFFFFFFFFFFFFFFFFFFFFFFF AND DUP2 PUSH1 0x0 ADD PUSH1 0x0 SWAP1 SLOAD SWAP1 PUSH2 0x100 EXP SWAP1 DIV PUSH20 0xFFFFFFFFFFFFFFFFFFFFFFFFFFFFFFFFFFFFFFFF AND PUSH20 0xFFFFFFFFFFFFFFFFFFFFFFFFFFFFFFFFFFFFFFFF AND EQ PUSH2 0x2924 JUMPI PUSH1 0x40 MLOAD PUSH32 0x2061D3D400000000000000000000000000000000000000000000000000000000 DUP2 MSTORE PUSH1 0x4 ADD PUSH1 0x40 MLOAD DUP1 SWAP2 SUB SWAP1 REVERT JUMPDEST PUSH1 0x3 PUSH1 0x9 DUP2 GT ISZERO PUSH2 0x2938 JUMPI PUSH2 0x2937 PUSH2 0x4118 JUMP JUMPDEST JUMPDEST DUP2 PUSH1 0x4 ADD PUSH1 0x0 SWAP1 SLOAD SWAP1 PUSH2 0x100 EXP SWAP1 DIV PUSH1 0xFF AND PUSH1 0x9 DUP2 GT ISZERO PUSH2 0x295C JUMPI PUSH2 0x295B PUSH2 0x4118 JUMP JUMPDEST JUMPDEST EQ PUSH2 0x2993 JUMPI PUSH1 0x40 MLOAD PUSH32 0x87092A6800000000000000000000000000000000000000000000000000000000 DUP2 MSTORE PUSH1 0x4 ADD PUSH1 0x40 MLOAD DUP1 SWAP2 SUB SWAP1 REVERT JUMPDEST PUSH1 0x5 DUP2 PUSH1 0x4 ADD PUSH1 0x0 PUSH2 0x100 EXP DUP2 SLOAD DUP2 PUSH1 0xFF MUL NOT AND SWAP1 DUP4 PUSH1 0x9 DUP2 GT ISZERO PUSH2 0x29BB JUMPI PUSH2 0x29BA PUSH2 0x4118 JUMP JUMPDEST JUMPDEST MUL OR SWAP1 SSTORE POP DUP3 PUSH32 0x941DBF0237C4FF970E962D9C3FDE1A2003D5076DFDE4C0DEEADA6393CDDE60B2 TIMESTAMP DUP5 PUSH1 0x40 MLOAD PUSH2 0x29F2 SWAP3 SWAP2 SWAP1 PUSH2 0x4F51 JUMP JUMPDEST PUSH1 0x40 MLOAD DUP1 SWAP2 SUB SWAP1 LOG2 POP PUSH2 0x2A03 PUSH2 0x38C0 JUMP JUMPDEST POP POP JUMP JUMPDEST PUSH1 0x0 PUSH1 0x1 PUSH1 0x0 SWAP1 SLOAD SWAP1 PUSH2 0x100 EXP SWAP1 DIV PUSH20 0xFFFFFFFFFFFFFFFFFFFFFFFFFFFFFFFFFFFFFFFF AND SWAP1 POP SWAP1 JUMP JUMPDEST PUSH2 0x2A39 PUSH2 0x3871 JUMP JUMPDEST PUSH1 0x7 DUP2 PUSH1 0x40 MLOAD PUSH2 0x2A49 SWAP2 SWAP1 PUSH2 0x4BDA JUMP JUMPDEST SWAP1 DUP2 MSTORE PUSH1 0x20 ADD PUSH1 0x40 MLOAD DUP1 SWAP2 SUB SWAP1 KECCAK256 PUSH1 0x0 SWAP1 SLOAD SWAP1 PUSH2 0x100 EXP SWAP1 DIV PUSH1 0xFF AND ISZERO PUSH2 0x2A9C JUMPI PUSH1 0x40 MLOAD PUSH32 0x430F177600000000000000000000000000000000000000000000000000000000 DUP2 MSTORE PUSH1 0x4 ADD PUSH1 0x40 MLOAD DUP1 SWAP2 SUB SWAP1 REVERT JUMPDEST PUSH1 0x1 PUSH1 0x7 DUP3 PUSH1 0x40 MLOAD PUSH2 0x2AAE SWAP2 SWAP1 PUSH2 0x4BDA JUMP JUMPDEST SWAP1 DUP2 MSTORE PUSH1 0x20 ADD PUSH1 0x40 MLOAD DUP1 SWAP2 SUB SWAP1 KECCAK256 PUSH1 0x0 PUSH2 0x100 EXP DUP2 SLOAD DUP2 PUSH1 0xFF MUL NOT AND SWAP1 DUP4 ISZERO ISZERO MUL OR SWAP1 SSTORE POP PUSH1 0x0 PUSH1 0x40 MLOAD DUP1 PUSH1 0x80 ADD PUSH1 0x40 MSTORE DUP1 DUP4 DUP2 MSTORE PUSH1 0x20 ADD CALLER PUSH20 0xFFFFFFFFFFFFFFFFFFFFFFFFFFFFFFFFFFFFFFFF AND DUP2 MSTORE PUSH1 0x20 ADD TIMESTAMP DUP2 MSTORE PUSH1 0x20 ADD PUSH1 0x0 DUP2 MSTORE POP SWAP1 POP PUSH1 0x8 CALLER SWAP1 DUP1 PUSH1 0x1 DUP2 SLOAD ADD DUP1 DUP3 SSTORE DUP1 SWAP2 POP POP PUSH1 0x1 SWAP1 SUB SWAP1 PUSH1 0x0 MSTORE PUSH1 0x20 PUSH1 0x0 KECCAK256 ADD PUSH1 0x0 SWAP1 SWAP2 SWAP1 SWAP2 SWAP1 SWAP2 PUSH2 0x100 EXP DUP2 SLOAD DUP2 PUSH20 0xFFFFFFFFFFFFFFFFFFFFFFFFFFFFFFFFFFFFFFFF MUL NOT AND SWAP1 DUP4 PUSH20 0xFFFFFFFFFFFFFFFFFFFFFFFFFFFFFFFFFFFFFFFF AND MUL OR SWAP1 SSTORE POP DUP1 PUSH1 0x6 PUSH1 0x0 CALLER PUSH20 0xFFFFFFFFFFFFFFFFFFFFFFFFFFFFFFFFFFFFFFFF AND PUSH20 0xFFFFFFFFFFFFFFFFFFFFFFFFFFFFFFFFFFFFFFFF AND DUP2 MSTORE PUSH1 0x20 ADD SWAP1 DUP2 MSTORE PUSH1 0x20 ADD PUSH1 0x0 KECCAK256 PUSH1 0x0 DUP3 ADD MLOAD DUP2 PUSH1 0x0 ADD SWAP1 DUP2 PUSH2 0x2BC7 SWAP2 SWAP1 PUSH2 0x4E0A JUMP JUMPDEST POP PUSH1 0x20 DUP3 ADD MLOAD DUP2 PUSH1 0x1 ADD PUSH1 0x0 PUSH2 0x100 EXP DUP2 SLOAD DUP2 PUSH20 0xFFFFFFFFFFFFFFFFFFFFFFFFFFFFFFFFFFFFFFFF MUL NOT AND SWAP1 DUP4 PUSH20 0xFFFFFFFFFFFFFFFFFFFFFFFFFFFFFFFFFFFFFFFF AND MUL OR SWAP1 SSTORE POP PUSH1 0x40 DUP3 ADD MLOAD DUP2 PUSH1 0x2 ADD SSTORE PUSH1 0x60 DUP3 ADD MLOAD DUP2 PUSH1 0x3 ADD SSTORE SWAP1 POP POP CALLER PUSH20 0xFFFFFFFFFFFFFFFFFFFFFFFFFFFFFFFFFFFFFFFF AND PUSH32 0xB2BC7D962E634836B6F2383EE5F842B8829C7771D414C3F8862C577F4730A3E8 DUP4 PUSH1 0x40 MLOAD PUSH2 0x2C6C SWAP2 SWAP1 PUSH2 0x4FB5 JUMP JUMPDEST PUSH1 0x40 MLOAD DUP1 SWAP2 SUB SWAP1 LOG2 POP PUSH2 0x2C7D PUSH2 0x38C0 JUMP JUMPDEST POP JUMP JUMPDEST PUSH2 0x2C88 PUSH2 0x3871 JUMP JUMPDEST PUSH1 0x0 PUSH1 0xC PUSH1 0x0 DUP5 DUP2 MSTORE PUSH1 0x20 ADD SWAP1 DUP2 MSTORE PUSH1 0x20 ADD PUSH1 0x0 KECCAK256 SWAP1 POP PUSH1 0x0 ISZERO ISZERO PUSH1 0x5 PUSH1 0x0 CALLER PUSH20 0xFFFFFFFFFFFFFFFFFFFFFFFFFFFFFFFFFFFFFFFF AND PUSH20 0xFFFFFFFFFFFFFFFFFFFFFFFFFFFFFFFFFFFFFFFF AND DUP2 MSTORE PUSH1 0x20 ADD SWAP1 DUP2 MSTORE PUSH1 0x20 ADD PUSH1 0x0 KECCAK256 PUSH1 0x0 SWAP1 SLOAD SWAP1 PUSH2 0x100 EXP SWAP1 DIV PUSH1 0xFF AND ISZERO ISZERO SUB PUSH2 0x2D29 JUMPI PUSH1 0x40 MLOAD PUSH32 0x75F4CE8800000000000000000000000000000000000000000000000000000000 DUP2 MSTORE PUSH1 0x4 ADD PUSH1 0x40 MLOAD DUP1 SWAP2 SUB SWAP1 REVERT JUMPDEST PUSH1 0x6 PUSH1 0x9 DUP2 GT ISZERO PUSH2 0x2D3D JUMPI PUSH2 0x2D3C PUSH2 0x4118 JUMP JUMPDEST JUMPDEST DUP2 PUSH1 0x4 ADD PUSH1 0x0 SWAP1 SLOAD SWAP1 PUSH2 0x100 EXP SWAP1 DIV PUSH1 0xFF AND PUSH1 0x9 DUP2 GT ISZERO PUSH2 0x2D61 JUMPI PUSH2 0x2D60 PUSH2 0x4118 JUMP JUMPDEST JUMPDEST EQ PUSH2 0x2D98 JUMPI PUSH1 0x40 MLOAD PUSH32 0x4F66018B00000000000000000000000000000000000000000000000000000000 DUP2 MSTORE PUSH1 0x4 ADD PUSH1 0x40 MLOAD DUP1 SWAP2 SUB SWAP1 REVERT JUMPDEST PUSH2 0x2E0D DUP2 PUSH1 0x0 ADD PUSH1 0x0 SWAP1 SLOAD SWAP1 PUSH2 0x100 EXP SWAP1 DIV PUSH20 0xFFFFFFFFFFFFFFFFFFFFFFFFFFFFFFFFFFFFFFFF AND DUP3 PUSH1 0x8 ADD SLOAD PUSH1 0x4 PUSH1 0x0 SWAP1 SLOAD SWAP1 PUSH2 0x100 EXP SWAP1 DIV PUSH20 0xFFFFFFFFFFFFFFFFFFFFFFFFFFFFFFFFFFFFFFFF AND PUSH20 0xFFFFFFFFFFFFFFFFFFFFFFFFFFFFFFFFFFFFFFFF AND PUSH2 0x38CA SWAP1 SWAP3 SWAP2 SWAP1 PUSH4 0xFFFFFFFF AND JUMP JUMPDEST PUSH1 0x8 DUP2 PUSH1 0x4 ADD PUSH1 0x0 PUSH2 0x100 EXP DUP2 SLOAD DUP2 PUSH1 0xFF MUL NOT AND SWAP1 DUP4 PUSH1 0x9 DUP2 GT ISZERO PUSH2 0x2E35 JUMPI PUSH2 0x2E34 PUSH2 0x4118 JUMP JUMPDEST JUMPDEST MUL OR SWAP1 SSTORE POP DUP3 PUSH32 0xB00F0EF2C9545D8DFDED4CD4BEE55B3761B8D5D9D6A8DF164995635BFED3C07A TIMESTAMP PUSH1 0x0 DUP6 PUSH1 0x40 MLOAD PUSH2 0x2E6F SWAP4 SWAP3 SWAP2 SWAP1 PUSH2 0x4FD7 JUMP JUMPDEST PUSH1 0x40 MLOAD DUP1 SWAP2 SUB SWAP1 LOG2 POP PUSH2 0x2E80 PUSH2 0x38C0 JUMP JUMPDEST POP POP JUMP JUMPDEST PUSH2 0x2E8C PUSH2 0x3EDE JUMP JUMPDEST PUSH1 0x9 PUSH1 0x0 DUP4 PUSH20 0xFFFFFFFFFFFFFFFFFFFFFFFFFFFFFFFFFFFFFFFF AND PUSH20 0xFFFFFFFFFFFFFFFFFFFFFFFFFFFFFFFFFFFFFFFF AND DUP2 MSTORE PUSH1 0x20 ADD SWAP1 DUP2 MSTORE PUSH1 0x20 ADD PUSH1 0x0 KECCAK256 PUSH1 0x40 MLOAD DUP1 PUSH1 0x80 ADD PUSH1 0x40 MSTORE SWAP1 DUP2 PUSH1 0x0 DUP3 ADD DUP1 SLOAD PUSH2 0x2EE6 SWAP1 PUSH2 0x4B6D JUMP JUMPDEST DUP1 PUSH1 0x1F ADD PUSH1 0x20 DUP1 SWAP2 DIV MUL PUSH1 0x20 ADD PUSH1 0x40 MLOAD SWAP1 DUP2 ADD PUSH1 0x40 MSTORE DUP1 SWAP3 SWAP2 SWAP1 DUP2 DUP2 MSTORE PUSH1 0x20 ADD DUP3 DUP1 SLOAD PUSH2 0x2F12 SWAP1 PUSH2 0x4B6D JUMP JUMPDEST DUP1 ISZERO PUSH2 0x2F5F JUMPI DUP1 PUSH1 0x1F LT PUSH2 0x2F34 JUMPI PUSH2 0x100 DUP1 DUP4 SLOAD DIV MUL DUP4 MSTORE SWAP2 PUSH1 0x20 ADD SWAP2 PUSH2 0x2F5F JUMP JUMPDEST DUP3 ADD SWAP2 SWAP1 PUSH1 0x0 MSTORE PUSH1 0x20 PUSH1 0x0 KECCAK256 SWAP1 JUMPDEST DUP2 SLOAD DUP2 MSTORE SWAP1 PUSH1 0x1 ADD SWAP1 PUSH1 0x20 ADD DUP1 DUP4 GT PUSH2 0x2F42 JUMPI DUP3 SWAP1 SUB PUSH1 0x1F AND DUP3 ADD SWAP2 JUMPDEST POP POP POP POP POP DUP2 MSTORE PUSH1 0x20 ADD PUSH1 0x1 DUP3 ADD PUSH1 0x0 SWAP1 SLOAD SWAP1 PUSH2 0x100 EXP SWAP1 DIV PUSH20 0xFFFFFFFFFFFFFFFFFFFFFFFFFFFFFFFFFFFFFFFF AND PUSH20 0xFFFFFFFFFFFFFFFFFFFFFFFFFFFFFFFFFFFFFFFF AND PUSH20 0xFFFFFFFFFFFFFFFFFFFFFFFFFFFFFFFFFFFFFFFF AND DUP2 MSTORE PUSH1 0x20 ADD PUSH1 0x2 DUP3 ADD SLOAD DUP2 MSTORE PUSH1 0x20 ADD PUSH1 0x3 DUP3 ADD SLOAD DUP2 MSTORE POP POP SWAP1 POP SWAP2 SWAP1 POP JUMP JUMPDEST PUSH2 0x2FE1 PUSH2 0x3871 JUMP JUMPDEST PUSH1 0xA DUP2 PUSH1 0x40 MLOAD PUSH2 0x2FF1 SWAP2 SWAP1 PUSH2 0x4BDA JUMP JUMPDEST SWAP1 DUP2 MSTORE PUSH1 0x20 ADD PUSH1 0x40 MLOAD DUP1 SWAP2 SUB SWAP1 KECCAK256 PUSH1 0x0 SWAP1 SLOAD SWAP1 PUSH2 0x100 EXP SWAP1 DIV PUSH1 0xFF AND ISZERO PUSH2 0x3044 JUMPI PUSH1 0x40 MLOAD PUSH32 0xE3CD3AD400000000000000000000000000000000000000000000000000000000 DUP2 MSTORE PUSH1 0x4 ADD PUSH1 0x40 MLOAD DUP1 SWAP2 SUB SWAP1 REVERT JUMPDEST PUSH1 0x1 PUSH1 0xA DUP3 PUSH1 0x40 MLOAD PUSH2 0x3056 SWAP2 SWAP1 PUSH2 0x4BDA JUMP JUMPDEST SWAP1 DUP2 MSTORE PUSH1 0x20 ADD PUSH1 0x40 MLOAD DUP1 SWAP2 SUB SWAP1 KECCAK256 PUSH1 0x0 PUSH2 0x100 EXP DUP2 SLOAD DUP2 PUSH1 0xFF MUL NOT AND SWAP1 DUP4 ISZERO ISZERO MUL OR SWAP1 SSTORE POP PUSH1 0x0 PUSH1 0x40 MLOAD DUP1 PUSH1 0x80 ADD PUSH1 0x40 MSTORE DUP1 DUP4 DUP2 MSTORE PUSH1 0x20 ADD CALLER PUSH20 0xFFFFFFFFFFFFFFFFFFFFFFFFFFFFFFFFFFFFFFFF AND DUP2 MSTORE PUSH1 0x20 ADD TIMESTAMP DUP2 MSTORE PUSH1 0x20 ADD PUSH1 0x0 DUP2 MSTORE POP SWAP1 POP PUSH1 0xB CALLER SWAP1 DUP1 PUSH1 0x1 DUP2 SLOAD ADD DUP1 DUP3 SSTORE DUP1 SWAP2 POP POP PUSH1 0x1 SWAP1 SUB SWAP1 PUSH1 0x0 MSTORE PUSH1 0x20 PUSH1 0x0 KECCAK256 ADD PUSH1 0x0 SWAP1 SWAP2 SWAP1 SWAP2 SWAP1 SWAP2 PUSH2 0x100 EXP DUP2 SLOAD DUP2 PUSH20 0xFFFFFFFFFFFFFFFFFFFFFFFFFFFFFFFFFFFFFFFF MUL NOT AND SWAP1 DUP4 PUSH20 0xFFFFFFFFFFFFFFFFFFFFFFFFFFFFFFFFFFFFFFFF AND MUL OR SWAP1 SSTORE POP DUP1 PUSH1 0x9 PUSH1 0x0 CALLER PUSH20 0xFFFFFFFFFFFFFFFFFFFFFFFFFFFFFFFFFFFFFFFF AND PUSH20 0xFFFFFFFFFFFFFFFFFFFFFFFFFFFFFFFFFFFFFFFF AND DUP2 MSTORE PUSH1 0x20 ADD SWAP1 DUP2 MSTORE PUSH1 0x20 ADD PUSH1 0x0 KECCAK256 PUSH1 0x0 DUP3 ADD MLOAD DUP2 PUSH1 0x0 ADD SWAP1 DUP2 PUSH2 0x316F SWAP2 SWAP1 PUSH2 0x4E0A JUMP JUMPDEST POP PUSH1 0x20 DUP3 ADD MLOAD DUP2 PUSH1 0x1 ADD PUSH1 0x0 PUSH2 0x100 EXP DUP2 SLOAD DUP2 PUSH20 0xFFFFFFFFFFFFFFFFFFFFFFFFFFFFFFFFFFFFFFFF MUL NOT AND SWAP1 DUP4 PUSH20 0xFFFFFFFFFFFFFFFFFFFFFFFFFFFFFFFFFFFFFFFF AND MUL OR SWAP1 SSTORE POP PUSH1 0x40 DUP3 ADD MLOAD DUP2 PUSH1 0x2 ADD SSTORE PUSH1 0x60 DUP3 ADD MLOAD DUP2 PUSH1 0x3 ADD SSTORE SWAP1 POP POP CALLER PUSH20 0xFFFFFFFFFFFFFFFFFFFFFFFFFFFFFFFFFFFFFFFF AND PUSH32 0x1095D5BB47535AABC9770ACBCD3F5F182A26902A02D9EAA8B8C1450E71412078 DUP4 PUSH1 0x40 MLOAD PUSH2 0x3214 SWAP2 SWAP1 PUSH2 0x4FB5 JUMP JUMPDEST PUSH1 0x40 MLOAD DUP1 SWAP2 SUB SWAP1 LOG2 POP PUSH2 0x3225 PUSH2 0x38C0 JUMP JUMPDEST POP JUMP JUMPDEST PUSH1 0x4 PUSH1 0x0 SWAP1 SLOAD SWAP1 PUSH2 0x100 EXP SWAP1 DIV PUSH20 0xFFFFFFFFFFFFFFFFFFFFFFFFFFFFFFFFFFFFFFFF AND DUP2 JUMP JUMPDEST PUSH2 0x3256 PUSH2 0x39E7 JUMP JUMPDEST PUSH1 0x0 PUSH20 0xFFFFFFFFFFFFFFFFFFFFFFFFFFFFFFFFFFFFFFFF AND DUP2 PUSH20 0xFFFFFFFFFFFFFFFFFFFFFFFFFFFFFFFFFFFFFFFF AND SUB PUSH2 0x32C5 JUMPI PUSH1 0x40 MLOAD PUSH32 0x8C379A000000000000000000000000000000000000000000000000000000000 DUP2 MSTORE PUSH1 0x4 ADD PUSH2 0x32BC SWAP1 PUSH2 0x5087 JUMP JUMPDEST PUSH1 0x40 MLOAD DUP1 SWAP2 SUB SWAP1 REVERT JUMPDEST PUSH2 0x32CE DUP2 PUSH2 0x3A65 JUMP JUMPDEST POP JUMP JUMPDEST PUSH2 0x32D9 PUSH2 0x3871 JUMP JUMPDEST PUSH1 0x0 PUSH1 0xC PUSH1 0x0 DUP6 DUP2 MSTORE PUSH1 0x20 ADD SWAP1 DUP2 MSTORE PUSH1 0x20 ADD PUSH1 0x0 KECCAK256 SWAP1 POP PUSH1 0x0 PUSH20 0xFFFFFFFFFFFFFFFFFFFFFFFFFFFFFFFFFFFFFFFF AND DUP2 PUSH1 0x0 ADD PUSH1 0x0 SWAP1 SLOAD SWAP1 PUSH2 0x100 EXP SWAP1 DIV PUSH20 0xFFFFFFFFFFFFFFFFFFFFFFFFFFFFFFFFFFFFFFFF AND PUSH20 0xFFFFFFFFFFFFFFFFFFFFFFFFFFFFFFFFFFFFFFFF AND SUB PUSH2 0x337A JUMPI PUSH1 0x40 MLOAD PUSH32 0x38FDE52B00000000000000000000000000000000000000000000000000000000 DUP2 MSTORE PUSH1 0x4 ADD PUSH1 0x40 MLOAD DUP1 SWAP2 SUB SWAP1 REVERT JUMPDEST PUSH1 0x0 PUSH1 0x9 DUP2 GT ISZERO PUSH2 0x338E JUMPI PUSH2 0x338D PUSH2 0x4118 JUMP JUMPDEST JUMPDEST DUP2 PUSH1 0x4 ADD PUSH1 0x0 SWAP1 SLOAD SWAP1 PUSH2 0x100 EXP SWAP1 DIV PUSH1 0xFF AND PUSH1 0x9 DUP2 GT ISZERO PUSH2 0x33B2 JUMPI PUSH2 0x33B1 PUSH2 0x4118 JUMP JUMPDEST JUMPDEST EQ PUSH2 0x33E9 JUMPI PUSH1 0x40 MLOAD PUSH32 0x84AB70BB00000000000000000000000000000000000000000000000000000000 DUP2 MSTORE PUSH1 0x4 ADD PUSH1 0x40 MLOAD DUP1 SWAP2 SUB SWAP1 REVERT JUMPDEST DUP1 PUSH1 0x1 ADD SLOAD DUP4 LT ISZERO PUSH2 0x3427 JUMPI PUSH1 0x40 MLOAD PUSH32 0xBA74CAD300000000000000000000000000000000000000000000000000000000 DUP2 MSTORE PUSH1 0x4 ADD PUSH1 0x40 MLOAD DUP1 SWAP2 SUB SWAP1 REVERT JUMPDEST DUP1 PUSH1 0x2 ADD SLOAD DUP3 GT ISZERO PUSH2 0x3465 JUMPI PUSH1 0x40 MLOAD PUSH32 0xF8F0715A00000000000000000000000000000000000000000000000000000000 DUP2 MSTORE PUSH1 0x4 ADD PUSH1 0x40 MLOAD DUP1 SWAP2 SUB SWAP1 REVERT JUMPDEST PUSH1 0x0 PUSH2 0x3471 PUSH1 0x3 PUSH2 0x3950 JUMP JUMPDEST SWAP1 POP PUSH1 0x0 PUSH1 0x40 MLOAD DUP1 PUSH2 0x100 ADD PUSH1 0x40 MSTORE DUP1 DUP8 DUP2 MSTORE PUSH1 0x20 ADD DUP4 DUP2 MSTORE PUSH1 0x20 ADD CALLER PUSH20 0xFFFFFFFFFFFFFFFFFFFFFFFFFFFFFFFFFFFFFFFF AND DUP2 MSTORE PUSH1 0x20 ADD DUP7 DUP2 MSTORE PUSH1 0x20 ADD DUP6 DUP2 MSTORE PUSH1 0x20 ADD PUSH1 0x0 ISZERO ISZERO DUP2 MSTORE PUSH1 0x20 ADD TIMESTAMP DUP2 MSTORE PUSH1 0x20 ADD PUSH1 0x0 DUP2 MSTORE POP SWAP1 POP PUSH1 0x10 PUSH1 0x0 DUP8 DUP2 MSTORE PUSH1 0x20 ADD SWAP1 DUP2 MSTORE PUSH1 0x20 ADD PUSH1 0x0 KECCAK256 DUP3 SWAP1 DUP1 PUSH1 0x1 DUP2 SLOAD ADD DUP1 DUP3 SSTORE DUP1 SWAP2 POP POP PUSH1 0x1 SWAP1 SUB SWAP1 PUSH1 0x0 MSTORE PUSH1 0x20 PUSH1 0x0 KECCAK256 ADD PUSH1 0x0 SWAP1 SWAP2 SWAP1 SWAP2 SWAP1 SWAP2 POP SSTORE DUP1 PUSH1 0x11 PUSH1 0x0 DUP5 DUP2 MSTORE PUSH1 0x20 ADD SWAP1 DUP2 MSTORE PUSH1 0x20 ADD PUSH1 0x0 KECCAK256 PUSH1 0x0 DUP3 ADD MLOAD DUP2 PUSH1 0x0 ADD SSTORE PUSH1 0x20 DUP3 ADD MLOAD DUP2 PUSH1 0x1 ADD SSTORE PUSH1 0x40 DUP3 ADD MLOAD DUP2 PUSH1 0x2 ADD PUSH1 0x0 PUSH2 0x100 EXP DUP2 SLOAD DUP2 PUSH20 0xFFFFFFFFFFFFFFFFFFFFFFFFFFFFFFFFFFFFFFFF MUL NOT AND SWAP1 DUP4 PUSH20 0xFFFFFFFFFFFFFFFFFFFFFFFFFFFFFFFFFFFFFFFF AND MUL OR SWAP1 SSTORE POP PUSH1 0x60 DUP3 ADD MLOAD DUP2 PUSH1 0x3 ADD SSTORE PUSH1 0x80 DUP3 ADD MLOAD DUP2 PUSH1 0x4 ADD SSTORE PUSH1 0xA0 DUP3 ADD MLOAD DUP2 PUSH1 0x5 ADD PUSH1 0x0 PUSH2 0x100 EXP DUP2 SLOAD DUP2 PUSH1 0xFF MUL NOT AND SWAP1 DUP4 ISZERO ISZERO MUL OR SWAP1 SSTORE POP PUSH1 0xC0 DUP3 ADD MLOAD DUP2 PUSH1 0x6 ADD SSTORE PUSH1 0xE0 DUP3 ADD MLOAD DUP2 PUSH1 0x7 ADD SSTORE SWAP1 POP POP CALLER PUSH20 0xFFFFFFFFFFFFFFFFFFFFFFFFFFFFFFFFFFFFFFFF AND DUP7 PUSH32 0x35A5422DB59A8240104BA9A73E22AB1F401B3E478D570724A447B81F3C916D8E DUP8 DUP8 PUSH1 0x40 MLOAD PUSH2 0x3608 SWAP3 SWAP2 SWAP1 PUSH2 0x50A7 JUMP JUMPDEST PUSH1 0x40 MLOAD DUP1 SWAP2 SUB SWAP1 LOG3 POP POP POP PUSH2 0x361B PUSH2 0x38C0 JUMP JUMPDEST POP POP POP JUMP JUMPDEST PUSH1 0xD PUSH1 0x20 MSTORE DUP2 PUSH1 0x0 MSTORE PUSH1 0x40 PUSH1 0x0 KECCAK256 DUP2 DUP2 SLOAD DUP2 LT PUSH2 0x363C JUMPI PUSH1 0x0 DUP1 REVERT JUMPDEST SWAP1 PUSH1 0x0 MSTORE PUSH1 0x20 PUSH1 0x0 KECCAK256 ADD PUSH1 0x0 SWAP2 POP SWAP2 POP POP SLOAD DUP2 JUMP JUMPDEST PUSH2 0x3659 PUSH2 0x3871 JUMP JUMPDEST PUSH1 0x0 PUSH1 0xC PUSH1 0x0 DUP5 DUP2 MSTORE PUSH1 0x20 ADD SWAP1 DUP2 MSTORE PUSH1 0x20 ADD PUSH1 0x0 KECCAK256 SWAP1 POP PUSH1 0x0 ISZERO ISZERO PUSH1 0x5 PUSH1 0x0 CALLER PUSH20 0xFFFFFFFFFFFFFFFFFFFFFFFFFFFFFFFFFFFFFFFF AND PUSH20 0xFFFFFFFFFFFFFFFFFFFFFFFFFFFFFFFFFFFFFFFF AND DUP2 MSTORE PUSH1 0x20 ADD SWAP1 DUP2 MSTORE PUSH1 0x20 ADD PUSH1 0x0 KECCAK256 PUSH1 0x0 SWAP1 SLOAD SWAP1 PUSH2 0x100 EXP SWAP1 DIV PUSH1 0xFF AND ISZERO ISZERO SUB PUSH2 0x36FA JUMPI PUSH1 0x40 MLOAD PUSH32 0x75F4CE8800000000000000000000000000000000000000000000000000000000 DUP2 MSTORE PUSH1 0x4 ADD PUSH1 0x40 MLOAD DUP1 SWAP2 SUB SWAP1 REVERT JUMPDEST PUSH1 0x6 PUSH1 0x9 DUP2 GT ISZERO PUSH2 0x370E JUMPI PUSH2 0x370D PUSH2 0x4118 JUMP JUMPDEST JUMPDEST DUP2 PUSH1 0x4 ADD PUSH1 0x0 SWAP1 SLOAD SWAP1 PUSH2 0x100 EXP SWAP1 DIV PUSH1 0xFF AND PUSH1 0x9 DUP2 GT ISZERO PUSH2 0x3732 JUMPI PUSH2 0x3731 PUSH2 0x4118 JUMP JUMPDEST JUMPDEST EQ PUSH2 0x3769 JUMPI PUSH1 0x40 MLOAD PUSH32 0x4F66018B00000000000000000000000000000000000000000000000000000000 DUP2 MSTORE PUSH1 0x4 ADD PUSH1 0x40 MLOAD DUP1 SWAP2 SUB SWAP1 REVERT JUMPDEST PUSH1 0x0 PUSH1 0x11 PUSH1 0x0 DUP4 PUSH1 0x6 ADD SLOAD DUP2 MSTORE PUSH1 0x20 ADD SWAP1 DUP2 MSTORE PUSH1 0x20 ADD PUSH1 0x0 KECCAK256 SWAP1 POP PUSH2 0x37F9 DUP2 PUSH1 0x2 ADD PUSH1 0x0 SWAP1 SLOAD SWAP1 PUSH2 0x100 EXP SWAP1 DIV PUSH20 0xFFFFFFFFFFFFFFFFFFFFFFFFFFFFFFFFFFFFFFFF AND DUP4 PUSH1 0x8 ADD SLOAD PUSH1 0x4 PUSH1 0x0 SWAP1 SLOAD SWAP1 PUSH2 0x100 EXP SWAP1 DIV PUSH20 0xFFFFFFFFFFFFFFFFFFFFFFFFFFFFFFFFFFFFFFFF AND PUSH20 0xFFFFFFFFFFFFFFFFFFFFFFFFFFFFFFFFFFFFFFFF AND PUSH2 0x38CA SWAP1 SWAP3 SWAP2 SWAP1 PUSH4 0xFFFFFFFF AND JUMP JUMPDEST PUSH1 0x8 DUP3 PUSH1 0x4 ADD PUSH1 0x0 PUSH2 0x100 EXP DUP2 SLOAD DUP2 PUSH1 0xFF MUL NOT AND SWAP1 DUP4 PUSH1 0x9 DUP2 GT ISZERO PUSH2 0x3821 JUMPI PUSH2 0x3820 PUSH2 0x4118 JUMP JUMPDEST JUMPDEST MUL OR SWAP1 SSTORE POP DUP4 PUSH32 0xB00F0EF2C9545D8DFDED4CD4BEE55B3761B8D5D9D6A8DF164995635BFED3C07A TIMESTAMP PUSH1 0x1 DUP7 PUSH1 0x40 MLOAD PUSH2 0x385B SWAP4 SWAP3 SWAP2 SWAP1 PUSH2 0x4FD7 JUMP JUMPDEST PUSH1 0x40 MLOAD DUP1 SWAP2 SUB SWAP1 LOG2 POP POP PUSH2 0x386D PUSH2 0x38C0 JUMP JUMPDEST POP POP JUMP JUMPDEST PUSH1 0x2 PUSH1 0x0 SLOAD SUB PUSH2 0x38B6 JUMPI PUSH1 0x40 MLOAD PUSH32 0x8C379A000000000000000000000000000000000000000000000000000000000 DUP2 MSTORE PUSH1 0x4 ADD PUSH2 0x38AD SWAP1 PUSH2 0x511C JUMP JUMPDEST PUSH1 0x40 MLOAD DUP1 SWAP2 SUB SWAP1 REVERT JUMPDEST PUSH1 0x2 PUSH1 0x0 DUP2 SWAP1 SSTORE POP JUMP JUMPDEST PUSH1 0x1 PUSH1 0x0 DUP2 SWAP1 SSTORE POP JUMP JUMPDEST PUSH2 0x394B DUP4 PUSH4 0xA9059CBB PUSH1 0xE0 SHL DUP5 DUP5 PUSH1 0x40 MLOAD PUSH1 0x24 ADD PUSH2 0x38E9 SWAP3 SWAP2 SWAP1 PUSH2 0x513C JUMP JUMPDEST PUSH1 0x40 MLOAD PUSH1 0x20 DUP2 DUP4 SUB SUB DUP2 MSTORE SWAP1 PUSH1 0x40 MSTORE SWAP1 PUSH28 0xFFFFFFFFFFFFFFFFFFFFFFFFFFFFFFFFFFFFFFFFFFFFFFFFFFFFFFFF NOT AND PUSH1 0x20 DUP3 ADD DUP1 MLOAD PUSH28 0xFFFFFFFFFFFFFFFFFFFFFFFFFFFFFFFFFFFFFFFFFFFFFFFFFFFFFFFF DUP4 DUP2 DUP4 AND OR DUP4 MSTORE POP POP POP POP PUSH2 0x3B2B JUMP JUMPDEST POP POP POP JUMP JUMPDEST PUSH1 0x0 DUP2 PUSH1 0x0 ADD SLOAD SWAP1 POP SWAP2 SWAP1 POP JUMP JUMPDEST PUSH2 0x39E1 DUP5 PUSH4 0x23B872DD PUSH1 0xE0 SHL DUP6 DUP6 DUP6 PUSH1 0x40 MLOAD PUSH1 0x24 ADD PUSH2 0x397F SWAP4 SWAP3 SWAP2 SWAP1 PUSH2 0x5165 JUMP JUMPDEST PUSH1 0x40 MLOAD PUSH1 0x20 DUP2 DUP4 SUB SUB DUP2 MSTORE SWAP1 PUSH1 0x40 MSTORE SWAP1 PUSH28 0xFFFFFFFFFFFFFFFFFFFFFFFFFFFFFFFFFFFFFFFFFFFFFFFFFFFFFFFF NOT AND PUSH1 0x20 DUP3 ADD DUP1 MLOAD PUSH28 0xFFFFFFFFFFFFFFFFFFFFFFFFFFFFFFFFFFFFFFFFFFFFFFFFFFFFFFFF DUP4 DUP2 DUP4 AND OR DUP4 MSTORE POP POP POP POP PUSH2 0x3B2B JUMP JUMPDEST POP POP POP POP JUMP JUMPDEST PUSH2 0x39EF PUSH2 0x3BF3 JUMP JUMPDEST PUSH20 0xFFFFFFFFFFFFFFFFFFFFFFFFFFFFFFFFFFFFFFFF AND PUSH2 0x3A0D PUSH2 0x2A07 JUMP JUMPDEST PUSH20 0xFFFFFFFFFFFFFFFFFFFFFFFFFFFFFFFFFFFFFFFF AND EQ PUSH2 0x3A63 JUMPI PUSH1 0x40 MLOAD PUSH32 0x8C379A000000000000000000000000000000000000000000000000000000000 DUP2 MSTORE PUSH1 0x4 ADD PUSH2 0x3A5A SWAP1 PUSH2 0x51E8 JUMP JUMPDEST PUSH1 0x40 MLOAD DUP1 SWAP2 SUB SWAP1 REVERT JUMPDEST JUMP JUMPDEST PUSH1 0x0 PUSH1 0x1 PUSH1 0x0 SWAP1 SLOAD SWAP1 PUSH2 0x100 EXP SWAP1 DIV PUSH20 0xFFFFFFFFFFFFFFFFFFFFFFFFFFFFFFFFFFFFFFFF AND SWAP1 POP DUP2 PUSH1 0x1 PUSH1 0x0 PUSH2 0x100 EXP DUP2 SLOAD DUP2 PUSH20 0xFFFFFFFFFFFFFFFFFFFFFFFFFFFFFFFFFFFFFFFF MUL NOT AND SWAP1 DUP4 PUSH20 0xFFFFFFFFFFFFFFFFFFFFFFFFFFFFFFFFFFFFFFFF AND MUL OR SWAP1 SSTORE POP DUP2 PUSH20 0xFFFFFFFFFFFFFFFFFFFFFFFFFFFFFFFFFFFFFFFF AND DUP2 PUSH20 0xFFFFFFFFFFFFFFFFFFFFFFFFFFFFFFFFFFFFFFFF AND PUSH32 0x8BE0079C531659141344CD1FD0A4F28419497F9722A3DAAFE3B4186F6B6457E0 PUSH1 0x40 MLOAD PUSH1 0x40 MLOAD DUP1 SWAP2 SUB SWAP1 LOG3 POP POP JUMP JUMPDEST PUSH1 0x0 PUSH2 0x3B8D DUP3 PUSH1 0x40 MLOAD DUP1 PUSH1 0x40 ADD PUSH1 0x40 MSTORE DUP1 PUSH1 0x20 DUP2 MSTORE PUSH1 0x20 ADD PUSH32 0x5361666545524332303A206C6F772D6C6576656C2063616C6C206661696C6564 DUP2 MSTORE POP DUP6 PUSH20 0xFFFFFFFFFFFFFFFFFFFFFFFFFFFFFFFFFFFFFFFF AND PUSH2 0x3BFB SWAP1 SWAP3 SWAP2 SWAP1 PUSH4 0xFFFFFFFF AND JUMP JUMPDEST SWAP1 POP PUSH1 0x0 DUP2 MLOAD EQ DUP1 PUSH2 0x3BAF JUMPI POP DUP1 DUP1 PUSH1 0x20 ADD SWAP1 MLOAD DUP2 ADD SWAP1 PUSH2 0x3BAE SWAP2 SWAP1 PUSH2 0x521D JUMP JUMPDEST JUMPDEST PUSH2 0x3BEE JUMPI PUSH1 0x40 MLOAD PUSH32 0x8C379A000000000000000000000000000000000000000000000000000000000 DUP2 MSTORE PUSH1 0x4 ADD PUSH2 0x3BE5 SWAP1 PUSH2 0x52BC JUMP JUMPDEST PUSH1 0x40 MLOAD DUP1 SWAP2 SUB SWAP1 REVERT JUMPDEST POP POP POP JUMP JUMPDEST PUSH1 0x0 CALLER SWAP1 POP SWAP1 JUMP JUMPDEST PUSH1 0x60 PUSH2 0x3C0A DUP5 DUP5 PUSH1 0x0 DUP6 PUSH2 0x3C13 JUMP JUMPDEST SWAP1 POP SWAP4 SWAP3 POP POP POP JUMP JUMPDEST PUSH1 0x60 DUP3 SELFBALANCE LT ISZERO PUSH2 0x3C58 JUMPI PUSH1 0x40 MLOAD PUSH32 0x8C379A000000000000000000000000000000000000000000000000000000000 DUP2 MSTORE PUSH1 0x4 ADD PUSH2 0x3C4F SWAP1 PUSH2 0x534E JUMP JUMPDEST PUSH1 0x40 MLOAD DUP1 SWAP2 SUB SWAP1 REVERT JUMPDEST PUSH1 0x0 DUP1 DUP7 PUSH20 0xFFFFFFFFFFFFFFFFFFFFFFFFFFFFFFFFFFFFFFFF AND DUP6 DUP8 PUSH1 0x40 MLOAD PUSH2 0x3C81 SWAP2 SWAP1 PUSH2 0x53B5 JUMP JUMPDEST PUSH1 0x0 PUSH1 0x40 MLOAD DUP1 DUP4 SUB DUP2 DUP6 DUP8 GAS CALL SWAP3 POP POP POP RETURNDATASIZE DUP1 PUSH1 0x0 DUP2 EQ PUSH2 0x3CBE JUMPI PUSH1 0x40 MLOAD SWAP2 POP PUSH1 0x1F NOT PUSH1 0x3F RETURNDATASIZE ADD AND DUP3 ADD PUSH1 0x40 MSTORE RETURNDATASIZE DUP3 MSTORE RETURNDATASIZE PUSH1 0x0 PUSH1 0x20 DUP5 ADD RETURNDATACOPY PUSH2 0x3CC3 JUMP JUMPDEST PUSH1 0x60 SWAP2 POP JUMPDEST POP SWAP2 POP SWAP2 POP PUSH2 0x3CD4 DUP8 DUP4 DUP4 DUP8 PUSH2 0x3CE0 JUMP JUMPDEST SWAP3 POP POP POP SWAP5 SWAP4 POP POP POP POP JUMP JUMPDEST PUSH1 0x60 DUP4 ISZERO PUSH2 0x3D42 JUMPI PUSH1 0x0 DUP4 MLOAD SUB PUSH2 0x3D3A JUMPI PUSH2 0x3CFA DUP6 PUSH2 0x3D55 JUMP JUMPDEST PUSH2 0x3D39 JUMPI PUSH1 0x40 MLOAD PUSH32 0x8C379A000000000000000000000000000000000000000000000000000000000 DUP2 MSTORE PUSH1 0x4 ADD PUSH2 0x3D30 SWAP1 PUSH2 0x5418 JUMP JUMPDEST PUSH1 0x40 MLOAD DUP1 SWAP2 SUB SWAP1 REVERT JUMPDEST JUMPDEST DUP3 SWAP1 POP PUSH2 0x3D4D JUMP JUMPDEST PUSH2 0x3D4C DUP4 DUP4 PUSH2 0x3D78 JUMP JUMPDEST JUMPDEST SWAP5 SWAP4 POP POP POP POP JUMP JUMPDEST PUSH1 0x0 DUP1 DUP3 PUSH20 0xFFFFFFFFFFFFFFFFFFFFFFFFFFFFFFFFFFFFFFFF AND EXTCODESIZE GT SWAP1 POP SWAP2 SWAP1 POP JUMP JUMPDEST PUSH1 0x0 DUP3 MLOAD GT ISZERO PUSH2 0x3D8B JUMPI DUP2 MLOAD DUP1 DUP4 PUSH1 0x20 ADD REVERT JUMPDEST DUP1 PUSH1 0x40 MLOAD PUSH32 0x8C379A000000000000000000000000000000000000000000000000000000000 DUP2 MSTORE PUSH1 0x4 ADD PUSH2 0x3DBF SWAP2 SWAP1 PUSH2 0x4FB5 JUMP JUMPDEST PUSH1 0x40 MLOAD DUP1 SWAP2 SUB SWAP1 REVERT JUMPDEST PUSH1 0x40 MLOAD DUP1 PUSH2 0x100 ADD PUSH1 0x40 MSTORE DUP1 PUSH1 0x0 DUP2 MSTORE PUSH1 0x20 ADD PUSH1 0x0 DUP2 MSTORE PUSH1 0x20 ADD PUSH1 0x0 PUSH20 0xFFFFFFFFFFFFFFFFFFFFFFFFFFFFFFFFFFFFFFFF AND DUP2 MSTORE PUSH1 0x20 ADD PUSH1 0x0 DUP2 MSTORE PUSH1 0x20 ADD PUSH1 0x0 DUP2 MSTORE PUSH1 0x20 ADD PUSH1 0x0 ISZERO ISZERO DUP2 MSTORE PUSH1 0x20 ADD PUSH1 0x0 DUP2 MSTORE PUSH1 0x20 ADD PUSH1 0x0 DUP2 MSTORE POP SWAP1 JUMP JUMPDEST PUSH1 0x40 MLOAD DUP1 PUSH1 0x80 ADD PUSH1 0x40 MSTORE DUP1 PUSH1 0x60 DUP2 MSTORE PUSH1 0x20 ADD PUSH1 0x0 PUSH20 0xFFFFFFFFFFFFFFFFFFFFFFFFFFFFFFFFFFFFFFFF AND DUP2 MSTORE PUSH1 0x20 ADD PUSH1 0x0 DUP2 MSTORE PUSH1 0x20 ADD PUSH1 0x0 DUP2 MSTORE POP SWAP1 JUMP JUMPDEST PUSH1 0x40 MLOAD DUP1 PUSH2 0x140 ADD PUSH1 0x40 MSTORE DUP1 PUSH1 0x0 PUSH20 0xFFFFFFFFFFFFFFFFFFFFFFFFFFFFFFFFFFFFFFFF AND DUP2 MSTORE PUSH1 0x20 ADD PUSH1 0x0 DUP2 MSTORE PUSH1 0x20 ADD PUSH1 0x0 DUP2 MSTORE PUSH1 0x20 ADD PUSH1 0x60 DUP2 MSTORE PUSH1 0x20 ADD PUSH1 0x0 PUSH1 0x9 DUP2 GT ISZERO PUSH2 0x3EB5 JUMPI PUSH2 0x3EB4 PUSH2 0x4118 JUMP JUMPDEST JUMPDEST DUP2 MSTORE PUSH1 0x20 ADD PUSH1 0x0 DUP2 MSTORE PUSH1 0x20 ADD PUSH1 0x0 DUP2 MSTORE PUSH1 0x20 ADD PUSH1 0x0 DUP2 MSTORE PUSH1 0x20 ADD PUSH1 0x0 DUP2 MSTORE PUSH1 0x20 ADD PUSH1 0x0 DUP2 MSTORE POP SWAP1 JUMP JUMPDEST PUSH1 0x40 MLOAD DUP1 PUSH1 0x80 ADD PUSH1 0x40 MSTORE DUP1 PUSH1 0x60 DUP2 MSTORE PUSH1 0x20 ADD PUSH1 0x0 PUSH20 0xFFFFFFFFFFFFFFFFFFFFFFFFFFFFFFFFFFFFFFFF AND DUP2 MSTORE PUSH1 0x20 ADD PUSH1 0x0 DUP2 MSTORE PUSH1 0x20 ADD PUSH1 0x0 DUP2 MSTORE POP SWAP1 JUMP JUMPDEST PUSH1 0x0 PUSH1 0x40 MLOAD SWAP1 POP SWAP1 JUMP JUMPDEST PUSH1 0x0 DUP1 REVERT JUMPDEST PUSH1 0x0 DUP1 REVERT JUMPDEST PUSH1 0x0 DUP2 SWAP1 POP SWAP2 SWAP1 POP JUMP JUMPDEST PUSH2 0x3F43 DUP2 PUSH2 0x3F30 JUMP JUMPDEST DUP2 EQ PUSH2 0x3F4E JUMPI PUSH1 0x0 DUP1 REVERT JUMPDEST POP JUMP JUMPDEST PUSH1 0x0 DUP2 CALLDATALOAD SWAP1 POP PUSH2 0x3F60 DUP2 PUSH2 0x3F3A JUMP JUMPDEST SWAP3 SWAP2 POP POP JUMP JUMPDEST PUSH1 0x0 PUSH1 0x20 DUP3 DUP5 SUB SLT ISZERO PUSH2 0x3F7C JUMPI PUSH2 0x3F7B PUSH2 0x3F26 JUMP JUMPDEST JUMPDEST PUSH1 0x0 PUSH2 0x3F8A DUP5 DUP3 DUP6 ADD PUSH2 0x3F51 JUMP JUMPDEST SWAP2 POP POP SWAP3 SWAP2 POP POP JUMP JUMPDEST PUSH1 0x0 PUSH20 0xFFFFFFFFFFFFFFFFFFFFFFFFFFFFFFFFFFFFFFFF DUP3 AND SWAP1 POP SWAP2 SWAP1 POP JUMP JUMPDEST PUSH1 0x0 PUSH2 0x3FBE DUP3 PUSH2 0x3F93 JUMP JUMPDEST SWAP1 POP SWAP2 SWAP1 POP JUMP JUMPDEST PUSH2 0x3FCE DUP2 PUSH2 0x3FB3 JUMP JUMPDEST DUP2 EQ PUSH2 0x3FD9 JUMPI PUSH1 0x0 DUP1 REVERT JUMPDEST POP JUMP JUMPDEST PUSH1 0x0 DUP2 CALLDATALOAD SWAP1 POP PUSH2 0x3FEB DUP2 PUSH2 0x3FC5 JUMP JUMPDEST SWAP3 SWAP2 POP POP JUMP JUMPDEST PUSH1 0x0 PUSH1 0x20 DUP3 DUP5 SUB SLT ISZERO PUSH2 0x4007 JUMPI PUSH2 0x4006 PUSH2 0x3F26 JUMP JUMPDEST JUMPDEST PUSH1 0x0 PUSH2 0x4015 DUP5 DUP3 DUP6 ADD PUSH2 0x3FDC JUMP JUMPDEST SWAP2 POP POP SWAP3 SWAP2 POP POP JUMP JUMPDEST PUSH1 0x0 DUP2 MLOAD SWAP1 POP SWAP2 SWAP1 POP JUMP JUMPDEST PUSH1 0x0 DUP3 DUP3 MSTORE PUSH1 0x20 DUP3 ADD SWAP1 POP SWAP3 SWAP2 POP POP JUMP JUMPDEST PUSH1 0x0 JUMPDEST DUP4 DUP2 LT ISZERO PUSH2 0x4058 JUMPI DUP1 DUP3 ADD MLOAD DUP2 DUP5 ADD MSTORE PUSH1 0x20 DUP2 ADD SWAP1 POP PUSH2 0x403D JUMP JUMPDEST PUSH1 0x0 DUP5 DUP5 ADD MSTORE POP POP POP POP JUMP JUMPDEST PUSH1 0x0 PUSH1 0x1F NOT PUSH1 0x1F DUP4 ADD AND SWAP1 POP SWAP2 SWAP1 POP JUMP JUMPDEST PUSH1 0x0 PUSH2 0x4080 DUP3 PUSH2 0x401E JUMP JUMPDEST PUSH2 0x408A DUP2 DUP6 PUSH2 0x4029 JUMP JUMPDEST SWAP4 POP PUSH2 0x409A DUP2 DUP6 PUSH1 0x20 DUP7 ADD PUSH2 0x403A JUMP JUMPDEST PUSH2 0x40A3 DUP2 PUSH2 0x4064 JUMP JUMPDEST DUP5 ADD SWAP2 POP POP SWAP3 SWAP2 POP POP JUMP JUMPDEST PUSH2 0x40B7 DUP2 PUSH2 0x3FB3 JUMP JUMPDEST DUP3 MSTORE POP POP JUMP JUMPDEST PUSH2 0x40C6 DUP2 PUSH2 0x3F30 JUMP JUMPDEST DUP3 MSTORE POP POP JUMP JUMPDEST PUSH1 0x0 PUSH1 0x80 DUP3 ADD SWAP1 POP DUP2 DUP2 SUB PUSH1 0x0 DUP4 ADD MSTORE PUSH2 0x40E6 DUP2 DUP8 PUSH2 0x4075 JUMP JUMPDEST SWAP1 POP PUSH2 0x40F5 PUSH1 0x20 DUP4 ADD DUP7 PUSH2 0x40AE JUMP JUMPDEST PUSH2 0x4102 PUSH1 0x40 DUP4 ADD DUP6 PUSH2 0x40BD JUMP JUMPDEST PUSH2 0x410F PUSH1 0x60 DUP4 ADD DUP5 PUSH2 0x40BD JUMP JUMPDEST SWAP6 SWAP5 POP POP POP POP POP JUMP JUMPDEST PUSH32 0x4E487B7100000000000000000000000000000000000000000000000000000000 PUSH1 0x0 MSTORE PUSH1 0x21 PUSH1 0x4 MSTORE PUSH1 0x24 PUSH1 0x0 REVERT JUMPDEST PUSH1 0xA DUP2 LT PUSH2 0x4158 JUMPI PUSH2 0x4157 PUSH2 0x4118 JUMP JUMPDEST JUMPDEST POP JUMP JUMPDEST PUSH1 0x0 DUP2 SWAP1 POP PUSH2 0x4169 DUP3 PUSH2 0x4147 JUMP JUMPDEST SWAP2 SWAP1 POP JUMP JUMPDEST PUSH1 0x0 PUSH2 0x4179 DUP3 PUSH2 0x415B JUMP JUMPDEST SWAP1 POP SWAP2 SWAP1 POP JUMP JUMPDEST PUSH2 0x4189 DUP2 PUSH2 0x416E JUMP JUMPDEST DUP3 MSTORE POP POP JUMP JUMPDEST PUSH1 0x0 PUSH2 0x140 DUP3 ADD SWAP1 POP PUSH2 0x41A5 PUSH1 0x0 DUP4 ADD DUP14 PUSH2 0x40AE JUMP JUMPDEST PUSH2 0x41B2 PUSH1 0x20 DUP4 ADD DUP13 PUSH2 0x40BD JUMP JUMPDEST PUSH2 0x41BF PUSH1 0x40 DUP4 ADD DUP12 PUSH2 0x40BD JUMP JUMPDEST DUP2 DUP2 SUB PUSH1 0x60 DUP4 ADD MSTORE PUSH2 0x41D1 DUP2 DUP11 PUSH2 0x4075 JUMP JUMPDEST SWAP1 POP PUSH2 0x41E0 PUSH1 0x80 DUP4 ADD DUP10 PUSH2 0x4180 JUMP JUMPDEST PUSH2 0x41ED PUSH1 0xA0 DUP4 ADD DUP9 PUSH2 0x40BD JUMP JUMPDEST PUSH2 0x41FA PUSH1 0xC0 DUP4 ADD DUP8 PUSH2 0x40BD JUMP JUMPDEST PUSH2 0x4207 PUSH1 0xE0 DUP4 ADD DUP7 PUSH2 0x40BD JUMP JUMPDEST PUSH2 0x4215 PUSH2 0x100 DUP4 ADD DUP6 PUSH2 0x40BD JUMP JUMPDEST PUSH2 0x4223 PUSH2 0x120 DUP4 ADD DUP5 PUSH2 0x40BD JUMP JUMPDEST SWAP12 SWAP11 POP POP POP POP POP POP POP POP POP POP POP JUMP JUMPDEST PUSH2 0x423B DUP2 PUSH2 0x3F30 JUMP JUMPDEST DUP3 MSTORE POP POP JUMP JUMPDEST PUSH2 0x424A DUP2 PUSH2 0x3FB3 JUMP JUMPDEST DUP3 MSTORE POP POP JUMP JUMPDEST PUSH1 0x0 DUP2 ISZERO ISZERO SWAP1 POP SWAP2 SWAP1 POP JUMP JUMPDEST PUSH2 0x4265 DUP2 PUSH2 0x4250 JUMP JUMPDEST DUP3 MSTORE POP POP JUMP JUMPDEST PUSH2 0x100 DUP3 ADD PUSH1 0x0 DUP3 ADD MLOAD PUSH2 0x4282 PUSH1 0x0 DUP6 ADD DUP3 PUSH2 0x4232 JUMP JUMPDEST POP PUSH1 0x20 DUP3 ADD MLOAD PUSH2 0x4295 PUSH1 0x20 DUP6 ADD DUP3 PUSH2 0x4232 JUMP JUMPDEST POP PUSH1 0x40 DUP3 ADD MLOAD PUSH2 0x42A8 PUSH1 0x40 DUP6 ADD DUP3 PUSH2 0x4241 JUMP JUMPDEST POP PUSH1 0x60 DUP3 ADD MLOAD PUSH2 0x42BB PUSH1 0x60 DUP6 ADD DUP3 PUSH2 0x4232 JUMP JUMPDEST POP PUSH1 0x80 DUP3 ADD MLOAD PUSH2 0x42CE PUSH1 0x80 DUP6 ADD DUP3 PUSH2 0x4232 JUMP JUMPDEST POP PUSH1 0xA0 DUP3 ADD MLOAD PUSH2 0x42E1 PUSH1 0xA0 DUP6 ADD DUP3 PUSH2 0x425C JUMP JUMPDEST POP PUSH1 0xC0 DUP3 ADD MLOAD PUSH2 0x42F4 PUSH1 0xC0 DUP6 ADD DUP3 PUSH2 0x4232 JUMP JUMPDEST POP PUSH1 0xE0 DUP3 ADD MLOAD PUSH2 0x4307 PUSH1 0xE0 DUP6 ADD DUP3 PUSH2 0x4232 JUMP JUMPDEST POP POP POP POP JUMP JUMPDEST PUSH1 0x0 PUSH2 0x100 DUP3 ADD SWAP1 POP PUSH2 0x4323 PUSH1 0x0 DUP4 ADD DUP5 PUSH2 0x426B JUMP JUMPDEST SWAP3 SWAP2 POP POP JUMP JUMPDEST PUSH1 0x0 DUP1 REVERT JUMPDEST PUSH1 0x0 DUP1 REVERT JUMPDEST PUSH32 0x4E487B7100000000000000000000000000000000000000000000000000000000 PUSH1 0x0 MSTORE PUSH1 0x41 PUSH1 0x4 MSTORE PUSH1 0x24 PUSH1 0x0 REVERT JUMPDEST PUSH2 0x436B DUP3 PUSH2 0x4064 JUMP JUMPDEST DUP2 ADD DUP2 DUP2 LT PUSH8 0xFFFFFFFFFFFFFFFF DUP3 GT OR ISZERO PUSH2 0x438A JUMPI PUSH2 0x4389 PUSH2 0x4333 JUMP JUMPDEST JUMPDEST DUP1 PUSH1 0x40 MSTORE POP POP POP JUMP JUMPDEST PUSH1 0x0 PUSH2 0x439D PUSH2 0x3F1C JUMP JUMPDEST SWAP1 POP PUSH2 0x43A9 DUP3 DUP3 PUSH2 0x4362 JUMP JUMPDEST SWAP2 SWAP1 POP JUMP JUMPDEST PUSH1 0x0 PUSH8 0xFFFFFFFFFFFFFFFF DUP3 GT ISZERO PUSH2 0x43C9 JUMPI PUSH2 0x43C8 PUSH2 0x4333 JUMP JUMPDEST JUMPDEST PUSH2 0x43D2 DUP3 PUSH2 0x4064 JUMP JUMPDEST SWAP1 POP PUSH1 0x20 DUP2 ADD SWAP1 POP SWAP2 SWAP1 POP JUMP JUMPDEST DUP3 DUP2 DUP4 CALLDATACOPY PUSH1 0x0 DUP4 DUP4 ADD MSTORE POP POP POP JUMP JUMPDEST PUSH1 0x0 PUSH2 0x4401 PUSH2 0x43FC DUP5 PUSH2 0x43AE JUMP JUMPDEST PUSH2 0x4393 JUMP JUMPDEST SWAP1 POP DUP3 DUP2 MSTORE PUSH1 0x20 DUP2 ADD DUP5 DUP5 DUP5 ADD GT ISZERO PUSH2 0x441D JUMPI PUSH2 0x441C PUSH2 0x432E JUMP JUMPDEST JUMPDEST PUSH2 0x4428 DUP5 DUP3 DUP6 PUSH2 0x43DF JUMP JUMPDEST POP SWAP4 SWAP3 POP POP POP JUMP JUMPDEST PUSH1 0x0 DUP3 PUSH1 0x1F DUP4 ADD SLT PUSH2 0x4445 JUMPI PUSH2 0x4444 PUSH2 0x4329 JUMP JUMPDEST JUMPDEST DUP2 CALLDATALOAD PUSH2 0x4455 DUP5 DUP3 PUSH1 0x20 DUP7 ADD PUSH2 0x43EE JUMP JUMPDEST SWAP2 POP POP SWAP3 SWAP2 POP POP JUMP JUMPDEST PUSH1 0x0 DUP1 PUSH1 0x0 PUSH1 0x60 DUP5 DUP7 SUB SLT ISZERO PUSH2 0x4477 JUMPI PUSH2 0x4476 PUSH2 0x3F26 JUMP JUMPDEST JUMPDEST PUSH1 0x0 PUSH2 0x4485 DUP7 DUP3 DUP8 ADD PUSH2 0x3F51 JUMP JUMPDEST SWAP4 POP POP PUSH1 0x20 PUSH2 0x4496 DUP7 DUP3 DUP8 ADD PUSH2 0x3F51 JUMP JUMPDEST SWAP3 POP POP PUSH1 0x40 DUP5 ADD CALLDATALOAD PUSH8 0xFFFFFFFFFFFFFFFF DUP2 GT ISZERO PUSH2 0x44B7 JUMPI PUSH2 0x44B6 PUSH2 0x3F2B JUMP JUMPDEST JUMPDEST PUSH2 0x44C3 DUP7 DUP3 DUP8 ADD PUSH2 0x4430 JUMP JUMPDEST SWAP2 POP POP SWAP3 POP SWAP3 POP SWAP3 JUMP JUMPDEST PUSH1 0x0 DUP2 MLOAD SWAP1 POP SWAP2 SWAP1 POP JUMP JUMPDEST PUSH1 0x0 DUP3 DUP3 MSTORE PUSH1 0x20 DUP3 ADD SWAP1 POP SWAP3 SWAP2 POP POP JUMP JUMPDEST PUSH1 0x0 DUP2 SWAP1 POP PUSH1 0x20 DUP3 ADD SWAP1 POP SWAP2 SWAP1 POP JUMP JUMPDEST PUSH1 0x0 PUSH2 0x4505 DUP4 DUP4 PUSH2 0x4232 JUMP JUMPDEST PUSH1 0x20 DUP4 ADD SWAP1 POP SWAP3 SWAP2 POP POP JUMP JUMPDEST PUSH1 0x0 PUSH1 0x20 DUP3 ADD SWAP1 POP SWAP2 SWAP1 POP JUMP JUMPDEST PUSH1 0x0 PUSH2 0x4529 DUP3 PUSH2 0x44CD JUMP JUMPDEST PUSH2 0x4533 DUP2 DUP6 PUSH2 0x44D8 JUMP JUMPDEST SWAP4 POP PUSH2 0x453E DUP4 PUSH2 0x44E9 JUMP JUMPDEST DUP1 PUSH1 0x0 JUMPDEST DUP4 DUP2 LT ISZERO PUSH2 0x456F JUMPI DUP2 MLOAD PUSH2 0x4556 DUP9 DUP3 PUSH2 0x44F9 JUMP JUMPDEST SWAP8 POP PUSH2 0x4561 DUP4 PUSH2 0x4511 JUMP JUMPDEST SWAP3 POP POP PUSH1 0x1 DUP2 ADD SWAP1 POP PUSH2 0x4542 JUMP JUMPDEST POP DUP6 SWAP4 POP POP POP POP SWAP3 SWAP2 POP POP JUMP JUMPDEST PUSH1 0x0 PUSH1 0x20 DUP3 ADD SWAP1 POP DUP2 DUP2 SUB PUSH1 0x0 DUP4 ADD MSTORE PUSH2 0x4596 DUP2 DUP5 PUSH2 0x451E JUMP JUMPDEST SWAP1 POP SWAP3 SWAP2 POP POP JUMP JUMPDEST PUSH2 0x45A7 DUP2 PUSH2 0x4250 JUMP JUMPDEST DUP2 EQ PUSH2 0x45B2 JUMPI PUSH1 0x0 DUP1 REVERT JUMPDEST POP JUMP JUMPDEST PUSH1 0x0 DUP2 CALLDATALOAD SWAP1 POP PUSH2 0x45C4 DUP2 PUSH2 0x459E JUMP JUMPDEST SWAP3 SWAP2 POP POP JUMP JUMPDEST PUSH1 0x0 DUP1 PUSH1 0x40 DUP4 DUP6 SUB SLT ISZERO PUSH2 0x45E1 JUMPI PUSH2 0x45E0 PUSH2 0x3F26 JUMP JUMPDEST JUMPDEST PUSH1 0x0 PUSH2 0x45EF DUP6 DUP3 DUP7 ADD PUSH2 0x3FDC JUMP JUMPDEST SWAP3 POP POP PUSH1 0x20 PUSH2 0x4600 DUP6 DUP3 DUP7 ADD PUSH2 0x45B5 JUMP JUMPDEST SWAP2 POP POP SWAP3 POP SWAP3 SWAP1 POP JUMP JUMPDEST PUSH1 0x0 PUSH1 0x20 DUP3 ADD SWAP1 POP PUSH2 0x461F PUSH1 0x0 DUP4 ADD DUP5 PUSH2 0x40AE JUMP JUMPDEST SWAP3 SWAP2 POP POP JUMP JUMPDEST PUSH1 0x0 DUP1 PUSH1 0x40 DUP4 DUP6 SUB SLT ISZERO PUSH2 0x463C JUMPI PUSH2 0x463B PUSH2 0x3F26 JUMP JUMPDEST JUMPDEST PUSH1 0x0 PUSH2 0x464A DUP6 DUP3 DUP7 ADD PUSH2 0x3F51 JUMP JUMPDEST SWAP3 POP POP PUSH1 0x20 PUSH2 0x465B DUP6 DUP3 DUP7 ADD PUSH2 0x3F51 JUMP JUMPDEST SWAP2 POP POP SWAP3 POP SWAP3 SWAP1 POP JUMP JUMPDEST PUSH1 0x0 PUSH1 0x20 DUP3 ADD SWAP1 POP PUSH2 0x467A PUSH1 0x0 DUP4 ADD DUP5 PUSH2 0x40BD JUMP JUMPDEST SWAP3 SWAP2 POP POP JUMP JUMPDEST PUSH1 0x0 DUP1 PUSH1 0x40 DUP4 DUP6 SUB SLT ISZERO PUSH2 0x4697 JUMPI PUSH2 0x4696 PUSH2 0x3F26 JUMP JUMPDEST JUMPDEST PUSH1 0x0 PUSH2 0x46A5 DUP6 DUP3 DUP7 ADD PUSH2 0x3F51 JUMP JUMPDEST SWAP3 POP POP PUSH1 0x20 DUP4 ADD CALLDATALOAD PUSH8 0xFFFFFFFFFFFFFFFF DUP2 GT ISZERO PUSH2 0x46C6 JUMPI PUSH2 0x46C5 PUSH2 0x3F2B JUMP JUMPDEST JUMPDEST PUSH2 0x46D2 DUP6 DUP3 DUP7 ADD PUSH2 0x4430 JUMP JUMPDEST SWAP2 POP POP SWAP3 POP SWAP3 SWAP1 POP JUMP JUMPDEST PUSH1 0x0 DUP3 DUP3 MSTORE PUSH1 0x20 DUP3 ADD SWAP1 POP SWAP3 SWAP2 POP POP JUMP JUMPDEST PUSH1 0x0 PUSH2 0x46F8 DUP3 PUSH2 0x401E JUMP JUMPDEST PUSH2 0x4702 DUP2 DUP6 PUSH2 0x46DC JUMP JUMPDEST SWAP4 POP PUSH2 0x4712 DUP2 DUP6 PUSH1 0x20 DUP7 ADD PUSH2 0x403A JUMP JUMPDEST PUSH2 0x471B DUP2 PUSH2 0x4064 JUMP JUMPDEST DUP5 ADD SWAP2 POP POP SWAP3 SWAP2 POP POP JUMP JUMPDEST PUSH1 0x0 PUSH1 0x80 DUP4 ADD PUSH1 0x0 DUP4 ADD MLOAD DUP5 DUP3 SUB PUSH1 0x0 DUP7 ADD MSTORE PUSH2 0x4743 DUP3 DUP3 PUSH2 0x46ED JUMP JUMPDEST SWAP2 POP POP PUSH1 0x20 DUP4 ADD MLOAD PUSH2 0x4758 PUSH1 0x20 DUP7 ADD DUP3 PUSH2 0x4241 JUMP JUMPDEST POP PUSH1 0x40 DUP4 ADD MLOAD PUSH2 0x476B PUSH1 0x40 DUP7 ADD DUP3 PUSH2 0x4232 JUMP JUMPDEST POP PUSH1 0x60 DUP4 ADD MLOAD PUSH2 0x477E PUSH1 0x60 DUP7 ADD DUP3 PUSH2 0x4232 JUMP JUMPDEST POP DUP1 SWAP2 POP POP SWAP3 SWAP2 POP POP JUMP JUMPDEST PUSH1 0x0 PUSH1 0x20 DUP3 ADD SWAP1 POP DUP2 DUP2 SUB PUSH1 0x0 DUP4 ADD MSTORE PUSH2 0x47A3 DUP2 DUP5 PUSH2 0x4726 JUMP JUMPDEST SWAP1 POP SWAP3 SWAP2 POP POP JUMP JUMPDEST PUSH2 0x47B4 DUP2 PUSH2 0x4250 JUMP JUMPDEST DUP3 MSTORE POP POP JUMP JUMPDEST PUSH1 0x0 PUSH1 0x20 DUP3 ADD SWAP1 POP PUSH2 0x47CF PUSH1 0x0 DUP4 ADD DUP5 PUSH2 0x47AB JUMP JUMPDEST SWAP3 SWAP2 POP POP JUMP JUMPDEST PUSH2 0x47DE DUP2 PUSH2 0x416E JUMP JUMPDEST DUP3 MSTORE POP POP JUMP JUMPDEST PUSH1 0x0 PUSH2 0x140 DUP4 ADD PUSH1 0x0 DUP4 ADD MLOAD PUSH2 0x47FD PUSH1 0x0 DUP7 ADD DUP3 PUSH2 0x4241 JUMP JUMPDEST POP PUSH1 0x20 DUP4 ADD MLOAD PUSH2 0x4810 PUSH1 0x20 DUP7 ADD DUP3 PUSH2 0x4232 JUMP JUMPDEST POP PUSH1 0x40 DUP4 ADD MLOAD PUSH2 0x4823 PUSH1 0x40 DUP7 ADD DUP3 PUSH2 0x4232 JUMP JUMPDEST POP PUSH1 0x60 DUP4 ADD MLOAD DUP5 DUP3 SUB PUSH1 0x60 DUP7 ADD MSTORE PUSH2 0x483B DUP3 DUP3 PUSH2 0x46ED JUMP JUMPDEST SWAP2 POP POP PUSH1 0x80 DUP4 ADD MLOAD PUSH2 0x4850 PUSH1 0x80 DUP7 ADD DUP3 PUSH2 0x47D5 JUMP JUMPDEST POP PUSH1 0xA0 DUP4 ADD MLOAD PUSH2 0x4863 PUSH1 0xA0 DUP7 ADD DUP3 PUSH2 0x4232 JUMP JUMPDEST POP PUSH1 0xC0 DUP4 ADD MLOAD PUSH2 0x4876 PUSH1 0xC0 DUP7 ADD DUP3 PUSH2 0x4232 JUMP JUMPDEST POP PUSH1 0xE0 DUP4 ADD MLOAD PUSH2 0x4889 PUSH1 0xE0 DUP7 ADD DUP3 PUSH2 0x4232 JUMP JUMPDEST POP PUSH2 0x100 DUP4 ADD MLOAD PUSH2 0x489E PUSH2 0x100 DUP7 ADD DUP3 PUSH2 0x4232 JUMP JUMPDEST POP PUSH2 0x120 DUP4 ADD MLOAD PUSH2 0x48B3 PUSH2 0x120 DUP7 ADD DUP3 PUSH2 0x4232 JUMP JUMPDEST POP DUP1 SWAP2 POP POP SWAP3 SWAP2 POP POP JUMP JUMPDEST PUSH1 0x0 PUSH1 0x20 DUP3 ADD SWAP1 POP DUP2 DUP2 SUB PUSH1 0x0 DUP4 ADD MSTORE PUSH2 0x48D8 DUP2 DUP5 PUSH2 0x47E4 JUMP JUMPDEST SWAP1 POP SWAP3 SWAP2 POP POP JUMP JUMPDEST PUSH1 0x0 DUP1 PUSH1 0x0 DUP1 PUSH1 0x80 DUP6 DUP8 SUB SLT ISZERO PUSH2 0x48FA JUMPI PUSH2 0x48F9 PUSH2 0x3F26 JUMP JUMPDEST JUMPDEST PUSH1 0x0 PUSH2 0x4908 DUP8 DUP3 DUP9 ADD PUSH2 0x3F51 JUMP JUMPDEST SWAP5 POP POP PUSH1 0x20 PUSH2 0x4919 DUP8 DUP3 DUP9 ADD PUSH2 0x3F51 JUMP JUMPDEST SWAP4 POP POP PUSH1 0x40 PUSH2 0x492A DUP8 DUP3 DUP9 ADD PUSH2 0x3F51 JUMP JUMPDEST SWAP3 POP POP PUSH1 0x60 DUP6 ADD CALLDATALOAD PUSH8 0xFFFFFFFFFFFFFFFF DUP2 GT ISZERO PUSH2 0x494B JUMPI PUSH2 0x494A PUSH2 0x3F2B JUMP JUMPDEST JUMPDEST PUSH2 0x4957 DUP8 DUP3 DUP9 ADD PUSH2 0x4430 JUMP JUMPDEST SWAP2 POP POP SWAP3 SWAP6 SWAP2 SWAP5 POP SWAP3 POP JUMP JUMPDEST PUSH1 0x0 PUSH1 0x20 DUP3 DUP5 SUB SLT ISZERO PUSH2 0x4979 JUMPI PUSH2 0x4978 PUSH2 0x3F26 JUMP JUMPDEST JUMPDEST PUSH1 0x0 DUP3 ADD CALLDATALOAD PUSH8 0xFFFFFFFFFFFFFFFF DUP2 GT ISZERO PUSH2 0x4997 JUMPI PUSH2 0x4996 PUSH2 0x3F2B JUMP JUMPDEST JUMPDEST PUSH2 0x49A3 DUP5 DUP3 DUP6 ADD PUSH2 0x4430 JUMP JUMPDEST SWAP2 POP POP SWAP3 SWAP2 POP POP JUMP JUMPDEST PUSH1 0x0 PUSH1 0x80 DUP4 ADD PUSH1 0x0 DUP4 ADD MLOAD DUP5 DUP3 SUB PUSH1 0x0 DUP7 ADD MSTORE PUSH2 0x49C9 DUP3 DUP3 PUSH2 0x46ED JUMP JUMPDEST SWAP2 POP POP PUSH1 0x20 DUP4 ADD MLOAD PUSH2 0x49DE PUSH1 0x20 DUP7 ADD DUP3 PUSH2 0x4241 JUMP JUMPDEST POP PUSH1 0x40 DUP4 ADD MLOAD PUSH2 0x49F1 PUSH1 0x40 DUP7 ADD DUP3 PUSH2 0x4232 JUMP JUMPDEST POP PUSH1 0x60 DUP4 ADD MLOAD PUSH2 0x4A04 PUSH1 0x60 DUP7 ADD DUP3 PUSH2 0x4232 JUMP JUMPDEST POP DUP1 SWAP2 POP POP SWAP3 SWAP2 POP POP JUMP JUMPDEST PUSH1 0x0 PUSH1 0x20 DUP3 ADD SWAP1 POP DUP2 DUP2 SUB PUSH1 0x0 DUP4 ADD MSTORE PUSH2 0x4A29 DUP2 DUP5 PUSH2 0x49AC JUMP JUMPDEST SWAP1 POP SWAP3 SWAP2 POP POP JUMP JUMPDEST PUSH1 0x0 DUP2 SWAP1 POP SWAP2 SWAP1 POP JUMP JUMPDEST PUSH1 0x0 PUSH2 0x4A56 PUSH2 0x4A51 PUSH2 0x4A4C DUP5 PUSH2 0x3F93 JUMP JUMPDEST PUSH2 0x4A31 JUMP JUMPDEST PUSH2 0x3F93 JUMP JUMPDEST SWAP1 POP SWAP2 SWAP1 POP JUMP JUMPDEST PUSH1 0x0 PUSH2 0x4A68 DUP3 PUSH2 0x4A3B JUMP JUMPDEST SWAP1 POP SWAP2 SWAP1 POP JUMP JUMPDEST PUSH1 0x0 PUSH2 0x4A7A DUP3 PUSH2 0x4A5D JUMP JUMPDEST SWAP1 POP SWAP2 SWAP1 POP JUMP JUMPDEST PUSH2 0x4A8A DUP2 PUSH2 0x4A6F JUMP JUMPDEST DUP3 MSTORE POP POP JUMP JUMPDEST PUSH1 0x0 PUSH1 0x20 DUP3 ADD SWAP1 POP PUSH2 0x4AA5 PUSH1 0x0 DUP4 ADD DUP5 PUSH2 0x4A81 JUMP JUMPDEST SWAP3 SWAP2 POP POP JUMP JUMPDEST PUSH1 0x0 DUP1 PUSH1 0x0 PUSH1 0x60 DUP5 DUP7 SUB SLT ISZERO PUSH2 0x4AC4 JUMPI PUSH2 0x4AC3 PUSH2 0x3F26 JUMP JUMPDEST JUMPDEST PUSH1 0x0 PUSH2 0x4AD2 DUP7 DUP3 DUP8 ADD PUSH2 0x3F51 JUMP JUMPDEST SWAP4 POP POP PUSH1 0x20 PUSH2 0x4AE3 DUP7 DUP3 DUP8 ADD PUSH2 0x3F51 JUMP JUMPDEST SWAP3 POP POP PUSH1 0x40 PUSH2 0x4AF4 DUP7 DUP3 DUP8 ADD PUSH2 0x3F51 JUMP JUMPDEST SWAP2 POP POP SWAP3 POP SWAP3 POP SWAP3 JUMP JUMPDEST PUSH1 0x0 DUP1 PUSH1 0x40 DUP4 DUP6 SUB SLT ISZERO PUSH2 0x4B15 JUMPI PUSH2 0x4B14 PUSH2 0x3F26 JUMP JUMPDEST JUMPDEST PUSH1 0x0 PUSH2 0x4B23 DUP6 DUP3 DUP7 ADD PUSH2 0x3FDC JUMP JUMPDEST SWAP3 POP POP PUSH1 0x20 PUSH2 0x4B34 DUP6 DUP3 DUP7 ADD PUSH2 0x3F51 JUMP JUMPDEST SWAP2 POP POP SWAP3 POP SWAP3 SWAP1 POP JUMP JUMPDEST PUSH32 0x4E487B7100000000000000000000000000000000000000000000000000000000 PUSH1 0x0 MSTORE PUSH1 0x22 PUSH1 0x4 MSTORE PUSH1 0x24 PUSH1 0x0 REVERT JUMPDEST PUSH1 0x0 PUSH1 0x2 DUP3 DIV SWAP1 POP PUSH1 0x1 DUP3 AND DUP1 PUSH2 0x4B85 JUMPI PUSH1 0x7F DUP3 AND SWAP2 POP JUMPDEST PUSH1 0x20 DUP3 LT DUP2 SUB PUSH2 0x4B98 JUMPI PUSH2 0x4B97 PUSH2 0x4B3E JUMP JUMPDEST JUMPDEST POP SWAP2 SWAP1 POP JUMP JUMPDEST PUSH1 0x0 DUP2 SWAP1 POP SWAP3 SWAP2 POP POP JUMP JUMPDEST PUSH1 0x0 PUSH2 0x4BB4 DUP3 PUSH2 0x401E JUMP JUMPDEST PUSH2 0x4BBE DUP2 DUP6 PUSH2 0x4B9E JUMP JUMPDEST SWAP4 POP PUSH2 0x4BCE DUP2 DUP6 PUSH1 0x20 DUP7 ADD PUSH2 0x403A JUMP JUMPDEST DUP1 DUP5 ADD SWAP2 POP POP SWAP3 SWAP2 POP POP JUMP JUMPDEST PUSH1 0x0 PUSH2 0x4BE6 DUP3 DUP5 PUSH2 0x4BA9 JUMP JUMPDEST SWAP2 POP DUP2 SWAP1 POP SWAP3 SWAP2 POP POP JUMP JUMPDEST PUSH32 0x4E487B7100000000000000000000000000000000000000000000000000000000 PUSH1 0x0 MSTORE PUSH1 0x11 PUSH1 0x4 MSTORE PUSH1 0x24 PUSH1 0x0 REVERT JUMPDEST PUSH1 0x0 PUSH2 0x4C2B DUP3 PUSH2 0x3F30 JUMP JUMPDEST SWAP2 POP PUSH32 0xFFFFFFFFFFFFFFFFFFFFFFFFFFFFFFFFFFFFFFFFFFFFFFFFFFFFFFFFFFFFFFFF DUP3 SUB PUSH2 0x4C5D JUMPI PUSH2 0x4C5C PUSH2 0x4BF1 JUMP JUMPDEST JUMPDEST PUSH1 0x1 DUP3 ADD SWAP1 POP SWAP2 SWAP1 POP JUMP JUMPDEST PUSH1 0x0 DUP2 SWAP1 POP DUP2 PUSH1 0x0 MSTORE PUSH1 0x20 PUSH1 0x0 KECCAK256 SWAP1 POP SWAP2 SWAP1 POP JUMP JUMPDEST PUSH1 0x0 PUSH1 0x20 PUSH1 0x1F DUP4 ADD DIV SWAP1 POP SWAP2 SWAP1 POP JUMP JUMPDEST PUSH1 0x0 DUP3 DUP3 SHL SWAP1 POP SWAP3 SWAP2 POP POP JUMP JUMPDEST PUSH1 0x0 PUSH1 0x8 DUP4 MUL PUSH2 0x4CCA PUSH32 0xFFFFFFFFFFFFFFFFFFFFFFFFFFFFFFFFFFFFFFFFFFFFFFFFFFFFFFFFFFFFFFFF DUP3 PUSH2 0x4C8D JUMP JUMPDEST PUSH2 0x4CD4 DUP7 DUP4 PUSH2 0x4C8D JUMP JUMPDEST SWAP6 POP DUP1 NOT DUP5 AND SWAP4 POP DUP1 DUP7 AND DUP5 OR SWAP3 POP POP POP SWAP4 SWAP3 POP POP POP JUMP JUMPDEST PUSH1 0x0 PUSH2 0x4D07 PUSH2 0x4D02 PUSH2 0x4CFD DUP5 PUSH2 0x3F30 JUMP JUMPDEST PUSH2 0x4A31 JUMP JUMPDEST PUSH2 0x3F30 JUMP JUMPDEST SWAP1 POP SWAP2 SWAP1 POP JUMP JUMPDEST PUSH1 0x0 DUP2 SWAP1 POP SWAP2 SWAP1 POP JUMP JUMPDEST PUSH2 0x4D21 DUP4 PUSH2 0x4CEC JUMP JUMPDEST PUSH2 0x4D35 PUSH2 0x4D2D DUP3 PUSH2 0x4D0E JUMP JUMPDEST DUP5 DUP5 SLOAD PUSH2 0x4C9A JUMP JUMPDEST DUP3 SSTORE POP POP POP POP JUMP JUMPDEST PUSH1 0x0 SWAP1 JUMP JUMPDEST PUSH2 0x4D4A PUSH2 0x4D3D JUMP JUMPDEST PUSH2 0x4D55 DUP2 DUP5 DUP5 PUSH2 0x4D18 JUMP JUMPDEST POP POP POP JUMP JUMPDEST JUMPDEST DUP2 DUP2 LT ISZERO PUSH2 0x4D79 JUMPI PUSH2 0x4D6E PUSH1 0x0 DUP3 PUSH2 0x4D42 JUMP JUMPDEST PUSH1 0x1 DUP2 ADD SWAP1 POP PUSH2 0x4D5B JUMP JUMPDEST POP POP JUMP JUMPDEST PUSH1 0x1F DUP3 GT ISZERO PUSH2 0x4DBE JUMPI PUSH2 0x4D8F DUP2 PUSH2 0x4C68 JUMP JUMPDEST PUSH2 0x4D98 DUP5 PUSH2 0x4C7D JUMP JUMPDEST DUP2 ADD PUSH1 0x20 DUP6 LT ISZERO PUSH2 0x4DA7 JUMPI DUP2 SWAP1 POP JUMPDEST PUSH2 0x4DBB PUSH2 0x4DB3 DUP6 PUSH2 0x4C7D JUMP JUMPDEST DUP4 ADD DUP3 PUSH2 0x4D5A JUMP JUMPDEST POP POP JUMPDEST POP POP POP JUMP JUMPDEST PUSH1 0x0 DUP3 DUP3 SHR SWAP1 POP SWAP3 SWAP2 POP POP JUMP JUMPDEST PUSH1 0x0 PUSH2 0x4DE1 PUSH1 0x0 NOT DUP5 PUSH1 0x8 MUL PUSH2 0x4DC3 JUMP JUMPDEST NOT DUP1 DUP4 AND SWAP2 POP POP SWAP3 SWAP2 POP POP JUMP JUMPDEST PUSH1 0x0 PUSH2 0x4DFA DUP4 DUP4 PUSH2 0x4DD0 JUMP JUMPDEST SWAP2 POP DUP3 PUSH1 0x2 MUL DUP3 OR SWAP1 POP SWAP3 SWAP2 POP POP JUMP JUMPDEST PUSH2 0x4E13 DUP3 PUSH2 0x401E JUMP JUMPDEST PUSH8 0xFFFFFFFFFFFFFFFF DUP2 GT ISZERO PUSH2 0x4E2C JUMPI PUSH2 0x4E2B PUSH2 0x4333 JUMP JUMPDEST JUMPDEST PUSH2 0x4E36 DUP3 SLOAD PUSH2 0x4B6D JUMP JUMPDEST PUSH2 0x4E41 DUP3 DUP3 DUP6 PUSH2 0x4D7D JUMP JUMPDEST PUSH1 0x0 PUSH1 0x20 SWAP1 POP PUSH1 0x1F DUP4 GT PUSH1 0x1 DUP2 EQ PUSH2 0x4E74 JUMPI PUSH1 0x0 DUP5 ISZERO PUSH2 0x4E62 JUMPI DUP3 DUP8 ADD MLOAD SWAP1 POP JUMPDEST PUSH2 0x4E6C DUP6 DUP3 PUSH2 0x4DEE JUMP JUMPDEST DUP7 SSTORE POP PUSH2 0x4ED4 JUMP JUMPDEST PUSH1 0x1F NOT DUP5 AND PUSH2 0x4E82 DUP7 PUSH2 0x4C68 JUMP JUMPDEST PUSH1 0x0 JUMPDEST DUP3 DUP2 LT ISZERO PUSH2 0x4EAA JUMPI DUP5 DUP10 ADD MLOAD DUP3 SSTORE PUSH1 0x1 DUP3 ADD SWAP2 POP PUSH1 0x20 DUP6 ADD SWAP5 POP PUSH1 0x20 DUP2 ADD SWAP1 POP PUSH2 0x4E85 JUMP JUMPDEST DUP7 DUP4 LT ISZERO PUSH2 0x4EC7 JUMPI DUP5 DUP10 ADD MLOAD PUSH2 0x4EC3 PUSH1 0x1F DUP10 AND DUP3 PUSH2 0x4DD0 JUMP JUMPDEST DUP4 SSTORE POP JUMPDEST PUSH1 0x1 PUSH1 0x2 DUP9 MUL ADD DUP9 SSTORE POP POP POP JUMPDEST POP POP POP POP POP POP JUMP JUMPDEST PUSH1 0x0 PUSH1 0x60 DUP3 ADD SWAP1 POP PUSH2 0x4EF1 PUSH1 0x0 DUP4 ADD DUP7 PUSH2 0x40BD JUMP JUMPDEST PUSH2 0x4EFE PUSH1 0x20 DUP4 ADD DUP6 PUSH2 0x40BD JUMP JUMPDEST DUP2 DUP2 SUB PUSH1 0x40 DUP4 ADD MSTORE PUSH2 0x4F10 DUP2 DUP5 PUSH2 0x4075 JUMP JUMPDEST SWAP1 POP SWAP5 SWAP4 POP POP POP POP JUMP JUMPDEST PUSH1 0x0 PUSH1 0x60 DUP3 ADD SWAP1 POP PUSH2 0x4F2F PUSH1 0x0 DUP4 ADD DUP7 PUSH2 0x40BD JUMP JUMPDEST PUSH2 0x4F3C PUSH1 0x20 DUP4 ADD DUP6 PUSH2 0x40BD JUMP JUMPDEST PUSH2 0x4F49 PUSH1 0x40 DUP4 ADD DUP5 PUSH2 0x40BD JUMP JUMPDEST SWAP5 SWAP4 POP POP POP POP JUMP JUMPDEST PUSH1 0x0 PUSH1 0x40 DUP3 ADD SWAP1 POP PUSH2 0x4F66 PUSH1 0x0 DUP4 ADD DUP6 PUSH2 0x40BD JUMP JUMPDEST DUP2 DUP2 SUB PUSH1 0x20 DUP4 ADD MSTORE PUSH2 0x4F78 DUP2 DUP5 PUSH2 0x4075 JUMP JUMPDEST SWAP1 POP SWAP4 SWAP3 POP POP POP JUMP JUMPDEST PUSH1 0x0 PUSH2 0x4F8C DUP3 PUSH2 0x3F30 JUMP JUMPDEST SWAP2 POP PUSH2 0x4F97 DUP4 PUSH2 0x3F30 JUMP JUMPDEST SWAP3 POP DUP3 DUP3 SUB SWAP1 POP DUP2 DUP2 GT ISZERO PUSH2 0x4FAF JUMPI PUSH2 0x4FAE PUSH2 0x4BF1 JUMP JUMPDEST JUMPDEST SWAP3 SWAP2 POP POP JUMP JUMPDEST PUSH1 0x0 PUSH1 0x20 DUP3 ADD SWAP1 POP DUP2 DUP2 SUB PUSH1 0x0 DUP4 ADD MSTORE PUSH2 0x4FCF DUP2 DUP5 PUSH2 0x4075 JUMP JUMPDEST SWAP1 POP SWAP3 SWAP2 POP POP JUMP JUMPDEST PUSH1 0x0 PUSH1 0x60 DUP3 ADD SWAP1 POP PUSH2 0x4FEC PUSH1 0x0 DUP4 ADD DUP7 PUSH2 0x40BD JUMP JUMPDEST PUSH2 0x4FF9 PUSH1 0x20 DUP4 ADD DUP6 PUSH2 0x47AB JUMP JUMPDEST DUP2 DUP2 SUB PUSH1 0x40 DUP4 ADD MSTORE PUSH2 0x500B DUP2 DUP5 PUSH2 0x4075 JUMP JUMPDEST SWAP1 POP SWAP5 SWAP4 POP POP POP POP JUMP JUMPDEST PUSH32 0x4F776E61626C653A206E6577206F776E657220697320746865207A65726F2061 PUSH1 0x0 DUP3 ADD MSTORE PUSH32 0x6464726573730000000000000000000000000000000000000000000000000000 PUSH1 0x20 DUP3 ADD MSTORE POP JUMP JUMPDEST PUSH1 0x0 PUSH2 0x5071 PUSH1 0x26 DUP4 PUSH2 0x4029 JUMP JUMPDEST SWAP2 POP PUSH2 0x507C DUP3 PUSH2 0x5015 JUMP JUMPDEST PUSH1 0x40 DUP3 ADD SWAP1 POP SWAP2 SWAP1 POP JUMP JUMPDEST PUSH1 0x0 PUSH1 0x20 DUP3 ADD SWAP1 POP DUP2 DUP2 SUB PUSH1 0x0 DUP4 ADD MSTORE PUSH2 0x50A0 DUP2 PUSH2 0x5064 JUMP JUMPDEST SWAP1 POP SWAP2 SWAP1 POP JUMP JUMPDEST PUSH1 0x0 PUSH1 0x40 DUP3 ADD SWAP1 POP PUSH2 0x50BC PUSH1 0x0 DUP4 ADD DUP6 PUSH2 0x40BD JUMP JUMPDEST PUSH2 0x50C9 PUSH1 0x20 DUP4 ADD DUP5 PUSH2 0x40BD JUMP JUMPDEST SWAP4 SWAP3 POP POP POP JUMP JUMPDEST PUSH32 0x5265656E7472616E637947756172643A207265656E7472616E742063616C6C00 PUSH1 0x0 DUP3 ADD MSTORE POP JUMP JUMPDEST PUSH1 0x0 PUSH2 0x5106 PUSH1 0x1F DUP4 PUSH2 0x4029 JUMP JUMPDEST SWAP2 POP PUSH2 0x5111 DUP3 PUSH2 0x50D0 JUMP JUMPDEST PUSH1 0x20 DUP3 ADD SWAP1 POP SWAP2 SWAP1 POP JUMP JUMPDEST PUSH1 0x0 PUSH1 0x20 DUP3 ADD SWAP1 POP DUP2 DUP2 SUB PUSH1 0x0 DUP4 ADD MSTORE PUSH2 0x5135 DUP2 PUSH2 0x50F9 JUMP JUMPDEST SWAP1 POP SWAP2 SWAP1 POP JUMP JUMPDEST PUSH1 0x0 PUSH1 0x40 DUP3 ADD SWAP1 POP PUSH2 0x5151 PUSH1 0x0 DUP4 ADD DUP6 PUSH2 0x40AE JUMP JUMPDEST PUSH2 0x515E PUSH1 0x20 DUP4 ADD DUP5 PUSH2 0x40BD JUMP JUMPDEST SWAP4 SWAP3 POP POP POP JUMP JUMPDEST PUSH1 0x0 PUSH1 0x60 DUP3 ADD SWAP1 POP PUSH2 0x517A PUSH1 0x0 DUP4 ADD DUP7 PUSH2 0x40AE JUMP JUMPDEST PUSH2 0x5187 PUSH1 0x20 DUP4 ADD DUP6 PUSH2 0x40AE JUMP JUMPDEST PUSH2 0x5194 PUSH1 0x40 DUP4 ADD DUP5 PUSH2 0x40BD JUMP JUMPDEST SWAP5 SWAP4 POP POP POP POP JUMP JUMPDEST PUSH32 0x4F776E61626C653A2063616C6C6572206973206E6F7420746865206F776E6572 PUSH1 0x0 DUP3 ADD MSTORE POP JUMP JUMPDEST PUSH1 0x0 PUSH2 0x51D2 PUSH1 0x20 DUP4 PUSH2 0x4029 JUMP JUMPDEST SWAP2 POP PUSH2 0x51DD DUP3 PUSH2 0x519C JUMP JUMPDEST PUSH1 0x20 DUP3 ADD SWAP1 POP SWAP2 SWAP1 POP JUMP JUMPDEST PUSH1 0x0 PUSH1 0x20 DUP3 ADD SWAP1 POP DUP2 DUP2 SUB PUSH1 0x0 DUP4 ADD MSTORE PUSH2 0x5201 DUP2 PUSH2 0x51C5 JUMP JUMPDEST SWAP1 POP SWAP2 SWAP1 POP JUMP JUMPDEST PUSH1 0x0 DUP2 MLOAD SWAP1 POP PUSH2 0x5217 DUP2 PUSH2 0x459E JUMP JUMPDEST SWAP3 SWAP2 POP POP JUMP JUMPDEST PUSH1 0x0 PUSH1 0x20 DUP3 DUP5 SUB SLT ISZERO PUSH2 0x5233 JUMPI PUSH2 0x5232 PUSH2 0x3F26 JUMP JUMPDEST JUMPDEST PUSH1 0x0 PUSH2 0x5241 DUP5 DUP3 DUP6 ADD PUSH2 0x5208 JUMP JUMPDEST SWAP2 POP POP SWAP3 SWAP2 POP POP JUMP JUMPDEST PUSH32 0x5361666545524332303A204552433230206F7065726174696F6E20646964206E PUSH1 0x0 DUP3 ADD MSTORE PUSH32 0x6F74207375636365656400000000000000000000000000000000000000000000 PUSH1 0x20 DUP3 ADD MSTORE POP JUMP JUMPDEST PUSH1 0x0 PUSH2 0x52A6 PUSH1 0x2A DUP4 PUSH2 0x4029 JUMP JUMPDEST SWAP2 POP PUSH2 0x52B1 DUP3 PUSH2 0x524A JUMP JUMPDEST PUSH1 0x40 DUP3 ADD SWAP1 POP SWAP2 SWAP1 POP JUMP JUMPDEST PUSH1 0x0 PUSH1 0x20 DUP3 ADD SWAP1 POP DUP2 DUP2 SUB PUSH1 0x0 DUP4 ADD MSTORE PUSH2 0x52D5 DUP2 PUSH2 0x5299 JUMP JUMPDEST SWAP1 POP SWAP2 SWAP1 POP JUMP JUMPDEST PUSH32 0x416464726573733A20696E73756666696369656E742062616C616E636520666F PUSH1 0x0 DUP3 ADD MSTORE PUSH32 0x722063616C6C0000000000000000000000000000000000000000000000000000 PUSH1 0x20 DUP3 ADD MSTORE POP JUMP JUMPDEST PUSH1 0x0 PUSH2 0x5338 PUSH1 0x26 DUP4 PUSH2 0x4029 JUMP JUMPDEST SWAP2 POP PUSH2 0x5343 DUP3 PUSH2 0x52DC JUMP JUMPDEST PUSH1 0x40 DUP3 ADD SWAP1 POP SWAP2 SWAP1 POP JUMP JUMPDEST PUSH1 0x0 PUSH1 0x20 DUP3 ADD SWAP1 POP DUP2 DUP2 SUB PUSH1 0x0 DUP4 ADD MSTORE PUSH2 0x5367 DUP2 PUSH2 0x532B JUMP JUMPDEST SWAP1 POP SWAP2 SWAP1 POP JUMP JUMPDEST PUSH1 0x0 DUP2 MLOAD SWAP1 POP SWAP2 SWAP1 POP JUMP JUMPDEST PUSH1 0x0 DUP2 SWAP1 POP SWAP3 SWAP2 POP POP JUMP JUMPDEST PUSH1 0x0 PUSH2 0x538F DUP3 PUSH2 0x536E JUMP JUMPDEST PUSH2 0x5399 DUP2 DUP6 PUSH2 0x5379 JUMP JUMPDEST SWAP4 POP PUSH2 0x53A9 DUP2 DUP6 PUSH1 0x20 DUP7 ADD PUSH2 0x403A JUMP JUMPDEST DUP1 DUP5 ADD SWAP2 POP POP SWAP3 SWAP2 POP POP JUMP JUMPDEST PUSH1 0x0 PUSH2 0x53C1 DUP3 DUP5 PUSH2 0x5384 JUMP JUMPDEST SWAP2 POP DUP2 SWAP1 POP SWAP3 SWAP2 POP POP JUMP JUMPDEST PUSH32 0x416464726573733A2063616C6C20746F206E6F6E2D636F6E7472616374000000 PUSH1 0x0 DUP3 ADD MSTORE POP JUMP JUMPDEST PUSH1 0x0 PUSH2 0x5402 PUSH1 0x1D DUP4 PUSH2 0x4029 JUMP JUMPDEST SWAP2 POP PUSH2 0x540D DUP3 PUSH2 0x53CC JUMP JUMPDEST PUSH1 0x20 DUP3 ADD SWAP1 POP SWAP2 SWAP1 POP JUMP JUMPDEST PUSH1 0x0 PUSH1 0x20 DUP3 ADD SWAP1 POP DUP2 DUP2 SUB PUSH1 0x0 DUP4 ADD MSTORE PUSH2 0x5431 DUP2 PUSH2 0x53F5 JUMP JUMPDEST SWAP1 POP SWAP2 SWAP1 POP JUMP INVALID LOG2 PUSH5 0x6970667358 0x22 SLT KECCAK256 0x5C SAR 0x28 0x5D 0xC4 SWAP15 0xD6 PUSH10 0x8FF29B44583BABE0BB80 0x29 0xC1 PUSH13 0x44071193A1A73622BD32976473 PUSH16 0x6C634300081200330000000000000000 "},"methodIdentifiers":{"acceptBid(uint256)":"2b1fd58a","acceptDeliveryAndPay(uint256)":"1b7d41eb","acceptProposal(uint256)":"60c5cc3a","arbitrators(address)":"51d0ea37","bidToProject(uint256,uint256,uint256)":"f3472b3d","bidsByProjectId(uint256,uint256)":"31537e56","clientInfo(address)":"758dde96","createProject(uint256,uint256,string)":"20f7a505","declineDelivery(uint256,string)":"892e21bf","depositToken()":"c89039c5","getAcceptedBidInfo(uint256)":"2863db7b","getBidInfoById(uint256)":"1596a5d5","getClientInfoByAddress(address)":"a17fabb6","getProjectBids(uint256)":"2bb003c3","getProjectIdsByOwner(address)":"6c4d5743","getProjectInfoById(uint256)":"5f19935c","getWorkerInfoByAddress(address)":"44bafb24","openDispute(uint256,string)":"36f691c4","owner()":"8da5cb5b","projects(uint256)":"107046bd","projectsByOwner(address,uint256)":"f4820868","proposeDelivery(uint256)":"2f2a96d3","proposeExtension(uint256,uint256,uint256,string)":"87f2b7da","registerAsClient(string)":"b98389b1","registerAsWorker(string)":"98116e19","renounceOwnership()":"715018a6","resolveDisputeInClientFavor(uint256,string)":"9bd6f1fe","resolveDisputeInWorkerFavor(uint256,string)":"f7e28f8e","setArbitrator(address,bool)":"2bc0b076","startWork(uint256)":"03a250f9","transferOwnership(address)":"f2fde38b","workerByAddress(uint256)":"30790b65","workerInfo(address)":"0a6f0503"}}}}}