{
  "_format": "hh-sol-artifact-1",
  "contractName": "Escrow",
  "sourceName": "contracts/Escrow.sol",
  "abi": [
    {
      "inputs": [
        {
          "internalType": "contract ERC2771Forwarder",
          "name": "forwarder",
          "type": "address"
        },
        {
          "internalType": "address",
          "name": "initialOwner",
          "type": "address"
        }
      ],
      "stateMutability": "nonpayable",
      "type": "constructor"
    },
    {
      "inputs": [
        {
          "internalType": "address",
          "name": "target",
          "type": "address"
        }
      ],
      "name": "AddressEmptyCode",
      "type": "error"
    },
    {
      "inputs": [
        {
          "internalType": "address",
          "name": "account",
          "type": "address"
        }
      ],
      "name": "AddressInsufficientBalance",
      "type": "error"
    },
    {
      "inputs": [],
      "name": "FailedInnerCall",
      "type": "error"
    },
    {
      "inputs": [
        {
          "internalType": "address",
          "name": "owner",
          "type": "address"
        }
      ],
      "name": "OwnableInvalidOwner",
      "type": "error"
    },
    {
      "inputs": [
        {
          "internalType": "address",
          "name": "account",
          "type": "address"
        }
      ],
      "name": "OwnableUnauthorizedAccount",
      "type": "error"
    },
    {
      "inputs": [
        {
          "internalType": "address",
          "name": "token",
          "type": "address"
        }
      ],
      "name": "SafeERC20FailedOperation",
      "type": "error"
    },
    {
      "anonymous": false,
      "inputs": [
        {
          "indexed": true,
          "internalType": "string",
          "name": "depositId",
          "type": "string"
        },
        {
          "indexed": true,
          "internalType": "address",
          "name": "recipient",
          "type": "address"
        }
      ],
      "name": "DepositWithdrawn",
      "type": "event"
    },
    {
      "anonymous": false,
      "inputs": [
        {
          "indexed": true,
          "internalType": "string",
          "name": "depositId",
          "type": "string"
        },
        {
          "indexed": true,
          "internalType": "address",
          "name": "depositor",
          "type": "address"
        },
        {
          "indexed": true,
          "internalType": "address",
          "name": "recipient",
          "type": "address"
        },
        {
          "indexed": false,
          "internalType": "uint256",
          "name": "amount",
          "type": "uint256"
        },
        {
          "indexed": false,
          "internalType": "address",
          "name": "tokenAddress",
          "type": "address"
        }
      ],
      "name": "ERC20TokenDepositCreated",
      "type": "event"
    },
    {
      "anonymous": false,
      "inputs": [
        {
          "indexed": true,
          "internalType": "string",
          "name": "depositId",
          "type": "string"
        },
        {
          "indexed": true,
          "internalType": "address",
          "name": "depositor",
          "type": "address"
        },
        {
          "indexed": true,
          "internalType": "address",
          "name": "recipient",
          "type": "address"
        },
        {
          "indexed": false,
          "internalType": "uint256",
          "name": "amount",
          "type": "uint256"
        }
      ],
      "name": "NativeTokenDepositCreated",
      "type": "event"
    },
    {
      "anonymous": false,
      "inputs": [
        {
          "indexed": true,
          "internalType": "string",
          "name": "action",
          "type": "string"
        },
        {
          "indexed": true,
          "internalType": "string",
          "name": "depositId",
          "type": "string"
        }
      ],
      "name": "OwnerAction",
      "type": "event"
    },
    {
      "anonymous": false,
      "inputs": [
        {
          "indexed": true,
          "internalType": "address",
          "name": "previousOwner",
          "type": "address"
        },
        {
          "indexed": true,
          "internalType": "address",
          "name": "newOwner",
          "type": "address"
        }
      ],
      "name": "OwnershipTransferred",
      "type": "event"
    },
    {
      "inputs": [
        {
          "internalType": "address",
          "name": "_recipient",
          "type": "address"
        },
        {
          "internalType": "uint256",
          "name": "_amount",
          "type": "uint256"
        },
        {
          "internalType": "string",
          "name": "_depositId",
          "type": "string"
        },
        {
          "internalType": "address",
          "name": "_tokenAddress",
          "type": "address"
        }
      ],
      "name": "createERC20TokenDeposit",
      "outputs": [],
      "stateMutability": "nonpayable",
      "type": "function"
    },
    {
      "inputs": [
        {
          "internalType": "address",
          "name": "_recipient",
          "type": "address"
        },
        {
          "internalType": "string",
          "name": "_depositId",
          "type": "string"
        }
      ],
      "name": "createNativeTokenDeposit",
      "outputs": [],
      "stateMutability": "payable",
      "type": "function"
    },
    {
      "inputs": [
        {
          "internalType": "string",
          "name": "_depositId",
          "type": "string"
        }
      ],
      "name": "getDeposit",
      "outputs": [
        {
          "components": [
            {
              "internalType": "address",
              "name": "depositor",
              "type": "address"
            },
            {
              "internalType": "address",
              "name": "recipient",
              "type": "address"
            },
            {
              "internalType": "address",
              "name": "tokenAddress",
              "type": "address"
            },
            {
              "internalType": "uint256",
              "name": "amount",
              "type": "uint256"
            }
          ],
          "internalType": "struct Escrow.Deposit",
          "name": "",
          "type": "tuple"
        }
      ],
      "stateMutability": "view",
      "type": "function"
    },
    {
      "inputs": [],
      "name": "getDepositIds",
      "outputs": [
        {
          "internalType": "string[]",
          "name": "",
          "type": "string[]"
        }
      ],
      "stateMutability": "view",
      "type": "function"
    },
    {
      "inputs": [
        {
          "internalType": "address",
          "name": "forwarder",
          "type": "address"
        }
      ],
      "name": "isTrustedForwarder",
      "outputs": [
        {
          "internalType": "bool",
          "name": "",
          "type": "bool"
        }
      ],
      "stateMutability": "view",
      "type": "function"
    },
    {
      "inputs": [],
      "name": "owner",
      "outputs": [
        {
          "internalType": "address",
          "name": "",
          "type": "address"
        }
      ],
      "stateMutability": "view",
      "type": "function"
    },
    {
      "inputs": [],
      "name": "renounceOwnership",
      "outputs": [],
      "stateMutability": "nonpayable",
      "type": "function"
    },
    {
      "inputs": [
        {
          "internalType": "address",
          "name": "newOwner",
          "type": "address"
        }
      ],
      "name": "transferOwnership",
      "outputs": [],
      "stateMutability": "nonpayable",
      "type": "function"
    },
    {
      "inputs": [],
      "name": "trustedForwarder",
      "outputs": [
        {
          "internalType": "address",
          "name": "",
          "type": "address"
        }
      ],
      "stateMutability": "view",
      "type": "function"
    },
    {
      "inputs": [
        {
          "internalType": "string",
          "name": "_depositId",
          "type": "string"
        }
      ],
      "name": "withdrawToDepositorByOwner",
      "outputs": [],
      "stateMutability": "nonpayable",
      "type": "function"
    },
    {
      "inputs": [
        {
          "internalType": "string",
          "name": "_depositId",
          "type": "string"
        }
      ],
      "name": "withdrawToRecipientByDepositor",
      "outputs": [],
      "stateMutability": "nonpayable",
      "type": "function"
    },
    {
      "inputs": [
        {
          "internalType": "string",
          "name": "_depositId",
          "type": "string"
        }
      ],
      "name": "withdrawToRecipientByOwner",
      "outputs": [],
      "stateMutability": "nonpayable",
      "type": "function"
    }
  ],
  "bytecode": "0x60a06040523480156200001157600080fd5b50604051620031c5380380620031c5833981810160405281019062000037919062000270565b80828073ffffffffffffffffffffffffffffffffffffffff1660808173ffffffffffffffffffffffffffffffffffffffff168152505050600073ffffffffffffffffffffffffffffffffffffffff168173ffffffffffffffffffffffffffffffffffffffff1603620000e35760006040517f1e4fbdf7000000000000000000000000000000000000000000000000000000008152600401620000da9190620002c8565b60405180910390fd5b620000f481620000fd60201b60201c565b505050620002e5565b60008060009054906101000a900473ffffffffffffffffffffffffffffffffffffffff169050816000806101000a81548173ffffffffffffffffffffffffffffffffffffffff021916908373ffffffffffffffffffffffffffffffffffffffff1602179055508173ffffffffffffffffffffffffffffffffffffffff168173ffffffffffffffffffffffffffffffffffffffff167f8be0079c531659141344cd1fd0a4f28419497f9722a3daafe3b4186f6b6457e060405160405180910390a35050565b600080fd5b600073ffffffffffffffffffffffffffffffffffffffff82169050919050565b6000620001f382620001c6565b9050919050565b60006200020782620001e6565b9050919050565b6200021981620001fa565b81146200022557600080fd5b50565b60008151905062000239816200020e565b92915050565b6200024a81620001e6565b81146200025657600080fd5b50565b6000815190506200026a816200023f565b92915050565b600080604083850312156200028a5762000289620001c1565b5b60006200029a8582860162000228565b9250506020620002ad8582860162000259565b9150509250929050565b620002c281620001e6565b82525050565b6000602082019050620002df6000830184620002b7565b92915050565b608051612ec46200030160003960006108480152612ec46000f3fe6080604052600436106100a75760003560e01c8063934701e111610064578063934701e11461019b57806394d7eb87146101c4578063a9cac660146101ef578063d20747a814610218578063f2fde38b14610255578063fb7d56911461027e576100a7565b80634ab1f739146100ac57806350ef816f146100c8578063572b6c05146100f1578063715018a61461012e5780637da0a877146101455780638da5cb5b14610170575b600080fd5b6100c660048036038101906100c19190611e0f565b6102a7565b005b3480156100d457600080fd5b506100ef60048036038101906100ea9190611e6b565b6106ed565b005b3480156100fd57600080fd5b5061011860048036038101906101139190611eb4565b6107f1565b6040516101259190611efc565b60405180910390f35b34801561013a57600080fd5b50610143610830565b005b34801561015157600080fd5b5061015a610844565b6040516101679190611f26565b60405180910390f35b34801561017c57600080fd5b5061018561086c565b6040516101929190611f26565b60405180910390f35b3480156101a757600080fd5b506101c260048036038101906101bd9190611e6b565b610895565b005b3480156101d057600080fd5b506101d9610941565b6040516101e69190612082565b60405180910390f35b3480156101fb57600080fd5b5061021660048036038101906102119190611e6b565b610a22565b005b34801561022457600080fd5b5061023f600480360381019061023a9190611e6b565b610ace565b60405161024c9190612121565b60405180910390f35b34801561026157600080fd5b5061027c60048036038101906102779190611eb4565b610c1a565b005b34801561028a57600080fd5b506102a560048036038101906102a09190612168565b610ca0565b005b8181600073ffffffffffffffffffffffffffffffffffffffff166102c9611171565b73ffffffffffffffffffffffffffffffffffffffff160361031f576040517f08c379a00000000000000000000000000000000000000000000000000000000081526004016103169061226e565b60405180910390fd5b600073ffffffffffffffffffffffffffffffffffffffff168273ffffffffffffffffffffffffffffffffffffffff160361038e576040517f08c379a000000000000000000000000000000000000000000000000000000000815260040161038590612300565b60405180910390fd5b600073ffffffffffffffffffffffffffffffffffffffff166001826040516103b6919061235c565b908152602001604051809103902060000160009054906101000a900473ffffffffffffffffffffffffffffffffffffffff1673ffffffffffffffffffffffffffffffffffffffff161461043e576040517f08c379a0000000000000000000000000000000000000000000000000000000008152600401610435906123e5565b60405180910390fd5b6000815103610482576040517f08c379a000000000000000000000000000000000000000000000000000000000815260040161047990612477565b60405180910390fd5b600034116104c5576040517f08c379a00000000000000000000000000000000000000000000000000000000081526004016104bc90612509565b60405180910390fd5b60405180608001604052806104d8611171565b73ffffffffffffffffffffffffffffffffffffffff1681526020018573ffffffffffffffffffffffffffffffffffffffff168152602001600073ffffffffffffffffffffffffffffffffffffffff16815260200134815250600184604051610540919061235c565b908152602001604051809103902060008201518160000160006101000a81548173ffffffffffffffffffffffffffffffffffffffff021916908373ffffffffffffffffffffffffffffffffffffffff16021790555060208201518160010160006101000a81548173ffffffffffffffffffffffffffffffffffffffff021916908373ffffffffffffffffffffffffffffffffffffffff16021790555060408201518160020160006101000a81548173ffffffffffffffffffffffffffffffffffffffff021916908373ffffffffffffffffffffffffffffffffffffffff160217905550606082015181600301559050506002839080600181540180825580915050600190039060005260206000200160009091909190915090816106649190612735565b508373ffffffffffffffffffffffffffffffffffffffff16610684611171565b73ffffffffffffffffffffffffffffffffffffffff16846040516106a8919061235c565b60405180910390207f4296d4cf88a23ec7e16cdd3881db56723c47f90351b3ee3145c99147801902c8346040516106df9190612816565b60405180910390a450505050565b6106f5611171565b73ffffffffffffffffffffffffffffffffffffffff1660018260405161071b919061235c565b908152602001604051809103902060000160009054906101000a900473ffffffffffffffffffffffffffffffffffffffff1673ffffffffffffffffffffffffffffffffffffffff16146107a3576040517f08c379a000000000000000000000000000000000000000000000000000000000815260040161079a906128a3565b60405180910390fd5b6107ee816001836040516107b7919061235c565b908152602001604051809103902060010160009054906101000a900473ffffffffffffffffffffffffffffffffffffffff16611180565b50565b60006107fb610844565b73ffffffffffffffffffffffffffffffffffffffff168273ffffffffffffffffffffffffffffffffffffffff16149050919050565b610838611484565b610842600061150b565b565b60007f0000000000000000000000000000000000000000000000000000000000000000905090565b60008060009054906101000a900473ffffffffffffffffffffffffffffffffffffffff16905090565b61089d611484565b806040516108ab919061235c565b60405180910390206040516108bf9061290f565b60405180910390207f7f68a6aab0f34d78d74031017f78dbbc4310215c0a18e0cdd5f8a8e980fcbdba60405160405180910390a361093e81600183604051610907919061235c565b908152602001604051809103902060010160009054906101000a900473ffffffffffffffffffffffffffffffffffffffff16611180565b50565b606061094b611484565b6002805480602002602001604051908101604052809291908181526020016000905b82821015610a1957838290600052602060002001805461098c90612558565b80601f01602080910402602001604051908101604052809291908181526020018280546109b890612558565b8015610a055780601f106109da57610100808354040283529160200191610a05565b820191906000526020600020905b8154815290600101906020018083116109e857829003601f168201915b50505050508152602001906001019061096d565b50505050905090565b610a2a611484565b80604051610a38919061235c565b6040518091039020604051610a4c90612970565b60405180910390207f7f68a6aab0f34d78d74031017f78dbbc4310215c0a18e0cdd5f8a8e980fcbdba60405160405180910390a3610acb81600183604051610a94919061235c565b908152602001604051809103902060000160009054906101000a900473ffffffffffffffffffffffffffffffffffffffff16611180565b50565b610ad6611b90565b610ade611484565b600182604051610aee919061235c565b90815260200160405180910390206040518060800160405290816000820160009054906101000a900473ffffffffffffffffffffffffffffffffffffffff1673ffffffffffffffffffffffffffffffffffffffff1673ffffffffffffffffffffffffffffffffffffffff1681526020016001820160009054906101000a900473ffffffffffffffffffffffffffffffffffffffff1673ffffffffffffffffffffffffffffffffffffffff1673ffffffffffffffffffffffffffffffffffffffff1681526020016002820160009054906101000a900473ffffffffffffffffffffffffffffffffffffffff1673ffffffffffffffffffffffffffffffffffffffff1673ffffffffffffffffffffffffffffffffffffffff1681526020016003820154815250509050919050565b610c22611484565b600073ffffffffffffffffffffffffffffffffffffffff168173ffffffffffffffffffffffffffffffffffffffff1603610c945760006040517f1e4fbdf7000000000000000000000000000000000000000000000000000000008152600401610c8b9190611f26565b60405180910390fd5b610c9d8161150b565b50565b8382600073ffffffffffffffffffffffffffffffffffffffff16610cc2611171565b73ffffffffffffffffffffffffffffffffffffffff1603610d18576040517f08c379a0000000000000000000000000000000000000000000000000000000008152600401610d0f9061226e565b60405180910390fd5b600073ffffffffffffffffffffffffffffffffffffffff168273ffffffffffffffffffffffffffffffffffffffff1603610d87576040517f08c379a0000000000000000000000000000000000000000000000000000000008152600401610d7e90612300565b60405180910390fd5b600073ffffffffffffffffffffffffffffffffffffffff16600182604051610daf919061235c565b908152602001604051809103902060000160009054906101000a900473ffffffffffffffffffffffffffffffffffffffff1673ffffffffffffffffffffffffffffffffffffffff1614610e37576040517f08c379a0000000000000000000000000000000000000000000000000000000008152600401610e2e906123e5565b60405180910390fd5b6000815103610e7b576040517f08c379a0000000000000000000000000000000000000000000000000000000008152600401610e7290612477565b60405180910390fd5b60008511610ebe576040517f08c379a0000000000000000000000000000000000000000000000000000000008152600401610eb590612509565b60405180910390fd5b600073ffffffffffffffffffffffffffffffffffffffff168373ffffffffffffffffffffffffffffffffffffffff1603610f2d576040517f08c379a0000000000000000000000000000000000000000000000000000000008152600401610f24906129f7565b60405180910390fd5b6000839050610f4581610f3e611171565b30896115cf565b6040518060800160405280610f58611171565b73ffffffffffffffffffffffffffffffffffffffff1681526020018873ffffffffffffffffffffffffffffffffffffffff1681526020018573ffffffffffffffffffffffffffffffffffffffff16815260200187815250600186604051610fbf919061235c565b908152602001604051809103902060008201518160000160006101000a81548173ffffffffffffffffffffffffffffffffffffffff021916908373ffffffffffffffffffffffffffffffffffffffff16021790555060208201518160010160006101000a81548173ffffffffffffffffffffffffffffffffffffffff021916908373ffffffffffffffffffffffffffffffffffffffff16021790555060408201518160020160006101000a81548173ffffffffffffffffffffffffffffffffffffffff021916908373ffffffffffffffffffffffffffffffffffffffff160217905550606082015181600301559050506002859080600181540180825580915050600190039060005260206000200160009091909190915090816110e39190612735565b508673ffffffffffffffffffffffffffffffffffffffff16611103611171565b73ffffffffffffffffffffffffffffffffffffffff1686604051611127919061235c565b60405180910390207f4f41b247793ceb43bf9101f901dcce2cb9f95373242f7307934775e01b448d1c8988604051611160929190612a17565b60405180910390a450505050505050565b600061117b611651565b905090565b6000600183604051611192919061235c565b90815260200160405180910390209050600073ffffffffffffffffffffffffffffffffffffffff168160000160009054906101000a900473ffffffffffffffffffffffffffffffffffffffff1673ffffffffffffffffffffffffffffffffffffffff1603611235576040517f08c379a000000000000000000000000000000000000000000000000000000000815260040161122c90612a8c565b60405180910390fd5b60008160030154905060018460405161124e919061235c565b9081526020016040518091039020600080820160006101000a81549073ffffffffffffffffffffffffffffffffffffffff02191690556001820160006101000a81549073ffffffffffffffffffffffffffffffffffffffff02191690556002820160006101000a81549073ffffffffffffffffffffffffffffffffffffffff0219169055600382016000905550506112e584611694565b600073ffffffffffffffffffffffffffffffffffffffff168260020160009054906101000a900473ffffffffffffffffffffffffffffffffffffffff1673ffffffffffffffffffffffffffffffffffffffff16036113ef5760008373ffffffffffffffffffffffffffffffffffffffff168260405161136390612add565b60006040518083038185875af1925050503d80600081146113a0576040519150601f19603f3d011682016040523d82523d6000602084013e6113a5565b606091505b50509050806113e9576040517f08c379a00000000000000000000000000000000000000000000000000000000081526004016113e090612b3e565b60405180910390fd5b50611425565b60008260020160009054906101000a900473ffffffffffffffffffffffffffffffffffffffff169050611423818584611820565b505b8273ffffffffffffffffffffffffffffffffffffffff168460405161144a919061235c565b60405180910390207f3cd197d1285803e06c5b07623d6bc0e4ad4bcbee5f5237e419b96cc9fc58789160405160405180910390a350505050565b61148c611171565b73ffffffffffffffffffffffffffffffffffffffff166114aa61086c565b73ffffffffffffffffffffffffffffffffffffffff1614611509576114cd611171565b6040517f118cdaa70000000000000000000000000000000000000000000000000000000081526004016115009190611f26565b60405180910390fd5b565b60008060009054906101000a900473ffffffffffffffffffffffffffffffffffffffff169050816000806101000a81548173ffffffffffffffffffffffffffffffffffffffff021916908373ffffffffffffffffffffffffffffffffffffffff1602179055508173ffffffffffffffffffffffffffffffffffffffff168173ffffffffffffffffffffffffffffffffffffffff167f8be0079c531659141344cd1fd0a4f28419497f9722a3daafe3b4186f6b6457e060405160405180910390a35050565b61164b848573ffffffffffffffffffffffffffffffffffffffff166323b872dd86868660405160240161160493929190612b5e565b604051602081830303815290604052915060e01b6020820180517bffffffffffffffffffffffffffffffffffffffffffffffffffffffff838183161783525050505061189f565b50505050565b600061165c336107f1565b801561166d57506014600036905010155b1561168157601436033560601c9050611690565b611689611936565b9050611691565b5b90565b600061169f8261193e565b90507fffffffffffffffffffffffffffffffffffffffffffffffffffffffffffffffff8103611703576040517f08c379a00000000000000000000000000000000000000000000000000000000081526004016116fa90612be1565b60405180910390fd5b6000600260016002805490506117199190612c30565b8154811061172a57611729612c64565b5b90600052602060002001805461173f90612558565b80601f016020809104026020016040519081016040528092919081815260200182805461176b90612558565b80156117b85780601f1061178d576101008083540402835291602001916117b8565b820191906000526020600020905b81548152906001019060200180831161179b57829003601f168201915b5050505050905080600283815481106117d4576117d3612c64565b5b9060005260206000200190816117ea9190612735565b5060028054806117fd576117fc612c93565b5b6001900381819060005260206000200160006118199190611bfa565b9055505050565b61189a838473ffffffffffffffffffffffffffffffffffffffff1663a9059cbb8585604051602401611853929190612cc2565b604051602081830303815290604052915060e01b6020820180517bffffffffffffffffffffffffffffffffffffffffffffffffffffffff838183161783525050505061189f565b505050565b60006118ca828473ffffffffffffffffffffffffffffffffffffffff166119d990919063ffffffff16565b905060008151141580156118ef5750808060200190518101906118ed9190612d17565b155b1561193157826040517f5274afe70000000000000000000000000000000000000000000000000000000081526004016119289190611f26565b60405180910390fd5b505050565b600033905090565b600080600090505b6002805490508110156119af5782805190602001206002828154811061196f5761196e612c64565b5b906000526020600020016040516119869190612ddc565b60405180910390200361199c57809150506119d4565b80806119a790612df3565b915050611946565b507fffffffffffffffffffffffffffffffffffffffffffffffffffffffffffffffff90505b919050565b60606119e7838360006119ef565b905092915050565b606081471015611a3657306040517fcd786059000000000000000000000000000000000000000000000000000000008152600401611a2d9190611f26565b60405180910390fd5b6000808573ffffffffffffffffffffffffffffffffffffffff168486604051611a5f9190612e77565b60006040518083038185875af1925050503d8060008114611a9c576040519150601f19603f3d011682016040523d82523d6000602084013e611aa1565b606091505b5091509150611ab1868383611abc565b925050509392505050565b606082611ad157611acc82611b4b565b611b43565b60008251148015611af9575060008473ffffffffffffffffffffffffffffffffffffffff163b145b15611b3b57836040517f9996b315000000000000000000000000000000000000000000000000000000008152600401611b329190611f26565b60405180910390fd5b819050611b44565b5b9392505050565b600081511115611b5e5780518082602001fd5b6040517f1425ea4200000000000000000000000000000000000000000000000000000000815260040160405180910390fd5b6040518060800160405280600073ffffffffffffffffffffffffffffffffffffffff168152602001600073ffffffffffffffffffffffffffffffffffffffff168152602001600073ffffffffffffffffffffffffffffffffffffffff168152602001600081525090565b508054611c0690612558565b6000825580601f10611c185750611c37565b601f016020900490600052602060002090810190611c369190611c3a565b5b50565b5b80821115611c53576000816000905550600101611c3b565b5090565b6000604051905090565b600080fd5b600080fd5b600073ffffffffffffffffffffffffffffffffffffffff82169050919050565b6000611c9682611c6b565b9050919050565b611ca681611c8b565b8114611cb157600080fd5b50565b600081359050611cc381611c9d565b92915050565b600080fd5b600080fd5b6000601f19601f8301169050919050565b7f4e487b7100000000000000000000000000000000000000000000000000000000600052604160045260246000fd5b611d1c82611cd3565b810181811067ffffffffffffffff82111715611d3b57611d3a611ce4565b5b80604052505050565b6000611d4e611c57565b9050611d5a8282611d13565b919050565b600067ffffffffffffffff821115611d7a57611d79611ce4565b5b611d8382611cd3565b9050602081019050919050565b82818337600083830152505050565b6000611db2611dad84611d5f565b611d44565b905082815260208101848484011115611dce57611dcd611cce565b5b611dd9848285611d90565b509392505050565b600082601f830112611df657611df5611cc9565b5b8135611e06848260208601611d9f565b91505092915050565b60008060408385031215611e2657611e25611c61565b5b6000611e3485828601611cb4565b925050602083013567ffffffffffffffff811115611e5557611e54611c66565b5b611e6185828601611de1565b9150509250929050565b600060208284031215611e8157611e80611c61565b5b600082013567ffffffffffffffff811115611e9f57611e9e611c66565b5b611eab84828501611de1565b91505092915050565b600060208284031215611eca57611ec9611c61565b5b6000611ed884828501611cb4565b91505092915050565b60008115159050919050565b611ef681611ee1565b82525050565b6000602082019050611f116000830184611eed565b92915050565b611f2081611c8b565b82525050565b6000602082019050611f3b6000830184611f17565b92915050565b600081519050919050565b600082825260208201905092915050565b6000819050602082019050919050565b600081519050919050565b600082825260208201905092915050565b60005b83811015611fa7578082015181840152602081019050611f8c565b60008484015250505050565b6000611fbe82611f6d565b611fc88185611f78565b9350611fd8818560208601611f89565b611fe181611cd3565b840191505092915050565b6000611ff88383611fb3565b905092915050565b6000602082019050919050565b600061201882611f41565b6120228185611f4c565b93508360208202850161203485611f5d565b8060005b8581101561207057848403895281516120518582611fec565b945061205c83612000565b925060208a01995050600181019050612038565b50829750879550505050505092915050565b6000602082019050818103600083015261209c818461200d565b905092915050565b6120ad81611c8b565b82525050565b6000819050919050565b6120c6816120b3565b82525050565b6080820160008201516120e260008501826120a4565b5060208201516120f560208501826120a4565b50604082015161210860408501826120a4565b50606082015161211b60608501826120bd565b50505050565b600060808201905061213660008301846120cc565b92915050565b612145816120b3565b811461215057600080fd5b50565b6000813590506121628161213c565b92915050565b6000806000806080858703121561218257612181611c61565b5b600061219087828801611cb4565b94505060206121a187828801612153565b935050604085013567ffffffffffffffff8111156121c2576121c1611c66565b5b6121ce87828801611de1565b92505060606121df87828801611cb4565b91505092959194509250565b600082825260208201905092915050565b7f6372656174654465706f7369743a20496e76616c6964206465706f7369746f7260008201527f2061646472657373000000000000000000000000000000000000000000000000602082015250565b60006122586028836121eb565b9150612263826121fc565b604082019050919050565b600060208201905081810360008301526122878161224b565b9050919050565b7f6372656174654465706f7369743a20496e76616c696420726563697069656e7460008201527f2061646472657373000000000000000000000000000000000000000000000000602082015250565b60006122ea6028836121eb565b91506122f58261228e565b604082019050919050565b60006020820190508181036000830152612319816122dd565b9050919050565b600081905092915050565b600061233682611f6d565b6123408185612320565b9350612350818560208601611f89565b80840191505092915050565b6000612368828461232b565b915081905092915050565b7f6372656174654465706f7369743a204465706f73697420494420616c7265616460008201527f7920657869737473000000000000000000000000000000000000000000000000602082015250565b60006123cf6028836121eb565b91506123da82612373565b604082019050919050565b600060208201905081810360008301526123fe816123c2565b9050919050565b7f6372656174654465706f7369743a204465706f73697449642073686f756c642060008201527f6e6f7420626520656d7074790000000000000000000000000000000000000000602082015250565b6000612461602c836121eb565b915061246c82612405565b604082019050919050565b6000602082019050818103600083015261249081612454565b9050919050565b7f6372656174654465706f7369743a20416d6f756e74206d75737420626520677260008201527f6561746572207468616e20300000000000000000000000000000000000000000602082015250565b60006124f3602c836121eb565b91506124fe82612497565b604082019050919050565b60006020820190508181036000830152612522816124e6565b9050919050565b7f4e487b7100000000000000000000000000000000000000000000000000000000600052602260045260246000fd5b6000600282049050600182168061257057607f821691505b60208210810361258357612582612529565b5b50919050565b60008190508160005260206000209050919050565b60006020601f8301049050919050565b600082821b905092915050565b6000600883026125eb7fffffffffffffffffffffffffffffffffffffffffffffffffffffffffffffffff826125ae565b6125f586836125ae565b95508019841693508086168417925050509392505050565b6000819050919050565b600061263261262d612628846120b3565b61260d565b6120b3565b9050919050565b6000819050919050565b61264c83612617565b61266061265882612639565b8484546125bb565b825550505050565b600090565b612675612668565b612680818484612643565b505050565b5b818110156126a45761269960008261266d565b600181019050612686565b5050565b601f8211156126e9576126ba81612589565b6126c38461259e565b810160208510156126d2578190505b6126e66126de8561259e565b830182612685565b50505b505050565b600082821c905092915050565b600061270c600019846008026126ee565b1980831691505092915050565b600061272583836126fb565b9150826002028217905092915050565b61273e82611f6d565b67ffffffffffffffff81111561275757612756611ce4565b5b6127618254612558565b61276c8282856126a8565b600060209050601f83116001811461279f576000841561278d578287015190505b6127978582612719565b8655506127ff565b601f1984166127ad86612589565b60005b828110156127d5578489015182556001820191506020850194506020810190506127b0565b868310156127f257848901516127ee601f8916826126fb565b8355505b6001600288020188555050505b505050505050565b612810816120b3565b82525050565b600060208201905061282b6000830184612807565b92915050565b7f4e6f7420617574686f72697a656420746f20776974686472617720746869732060008201527f6465706f73697400000000000000000000000000000000000000000000000000602082015250565b600061288d6027836121eb565b915061289882612831565b604082019050919050565b600060208201905081810360008301526128bc81612880565b9050919050565b7f7769746864726177546f526563697069656e7400000000000000000000000000600082015250565b60006128f9601383612320565b9150612904826128c3565b601382019050919050565b600061291a826128ec565b9150819050919050565b7f7769746864726177546f4465706f7369746f7200000000000000000000000000600082015250565b600061295a601383612320565b915061296582612924565b601382019050919050565b600061297b8261294d565b9150819050919050565b7f6372656174654465706f7369743a20496e76616c696420746f6b656e2061646460008201527f7265737300000000000000000000000000000000000000000000000000000000602082015250565b60006129e16024836121eb565b91506129ec82612985565b604082019050919050565b60006020820190508181036000830152612a10816129d4565b9050919050565b6000604082019050612a2c6000830185612807565b612a396020830184611f17565b9392505050565b7f4465706f73697420646f6573206e6f7420657869737400000000000000000000600082015250565b6000612a766016836121eb565b9150612a8182612a40565b602082019050919050565b60006020820190508181036000830152612aa581612a69565b9050919050565b600081905092915050565b50565b6000612ac7600083612aac565b9150612ad282612ab7565b600082019050919050565b6000612ae882612aba565b9150819050919050565b7f4661696c656420746f2073656e64206e617469766520746f6b656e0000000000600082015250565b6000612b28601b836121eb565b9150612b3382612af2565b602082019050919050565b60006020820190508181036000830152612b5781612b1b565b9050919050565b6000606082019050612b736000830186611f17565b612b806020830185611f17565b612b8d6040830184612807565b949350505050565b7f4465706f736974204944206e6f7420666f756e64000000000000000000000000600082015250565b6000612bcb6014836121eb565b9150612bd682612b95565b602082019050919050565b60006020820190508181036000830152612bfa81612bbe565b9050919050565b7f4e487b7100000000000000000000000000000000000000000000000000000000600052601160045260246000fd5b6000612c3b826120b3565b9150612c46836120b3565b9250828203905081811115612c5e57612c5d612c01565b5b92915050565b7f4e487b7100000000000000000000000000000000000000000000000000000000600052603260045260246000fd5b7f4e487b7100000000000000000000000000000000000000000000000000000000600052603160045260246000fd5b6000604082019050612cd76000830185611f17565b612ce46020830184612807565b9392505050565b612cf481611ee1565b8114612cff57600080fd5b50565b600081519050612d1181612ceb565b92915050565b600060208284031215612d2d57612d2c611c61565b5b6000612d3b84828501612d02565b91505092915050565b60008190508160005260206000209050919050565b60008154612d6681612558565b612d708186612aac565b94506001821660008114612d8b5760018114612da057612dd3565b60ff1983168652811515820286019350612dd3565b612da985612d44565b60005b83811015612dcb57815481890152600182019150602081019050612dac565b838801955050505b50505092915050565b6000612de88284612d59565b915081905092915050565b6000612dfe826120b3565b91507fffffffffffffffffffffffffffffffffffffffffffffffffffffffffffffffff8203612e3057612e2f612c01565b5b600182019050919050565b600081519050919050565b6000612e5182612e3b565b612e5b8185612aac565b9350612e6b818560208601611f89565b80840191505092915050565b6000612e838284612e46565b91508190509291505056fea2646970667358221220f19768264b479345ce0cf3ba8245ad91e8fed7037b257d7159b22e7e8d31ee7764736f6c63430008140033",
  "linkReferences": {},
  "deployedLinkReferences": {}
}