{
  "_format": "hh-sol-artifact-1",
  "contractName": "Escrow",
  "sourceName": "contracts/Escrow.sol",
  "abi": [
    {
      "inputs": [
        {
          "internalType": "contract ERC2771Forwarder",
          "name": "forwarder",
          "type": "address"
        },
        {
          "internalType": "address",
          "name": "_token",
          "type": "address"
        },
        {
          "internalType": "address",
          "name": "initialOwner",
          "type": "address"
        }
      ],
      "stateMutability": "nonpayable",
      "type": "constructor"
    },
    {
      "inputs": [
        {
          "internalType": "address",
          "name": "owner",
          "type": "address"
        }
      ],
      "name": "OwnableInvalidOwner",
      "type": "error"
    },
    {
      "inputs": [
        {
          "internalType": "address",
          "name": "account",
          "type": "address"
        }
      ],
      "name": "OwnableUnauthorizedAccount",
      "type": "error"
    },
    {
      "anonymous": false,
      "inputs": [
        {
          "indexed": true,
          "internalType": "address",
          "name": "previousOwner",
          "type": "address"
        },
        {
          "indexed": true,
          "internalType": "address",
          "name": "newOwner",
          "type": "address"
        }
      ],
      "name": "OwnershipTransferred",
      "type": "event"
    },
    {
      "inputs": [
        {
          "internalType": "address",
          "name": "_recipient",
          "type": "address"
        },
        {
          "internalType": "uint256",
          "name": "_amount",
          "type": "uint256"
        },
        {
          "internalType": "string",
          "name": "_depositId",
          "type": "string"
        }
      ],
      "name": "depositTokens",
      "outputs": [],
      "stateMutability": "nonpayable",
      "type": "function"
    },
    {
      "inputs": [
        {
          "internalType": "string",
          "name": "",
          "type": "string"
        }
      ],
      "name": "deposits",
      "outputs": [
        {
          "internalType": "address",
          "name": "depositor",
          "type": "address"
        },
        {
          "internalType": "address",
          "name": "recipient",
          "type": "address"
        },
        {
          "internalType": "uint256",
          "name": "amount",
          "type": "uint256"
        },
        {
          "internalType": "uint256",
          "name": "timestamp",
          "type": "uint256"
        },
        {
          "internalType": "bool",
          "name": "withdrawn",
          "type": "bool"
        }
      ],
      "stateMutability": "view",
      "type": "function"
    },
    {
      "inputs": [
        {
          "internalType": "address",
          "name": "forwarder",
          "type": "address"
        }
      ],
      "name": "isTrustedForwarder",
      "outputs": [
        {
          "internalType": "bool",
          "name": "",
          "type": "bool"
        }
      ],
      "stateMutability": "view",
      "type": "function"
    },
    {
      "inputs": [],
      "name": "owner",
      "outputs": [
        {
          "internalType": "address",
          "name": "",
          "type": "address"
        }
      ],
      "stateMutability": "view",
      "type": "function"
    },
    {
      "inputs": [],
      "name": "renounceOwnership",
      "outputs": [],
      "stateMutability": "nonpayable",
      "type": "function"
    },
    {
      "inputs": [],
      "name": "token",
      "outputs": [
        {
          "internalType": "contract IERC20",
          "name": "",
          "type": "address"
        }
      ],
      "stateMutability": "view",
      "type": "function"
    },
    {
      "inputs": [
        {
          "internalType": "address",
          "name": "newOwner",
          "type": "address"
        }
      ],
      "name": "transferOwnership",
      "outputs": [],
      "stateMutability": "nonpayable",
      "type": "function"
    },
    {
      "inputs": [],
      "name": "trustedForwarder",
      "outputs": [
        {
          "internalType": "address",
          "name": "",
          "type": "address"
        }
      ],
      "stateMutability": "view",
      "type": "function"
    },
    {
      "inputs": [
        {
          "internalType": "string",
          "name": "_depositId",
          "type": "string"
        }
      ],
      "name": "withdrawTokensToDepositorByOwner",
      "outputs": [],
      "stateMutability": "nonpayable",
      "type": "function"
    },
    {
      "inputs": [
        {
          "internalType": "string",
          "name": "_depositId",
          "type": "string"
        }
      ],
      "name": "withdrawTokensToRecipientByDepositor",
      "outputs": [],
      "stateMutability": "nonpayable",
      "type": "function"
    },
    {
      "inputs": [
        {
          "internalType": "string",
          "name": "_depositId",
          "type": "string"
        }
      ],
      "name": "withdrawTokensToRecipientByOwner",
      "outputs": [],
      "stateMutability": "nonpayable",
      "type": "function"
    }
  ],
  "bytecode": "0x60a06040523480156200001157600080fd5b50604051620018e7380380620018e78339818101604052810190620000379190620002b2565b80838073ffffffffffffffffffffffffffffffffffffffff1660808173ffffffffffffffffffffffffffffffffffffffff168152505050600073ffffffffffffffffffffffffffffffffffffffff168173ffffffffffffffffffffffffffffffffffffffff1603620000e35760006040517f1e4fbdf7000000000000000000000000000000000000000000000000000000008152600401620000da91906200031f565b60405180910390fd5b620000f4816200013f60201b60201c565b5081600160006101000a81548173ffffffffffffffffffffffffffffffffffffffff021916908373ffffffffffffffffffffffffffffffffffffffff1602179055505050506200033c565b60008060009054906101000a900473ffffffffffffffffffffffffffffffffffffffff169050816000806101000a81548173ffffffffffffffffffffffffffffffffffffffff021916908373ffffffffffffffffffffffffffffffffffffffff1602179055508173ffffffffffffffffffffffffffffffffffffffff168173ffffffffffffffffffffffffffffffffffffffff167f8be0079c531659141344cd1fd0a4f28419497f9722a3daafe3b4186f6b6457e060405160405180910390a35050565b600080fd5b600073ffffffffffffffffffffffffffffffffffffffff82169050919050565b6000620002358262000208565b9050919050565b6000620002498262000228565b9050919050565b6200025b816200023c565b81146200026757600080fd5b50565b6000815190506200027b8162000250565b92915050565b6200028c8162000228565b81146200029857600080fd5b50565b600081519050620002ac8162000281565b92915050565b600080600060608486031215620002ce57620002cd62000203565b5b6000620002de868287016200026a565b9350506020620002f1868287016200029b565b925050604062000304868287016200029b565b9150509250925092565b620003198162000228565b82525050565b60006020820190506200033660008301846200030e565b92915050565b60805161158f62000358600039600061050d015261158f6000f3fe608060405234801561001057600080fd5b50600436106100a95760003560e01c8063b9a8a4fd11610071578063b9a8a4fd14610140578063c6ed318714610174578063c767353714610190578063d5ee8237146101ac578063f2fde38b146101c8578063fc0c546a146101e4576100a9565b8063484c2d97146100ae578063572b6c05146100ca578063715018a6146100fa5780637da0a877146101045780638da5cb5b14610122575b600080fd5b6100c860048036038101906100c39190610f12565b610202565b005b6100e460048036038101906100df9190610f81565b6104b6565b6040516100f19190610fc9565b60405180910390f35b6101026104f5565b005b61010c610509565b6040516101199190610ff3565b60405180910390f35b61012a610531565b6040516101379190610ff3565b60405180910390f35b61015a6004803603810190610155919061100e565b61055a565b60405161016b959493929190611066565b60405180910390f35b61018e6004803603810190610189919061100e565b6105f3565b005b6101aa60048036038101906101a5919061100e565b610649565b005b6101c660048036038101906101c1919061100e565b61074d565b005b6101e260048036038101906101dd9190610f81565b6107a3565b005b6101ec610829565b6040516101f99190611118565b60405180910390f35b60008211610245576040517f08c379a000000000000000000000000000000000000000000000000000000000815260040161023c90611190565b60405180910390fd5b6000815103610289576040517f08c379a0000000000000000000000000000000000000000000000000000000008152600401610280906111fc565b60405180910390fd5b600160009054906101000a900473ffffffffffffffffffffffffffffffffffffffff1673ffffffffffffffffffffffffffffffffffffffff166323b872dd6102cf61084f565b30856040518463ffffffff1660e01b81526004016102ef9392919061121c565b6020604051808303816000875af115801561030e573d6000803e3d6000fd5b505050506040513d601f19601f82011682018060405250810190610332919061127f565b610371576040517f08c379a0000000000000000000000000000000000000000000000000000000008152600401610368906112f8565b60405180910390fd5b6040518060a0016040528061038461084f565b73ffffffffffffffffffffffffffffffffffffffff1681526020018473ffffffffffffffffffffffffffffffffffffffff168152602001838152602001428152602001600015158152506002826040516103de9190611389565b908152602001604051809103902060008201518160000160006101000a81548173ffffffffffffffffffffffffffffffffffffffff021916908373ffffffffffffffffffffffffffffffffffffffff16021790555060208201518160010160006101000a81548173ffffffffffffffffffffffffffffffffffffffff021916908373ffffffffffffffffffffffffffffffffffffffff160217905550604082015181600201556060820151816003015560808201518160040160006101000a81548160ff021916908315150217905550905050505050565b60006104c0610509565b73ffffffffffffffffffffffffffffffffffffffff168273ffffffffffffffffffffffffffffffffffffffff16149050919050565b6104fd61085e565b61050760006108e5565b565b60007f0000000000000000000000000000000000000000000000000000000000000000905090565b60008060009054906101000a900473ffffffffffffffffffffffffffffffffffffffff16905090565b6002818051602081018201805184825260208301602085012081835280955050505050506000915090508060000160009054906101000a900473ffffffffffffffffffffffffffffffffffffffff16908060010160009054906101000a900473ffffffffffffffffffffffffffffffffffffffff16908060020154908060030154908060040160009054906101000a900460ff16905085565b6105fb61085e565b6106468160028360405161060f9190611389565b908152602001604051809103902060010160009054906101000a900473ffffffffffffffffffffffffffffffffffffffff166109a9565b50565b61065161084f565b73ffffffffffffffffffffffffffffffffffffffff166002826040516106779190611389565b908152602001604051809103902060000160009054906101000a900473ffffffffffffffffffffffffffffffffffffffff1673ffffffffffffffffffffffffffffffffffffffff16146106ff576040517f08c379a00000000000000000000000000000000000000000000000000000000081526004016106f690611412565b60405180910390fd5b61074a816002836040516107139190611389565b908152602001604051809103902060010160009054906101000a900473ffffffffffffffffffffffffffffffffffffffff166109a9565b50565b61075561085e565b6107a0816002836040516107699190611389565b908152602001604051809103902060000160009054906101000a900473ffffffffffffffffffffffffffffffffffffffff166109a9565b50565b6107ab61085e565b600073ffffffffffffffffffffffffffffffffffffffff168173ffffffffffffffffffffffffffffffffffffffff160361081d5760006040517f1e4fbdf70000000000000000000000000000000000000000000000000000000081526004016108149190610ff3565b60405180910390fd5b610826816108e5565b50565b600160009054906101000a900473ffffffffffffffffffffffffffffffffffffffff1681565b6000610859610cd9565b905090565b61086661084f565b73ffffffffffffffffffffffffffffffffffffffff16610884610531565b73ffffffffffffffffffffffffffffffffffffffff16146108e3576108a761084f565b6040517f118cdaa70000000000000000000000000000000000000000000000000000000081526004016108da9190610ff3565b60405180910390fd5b565b60008060009054906101000a900473ffffffffffffffffffffffffffffffffffffffff169050816000806101000a81548173ffffffffffffffffffffffffffffffffffffffff021916908373ffffffffffffffffffffffffffffffffffffffff1602179055508173ffffffffffffffffffffffffffffffffffffffff168173ffffffffffffffffffffffffffffffffffffffff167f8be0079c531659141344cd1fd0a4f28419497f9722a3daafe3b4186f6b6457e060405160405180910390a35050565b60006002836040516109bb9190611389565b90815260200160405180910390206040518060a00160405290816000820160009054906101000a900473ffffffffffffffffffffffffffffffffffffffff1673ffffffffffffffffffffffffffffffffffffffff1673ffffffffffffffffffffffffffffffffffffffff1681526020016001820160009054906101000a900473ffffffffffffffffffffffffffffffffffffffff1673ffffffffffffffffffffffffffffffffffffffff1673ffffffffffffffffffffffffffffffffffffffff16815260200160028201548152602001600382015481526020016004820160009054906101000a900460ff1615151515815250509050806080015115610af6576040517f08c379a0000000000000000000000000000000000000000000000000000000008152600401610aed906114a4565b60405180910390fd5b600081604001519050600182608001901515908115158152505081600285604051610b219190611389565b908152602001604051809103902060008201518160000160006101000a81548173ffffffffffffffffffffffffffffffffffffffff021916908373ffffffffffffffffffffffffffffffffffffffff16021790555060208201518160010160006101000a81548173ffffffffffffffffffffffffffffffffffffffff021916908373ffffffffffffffffffffffffffffffffffffffff160217905550604082015181600201556060820151816003015560808201518160040160006101000a81548160ff021916908315150217905550905050600160009054906101000a900473ffffffffffffffffffffffffffffffffffffffff1673ffffffffffffffffffffffffffffffffffffffff1663a9059cbb84836040518363ffffffff1660e01b8152600401610c519291906114c4565b6020604051808303816000875af1158015610c70573d6000803e3d6000fd5b505050506040513d601f19601f82011682018060405250810190610c94919061127f565b610cd3576040517f08c379a0000000000000000000000000000000000000000000000000000000008152600401610cca90611539565b60405180910390fd5b50505050565b6000610ce4336104b6565b8015610cf557506014600036905010155b15610d0957601436033560601c9050610d18565b610d11610d1c565b9050610d19565b5b90565b600033905090565b6000604051905090565b600080fd5b600080fd5b600073ffffffffffffffffffffffffffffffffffffffff82169050919050565b6000610d6382610d38565b9050919050565b610d7381610d58565b8114610d7e57600080fd5b50565b600081359050610d9081610d6a565b92915050565b6000819050919050565b610da981610d96565b8114610db457600080fd5b50565b600081359050610dc681610da0565b92915050565b600080fd5b600080fd5b6000601f19601f8301169050919050565b7f4e487b7100000000000000000000000000000000000000000000000000000000600052604160045260246000fd5b610e1f82610dd6565b810181811067ffffffffffffffff82111715610e3e57610e3d610de7565b5b80604052505050565b6000610e51610d24565b9050610e5d8282610e16565b919050565b600067ffffffffffffffff821115610e7d57610e7c610de7565b5b610e8682610dd6565b9050602081019050919050565b82818337600083830152505050565b6000610eb5610eb084610e62565b610e47565b905082815260208101848484011115610ed157610ed0610dd1565b5b610edc848285610e93565b509392505050565b600082601f830112610ef957610ef8610dcc565b5b8135610f09848260208601610ea2565b91505092915050565b600080600060608486031215610f2b57610f2a610d2e565b5b6000610f3986828701610d81565b9350506020610f4a86828701610db7565b925050604084013567ffffffffffffffff811115610f6b57610f6a610d33565b5b610f7786828701610ee4565b9150509250925092565b600060208284031215610f9757610f96610d2e565b5b6000610fa584828501610d81565b91505092915050565b60008115159050919050565b610fc381610fae565b82525050565b6000602082019050610fde6000830184610fba565b92915050565b610fed81610d58565b82525050565b60006020820190506110086000830184610fe4565b92915050565b60006020828403121561102457611023610d2e565b5b600082013567ffffffffffffffff81111561104257611041610d33565b5b61104e84828501610ee4565b91505092915050565b61106081610d96565b82525050565b600060a08201905061107b6000830188610fe4565b6110886020830187610fe4565b6110956040830186611057565b6110a26060830185611057565b6110af6080830184610fba565b9695505050505050565b6000819050919050565b60006110de6110d96110d484610d38565b6110b9565b610d38565b9050919050565b60006110f0826110c3565b9050919050565b6000611102826110e5565b9050919050565b611112816110f7565b82525050565b600060208201905061112d6000830184611109565b92915050565b600082825260208201905092915050565b7f416d6f756e74206d7573742062652067726561746572207468616e2030000000600082015250565b600061117a601d83611133565b915061118582611144565b602082019050919050565b600060208201905081810360008301526111a98161116d565b9050919050565b7f4465706f73697449642073686f756c64206e6f7420626520656d707479000000600082015250565b60006111e6601d83611133565b91506111f1826111b0565b602082019050919050565b60006020820190508181036000830152611215816111d9565b9050919050565b60006060820190506112316000830186610fe4565b61123e6020830185610fe4565b61124b6040830184611057565b949350505050565b61125c81610fae565b811461126757600080fd5b50565b60008151905061127981611253565b92915050565b60006020828403121561129557611294610d2e565b5b60006112a38482850161126a565b91505092915050565b7f4465706f736974206661696c6564000000000000000000000000000000000000600082015250565b60006112e2600e83611133565b91506112ed826112ac565b602082019050919050565b60006020820190508181036000830152611311816112d5565b9050919050565b600081519050919050565b600081905092915050565b60005b8381101561134c578082015181840152602081019050611331565b60008484015250505050565b600061136382611318565b61136d8185611323565b935061137d81856020860161132e565b80840191505092915050565b60006113958284611358565b915081905092915050565b7f4e6f7420617574686f72697a656420746f20776974686472617720746869732060008201527f6465706f73697400000000000000000000000000000000000000000000000000602082015250565b60006113fc602783611133565b9150611407826113a0565b604082019050919050565b6000602082019050818103600083015261142b816113ef565b9050919050565b7f54686973206465706f7369742068617320616c7265616479206265656e20776960008201527f7468647261776e00000000000000000000000000000000000000000000000000602082015250565b600061148e602783611133565b915061149982611432565b604082019050919050565b600060208201905081810360008301526114bd81611481565b9050919050565b60006040820190506114d96000830185610fe4565b6114e66020830184611057565b9392505050565b7f5769746864726177616c206661696c6564000000000000000000000000000000600082015250565b6000611523601183611133565b915061152e826114ed565b602082019050919050565b6000602082019050818103600083015261155281611516565b905091905056fea264697066735822122098f99b1fdafb7e73a5a26b18c16d0e60d5ccbe23d5341d29130a8cb6c05f514064736f6c63430008140033",
  "linkReferences": {},
  "deployedLinkReferences": {}
}