{
  "_format": "hh-sol-artifact-1",
  "contractName": "Escrow",
  "sourceName": "contracts/Escrow.sol",
  "abi": [
    {
      "inputs": [
        {
          "internalType": "address",
          "name": "_token",
          "type": "address"
        }
      ],
      "stateMutability": "nonpayable",
      "type": "constructor"
    },
    {
      "anonymous": false,
      "inputs": [
        {
          "indexed": true,
          "internalType": "address",
          "name": "previousOwner",
          "type": "address"
        },
        {
          "indexed": true,
          "internalType": "address",
          "name": "newOwner",
          "type": "address"
        }
      ],
      "name": "OwnershipTransferred",
      "type": "event"
    },
    {
      "inputs": [
        {
          "internalType": "address",
          "name": "_recipient",
          "type": "address"
        },
        {
          "internalType": "uint256",
          "name": "_amount",
          "type": "uint256"
        },
        {
          "internalType": "string",
          "name": "_depositId",
          "type": "string"
        }
      ],
      "name": "depositTokens",
      "outputs": [],
      "stateMutability": "nonpayable",
      "type": "function"
    },
    {
      "inputs": [
        {
          "internalType": "string",
          "name": "",
          "type": "string"
        }
      ],
      "name": "deposits",
      "outputs": [
        {
          "internalType": "address",
          "name": "depositor",
          "type": "address"
        },
        {
          "internalType": "address",
          "name": "recipient",
          "type": "address"
        },
        {
          "internalType": "uint256",
          "name": "amount",
          "type": "uint256"
        },
        {
          "internalType": "uint256",
          "name": "timestamp",
          "type": "uint256"
        },
        {
          "internalType": "bool",
          "name": "withdrawn",
          "type": "bool"
        }
      ],
      "stateMutability": "view",
      "type": "function"
    },
    {
      "inputs": [],
      "name": "owner",
      "outputs": [
        {
          "internalType": "address",
          "name": "",
          "type": "address"
        }
      ],
      "stateMutability": "view",
      "type": "function"
    },
    {
      "inputs": [],
      "name": "renounceOwnership",
      "outputs": [],
      "stateMutability": "nonpayable",
      "type": "function"
    },
    {
      "inputs": [],
      "name": "token",
      "outputs": [
        {
          "internalType": "contract IERC20",
          "name": "",
          "type": "address"
        }
      ],
      "stateMutability": "view",
      "type": "function"
    },
    {
      "inputs": [
        {
          "internalType": "address",
          "name": "newOwner",
          "type": "address"
        }
      ],
      "name": "transferOwnership",
      "outputs": [],
      "stateMutability": "nonpayable",
      "type": "function"
    },
    {
      "inputs": [
        {
          "internalType": "string",
          "name": "_depositId",
          "type": "string"
        }
      ],
      "name": "withdrawTokensToDepositorByOwner",
      "outputs": [],
      "stateMutability": "nonpayable",
      "type": "function"
    },
    {
      "inputs": [
        {
          "internalType": "string",
          "name": "_depositId",
          "type": "string"
        }
      ],
      "name": "withdrawTokensToRecipientByDepositor",
      "outputs": [],
      "stateMutability": "nonpayable",
      "type": "function"
    },
    {
      "inputs": [
        {
          "internalType": "string",
          "name": "_depositId",
          "type": "string"
        }
      ],
      "name": "withdrawTokensToRecipientByOwner",
      "outputs": [],
      "stateMutability": "nonpayable",
      "type": "function"
    }
  ],
  "bytecode": "0x60806040523480156200001157600080fd5b506040516200174b3803806200174b8339818101604052810190620000379190620001d5565b620000576200004b6200009f60201b60201c565b620000a760201b60201c565b80600160006101000a81548173ffffffffffffffffffffffffffffffffffffffff021916908373ffffffffffffffffffffffffffffffffffffffff1602179055505062000207565b600033905090565b60008060009054906101000a900473ffffffffffffffffffffffffffffffffffffffff169050816000806101000a81548173ffffffffffffffffffffffffffffffffffffffff021916908373ffffffffffffffffffffffffffffffffffffffff1602179055508173ffffffffffffffffffffffffffffffffffffffff168173ffffffffffffffffffffffffffffffffffffffff167f8be0079c531659141344cd1fd0a4f28419497f9722a3daafe3b4186f6b6457e060405160405180910390a35050565b600080fd5b600073ffffffffffffffffffffffffffffffffffffffff82169050919050565b60006200019d8262000170565b9050919050565b620001af8162000190565b8114620001bb57600080fd5b50565b600081519050620001cf81620001a4565b92915050565b600060208284031215620001ee57620001ed6200016b565b5b6000620001fe84828501620001be565b91505092915050565b61153480620002176000396000f3fe608060405234801561001057600080fd5b50600436106100935760003560e01c8063c6ed318711610066578063c6ed318714610110578063c76735371461012c578063d5ee823714610148578063f2fde38b14610164578063fc0c546a1461018057610093565b8063484c2d9714610098578063715018a6146100b45780638da5cb5b146100be578063b9a8a4fd146100dc575b600080fd5b6100b260048036038101906100ad9190610dd4565b61019e565b005b6100bc610444565b005b6100c6610458565b6040516100d39190610e52565b60405180910390f35b6100f660048036038101906100f19190610e6d565b610481565b604051610107959493929190610ee0565b60405180910390f35b61012a60048036038101906101259190610e6d565b61051a565b005b61014660048036038101906101419190610e6d565b610570565b005b610162600480360381019061015d9190610e6d565b61066d565b005b61017e60048036038101906101799190610f33565b6106c3565b005b610188610746565b6040516101959190610fbf565b60405180910390f35b600082116101e1576040517f08c379a00000000000000000000000000000000000000000000000000000000081526004016101d890611037565b60405180910390fd5b6000815103610225576040517f08c379a000000000000000000000000000000000000000000000000000000000815260040161021c906110a3565b60405180910390fd5b600160009054906101000a900473ffffffffffffffffffffffffffffffffffffffff1673ffffffffffffffffffffffffffffffffffffffff166323b872dd3330856040518463ffffffff1660e01b8152600401610284939291906110c3565b6020604051808303816000875af11580156102a3573d6000803e3d6000fd5b505050506040513d601f19601f820116820180604052508101906102c79190611126565b610306576040517f08c379a00000000000000000000000000000000000000000000000000000000081526004016102fd9061119f565b60405180910390fd5b6040518060a001604052803373ffffffffffffffffffffffffffffffffffffffff1681526020018473ffffffffffffffffffffffffffffffffffffffff1681526020018381526020014281526020016000151581525060028260405161036c9190611230565b908152602001604051809103902060008201518160000160006101000a81548173ffffffffffffffffffffffffffffffffffffffff021916908373ffffffffffffffffffffffffffffffffffffffff16021790555060208201518160010160006101000a81548173ffffffffffffffffffffffffffffffffffffffff021916908373ffffffffffffffffffffffffffffffffffffffff160217905550604082015181600201556060820151816003015560808201518160040160006101000a81548160ff021916908315150217905550905050505050565b61044c61076c565b61045660006107ea565b565b60008060009054906101000a900473ffffffffffffffffffffffffffffffffffffffff16905090565b6002818051602081018201805184825260208301602085012081835280955050505050506000915090508060000160009054906101000a900473ffffffffffffffffffffffffffffffffffffffff16908060010160009054906101000a900473ffffffffffffffffffffffffffffffffffffffff16908060020154908060030154908060040160009054906101000a900460ff16905085565b61052261076c565b61056d816002836040516105369190611230565b908152602001604051809103902060010160009054906101000a900473ffffffffffffffffffffffffffffffffffffffff166108ae565b50565b3373ffffffffffffffffffffffffffffffffffffffff166002826040516105979190611230565b908152602001604051809103902060000160009054906101000a900473ffffffffffffffffffffffffffffffffffffffff1673ffffffffffffffffffffffffffffffffffffffff161461061f576040517f08c379a0000000000000000000000000000000000000000000000000000000008152600401610616906112b9565b60405180910390fd5b61066a816002836040516106339190611230565b908152602001604051809103902060010160009054906101000a900473ffffffffffffffffffffffffffffffffffffffff166108ae565b50565b61067561076c565b6106c0816002836040516106899190611230565b908152602001604051809103902060000160009054906101000a900473ffffffffffffffffffffffffffffffffffffffff166108ae565b50565b6106cb61076c565b600073ffffffffffffffffffffffffffffffffffffffff168173ffffffffffffffffffffffffffffffffffffffff160361073a576040517f08c379a00000000000000000000000000000000000000000000000000000000081526004016107319061134b565b60405180910390fd5b610743816107ea565b50565b600160009054906101000a900473ffffffffffffffffffffffffffffffffffffffff1681565b610774610bde565b73ffffffffffffffffffffffffffffffffffffffff16610792610458565b73ffffffffffffffffffffffffffffffffffffffff16146107e8576040517f08c379a00000000000000000000000000000000000000000000000000000000081526004016107df906113b7565b60405180910390fd5b565b60008060009054906101000a900473ffffffffffffffffffffffffffffffffffffffff169050816000806101000a81548173ffffffffffffffffffffffffffffffffffffffff021916908373ffffffffffffffffffffffffffffffffffffffff1602179055508173ffffffffffffffffffffffffffffffffffffffff168173ffffffffffffffffffffffffffffffffffffffff167f8be0079c531659141344cd1fd0a4f28419497f9722a3daafe3b4186f6b6457e060405160405180910390a35050565b60006002836040516108c09190611230565b90815260200160405180910390206040518060a00160405290816000820160009054906101000a900473ffffffffffffffffffffffffffffffffffffffff1673ffffffffffffffffffffffffffffffffffffffff1673ffffffffffffffffffffffffffffffffffffffff1681526020016001820160009054906101000a900473ffffffffffffffffffffffffffffffffffffffff1673ffffffffffffffffffffffffffffffffffffffff1673ffffffffffffffffffffffffffffffffffffffff16815260200160028201548152602001600382015481526020016004820160009054906101000a900460ff16151515158152505090508060800151156109fb576040517f08c379a00000000000000000000000000000000000000000000000000000000081526004016109f290611449565b60405180910390fd5b600081604001519050600182608001901515908115158152505081600285604051610a269190611230565b908152602001604051809103902060008201518160000160006101000a81548173ffffffffffffffffffffffffffffffffffffffff021916908373ffffffffffffffffffffffffffffffffffffffff16021790555060208201518160010160006101000a81548173ffffffffffffffffffffffffffffffffffffffff021916908373ffffffffffffffffffffffffffffffffffffffff160217905550604082015181600201556060820151816003015560808201518160040160006101000a81548160ff021916908315150217905550905050600160009054906101000a900473ffffffffffffffffffffffffffffffffffffffff1673ffffffffffffffffffffffffffffffffffffffff1663a9059cbb84836040518363ffffffff1660e01b8152600401610b56929190611469565b6020604051808303816000875af1158015610b75573d6000803e3d6000fd5b505050506040513d601f19601f82011682018060405250810190610b999190611126565b610bd8576040517f08c379a0000000000000000000000000000000000000000000000000000000008152600401610bcf906114de565b60405180910390fd5b50505050565b600033905090565b6000604051905090565b600080fd5b600080fd5b600073ffffffffffffffffffffffffffffffffffffffff82169050919050565b6000610c2582610bfa565b9050919050565b610c3581610c1a565b8114610c4057600080fd5b50565b600081359050610c5281610c2c565b92915050565b6000819050919050565b610c6b81610c58565b8114610c7657600080fd5b50565b600081359050610c8881610c62565b92915050565b600080fd5b600080fd5b6000601f19601f8301169050919050565b7f4e487b7100000000000000000000000000000000000000000000000000000000600052604160045260246000fd5b610ce182610c98565b810181811067ffffffffffffffff82111715610d0057610cff610ca9565b5b80604052505050565b6000610d13610be6565b9050610d1f8282610cd8565b919050565b600067ffffffffffffffff821115610d3f57610d3e610ca9565b5b610d4882610c98565b9050602081019050919050565b82818337600083830152505050565b6000610d77610d7284610d24565b610d09565b905082815260208101848484011115610d9357610d92610c93565b5b610d9e848285610d55565b509392505050565b600082601f830112610dbb57610dba610c8e565b5b8135610dcb848260208601610d64565b91505092915050565b600080600060608486031215610ded57610dec610bf0565b5b6000610dfb86828701610c43565b9350506020610e0c86828701610c79565b925050604084013567ffffffffffffffff811115610e2d57610e2c610bf5565b5b610e3986828701610da6565b9150509250925092565b610e4c81610c1a565b82525050565b6000602082019050610e676000830184610e43565b92915050565b600060208284031215610e8357610e82610bf0565b5b600082013567ffffffffffffffff811115610ea157610ea0610bf5565b5b610ead84828501610da6565b91505092915050565b610ebf81610c58565b82525050565b60008115159050919050565b610eda81610ec5565b82525050565b600060a082019050610ef56000830188610e43565b610f026020830187610e43565b610f0f6040830186610eb6565b610f1c6060830185610eb6565b610f296080830184610ed1565b9695505050505050565b600060208284031215610f4957610f48610bf0565b5b6000610f5784828501610c43565b91505092915050565b6000819050919050565b6000610f85610f80610f7b84610bfa565b610f60565b610bfa565b9050919050565b6000610f9782610f6a565b9050919050565b6000610fa982610f8c565b9050919050565b610fb981610f9e565b82525050565b6000602082019050610fd46000830184610fb0565b92915050565b600082825260208201905092915050565b7f416d6f756e74206d7573742062652067726561746572207468616e2030000000600082015250565b6000611021601d83610fda565b915061102c82610feb565b602082019050919050565b6000602082019050818103600083015261105081611014565b9050919050565b7f4465706f73697449642073686f756c64206e6f7420626520656d707479000000600082015250565b600061108d601d83610fda565b915061109882611057565b602082019050919050565b600060208201905081810360008301526110bc81611080565b9050919050565b60006060820190506110d86000830186610e43565b6110e56020830185610e43565b6110f26040830184610eb6565b949350505050565b61110381610ec5565b811461110e57600080fd5b50565b600081519050611120816110fa565b92915050565b60006020828403121561113c5761113b610bf0565b5b600061114a84828501611111565b91505092915050565b7f4465706f736974206661696c6564000000000000000000000000000000000000600082015250565b6000611189600e83610fda565b915061119482611153565b602082019050919050565b600060208201905081810360008301526111b88161117c565b9050919050565b600081519050919050565b600081905092915050565b60005b838110156111f35780820151818401526020810190506111d8565b60008484015250505050565b600061120a826111bf565b61121481856111ca565b93506112248185602086016111d5565b80840191505092915050565b600061123c82846111ff565b915081905092915050565b7f4e6f7420617574686f72697a656420746f20776974686472617720746869732060008201527f6465706f73697400000000000000000000000000000000000000000000000000602082015250565b60006112a3602783610fda565b91506112ae82611247565b604082019050919050565b600060208201905081810360008301526112d281611296565b9050919050565b7f4f776e61626c653a206e6577206f776e657220697320746865207a65726f206160008201527f6464726573730000000000000000000000000000000000000000000000000000602082015250565b6000611335602683610fda565b9150611340826112d9565b604082019050919050565b6000602082019050818103600083015261136481611328565b9050919050565b7f4f776e61626c653a2063616c6c6572206973206e6f7420746865206f776e6572600082015250565b60006113a1602083610fda565b91506113ac8261136b565b602082019050919050565b600060208201905081810360008301526113d081611394565b9050919050565b7f54686973206465706f7369742068617320616c7265616479206265656e20776960008201527f7468647261776e00000000000000000000000000000000000000000000000000602082015250565b6000611433602783610fda565b915061143e826113d7565b604082019050919050565b6000602082019050818103600083015261146281611426565b9050919050565b600060408201905061147e6000830185610e43565b61148b6020830184610eb6565b9392505050565b7f5769746864726177616c206661696c6564000000000000000000000000000000600082015250565b60006114c8601183610fda565b91506114d382611492565b602082019050919050565b600060208201905081810360008301526114f7816114bb565b905091905056fea264697066735822122008fc8fdc9c5b223d68f6c0bfb2318084eee630be60ec53b14315cfe4ff509e1964736f6c63430008120033",
  "linkReferences": {},
  "deployedLinkReferences": {}
}