{
  "_format": "hh-sol-artifact-1",
  "contractName": "Escrow",
  "sourceName": "contracts/Escrow.sol",
  "abi": [
    {
      "inputs": [
        {
          "internalType": "contract ERC2771Forwarder",
          "name": "forwarder",
          "type": "address"
        },
        {
          "internalType": "address",
          "name": "initialOwner",
          "type": "address"
        }
      ],
      "stateMutability": "nonpayable",
      "type": "constructor"
    },
    {
      "inputs": [
        {
          "internalType": "address",
          "name": "target",
          "type": "address"
        }
      ],
      "name": "AddressEmptyCode",
      "type": "error"
    },
    {
      "inputs": [
        {
          "internalType": "address",
          "name": "account",
          "type": "address"
        }
      ],
      "name": "AddressInsufficientBalance",
      "type": "error"
    },
    {
      "inputs": [],
      "name": "FailedInnerCall",
      "type": "error"
    },
    {
      "inputs": [
        {
          "internalType": "address",
          "name": "owner",
          "type": "address"
        }
      ],
      "name": "OwnableInvalidOwner",
      "type": "error"
    },
    {
      "inputs": [
        {
          "internalType": "address",
          "name": "account",
          "type": "address"
        }
      ],
      "name": "OwnableUnauthorizedAccount",
      "type": "error"
    },
    {
      "inputs": [
        {
          "internalType": "address",
          "name": "token",
          "type": "address"
        }
      ],
      "name": "SafeERC20FailedOperation",
      "type": "error"
    },
    {
      "anonymous": false,
      "inputs": [
        {
          "indexed": true,
          "internalType": "string",
          "name": "depositId",
          "type": "string"
        },
        {
          "indexed": true,
          "internalType": "address",
          "name": "recipient",
          "type": "address"
        }
      ],
      "name": "DepositWithdrawn",
      "type": "event"
    },
    {
      "anonymous": false,
      "inputs": [
        {
          "indexed": true,
          "internalType": "string",
          "name": "depositId",
          "type": "string"
        },
        {
          "indexed": true,
          "internalType": "address",
          "name": "depositor",
          "type": "address"
        },
        {
          "indexed": true,
          "internalType": "address",
          "name": "recipient",
          "type": "address"
        },
        {
          "indexed": false,
          "internalType": "uint256",
          "name": "amount",
          "type": "uint256"
        },
        {
          "indexed": false,
          "internalType": "address",
          "name": "tokenAddress",
          "type": "address"
        }
      ],
      "name": "ERC20TokenDepositCreated",
      "type": "event"
    },
    {
      "anonymous": false,
      "inputs": [
        {
          "indexed": true,
          "internalType": "string",
          "name": "depositId",
          "type": "string"
        },
        {
          "indexed": true,
          "internalType": "address",
          "name": "depositor",
          "type": "address"
        },
        {
          "indexed": true,
          "internalType": "address",
          "name": "recipient",
          "type": "address"
        },
        {
          "indexed": false,
          "internalType": "uint256",
          "name": "amount",
          "type": "uint256"
        }
      ],
      "name": "NativeTokenDepositCreated",
      "type": "event"
    },
    {
      "anonymous": false,
      "inputs": [
        {
          "indexed": true,
          "internalType": "string",
          "name": "action",
          "type": "string"
        },
        {
          "indexed": true,
          "internalType": "string",
          "name": "depositId",
          "type": "string"
        }
      ],
      "name": "OwnerAction",
      "type": "event"
    },
    {
      "anonymous": false,
      "inputs": [
        {
          "indexed": true,
          "internalType": "address",
          "name": "previousOwner",
          "type": "address"
        },
        {
          "indexed": true,
          "internalType": "address",
          "name": "newOwner",
          "type": "address"
        }
      ],
      "name": "OwnershipTransferred",
      "type": "event"
    },
    {
      "inputs": [
        {
          "internalType": "address",
          "name": "_recipient",
          "type": "address"
        },
        {
          "internalType": "uint256",
          "name": "_amount",
          "type": "uint256"
        },
        {
          "internalType": "string",
          "name": "_depositId",
          "type": "string"
        },
        {
          "internalType": "address",
          "name": "_tokenAddress",
          "type": "address"
        }
      ],
      "name": "createERC20TokenDeposit",
      "outputs": [],
      "stateMutability": "nonpayable",
      "type": "function"
    },
    {
      "inputs": [
        {
          "internalType": "address",
          "name": "_recipient",
          "type": "address"
        },
        {
          "internalType": "string",
          "name": "_depositId",
          "type": "string"
        }
      ],
      "name": "createNativeTokenDeposit",
      "outputs": [],
      "stateMutability": "payable",
      "type": "function"
    },
    {
      "inputs": [
        {
          "internalType": "string",
          "name": "_depositId",
          "type": "string"
        }
      ],
      "name": "getDeposit",
      "outputs": [
        {
          "components": [
            {
              "internalType": "address",
              "name": "depositor",
              "type": "address"
            },
            {
              "internalType": "address",
              "name": "recipient",
              "type": "address"
            },
            {
              "internalType": "address",
              "name": "tokenAddress",
              "type": "address"
            },
            {
              "internalType": "uint256",
              "name": "amount",
              "type": "uint256"
            }
          ],
          "internalType": "struct Escrow.Deposit",
          "name": "",
          "type": "tuple"
        }
      ],
      "stateMutability": "view",
      "type": "function"
    },
    {
      "inputs": [],
      "name": "getDepositIds",
      "outputs": [
        {
          "internalType": "string[]",
          "name": "",
          "type": "string[]"
        }
      ],
      "stateMutability": "view",
      "type": "function"
    },
    {
      "inputs": [
        {
          "internalType": "address",
          "name": "forwarder",
          "type": "address"
        }
      ],
      "name": "isTrustedForwarder",
      "outputs": [
        {
          "internalType": "bool",
          "name": "",
          "type": "bool"
        }
      ],
      "stateMutability": "view",
      "type": "function"
    },
    {
      "inputs": [],
      "name": "owner",
      "outputs": [
        {
          "internalType": "address",
          "name": "",
          "type": "address"
        }
      ],
      "stateMutability": "view",
      "type": "function"
    },
    {
      "inputs": [],
      "name": "renounceOwnership",
      "outputs": [],
      "stateMutability": "nonpayable",
      "type": "function"
    },
    {
      "inputs": [
        {
          "internalType": "address",
          "name": "newOwner",
          "type": "address"
        }
      ],
      "name": "transferOwnership",
      "outputs": [],
      "stateMutability": "nonpayable",
      "type": "function"
    },
    {
      "inputs": [],
      "name": "trustedForwarder",
      "outputs": [
        {
          "internalType": "address",
          "name": "",
          "type": "address"
        }
      ],
      "stateMutability": "view",
      "type": "function"
    },
    {
      "inputs": [
        {
          "internalType": "string",
          "name": "_depositId",
          "type": "string"
        }
      ],
      "name": "withdrawToDepositorByOwner",
      "outputs": [],
      "stateMutability": "nonpayable",
      "type": "function"
    },
    {
      "inputs": [
        {
          "internalType": "string",
          "name": "_depositId",
          "type": "string"
        }
      ],
      "name": "withdrawToRecipientByDepositor",
      "outputs": [],
      "stateMutability": "nonpayable",
      "type": "function"
    },
    {
      "inputs": [
        {
          "internalType": "string",
          "name": "_depositId",
          "type": "string"
        }
      ],
      "name": "withdrawToRecipientByOwner",
      "outputs": [],
      "stateMutability": "nonpayable",
      "type": "function"
    }
  ],
  "bytecode": "0x60a06040523480156200001157600080fd5b50604051620031a7380380620031a7833981810160405281019062000037919062000270565b80828073ffffffffffffffffffffffffffffffffffffffff1660808173ffffffffffffffffffffffffffffffffffffffff168152505050600073ffffffffffffffffffffffffffffffffffffffff168173ffffffffffffffffffffffffffffffffffffffff1603620000e35760006040517f1e4fbdf7000000000000000000000000000000000000000000000000000000008152600401620000da9190620002c8565b60405180910390fd5b620000f481620000fd60201b60201c565b505050620002e5565b60008060009054906101000a900473ffffffffffffffffffffffffffffffffffffffff169050816000806101000a81548173ffffffffffffffffffffffffffffffffffffffff021916908373ffffffffffffffffffffffffffffffffffffffff1602179055508173ffffffffffffffffffffffffffffffffffffffff168173ffffffffffffffffffffffffffffffffffffffff167f8be0079c531659141344cd1fd0a4f28419497f9722a3daafe3b4186f6b6457e060405160405180910390a35050565b600080fd5b600073ffffffffffffffffffffffffffffffffffffffff82169050919050565b6000620001f382620001c6565b9050919050565b60006200020782620001e6565b9050919050565b6200021981620001fa565b81146200022557600080fd5b50565b60008151905062000239816200020e565b92915050565b6200024a81620001e6565b81146200025657600080fd5b50565b6000815190506200026a816200023f565b92915050565b600080604083850312156200028a5762000289620001c1565b5b60006200029a8582860162000228565b9250506020620002ad8582860162000259565b9150509250929050565b620002c281620001e6565b82525050565b6000602082019050620002df6000830184620002b7565b92915050565b608051612ea66200030160003960006108480152612ea66000f3fe6080604052600436106100a75760003560e01c8063934701e111610064578063934701e11461019b57806394d7eb87146101c4578063a9cac660146101ef578063d20747a814610218578063f2fde38b14610255578063fb7d56911461027e576100a7565b80634ab1f739146100ac57806350ef816f146100c8578063572b6c05146100f1578063715018a61461012e5780637da0a877146101455780638da5cb5b14610170575b600080fd5b6100c660048036038101906100c19190611df1565b6102a7565b005b3480156100d457600080fd5b506100ef60048036038101906100ea9190611e4d565b6106ed565b005b3480156100fd57600080fd5b5061011860048036038101906101139190611e96565b6107f1565b6040516101259190611ede565b60405180910390f35b34801561013a57600080fd5b50610143610830565b005b34801561015157600080fd5b5061015a610844565b6040516101679190611f08565b60405180910390f35b34801561017c57600080fd5b5061018561086c565b6040516101929190611f08565b60405180910390f35b3480156101a757600080fd5b506101c260048036038101906101bd9190611e4d565b610895565b005b3480156101d057600080fd5b506101d9610941565b6040516101e69190612064565b60405180910390f35b3480156101fb57600080fd5b5061021660048036038101906102119190611e4d565b610a22565b005b34801561022457600080fd5b5061023f600480360381019061023a9190611e4d565b610ace565b60405161024c9190612103565b60405180910390f35b34801561026157600080fd5b5061027c60048036038101906102779190611e96565b610c1a565b005b34801561028a57600080fd5b506102a560048036038101906102a0919061214a565b610ca0565b005b8181600073ffffffffffffffffffffffffffffffffffffffff166102c9611171565b73ffffffffffffffffffffffffffffffffffffffff160361031f576040517f08c379a000000000000000000000000000000000000000000000000000000000815260040161031690612250565b60405180910390fd5b600073ffffffffffffffffffffffffffffffffffffffff168273ffffffffffffffffffffffffffffffffffffffff160361038e576040517f08c379a0000000000000000000000000000000000000000000000000000000008152600401610385906122e2565b60405180910390fd5b600073ffffffffffffffffffffffffffffffffffffffff166001826040516103b6919061233e565b908152602001604051809103902060000160009054906101000a900473ffffffffffffffffffffffffffffffffffffffff1673ffffffffffffffffffffffffffffffffffffffff161461043e576040517f08c379a0000000000000000000000000000000000000000000000000000000008152600401610435906123c7565b60405180910390fd5b6000815103610482576040517f08c379a000000000000000000000000000000000000000000000000000000000815260040161047990612459565b60405180910390fd5b600034116104c5576040517f08c379a00000000000000000000000000000000000000000000000000000000081526004016104bc906124eb565b60405180910390fd5b60405180608001604052806104d8611171565b73ffffffffffffffffffffffffffffffffffffffff1681526020018573ffffffffffffffffffffffffffffffffffffffff168152602001600073ffffffffffffffffffffffffffffffffffffffff16815260200134815250600184604051610540919061233e565b908152602001604051809103902060008201518160000160006101000a81548173ffffffffffffffffffffffffffffffffffffffff021916908373ffffffffffffffffffffffffffffffffffffffff16021790555060208201518160010160006101000a81548173ffffffffffffffffffffffffffffffffffffffff021916908373ffffffffffffffffffffffffffffffffffffffff16021790555060408201518160020160006101000a81548173ffffffffffffffffffffffffffffffffffffffff021916908373ffffffffffffffffffffffffffffffffffffffff160217905550606082015181600301559050506002839080600181540180825580915050600190039060005260206000200160009091909190915090816106649190612717565b508373ffffffffffffffffffffffffffffffffffffffff16610684611171565b73ffffffffffffffffffffffffffffffffffffffff16846040516106a8919061233e565b60405180910390207f4296d4cf88a23ec7e16cdd3881db56723c47f90351b3ee3145c99147801902c8346040516106df91906127f8565b60405180910390a450505050565b6106f5611171565b73ffffffffffffffffffffffffffffffffffffffff1660018260405161071b919061233e565b908152602001604051809103902060000160009054906101000a900473ffffffffffffffffffffffffffffffffffffffff1673ffffffffffffffffffffffffffffffffffffffff16146107a3576040517f08c379a000000000000000000000000000000000000000000000000000000000815260040161079a90612885565b60405180910390fd5b6107ee816001836040516107b7919061233e565b908152602001604051809103902060010160009054906101000a900473ffffffffffffffffffffffffffffffffffffffff16611180565b50565b60006107fb610844565b73ffffffffffffffffffffffffffffffffffffffff168273ffffffffffffffffffffffffffffffffffffffff16149050919050565b610838611466565b61084260006114ed565b565b60007f0000000000000000000000000000000000000000000000000000000000000000905090565b60008060009054906101000a900473ffffffffffffffffffffffffffffffffffffffff16905090565b61089d611466565b806040516108ab919061233e565b60405180910390206040516108bf906128f1565b60405180910390207f7f68a6aab0f34d78d74031017f78dbbc4310215c0a18e0cdd5f8a8e980fcbdba60405160405180910390a361093e81600183604051610907919061233e565b908152602001604051809103902060010160009054906101000a900473ffffffffffffffffffffffffffffffffffffffff16611180565b50565b606061094b611466565b6002805480602002602001604051908101604052809291908181526020016000905b82821015610a1957838290600052602060002001805461098c9061253a565b80601f01602080910402602001604051908101604052809291908181526020018280546109b89061253a565b8015610a055780601f106109da57610100808354040283529160200191610a05565b820191906000526020600020905b8154815290600101906020018083116109e857829003601f168201915b50505050508152602001906001019061096d565b50505050905090565b610a2a611466565b80604051610a38919061233e565b6040518091039020604051610a4c90612952565b60405180910390207f7f68a6aab0f34d78d74031017f78dbbc4310215c0a18e0cdd5f8a8e980fcbdba60405160405180910390a3610acb81600183604051610a94919061233e565b908152602001604051809103902060000160009054906101000a900473ffffffffffffffffffffffffffffffffffffffff16611180565b50565b610ad6611b72565b610ade611466565b600182604051610aee919061233e565b90815260200160405180910390206040518060800160405290816000820160009054906101000a900473ffffffffffffffffffffffffffffffffffffffff1673ffffffffffffffffffffffffffffffffffffffff1673ffffffffffffffffffffffffffffffffffffffff1681526020016001820160009054906101000a900473ffffffffffffffffffffffffffffffffffffffff1673ffffffffffffffffffffffffffffffffffffffff1673ffffffffffffffffffffffffffffffffffffffff1681526020016002820160009054906101000a900473ffffffffffffffffffffffffffffffffffffffff1673ffffffffffffffffffffffffffffffffffffffff1673ffffffffffffffffffffffffffffffffffffffff1681526020016003820154815250509050919050565b610c22611466565b600073ffffffffffffffffffffffffffffffffffffffff168173ffffffffffffffffffffffffffffffffffffffff1603610c945760006040517f1e4fbdf7000000000000000000000000000000000000000000000000000000008152600401610c8b9190611f08565b60405180910390fd5b610c9d816114ed565b50565b8382600073ffffffffffffffffffffffffffffffffffffffff16610cc2611171565b73ffffffffffffffffffffffffffffffffffffffff1603610d18576040517f08c379a0000000000000000000000000000000000000000000000000000000008152600401610d0f90612250565b60405180910390fd5b600073ffffffffffffffffffffffffffffffffffffffff168273ffffffffffffffffffffffffffffffffffffffff1603610d87576040517f08c379a0000000000000000000000000000000000000000000000000000000008152600401610d7e906122e2565b60405180910390fd5b600073ffffffffffffffffffffffffffffffffffffffff16600182604051610daf919061233e565b908152602001604051809103902060000160009054906101000a900473ffffffffffffffffffffffffffffffffffffffff1673ffffffffffffffffffffffffffffffffffffffff1614610e37576040517f08c379a0000000000000000000000000000000000000000000000000000000008152600401610e2e906123c7565b60405180910390fd5b6000815103610e7b576040517f08c379a0000000000000000000000000000000000000000000000000000000008152600401610e7290612459565b60405180910390fd5b60008511610ebe576040517f08c379a0000000000000000000000000000000000000000000000000000000008152600401610eb5906124eb565b60405180910390fd5b600073ffffffffffffffffffffffffffffffffffffffff168373ffffffffffffffffffffffffffffffffffffffff1603610f2d576040517f08c379a0000000000000000000000000000000000000000000000000000000008152600401610f24906129d9565b60405180910390fd5b6000839050610f4581610f3e611171565b30896115b1565b6040518060800160405280610f58611171565b73ffffffffffffffffffffffffffffffffffffffff1681526020018873ffffffffffffffffffffffffffffffffffffffff1681526020018573ffffffffffffffffffffffffffffffffffffffff16815260200187815250600186604051610fbf919061233e565b908152602001604051809103902060008201518160000160006101000a81548173ffffffffffffffffffffffffffffffffffffffff021916908373ffffffffffffffffffffffffffffffffffffffff16021790555060208201518160010160006101000a81548173ffffffffffffffffffffffffffffffffffffffff021916908373ffffffffffffffffffffffffffffffffffffffff16021790555060408201518160020160006101000a81548173ffffffffffffffffffffffffffffffffffffffff021916908373ffffffffffffffffffffffffffffffffffffffff160217905550606082015181600301559050506002859080600181540180825580915050600190039060005260206000200160009091909190915090816110e39190612717565b508673ffffffffffffffffffffffffffffffffffffffff16611103611171565b73ffffffffffffffffffffffffffffffffffffffff1686604051611127919061233e565b60405180910390207f4f41b247793ceb43bf9101f901dcce2cb9f95373242f7307934775e01b448d1c89886040516111609291906129f9565b60405180910390a450505050505050565b600061117b611633565b905090565b6000600183604051611192919061233e565b90815260200160405180910390209050600073ffffffffffffffffffffffffffffffffffffffff168160000160009054906101000a900473ffffffffffffffffffffffffffffffffffffffff1673ffffffffffffffffffffffffffffffffffffffff1603611235576040517f08c379a000000000000000000000000000000000000000000000000000000000815260040161122c90612a6e565b60405180910390fd5b60008160030154905060008260020160009054906101000a900473ffffffffffffffffffffffffffffffffffffffff169050600185604051611277919061233e565b9081526020016040518091039020600080820160006101000a81549073ffffffffffffffffffffffffffffffffffffffff02191690556001820160006101000a81549073ffffffffffffffffffffffffffffffffffffffff02191690556002820160006101000a81549073ffffffffffffffffffffffffffffffffffffffff02191690556003820160009055505061130e85611676565b600073ffffffffffffffffffffffffffffffffffffffff168173ffffffffffffffffffffffffffffffffffffffff16036113f45760008473ffffffffffffffffffffffffffffffffffffffff168360405161136890612abf565b60006040518083038185875af1925050503d80600081146113a5576040519150601f19603f3d011682016040523d82523d6000602084013e6113aa565b606091505b50509050806113ee576040517f08c379a00000000000000000000000000000000000000000000000000000000081526004016113e590612b20565b60405180910390fd5b50611406565b6000819050611404818685611802565b505b8373ffffffffffffffffffffffffffffffffffffffff168560405161142b919061233e565b60405180910390207f3cd197d1285803e06c5b07623d6bc0e4ad4bcbee5f5237e419b96cc9fc58789160405160405180910390a35050505050565b61146e611171565b73ffffffffffffffffffffffffffffffffffffffff1661148c61086c565b73ffffffffffffffffffffffffffffffffffffffff16146114eb576114af611171565b6040517f118cdaa70000000000000000000000000000000000000000000000000000000081526004016114e29190611f08565b60405180910390fd5b565b60008060009054906101000a900473ffffffffffffffffffffffffffffffffffffffff169050816000806101000a81548173ffffffffffffffffffffffffffffffffffffffff021916908373ffffffffffffffffffffffffffffffffffffffff1602179055508173ffffffffffffffffffffffffffffffffffffffff168173ffffffffffffffffffffffffffffffffffffffff167f8be0079c531659141344cd1fd0a4f28419497f9722a3daafe3b4186f6b6457e060405160405180910390a35050565b61162d848573ffffffffffffffffffffffffffffffffffffffff166323b872dd8686866040516024016115e693929190612b40565b604051602081830303815290604052915060e01b6020820180517bffffffffffffffffffffffffffffffffffffffffffffffffffffffff8381831617835250505050611881565b50505050565b600061163e336107f1565b801561164f57506014600036905010155b1561166357601436033560601c9050611672565b61166b611918565b9050611673565b5b90565b600061168182611920565b90507fffffffffffffffffffffffffffffffffffffffffffffffffffffffffffffffff81036116e5576040517f08c379a00000000000000000000000000000000000000000000000000000000081526004016116dc90612bc3565b60405180910390fd5b6000600260016002805490506116fb9190612c12565b8154811061170c5761170b612c46565b5b9060005260206000200180546117219061253a565b80601f016020809104026020016040519081016040528092919081815260200182805461174d9061253a565b801561179a5780601f1061176f5761010080835404028352916020019161179a565b820191906000526020600020905b81548152906001019060200180831161177d57829003601f168201915b5050505050905080600283815481106117b6576117b5612c46565b5b9060005260206000200190816117cc9190612717565b5060028054806117df576117de612c75565b5b6001900381819060005260206000200160006117fb9190611bdc565b9055505050565b61187c838473ffffffffffffffffffffffffffffffffffffffff1663a9059cbb8585604051602401611835929190612ca4565b604051602081830303815290604052915060e01b6020820180517bffffffffffffffffffffffffffffffffffffffffffffffffffffffff8381831617835250505050611881565b505050565b60006118ac828473ffffffffffffffffffffffffffffffffffffffff166119bb90919063ffffffff16565b905060008151141580156118d15750808060200190518101906118cf9190612cf9565b155b1561191357826040517f5274afe700000000000000000000000000000000000000000000000000000000815260040161190a9190611f08565b60405180910390fd5b505050565b600033905090565b600080600090505b6002805490508110156119915782805190602001206002828154811061195157611950612c46565b5b906000526020600020016040516119689190612dbe565b60405180910390200361197e57809150506119b6565b808061198990612dd5565b915050611928565b507fffffffffffffffffffffffffffffffffffffffffffffffffffffffffffffffff90505b919050565b60606119c9838360006119d1565b905092915050565b606081471015611a1857306040517fcd786059000000000000000000000000000000000000000000000000000000008152600401611a0f9190611f08565b60405180910390fd5b6000808573ffffffffffffffffffffffffffffffffffffffff168486604051611a419190612e59565b60006040518083038185875af1925050503d8060008114611a7e576040519150601f19603f3d011682016040523d82523d6000602084013e611a83565b606091505b5091509150611a93868383611a9e565b925050509392505050565b606082611ab357611aae82611b2d565b611b25565b60008251148015611adb575060008473ffffffffffffffffffffffffffffffffffffffff163b145b15611b1d57836040517f9996b315000000000000000000000000000000000000000000000000000000008152600401611b149190611f08565b60405180910390fd5b819050611b26565b5b9392505050565b600081511115611b405780518082602001fd5b6040517f1425ea4200000000000000000000000000000000000000000000000000000000815260040160405180910390fd5b6040518060800160405280600073ffffffffffffffffffffffffffffffffffffffff168152602001600073ffffffffffffffffffffffffffffffffffffffff168152602001600073ffffffffffffffffffffffffffffffffffffffff168152602001600081525090565b508054611be89061253a565b6000825580601f10611bfa5750611c19565b601f016020900490600052602060002090810190611c189190611c1c565b5b50565b5b80821115611c35576000816000905550600101611c1d565b5090565b6000604051905090565b600080fd5b600080fd5b600073ffffffffffffffffffffffffffffffffffffffff82169050919050565b6000611c7882611c4d565b9050919050565b611c8881611c6d565b8114611c9357600080fd5b50565b600081359050611ca581611c7f565b92915050565b600080fd5b600080fd5b6000601f19601f8301169050919050565b7f4e487b7100000000000000000000000000000000000000000000000000000000600052604160045260246000fd5b611cfe82611cb5565b810181811067ffffffffffffffff82111715611d1d57611d1c611cc6565b5b80604052505050565b6000611d30611c39565b9050611d3c8282611cf5565b919050565b600067ffffffffffffffff821115611d5c57611d5b611cc6565b5b611d6582611cb5565b9050602081019050919050565b82818337600083830152505050565b6000611d94611d8f84611d41565b611d26565b905082815260208101848484011115611db057611daf611cb0565b5b611dbb848285611d72565b509392505050565b600082601f830112611dd857611dd7611cab565b5b8135611de8848260208601611d81565b91505092915050565b60008060408385031215611e0857611e07611c43565b5b6000611e1685828601611c96565b925050602083013567ffffffffffffffff811115611e3757611e36611c48565b5b611e4385828601611dc3565b9150509250929050565b600060208284031215611e6357611e62611c43565b5b600082013567ffffffffffffffff811115611e8157611e80611c48565b5b611e8d84828501611dc3565b91505092915050565b600060208284031215611eac57611eab611c43565b5b6000611eba84828501611c96565b91505092915050565b60008115159050919050565b611ed881611ec3565b82525050565b6000602082019050611ef36000830184611ecf565b92915050565b611f0281611c6d565b82525050565b6000602082019050611f1d6000830184611ef9565b92915050565b600081519050919050565b600082825260208201905092915050565b6000819050602082019050919050565b600081519050919050565b600082825260208201905092915050565b60005b83811015611f89578082015181840152602081019050611f6e565b60008484015250505050565b6000611fa082611f4f565b611faa8185611f5a565b9350611fba818560208601611f6b565b611fc381611cb5565b840191505092915050565b6000611fda8383611f95565b905092915050565b6000602082019050919050565b6000611ffa82611f23565b6120048185611f2e565b93508360208202850161201685611f3f565b8060005b8581101561205257848403895281516120338582611fce565b945061203e83611fe2565b925060208a0199505060018101905061201a565b50829750879550505050505092915050565b6000602082019050818103600083015261207e8184611fef565b905092915050565b61208f81611c6d565b82525050565b6000819050919050565b6120a881612095565b82525050565b6080820160008201516120c46000850182612086565b5060208201516120d76020850182612086565b5060408201516120ea6040850182612086565b5060608201516120fd606085018261209f565b50505050565b600060808201905061211860008301846120ae565b92915050565b61212781612095565b811461213257600080fd5b50565b6000813590506121448161211e565b92915050565b6000806000806080858703121561216457612163611c43565b5b600061217287828801611c96565b945050602061218387828801612135565b935050604085013567ffffffffffffffff8111156121a4576121a3611c48565b5b6121b087828801611dc3565b92505060606121c187828801611c96565b91505092959194509250565b600082825260208201905092915050565b7f6372656174654465706f7369743a20496e76616c6964206465706f7369746f7260008201527f2061646472657373000000000000000000000000000000000000000000000000602082015250565b600061223a6028836121cd565b9150612245826121de565b604082019050919050565b600060208201905081810360008301526122698161222d565b9050919050565b7f6372656174654465706f7369743a20496e76616c696420726563697069656e7460008201527f2061646472657373000000000000000000000000000000000000000000000000602082015250565b60006122cc6028836121cd565b91506122d782612270565b604082019050919050565b600060208201905081810360008301526122fb816122bf565b9050919050565b600081905092915050565b600061231882611f4f565b6123228185612302565b9350612332818560208601611f6b565b80840191505092915050565b600061234a828461230d565b915081905092915050565b7f6372656174654465706f7369743a204465706f73697420494420616c7265616460008201527f7920657869737473000000000000000000000000000000000000000000000000602082015250565b60006123b16028836121cd565b91506123bc82612355565b604082019050919050565b600060208201905081810360008301526123e0816123a4565b9050919050565b7f6372656174654465706f7369743a204465706f73697449642073686f756c642060008201527f6e6f7420626520656d7074790000000000000000000000000000000000000000602082015250565b6000612443602c836121cd565b915061244e826123e7565b604082019050919050565b6000602082019050818103600083015261247281612436565b9050919050565b7f6372656174654465706f7369743a20416d6f756e74206d75737420626520677260008201527f6561746572207468616e20300000000000000000000000000000000000000000602082015250565b60006124d5602c836121cd565b91506124e082612479565b604082019050919050565b60006020820190508181036000830152612504816124c8565b9050919050565b7f4e487b7100000000000000000000000000000000000000000000000000000000600052602260045260246000fd5b6000600282049050600182168061255257607f821691505b6020821081036125655761256461250b565b5b50919050565b60008190508160005260206000209050919050565b60006020601f8301049050919050565b600082821b905092915050565b6000600883026125cd7fffffffffffffffffffffffffffffffffffffffffffffffffffffffffffffffff82612590565b6125d78683612590565b95508019841693508086168417925050509392505050565b6000819050919050565b600061261461260f61260a84612095565b6125ef565b612095565b9050919050565b6000819050919050565b61262e836125f9565b61264261263a8261261b565b84845461259d565b825550505050565b600090565b61265761264a565b612662818484612625565b505050565b5b818110156126865761267b60008261264f565b600181019050612668565b5050565b601f8211156126cb5761269c8161256b565b6126a584612580565b810160208510156126b4578190505b6126c86126c085612580565b830182612667565b50505b505050565b600082821c905092915050565b60006126ee600019846008026126d0565b1980831691505092915050565b600061270783836126dd565b9150826002028217905092915050565b61272082611f4f565b67ffffffffffffffff81111561273957612738611cc6565b5b612743825461253a565b61274e82828561268a565b600060209050601f831160018114612781576000841561276f578287015190505b61277985826126fb565b8655506127e1565b601f19841661278f8661256b565b60005b828110156127b757848901518255600182019150602085019450602081019050612792565b868310156127d457848901516127d0601f8916826126dd565b8355505b6001600288020188555050505b505050505050565b6127f281612095565b82525050565b600060208201905061280d60008301846127e9565b92915050565b7f4e6f7420617574686f72697a656420746f20776974686472617720746869732060008201527f6465706f73697400000000000000000000000000000000000000000000000000602082015250565b600061286f6027836121cd565b915061287a82612813565b604082019050919050565b6000602082019050818103600083015261289e81612862565b9050919050565b7f7769746864726177546f526563697069656e7400000000000000000000000000600082015250565b60006128db601383612302565b91506128e6826128a5565b601382019050919050565b60006128fc826128ce565b9150819050919050565b7f7769746864726177546f4465706f7369746f7200000000000000000000000000600082015250565b600061293c601383612302565b915061294782612906565b601382019050919050565b600061295d8261292f565b9150819050919050565b7f6372656174654465706f7369743a20496e76616c696420746f6b656e2061646460008201527f7265737300000000000000000000000000000000000000000000000000000000602082015250565b60006129c36024836121cd565b91506129ce82612967565b604082019050919050565b600060208201905081810360008301526129f2816129b6565b9050919050565b6000604082019050612a0e60008301856127e9565b612a1b6020830184611ef9565b9392505050565b7f4465706f73697420646f6573206e6f7420657869737400000000000000000000600082015250565b6000612a586016836121cd565b9150612a6382612a22565b602082019050919050565b60006020820190508181036000830152612a8781612a4b565b9050919050565b600081905092915050565b50565b6000612aa9600083612a8e565b9150612ab482612a99565b600082019050919050565b6000612aca82612a9c565b9150819050919050565b7f4661696c656420746f2073656e64206e617469766520746f6b656e0000000000600082015250565b6000612b0a601b836121cd565b9150612b1582612ad4565b602082019050919050565b60006020820190508181036000830152612b3981612afd565b9050919050565b6000606082019050612b556000830186611ef9565b612b626020830185611ef9565b612b6f60408301846127e9565b949350505050565b7f4465706f736974204944206e6f7420666f756e64000000000000000000000000600082015250565b6000612bad6014836121cd565b9150612bb882612b77565b602082019050919050565b60006020820190508181036000830152612bdc81612ba0565b9050919050565b7f4e487b7100000000000000000000000000000000000000000000000000000000600052601160045260246000fd5b6000612c1d82612095565b9150612c2883612095565b9250828203905081811115612c4057612c3f612be3565b5b92915050565b7f4e487b7100000000000000000000000000000000000000000000000000000000600052603260045260246000fd5b7f4e487b7100000000000000000000000000000000000000000000000000000000600052603160045260246000fd5b6000604082019050612cb96000830185611ef9565b612cc660208301846127e9565b9392505050565b612cd681611ec3565b8114612ce157600080fd5b50565b600081519050612cf381612ccd565b92915050565b600060208284031215612d0f57612d0e611c43565b5b6000612d1d84828501612ce4565b91505092915050565b60008190508160005260206000209050919050565b60008154612d488161253a565b612d528186612a8e565b94506001821660008114612d6d5760018114612d8257612db5565b60ff1983168652811515820286019350612db5565b612d8b85612d26565b60005b83811015612dad57815481890152600182019150602081019050612d8e565b838801955050505b50505092915050565b6000612dca8284612d3b565b915081905092915050565b6000612de082612095565b91507fffffffffffffffffffffffffffffffffffffffffffffffffffffffffffffffff8203612e1257612e11612be3565b5b600182019050919050565b600081519050919050565b6000612e3382612e1d565b612e3d8185612a8e565b9350612e4d818560208601611f6b565b80840191505092915050565b6000612e658284612e28565b91508190509291505056fea2646970667358221220da95d56fd2bc32bf13c9543a12e49d56fc9804a7cd29cb28ce0c9d51a1c8453264736f6c63430008140033",
  "linkReferences": {},
  "deployedLinkReferences": {}
}