{
  "_format": "hh-sol-artifact-1",
  "contractName": "Escrow",
  "sourceName": "contracts/Escrow.sol",
  "abi": [
    {
      "inputs": [
        {
          "internalType": "contract MinimalForwarder",
          "name": "forwarder",
          "type": "address"
        },
        {
          "internalType": "address",
          "name": "_token",
          "type": "address"
        }
      ],
      "stateMutability": "nonpayable",
      "type": "constructor"
    },
    {
      "anonymous": false,
      "inputs": [
        {
          "indexed": true,
          "internalType": "address",
          "name": "previousOwner",
          "type": "address"
        },
        {
          "indexed": true,
          "internalType": "address",
          "name": "newOwner",
          "type": "address"
        }
      ],
      "name": "OwnershipTransferred",
      "type": "event"
    },
    {
      "inputs": [
        {
          "internalType": "address",
          "name": "_recipient",
          "type": "address"
        },
        {
          "internalType": "uint256",
          "name": "_amount",
          "type": "uint256"
        },
        {
          "internalType": "string",
          "name": "_depositId",
          "type": "string"
        }
      ],
      "name": "depositTokens",
      "outputs": [],
      "stateMutability": "nonpayable",
      "type": "function"
    },
    {
      "inputs": [
        {
          "internalType": "string",
          "name": "",
          "type": "string"
        }
      ],
      "name": "deposits",
      "outputs": [
        {
          "internalType": "address",
          "name": "depositor",
          "type": "address"
        },
        {
          "internalType": "address",
          "name": "recipient",
          "type": "address"
        },
        {
          "internalType": "uint256",
          "name": "amount",
          "type": "uint256"
        },
        {
          "internalType": "uint256",
          "name": "timestamp",
          "type": "uint256"
        },
        {
          "internalType": "bool",
          "name": "withdrawn",
          "type": "bool"
        }
      ],
      "stateMutability": "view",
      "type": "function"
    },
    {
      "inputs": [
        {
          "internalType": "address",
          "name": "forwarder",
          "type": "address"
        }
      ],
      "name": "isTrustedForwarder",
      "outputs": [
        {
          "internalType": "bool",
          "name": "",
          "type": "bool"
        }
      ],
      "stateMutability": "view",
      "type": "function"
    },
    {
      "inputs": [],
      "name": "owner",
      "outputs": [
        {
          "internalType": "address",
          "name": "",
          "type": "address"
        }
      ],
      "stateMutability": "view",
      "type": "function"
    },
    {
      "inputs": [],
      "name": "renounceOwnership",
      "outputs": [],
      "stateMutability": "nonpayable",
      "type": "function"
    },
    {
      "inputs": [],
      "name": "token",
      "outputs": [
        {
          "internalType": "contract IERC20",
          "name": "",
          "type": "address"
        }
      ],
      "stateMutability": "view",
      "type": "function"
    },
    {
      "inputs": [
        {
          "internalType": "address",
          "name": "newOwner",
          "type": "address"
        }
      ],
      "name": "transferOwnership",
      "outputs": [],
      "stateMutability": "nonpayable",
      "type": "function"
    },
    {
      "inputs": [
        {
          "internalType": "string",
          "name": "_depositId",
          "type": "string"
        }
      ],
      "name": "withdrawTokensToDepositorByOwner",
      "outputs": [],
      "stateMutability": "nonpayable",
      "type": "function"
    },
    {
      "inputs": [
        {
          "internalType": "string",
          "name": "_depositId",
          "type": "string"
        }
      ],
      "name": "withdrawTokensToRecipientByDepositor",
      "outputs": [],
      "stateMutability": "nonpayable",
      "type": "function"
    },
    {
      "inputs": [
        {
          "internalType": "string",
          "name": "_depositId",
          "type": "string"
        }
      ],
      "name": "withdrawTokensToRecipientByOwner",
      "outputs": [],
      "stateMutability": "nonpayable",
      "type": "function"
    }
  ],
  "bytecode": "0x60a06040523480156200001157600080fd5b50604051620019af380380620019af833981810160405281019062000037919062000303565b818073ffffffffffffffffffffffffffffffffffffffff1660808173ffffffffffffffffffffffffffffffffffffffff1681525050506200008d62000081620000d660201b60201c565b620000f260201b60201c565b80600160006101000a81548173ffffffffffffffffffffffffffffffffffffffff021916908373ffffffffffffffffffffffffffffffffffffffff16021790555050506200034a565b6000620000ed620001b660201b620008141760201c565b905090565b60008060009054906101000a900473ffffffffffffffffffffffffffffffffffffffff169050816000806101000a81548173ffffffffffffffffffffffffffffffffffffffff021916908373ffffffffffffffffffffffffffffffffffffffff1602179055508173ffffffffffffffffffffffffffffffffffffffff168173ffffffffffffffffffffffffffffffffffffffff167f8be0079c531659141344cd1fd0a4f28419497f9722a3daafe3b4186f6b6457e060405160405180910390a35050565b6000620001c9336200021260201b60201c565b8015620001db57506014600036905010155b15620001f157601436033560601c90506200020e565b620002066200024c60201b620008571760201c565b90506200020f565b5b90565b600060805173ffffffffffffffffffffffffffffffffffffffff168273ffffffffffffffffffffffffffffffffffffffff16149050919050565b600033905090565b600080fd5b600073ffffffffffffffffffffffffffffffffffffffff82169050919050565b6000620002868262000259565b9050919050565b60006200029a8262000279565b9050919050565b620002ac816200028d565b8114620002b857600080fd5b50565b600081519050620002cc81620002a1565b92915050565b620002dd8162000279565b8114620002e957600080fd5b50565b600081519050620002fd81620002d2565b92915050565b600080604083850312156200031d576200031c62000254565b5b60006200032d85828601620002bb565b92505060206200034085828601620002ec565b9150509250929050565b60805161164962000366600039600061049101526116496000f3fe608060405234801561001057600080fd5b506004361061009e5760003560e01c8063c6ed318711610066578063c6ed31871461014b578063c767353714610167578063d5ee823714610183578063f2fde38b1461019f578063fc0c546a146101bb5761009e565b8063484c2d97146100a3578063572b6c05146100bf578063715018a6146100ef5780638da5cb5b146100f9578063b9a8a4fd14610117575b600080fd5b6100bd60048036038101906100b89190610ece565b6101d9565b005b6100d960048036038101906100d49190610f3d565b61048d565b6040516100e69190610f85565b60405180910390f35b6100f76104e5565b005b6101016104f9565b60405161010e9190610faf565b60405180910390f35b610131600480360381019061012c9190610fca565b610522565b604051610142959493929190611022565b60405180910390f35b61016560048036038101906101609190610fca565b6105bb565b005b610181600480360381019061017c9190610fca565b610611565b005b61019d60048036038101906101989190610fca565b610715565b005b6101b960048036038101906101b49190610f3d565b61076b565b005b6101c36107ee565b6040516101d091906110d4565b60405180910390f35b6000821161021c576040517f08c379a00000000000000000000000000000000000000000000000000000000081526004016102139061114c565b60405180910390fd5b6000815103610260576040517f08c379a0000000000000000000000000000000000000000000000000000000008152600401610257906111b8565b60405180910390fd5b600160009054906101000a900473ffffffffffffffffffffffffffffffffffffffff1673ffffffffffffffffffffffffffffffffffffffff166323b872dd6102a661085f565b30856040518463ffffffff1660e01b81526004016102c6939291906111d8565b6020604051808303816000875af11580156102e5573d6000803e3d6000fd5b505050506040513d601f19601f82011682018060405250810190610309919061123b565b610348576040517f08c379a000000000000000000000000000000000000000000000000000000000815260040161033f906112b4565b60405180910390fd5b6040518060a0016040528061035b61085f565b73ffffffffffffffffffffffffffffffffffffffff1681526020018473ffffffffffffffffffffffffffffffffffffffff168152602001838152602001428152602001600015158152506002826040516103b59190611345565b908152602001604051809103902060008201518160000160006101000a81548173ffffffffffffffffffffffffffffffffffffffff021916908373ffffffffffffffffffffffffffffffffffffffff16021790555060208201518160010160006101000a81548173ffffffffffffffffffffffffffffffffffffffff021916908373ffffffffffffffffffffffffffffffffffffffff160217905550604082015181600201556060820151816003015560808201518160040160006101000a81548160ff021916908315150217905550905050505050565b60007f000000000000000000000000000000000000000000000000000000000000000073ffffffffffffffffffffffffffffffffffffffff168273ffffffffffffffffffffffffffffffffffffffff16149050919050565b6104ed61086e565b6104f760006108ec565b565b60008060009054906101000a900473ffffffffffffffffffffffffffffffffffffffff16905090565b6002818051602081018201805184825260208301602085012081835280955050505050506000915090508060000160009054906101000a900473ffffffffffffffffffffffffffffffffffffffff16908060010160009054906101000a900473ffffffffffffffffffffffffffffffffffffffff16908060020154908060030154908060040160009054906101000a900460ff16905085565b6105c361086e565b61060e816002836040516105d79190611345565b908152602001604051809103902060010160009054906101000a900473ffffffffffffffffffffffffffffffffffffffff166109b0565b50565b61061961085f565b73ffffffffffffffffffffffffffffffffffffffff1660028260405161063f9190611345565b908152602001604051809103902060000160009054906101000a900473ffffffffffffffffffffffffffffffffffffffff1673ffffffffffffffffffffffffffffffffffffffff16146106c7576040517f08c379a00000000000000000000000000000000000000000000000000000000081526004016106be906113ce565b60405180910390fd5b610712816002836040516106db9190611345565b908152602001604051809103902060010160009054906101000a900473ffffffffffffffffffffffffffffffffffffffff166109b0565b50565b61071d61086e565b610768816002836040516107319190611345565b908152602001604051809103902060000160009054906101000a900473ffffffffffffffffffffffffffffffffffffffff166109b0565b50565b61077361086e565b600073ffffffffffffffffffffffffffffffffffffffff168173ffffffffffffffffffffffffffffffffffffffff16036107e2576040517f08c379a00000000000000000000000000000000000000000000000000000000081526004016107d990611460565b60405180910390fd5b6107eb816108ec565b50565b600160009054906101000a900473ffffffffffffffffffffffffffffffffffffffff1681565b600061081f3361048d565b801561083057506014600036905010155b1561084457601436033560601c9050610853565b61084c610857565b9050610854565b5b90565b600033905090565b6000610869610814565b905090565b61087661085f565b73ffffffffffffffffffffffffffffffffffffffff166108946104f9565b73ffffffffffffffffffffffffffffffffffffffff16146108ea576040517f08c379a00000000000000000000000000000000000000000000000000000000081526004016108e1906114cc565b60405180910390fd5b565b60008060009054906101000a900473ffffffffffffffffffffffffffffffffffffffff169050816000806101000a81548173ffffffffffffffffffffffffffffffffffffffff021916908373ffffffffffffffffffffffffffffffffffffffff1602179055508173ffffffffffffffffffffffffffffffffffffffff168173ffffffffffffffffffffffffffffffffffffffff167f8be0079c531659141344cd1fd0a4f28419497f9722a3daafe3b4186f6b6457e060405160405180910390a35050565b60006002836040516109c29190611345565b90815260200160405180910390206040518060a00160405290816000820160009054906101000a900473ffffffffffffffffffffffffffffffffffffffff1673ffffffffffffffffffffffffffffffffffffffff1673ffffffffffffffffffffffffffffffffffffffff1681526020016001820160009054906101000a900473ffffffffffffffffffffffffffffffffffffffff1673ffffffffffffffffffffffffffffffffffffffff1673ffffffffffffffffffffffffffffffffffffffff16815260200160028201548152602001600382015481526020016004820160009054906101000a900460ff1615151515815250509050806080015115610afd576040517f08c379a0000000000000000000000000000000000000000000000000000000008152600401610af49061155e565b60405180910390fd5b600081604001519050600182608001901515908115158152505081600285604051610b289190611345565b908152602001604051809103902060008201518160000160006101000a81548173ffffffffffffffffffffffffffffffffffffffff021916908373ffffffffffffffffffffffffffffffffffffffff16021790555060208201518160010160006101000a81548173ffffffffffffffffffffffffffffffffffffffff021916908373ffffffffffffffffffffffffffffffffffffffff160217905550604082015181600201556060820151816003015560808201518160040160006101000a81548160ff021916908315150217905550905050600160009054906101000a900473ffffffffffffffffffffffffffffffffffffffff1673ffffffffffffffffffffffffffffffffffffffff1663a9059cbb84836040518363ffffffff1660e01b8152600401610c5892919061157e565b6020604051808303816000875af1158015610c77573d6000803e3d6000fd5b505050506040513d601f19601f82011682018060405250810190610c9b919061123b565b610cda576040517f08c379a0000000000000000000000000000000000000000000000000000000008152600401610cd1906115f3565b60405180910390fd5b50505050565b6000604051905090565b600080fd5b600080fd5b600073ffffffffffffffffffffffffffffffffffffffff82169050919050565b6000610d1f82610cf4565b9050919050565b610d2f81610d14565b8114610d3a57600080fd5b50565b600081359050610d4c81610d26565b92915050565b6000819050919050565b610d6581610d52565b8114610d7057600080fd5b50565b600081359050610d8281610d5c565b92915050565b600080fd5b600080fd5b6000601f19601f8301169050919050565b7f4e487b7100000000000000000000000000000000000000000000000000000000600052604160045260246000fd5b610ddb82610d92565b810181811067ffffffffffffffff82111715610dfa57610df9610da3565b5b80604052505050565b6000610e0d610ce0565b9050610e198282610dd2565b919050565b600067ffffffffffffffff821115610e3957610e38610da3565b5b610e4282610d92565b9050602081019050919050565b82818337600083830152505050565b6000610e71610e6c84610e1e565b610e03565b905082815260208101848484011115610e8d57610e8c610d8d565b5b610e98848285610e4f565b509392505050565b600082601f830112610eb557610eb4610d88565b5b8135610ec5848260208601610e5e565b91505092915050565b600080600060608486031215610ee757610ee6610cea565b5b6000610ef586828701610d3d565b9350506020610f0686828701610d73565b925050604084013567ffffffffffffffff811115610f2757610f26610cef565b5b610f3386828701610ea0565b9150509250925092565b600060208284031215610f5357610f52610cea565b5b6000610f6184828501610d3d565b91505092915050565b60008115159050919050565b610f7f81610f6a565b82525050565b6000602082019050610f9a6000830184610f76565b92915050565b610fa981610d14565b82525050565b6000602082019050610fc46000830184610fa0565b92915050565b600060208284031215610fe057610fdf610cea565b5b600082013567ffffffffffffffff811115610ffe57610ffd610cef565b5b61100a84828501610ea0565b91505092915050565b61101c81610d52565b82525050565b600060a0820190506110376000830188610fa0565b6110446020830187610fa0565b6110516040830186611013565b61105e6060830185611013565b61106b6080830184610f76565b9695505050505050565b6000819050919050565b600061109a61109561109084610cf4565b611075565b610cf4565b9050919050565b60006110ac8261107f565b9050919050565b60006110be826110a1565b9050919050565b6110ce816110b3565b82525050565b60006020820190506110e960008301846110c5565b92915050565b600082825260208201905092915050565b7f416d6f756e74206d7573742062652067726561746572207468616e2030000000600082015250565b6000611136601d836110ef565b915061114182611100565b602082019050919050565b6000602082019050818103600083015261116581611129565b9050919050565b7f4465706f73697449642073686f756c64206e6f7420626520656d707479000000600082015250565b60006111a2601d836110ef565b91506111ad8261116c565b602082019050919050565b600060208201905081810360008301526111d181611195565b9050919050565b60006060820190506111ed6000830186610fa0565b6111fa6020830185610fa0565b6112076040830184611013565b949350505050565b61121881610f6a565b811461122357600080fd5b50565b6000815190506112358161120f565b92915050565b60006020828403121561125157611250610cea565b5b600061125f84828501611226565b91505092915050565b7f4465706f736974206661696c6564000000000000000000000000000000000000600082015250565b600061129e600e836110ef565b91506112a982611268565b602082019050919050565b600060208201905081810360008301526112cd81611291565b9050919050565b600081519050919050565b600081905092915050565b60005b838110156113085780820151818401526020810190506112ed565b60008484015250505050565b600061131f826112d4565b61132981856112df565b93506113398185602086016112ea565b80840191505092915050565b60006113518284611314565b915081905092915050565b7f4e6f7420617574686f72697a656420746f20776974686472617720746869732060008201527f6465706f73697400000000000000000000000000000000000000000000000000602082015250565b60006113b86027836110ef565b91506113c38261135c565b604082019050919050565b600060208201905081810360008301526113e7816113ab565b9050919050565b7f4f776e61626c653a206e6577206f776e657220697320746865207a65726f206160008201527f6464726573730000000000000000000000000000000000000000000000000000602082015250565b600061144a6026836110ef565b9150611455826113ee565b604082019050919050565b600060208201905081810360008301526114798161143d565b9050919050565b7f4f776e61626c653a2063616c6c6572206973206e6f7420746865206f776e6572600082015250565b60006114b66020836110ef565b91506114c182611480565b602082019050919050565b600060208201905081810360008301526114e5816114a9565b9050919050565b7f54686973206465706f7369742068617320616c7265616479206265656e20776960008201527f7468647261776e00000000000000000000000000000000000000000000000000602082015250565b60006115486027836110ef565b9150611553826114ec565b604082019050919050565b600060208201905081810360008301526115778161153b565b9050919050565b60006040820190506115936000830185610fa0565b6115a06020830184611013565b9392505050565b7f5769746864726177616c206661696c6564000000000000000000000000000000600082015250565b60006115dd6011836110ef565b91506115e8826115a7565b602082019050919050565b6000602082019050818103600083015261160c816115d0565b905091905056fea264697066735822122051d4f782115858bf10ac7fcd88b8010b8c10b27956f1f29f3d0b22c8e8bff11564736f6c63430008120033",
  "linkReferences": {},
  "deployedLinkReferences": {}
}