{
  "_format": "hh-sol-artifact-1",
  "contractName": "Escrow",
  "sourceName": "contracts/Escrow.sol",
  "abi": [
    {
      "inputs": [
        {
          "internalType": "address",
          "name": "_token",
          "type": "address"
        }
      ],
      "stateMutability": "nonpayable",
      "type": "constructor"
    },
    {
      "anonymous": false,
      "inputs": [
        {
          "indexed": true,
          "internalType": "address",
          "name": "previousOwner",
          "type": "address"
        },
        {
          "indexed": true,
          "internalType": "address",
          "name": "newOwner",
          "type": "address"
        }
      ],
      "name": "OwnershipTransferred",
      "type": "event"
    },
    {
      "inputs": [
        {
          "internalType": "address",
          "name": "_recipient",
          "type": "address"
        },
        {
          "internalType": "uint256",
          "name": "_amount",
          "type": "uint256"
        },
        {
          "internalType": "string",
          "name": "_depositId",
          "type": "string"
        }
      ],
      "name": "depositTokens",
      "outputs": [],
      "stateMutability": "nonpayable",
      "type": "function"
    },
    {
      "inputs": [
        {
          "internalType": "string",
          "name": "",
          "type": "string"
        }
      ],
      "name": "deposits",
      "outputs": [
        {
          "internalType": "address",
          "name": "depositor",
          "type": "address"
        },
        {
          "internalType": "address",
          "name": "recipient",
          "type": "address"
        },
        {
          "internalType": "uint256",
          "name": "amount",
          "type": "uint256"
        },
        {
          "internalType": "uint256",
          "name": "timestamp",
          "type": "uint256"
        },
        {
          "internalType": "bool",
          "name": "withdrawn",
          "type": "bool"
        }
      ],
      "stateMutability": "view",
      "type": "function"
    },
    {
      "inputs": [],
      "name": "owner",
      "outputs": [
        {
          "internalType": "address",
          "name": "",
          "type": "address"
        }
      ],
      "stateMutability": "view",
      "type": "function"
    },
    {
      "inputs": [],
      "name": "renounceOwnership",
      "outputs": [],
      "stateMutability": "nonpayable",
      "type": "function"
    },
    {
      "inputs": [],
      "name": "token",
      "outputs": [
        {
          "internalType": "contract IERC20",
          "name": "",
          "type": "address"
        }
      ],
      "stateMutability": "view",
      "type": "function"
    },
    {
      "inputs": [
        {
          "internalType": "address",
          "name": "newOwner",
          "type": "address"
        }
      ],
      "name": "transferOwnership",
      "outputs": [],
      "stateMutability": "nonpayable",
      "type": "function"
    },
    {
      "inputs": [
        {
          "internalType": "string",
          "name": "_depositId",
          "type": "string"
        }
      ],
      "name": "withdrawTokensToDepositorByOwner",
      "outputs": [],
      "stateMutability": "nonpayable",
      "type": "function"
    },
    {
      "inputs": [
        {
          "internalType": "string",
          "name": "_depositId",
          "type": "string"
        }
      ],
      "name": "withdrawTokensToRecipientByDepositor",
      "outputs": [],
      "stateMutability": "nonpayable",
      "type": "function"
    },
    {
      "inputs": [
        {
          "internalType": "string",
          "name": "_depositId",
          "type": "string"
        }
      ],
      "name": "withdrawTokensToRecipientByOwner",
      "outputs": [],
      "stateMutability": "nonpayable",
      "type": "function"
    }
  ],
  "bytecode": "0x608060405234801561001057600080fd5b50604051610b16380380610b1683398101604081905261002f916100ad565b6100383361005d565b600180546001600160a01b0319166001600160a01b03929092169190911790556100dd565b600080546001600160a01b038381166001600160a01b0319831681178455604051919092169283917f8be0079c531659141344cd1fd0a4f28419497f9722a3daafe3b4186f6b6457e09190a35050565b6000602082840312156100bf57600080fd5b81516001600160a01b03811681146100d657600080fd5b9392505050565b610a2a806100ec6000396000f3fe608060405234801561001057600080fd5b50600436106100935760003560e01c8063c6ed318711610066578063c6ed318714610170578063c767353714610183578063d5ee823714610196578063f2fde38b146101a9578063fc0c546a146101bc57600080fd5b8063484c2d9714610098578063715018a6146100ad5780638da5cb5b146100b5578063b9a8a4fd146100df575b600080fd5b6100ab6100a63660046108ed565b6101cf565b005b6100ab6103df565b6000546001600160a01b03165b6040516001600160a01b0390911681526020015b60405180910390f35b61013b6100ed366004610944565b80518082016020908101805160028083529383019290940191909120929052815460018301549183015460038401546004909401546001600160a01b03928316949390921692909160ff1685565b604080516001600160a01b0396871681529590941660208601529284019190915260608301521515608082015260a0016100d6565b6100ab61017e366004610944565b6103f3565b6100ab610191366004610944565b610433565b6100ab6101a4366004610944565b6104c3565b6100ab6101b7366004610981565b6104fd565b6001546100c2906001600160a01b031681565b600082116102245760405162461bcd60e51b815260206004820152601d60248201527f416d6f756e74206d7573742062652067726561746572207468616e203000000060448201526064015b60405180910390fd5b80516000036102755760405162461bcd60e51b815260206004820152601d60248201527f4465706f73697449642073686f756c64206e6f7420626520656d707479000000604482015260640161021b565b6001546040516323b872dd60e01b8152336004820152306024820152604481018490526001600160a01b03909116906323b872dd906064016020604051808303816000875af11580156102cc573d6000803e3d6000fd5b505050506040513d601f19601f820116820180604052508101906102f091906109a3565b61032d5760405162461bcd60e51b815260206004820152600e60248201526d11195c1bdcda5d0819985a5b195960921b604482015260640161021b565b6040805160a0810182523381526001600160a01b038516602082015280820184905242606082015260006080820152905160029061036c9084906109c5565b9081526040805160209281900383019020835181546001600160a01b03199081166001600160a01b03928316178355938501516001830180549095169116179092558201516002820155606082015160038201556080909101516004909101805460ff1916911515919091179055505050565b6103e7610573565b6103f160006105cd565b565b6103fb610573565b6104308160028360405161040f91906109c5565b908152604051908190036020019020600101546001600160a01b031661061d565b50565b336001600160a01b031660028260405161044d91906109c5565b908152604051908190036020019020546001600160a01b0316146103fb5760405162461bcd60e51b815260206004820152602760248201527f4e6f7420617574686f72697a656420746f20776974686472617720746869732060448201526619195c1bdcda5d60ca1b606482015260840161021b565b6104cb610573565b610430816002836040516104df91906109c5565b908152604051908190036020019020546001600160a01b031661061d565b610505610573565b6001600160a01b03811661056a5760405162461bcd60e51b815260206004820152602660248201527f4f776e61626c653a206e6577206f776e657220697320746865207a65726f206160448201526564647265737360d01b606482015260840161021b565b610430816105cd565b6000546001600160a01b031633146103f15760405162461bcd60e51b815260206004820181905260248201527f4f776e61626c653a2063616c6c6572206973206e6f7420746865206f776e6572604482015260640161021b565b600080546001600160a01b038381166001600160a01b0319831681178455604051919092169283917f8be0079c531659141344cd1fd0a4f28419497f9722a3daafe3b4186f6b6457e09190a35050565b600060028360405161062f91906109c5565b90815260408051918290036020908101832060a08401835280546001600160a01b03908116855260018201541691840191909152600281015491830191909152600381015460608301526004015460ff1615801560808301529091506106e75760405162461bcd60e51b815260206004820152602760248201527f54686973206465706f7369742068617320616c7265616479206265656e2077696044820152663a34323930bbb760c91b606482015260840161021b565b60408082015160016080840152905182906002906107069087906109c5565b9081526040805160209281900383018120845181546001600160a01b03199081166001600160a01b03928316178355948601516001808401805490971691831691909117909555928501516002820155606085015160038201556080909401516004948501805460ff1916911515919091179055915463a9059cbb60e01b83528682169383019390935260248201849052919091169063a9059cbb906044016020604051808303816000875af11580156107c4573d6000803e3d6000fd5b505050506040513d601f19601f820116820180604052508101906107e891906109a3565b6108285760405162461bcd60e51b815260206004820152601160248201527015da5d1a191c985dd85b0819985a5b1959607a1b604482015260640161021b565b50505050565b80356001600160a01b038116811461084557600080fd5b919050565b634e487b7160e01b600052604160045260246000fd5b600082601f83011261087157600080fd5b813567ffffffffffffffff8082111561088c5761088c61084a565b604051601f8301601f19908116603f011681019082821181831017156108b4576108b461084a565b816040528381528660208588010111156108cd57600080fd5b836020870160208301376000602085830101528094505050505092915050565b60008060006060848603121561090257600080fd5b61090b8461082e565b925060208401359150604084013567ffffffffffffffff81111561092e57600080fd5b61093a86828701610860565b9150509250925092565b60006020828403121561095657600080fd5b813567ffffffffffffffff81111561096d57600080fd5b61097984828501610860565b949350505050565b60006020828403121561099357600080fd5b61099c8261082e565b9392505050565b6000602082840312156109b557600080fd5b8151801515811461099c57600080fd5b6000825160005b818110156109e657602081860181015185830152016109cc565b50600092019182525091905056fea26469706673582212206cc40d8c517628df9aa5f6db33d345d33a38bc7524edc84baf4810f78da9304a64736f6c63430008120033",
  "linkReferences": {},
  "deployedLinkReferences": {}
}