{
  "_format": "hh-sol-artifact-1",
  "contractName": "ControllerLite",
  "sourceName": "contracts/Controller.sol",
  "abi": [
    {
      "inputs": [
        {
          "internalType": "address payable",
          "name": "_depositToken",
          "type": "address"
        }
      ],
      "stateMutability": "nonpayable",
      "type": "constructor"
    },
    {
      "inputs": [],
      "name": "BidDoesNotBelongToProject",
      "type": "error"
    },
    {
      "inputs": [],
      "name": "BidsAreClosed",
      "type": "error"
    },
    {
      "inputs": [],
      "name": "EtherNotAccepted",
      "type": "error"
    },
    {
      "inputs": [],
      "name": "OnlyAdminCanResolveDispute",
      "type": "error"
    },
    {
      "inputs": [],
      "name": "OnlyProjectOwnerCanAcceptDelivery",
      "type": "error"
    },
    {
      "inputs": [],
      "name": "OnlyProjectOwnerCanDenyDelivery",
      "type": "error"
    },
    {
      "inputs": [],
      "name": "OnlyProjectOwnerCanProcessExtension",
      "type": "error"
    },
    {
      "inputs": [],
      "name": "OnlyWorkerCanOpenDispute",
      "type": "error"
    },
    {
      "inputs": [],
      "name": "OnlyWorkerCanProposeExtension",
      "type": "error"
    },
    {
      "inputs": [],
      "name": "OnlyWorkerCanRequestDelivery",
      "type": "error"
    },
    {
      "inputs": [],
      "name": "OnlyWorkerCanStartProject",
      "type": "error"
    },
    {
      "inputs": [],
      "name": "ProjectAlreadyExists",
      "type": "error"
    },
    {
      "inputs": [],
      "name": "ProjectDoesNotExist",
      "type": "error"
    },
    {
      "inputs": [],
      "name": "ProjectNotInDeliveryProposed",
      "type": "error"
    },
    {
      "inputs": [],
      "name": "ProjectNotInDispute",
      "type": "error"
    },
    {
      "inputs": [],
      "name": "ProjectNotOpenToBids",
      "type": "error"
    },
    {
      "inputs": [],
      "name": "ProjectNotStarted",
      "type": "error"
    },
    {
      "inputs": [],
      "name": "ProposalExtensionDoesNotExist",
      "type": "error"
    },
    {
      "anonymous": false,
      "inputs": [
        {
          "indexed": true,
          "internalType": "uint256",
          "name": "projectId",
          "type": "uint256"
        },
        {
          "indexed": false,
          "internalType": "uint256",
          "name": "proposedBudget",
          "type": "uint256"
        },
        {
          "indexed": false,
          "internalType": "uint256",
          "name": "proposedDeadline",
          "type": "uint256"
        },
        {
          "indexed": false,
          "internalType": "uint256",
          "name": "proposedAt",
          "type": "uint256"
        }
      ],
      "name": "AcceptProposedExtension",
      "type": "event"
    },
    {
      "anonymous": false,
      "inputs": [
        {
          "indexed": true,
          "internalType": "address",
          "name": "arbitrator",
          "type": "address"
        },
        {
          "indexed": false,
          "internalType": "bool",
          "name": "status",
          "type": "bool"
        }
      ],
      "name": "ArbitratorStatusChanged",
      "type": "event"
    },
    {
      "anonymous": false,
      "inputs": [
        {
          "indexed": true,
          "internalType": "uint256",
          "name": "projectId",
          "type": "uint256"
        },
        {
          "indexed": false,
          "internalType": "uint256",
          "name": "acceptedAt",
          "type": "uint256"
        }
      ],
      "name": "DeliveryAccepted",
      "type": "event"
    },
    {
      "anonymous": false,
      "inputs": [
        {
          "indexed": true,
          "internalType": "uint256",
          "name": "projectId",
          "type": "uint256"
        },
        {
          "indexed": false,
          "internalType": "uint256",
          "name": "requestedAt",
          "type": "uint256"
        }
      ],
      "name": "DeliveryProposed",
      "type": "event"
    },
    {
      "anonymous": false,
      "inputs": [
        {
          "indexed": true,
          "internalType": "uint256",
          "name": "projectId",
          "type": "uint256"
        },
        {
          "indexed": false,
          "internalType": "uint256",
          "name": "acceptedAt",
          "type": "uint256"
        },
        {
          "indexed": false,
          "internalType": "string",
          "name": "reason",
          "type": "string"
        }
      ],
      "name": "DeliveryRejected",
      "type": "event"
    },
    {
      "anonymous": false,
      "inputs": [
        {
          "indexed": true,
          "internalType": "uint256",
          "name": "projectId",
          "type": "uint256"
        },
        {
          "indexed": false,
          "internalType": "uint256",
          "name": "openedAt",
          "type": "uint256"
        },
        {
          "indexed": false,
          "internalType": "string",
          "name": "reason",
          "type": "string"
        }
      ],
      "name": "DisputeOpened",
      "type": "event"
    },
    {
      "anonymous": false,
      "inputs": [
        {
          "indexed": true,
          "internalType": "uint256",
          "name": "projectId",
          "type": "uint256"
        },
        {
          "indexed": false,
          "internalType": "uint256",
          "name": "resolvedAt",
          "type": "uint256"
        },
        {
          "indexed": false,
          "internalType": "bool",
          "name": "inWorkersFavor",
          "type": "bool"
        },
        {
          "indexed": false,
          "internalType": "string",
          "name": "reason",
          "type": "string"
        }
      ],
      "name": "DisputeResolved",
      "type": "event"
    },
    {
      "anonymous": false,
      "inputs": [
        {
          "indexed": true,
          "internalType": "address",
          "name": "previousOwner",
          "type": "address"
        },
        {
          "indexed": true,
          "internalType": "address",
          "name": "newOwner",
          "type": "address"
        }
      ],
      "name": "OwnershipTransferred",
      "type": "event"
    },
    {
      "anonymous": false,
      "inputs": [
        {
          "indexed": true,
          "internalType": "address",
          "name": "clientAddress",
          "type": "address"
        },
        {
          "indexed": true,
          "internalType": "address",
          "name": "workerAddress",
          "type": "address"
        },
        {
          "indexed": true,
          "internalType": "uint256",
          "name": "projectId",
          "type": "uint256"
        },
        {
          "indexed": false,
          "internalType": "uint256",
          "name": "deadline",
          "type": "uint256"
        },
        {
          "indexed": false,
          "internalType": "uint256",
          "name": "budget",
          "type": "uint256"
        }
      ],
      "name": "ProjectCreated",
      "type": "event"
    },
    {
      "anonymous": false,
      "inputs": [
        {
          "indexed": true,
          "internalType": "uint256",
          "name": "projectId",
          "type": "uint256"
        },
        {
          "indexed": false,
          "internalType": "uint256",
          "name": "startedAt",
          "type": "uint256"
        }
      ],
      "name": "ProjectStarted",
      "type": "event"
    },
    {
      "anonymous": false,
      "inputs": [
        {
          "indexed": true,
          "internalType": "uint256",
          "name": "projectId",
          "type": "uint256"
        },
        {
          "indexed": false,
          "internalType": "uint256",
          "name": "proposedBudget",
          "type": "uint256"
        },
        {
          "indexed": false,
          "internalType": "uint256",
          "name": "proposedDeadline",
          "type": "uint256"
        },
        {
          "indexed": false,
          "internalType": "uint256",
          "name": "proposedAt",
          "type": "uint256"
        }
      ],
      "name": "ProposalExtension",
      "type": "event"
    },
    {
      "stateMutability": "payable",
      "type": "fallback"
    },
    {
      "inputs": [
        {
          "internalType": "uint256",
          "name": "projectId",
          "type": "uint256"
        }
      ],
      "name": "acceptDeliveryAndPay",
      "outputs": [],
      "stateMutability": "nonpayable",
      "type": "function"
    },
    {
      "inputs": [
        {
          "internalType": "uint256",
          "name": "projectId",
          "type": "uint256"
        }
      ],
      "name": "acceptProposal",
      "outputs": [],
      "stateMutability": "nonpayable",
      "type": "function"
    },
    {
      "inputs": [
        {
          "internalType": "address",
          "name": "",
          "type": "address"
        }
      ],
      "name": "arbitrators",
      "outputs": [
        {
          "internalType": "bool",
          "name": "",
          "type": "bool"
        }
      ],
      "stateMutability": "view",
      "type": "function"
    },
    {
      "inputs": [
        {
          "internalType": "uint256",
          "name": "_budget",
          "type": "uint256"
        },
        {
          "internalType": "uint256",
          "name": "_deadline",
          "type": "uint256"
        },
        {
          "internalType": "address",
          "name": "_worker",
          "type": "address"
        }
      ],
      "name": "createProject",
      "outputs": [],
      "stateMutability": "nonpayable",
      "type": "function"
    },
    {
      "inputs": [
        {
          "internalType": "uint256",
          "name": "projectId",
          "type": "uint256"
        },
        {
          "internalType": "string",
          "name": "reason",
          "type": "string"
        }
      ],
      "name": "declineDelivery",
      "outputs": [],
      "stateMutability": "nonpayable",
      "type": "function"
    },
    {
      "inputs": [],
      "name": "depositToken",
      "outputs": [
        {
          "internalType": "contract IERC20",
          "name": "",
          "type": "address"
        }
      ],
      "stateMutability": "view",
      "type": "function"
    },
    {
      "inputs": [
        {
          "internalType": "address",
          "name": "owner",
          "type": "address"
        }
      ],
      "name": "getProjectIdsByOwner",
      "outputs": [
        {
          "internalType": "uint256[]",
          "name": "",
          "type": "uint256[]"
        }
      ],
      "stateMutability": "view",
      "type": "function"
    },
    {
      "inputs": [
        {
          "internalType": "uint256",
          "name": "projectId",
          "type": "uint256"
        }
      ],
      "name": "getProjectInfoById",
      "outputs": [
        {
          "components": [
            {
              "internalType": "address",
              "name": "clientAddress",
              "type": "address"
            },
            {
              "internalType": "address",
              "name": "workerAddress",
              "type": "address"
            },
            {
              "internalType": "enum ControllerLite.ProjectStage",
              "name": "stage",
              "type": "uint8"
            },
            {
              "internalType": "uint256",
              "name": "tsAdded",
              "type": "uint256"
            },
            {
              "internalType": "uint256",
              "name": "tsDeadline",
              "type": "uint256"
            },
            {
              "internalType": "uint256",
              "name": "budget",
              "type": "uint256"
            }
          ],
          "internalType": "struct ControllerLite.ProjectInfo",
          "name": "",
          "type": "tuple"
        }
      ],
      "stateMutability": "view",
      "type": "function"
    },
    {
      "inputs": [
        {
          "internalType": "uint256",
          "name": "projectId",
          "type": "uint256"
        },
        {
          "internalType": "string",
          "name": "reason",
          "type": "string"
        }
      ],
      "name": "openDispute",
      "outputs": [],
      "stateMutability": "nonpayable",
      "type": "function"
    },
    {
      "inputs": [],
      "name": "owner",
      "outputs": [
        {
          "internalType": "address",
          "name": "",
          "type": "address"
        }
      ],
      "stateMutability": "view",
      "type": "function"
    },
    {
      "inputs": [
        {
          "internalType": "uint256",
          "name": "",
          "type": "uint256"
        }
      ],
      "name": "projects",
      "outputs": [
        {
          "internalType": "address",
          "name": "clientAddress",
          "type": "address"
        },
        {
          "internalType": "address",
          "name": "workerAddress",
          "type": "address"
        },
        {
          "internalType": "enum ControllerLite.ProjectStage",
          "name": "stage",
          "type": "uint8"
        },
        {
          "internalType": "uint256",
          "name": "tsAdded",
          "type": "uint256"
        },
        {
          "internalType": "uint256",
          "name": "tsDeadline",
          "type": "uint256"
        },
        {
          "internalType": "uint256",
          "name": "budget",
          "type": "uint256"
        }
      ],
      "stateMutability": "view",
      "type": "function"
    },
    {
      "inputs": [
        {
          "internalType": "address",
          "name": "",
          "type": "address"
        },
        {
          "internalType": "uint256",
          "name": "",
          "type": "uint256"
        }
      ],
      "name": "projectsByOwner",
      "outputs": [
        {
          "internalType": "uint256",
          "name": "",
          "type": "uint256"
        }
      ],
      "stateMutability": "view",
      "type": "function"
    },
    {
      "inputs": [
        {
          "internalType": "uint256",
          "name": "projectId",
          "type": "uint256"
        }
      ],
      "name": "proposeDelivery",
      "outputs": [],
      "stateMutability": "nonpayable",
      "type": "function"
    },
    {
      "inputs": [
        {
          "internalType": "uint256",
          "name": "projectId",
          "type": "uint256"
        },
        {
          "internalType": "uint256",
          "name": "proposedNewDeadLine",
          "type": "uint256"
        },
        {
          "internalType": "uint256",
          "name": "proposedNewBudget",
          "type": "uint256"
        },
        {
          "internalType": "string",
          "name": "reason",
          "type": "string"
        }
      ],
      "name": "proposeExtension",
      "outputs": [],
      "stateMutability": "nonpayable",
      "type": "function"
    },
    {
      "inputs": [],
      "name": "renounceOwnership",
      "outputs": [],
      "stateMutability": "nonpayable",
      "type": "function"
    },
    {
      "inputs": [
        {
          "internalType": "uint256",
          "name": "projectId",
          "type": "uint256"
        },
        {
          "internalType": "string",
          "name": "reason",
          "type": "string"
        }
      ],
      "name": "resolveDisputeInClientFavor",
      "outputs": [],
      "stateMutability": "nonpayable",
      "type": "function"
    },
    {
      "inputs": [
        {
          "internalType": "uint256",
          "name": "projectId",
          "type": "uint256"
        },
        {
          "internalType": "string",
          "name": "reason",
          "type": "string"
        }
      ],
      "name": "resolveDisputeInWorkerFavor",
      "outputs": [],
      "stateMutability": "nonpayable",
      "type": "function"
    },
    {
      "inputs": [
        {
          "internalType": "address",
          "name": "_arbitratorAddress",
          "type": "address"
        },
        {
          "internalType": "bool",
          "name": "_status",
          "type": "bool"
        }
      ],
      "name": "setArbitrator",
      "outputs": [],
      "stateMutability": "nonpayable",
      "type": "function"
    },
    {
      "inputs": [
        {
          "internalType": "uint256",
          "name": "projectId",
          "type": "uint256"
        }
      ],
      "name": "startWork",
      "outputs": [],
      "stateMutability": "nonpayable",
      "type": "function"
    },
    {
      "inputs": [
        {
          "internalType": "address",
          "name": "newOwner",
          "type": "address"
        }
      ],
      "name": "transferOwnership",
      "outputs": [],
      "stateMutability": "nonpayable",
      "type": "function"
    },
    {
      "stateMutability": "payable",
      "type": "receive"
    }
  ],
  "bytecode": "0x60806040523480156200001157600080fd5b50604051620036e4380380620036e48339818101604052810190620000379190620001df565b60016000819055506200005f62000053620000a760201b60201c565b620000af60201b60201c565b80600360006101000a81548173ffffffffffffffffffffffffffffffffffffffff021916908373ffffffffffffffffffffffffffffffffffffffff1602179055505062000211565b600033905090565b6000600160009054906101000a900473ffffffffffffffffffffffffffffffffffffffff16905081600160006101000a81548173ffffffffffffffffffffffffffffffffffffffff021916908373ffffffffffffffffffffffffffffffffffffffff1602179055508173ffffffffffffffffffffffffffffffffffffffff168173ffffffffffffffffffffffffffffffffffffffff167f8be0079c531659141344cd1fd0a4f28419497f9722a3daafe3b4186f6b6457e060405160405180910390a35050565b600080fd5b600073ffffffffffffffffffffffffffffffffffffffff82169050919050565b6000620001a7826200017a565b9050919050565b620001b9816200019a565b8114620001c557600080fd5b50565b600081519050620001d981620001ae565b92915050565b600060208284031215620001f857620001f762000175565b5b60006200020884828501620001c8565b91505092915050565b6134c380620002216000396000f3fe6080604052600436106101235760003560e01c80636c4d5743116100a05780639bd6f1fe116100645780639bd6f1fe14610438578063c89039c514610461578063f2fde38b1461048c578063f4820868146104b5578063f7e28f8e146104f25761015a565b80636c4d574314610367578063715018a6146103a457806387f2b7da146103bb578063892e21bf146103e45780638da5cb5b1461040d5761015a565b80632f2a96d3116100e75780632f2a96d31461027257806336f691c41461029b57806351d0ea37146102c45780635f19935c1461030157806360c5cc3a1461033e5761015a565b806303a250f91461018c578063107046bd146101b557806310e1b82d146101f75780631b7d41eb146102205780632bc0b076146102495761015a565b3661015a576040517f3733483400000000000000000000000000000000000000000000000000000000815260040160405180910390fd5b6040517f3733483400000000000000000000000000000000000000000000000000000000815260040160405180910390fd5b34801561019857600080fd5b506101b360048036038101906101ae91906124a1565b61051b565b005b3480156101c157600080fd5b506101dc60048036038101906101d791906124a1565b610771565b6040516101ee96959493929190612595565b60405180910390f35b34801561020357600080fd5b5061021e60048036038101906102199190612622565b6107fa565b005b34801561022c57600080fd5b50610247600480360381019061024291906124a1565b610a50565b005b34801561025557600080fd5b50610270600480360381019061026b91906126ad565b610c4d565b005b34801561027e57600080fd5b50610299600480360381019061029491906124a1565b610cfe565b005b3480156102a757600080fd5b506102c260048036038101906102bd9190612833565b610f10565b005b3480156102d057600080fd5b506102eb60048036038101906102e6919061288f565b61109b565b6040516102f891906128cb565b60405180910390f35b34801561030d57600080fd5b50610328600480360381019061032391906124a1565b6110bb565b604051610335919061298e565b60405180910390f35b34801561034a57600080fd5b50610365600480360381019061036091906124a1565b6111ed565b005b34801561037357600080fd5b5061038e6004803603810190610389919061288f565b6114f3565b60405161039b9190612a58565b60405180910390f35b3480156103b057600080fd5b506103b961158a565b005b3480156103c757600080fd5b506103e260048036038101906103dd9190612a7a565b61159e565b005b3480156103f057600080fd5b5061040b60048036038101906104069190612833565b6117f5565b005b34801561041957600080fd5b50610422611980565b60405161042f9190612afd565b60405180910390f35b34801561044457600080fd5b5061045f600480360381019061045a9190612833565b6119aa565b005b34801561046d57600080fd5b50610476611bae565b6040516104839190612b77565b60405180910390f35b34801561049857600080fd5b506104b360048036038101906104ae919061288f565b611bd4565b005b3480156104c157600080fd5b506104dc60048036038101906104d79190612b92565b611c57565b6040516104e99190612bd2565b60405180910390f35b3480156104fe57600080fd5b5061051960048036038101906105149190612833565b611c88565b005b610523611e8c565b6000600560008381526020019081526020016000209050600073ffffffffffffffffffffffffffffffffffffffff168160000160009054906101000a900473ffffffffffffffffffffffffffffffffffffffff1673ffffffffffffffffffffffffffffffffffffffff16036105c4576040517f38fde52b00000000000000000000000000000000000000000000000000000000815260040160405180910390fd5b600060088111156105d8576105d761250f565b5b8160010160149054906101000a900460ff1660088111156105fc576105fb61250f565b5b141580156106405750600460088111156106195761061861250f565b5b8160010160149054906101000a900460ff16600881111561063d5761063c61250f565b5b14155b15610677576040517f02039fe000000000000000000000000000000000000000000000000000000000815260040160405180910390fd5b3373ffffffffffffffffffffffffffffffffffffffff168160010160009054906101000a900473ffffffffffffffffffffffffffffffffffffffff1673ffffffffffffffffffffffffffffffffffffffff1614610700576040517ff29b7de400000000000000000000000000000000000000000000000000000000815260040160405180910390fd5b60018160010160146101000a81548160ff021916908360088111156107285761072761250f565b5b0217905550817f0897c664c72bc8b676678ef3f10a93980aa3f57017782c69072afcea1d1eb0f64260405161075d9190612bd2565b60405180910390a25061076e611edb565b50565b60056020528060005260406000206000915090508060000160009054906101000a900473ffffffffffffffffffffffffffffffffffffffff16908060010160009054906101000a900473ffffffffffffffffffffffffffffffffffffffff16908060010160149054906101000a900460ff16908060020154908060030154908060040154905086565b610802611e8c565b600061080e6002611ee5565b9050600660003373ffffffffffffffffffffffffffffffffffffffff1673ffffffffffffffffffffffffffffffffffffffff16815260200190815260200160002081908060018154018082558091505060019003906000526020600020016000909190919091505560006040518060c001604052803373ffffffffffffffffffffffffffffffffffffffff1681526020018473ffffffffffffffffffffffffffffffffffffffff168152602001600060088111156108cf576108ce61250f565b5b8152602001428152602001858152602001868152509050806005600084815260200190815260200160002060008201518160000160006101000a81548173ffffffffffffffffffffffffffffffffffffffff021916908373ffffffffffffffffffffffffffffffffffffffff16021790555060208201518160010160006101000a81548173ffffffffffffffffffffffffffffffffffffffff021916908373ffffffffffffffffffffffffffffffffffffffff16021790555060408201518160010160146101000a81548160ff021916908360088111156109b3576109b261250f565b5b0217905550606082015181600201556080820151816003015560a08201518160040155905050818373ffffffffffffffffffffffffffffffffffffffff163373ffffffffffffffffffffffffffffffffffffffff167f49c402d71ea8ee24d57c9c55ef9f5029f6aecde77e44108d496be5714e6327368789604051610a39929190612bed565b60405180910390a45050610a4b611edb565b505050565b610a58611e8c565b60006005600083815260200190815260200160002090503373ffffffffffffffffffffffffffffffffffffffff168160000160009054906101000a900473ffffffffffffffffffffffffffffffffffffffff1673ffffffffffffffffffffffffffffffffffffffff1614610af8576040517f28cecb5b00000000000000000000000000000000000000000000000000000000815260040160405180910390fd5b60026008811115610b0c57610b0b61250f565b5b8160010160149054906101000a900460ff166008811115610b3057610b2f61250f565b5b14610b67576040517f87092a6800000000000000000000000000000000000000000000000000000000815260040160405180910390fd5b60038160010160146101000a81548160ff02191690836008811115610b8f57610b8e61250f565b5b0217905550610c098160010160009054906101000a900473ffffffffffffffffffffffffffffffffffffffff168260040154600360009054906101000a900473ffffffffffffffffffffffffffffffffffffffff1673ffffffffffffffffffffffffffffffffffffffff16611ef39092919063ffffffff16565b817f9460073959a64ba94729236a882edf6c098a69ac586654e5a50b46351d643c0a42604051610c399190612bd2565b60405180910390a250610c4a611edb565b50565b610c55611f79565b80600460008473ffffffffffffffffffffffffffffffffffffffff1673ffffffffffffffffffffffffffffffffffffffff16815260200190815260200160002060006101000a81548160ff0219169083151502179055508173ffffffffffffffffffffffffffffffffffffffff167f6bb70bc24cee91214cf034d22050fa7a29d527493327b708fe7dc847cd9be4da82604051610cf291906128cb565b60405180910390a25050565b610d06611e8c565b6000600560008381526020019081526020016000209050600073ffffffffffffffffffffffffffffffffffffffff168160000160009054906101000a900473ffffffffffffffffffffffffffffffffffffffff1673ffffffffffffffffffffffffffffffffffffffff1603610da7576040517f38fde52b00000000000000000000000000000000000000000000000000000000815260040160405180910390fd5b3373ffffffffffffffffffffffffffffffffffffffff168160010160009054906101000a900473ffffffffffffffffffffffffffffffffffffffff1673ffffffffffffffffffffffffffffffffffffffff1614610e30576040517f3a161e7700000000000000000000000000000000000000000000000000000000815260040160405180910390fd5b60016008811115610e4457610e4361250f565b5b8160010160149054906101000a900460ff166008811115610e6857610e6761250f565b5b14610e9f576040517f02039fe000000000000000000000000000000000000000000000000000000000815260040160405180910390fd5b60028160010160146101000a81548160ff02191690836008811115610ec757610ec661250f565b5b0217905550817f0ba80f4dba9f04c4b9d3d0d790e86680390e337ef61aa42c8d28338e2e790f1142604051610efc9190612bd2565b60405180910390a250610f0d611edb565b50565b610f18611e8c565b60006005600084815260200190815260200160002090503373ffffffffffffffffffffffffffffffffffffffff168160010160009054906101000a900473ffffffffffffffffffffffffffffffffffffffff1673ffffffffffffffffffffffffffffffffffffffff1614610fb8576040517fccb06f5e00000000000000000000000000000000000000000000000000000000815260040160405180910390fd5b60046008811115610fcc57610fcb61250f565b5b8160010160149054906101000a900460ff166008811115610ff057610fef61250f565b5b14611027576040517f4f66018b00000000000000000000000000000000000000000000000000000000815260040160405180910390fd5b60058160010160146101000a81548160ff0219169083600881111561104f5761104e61250f565b5b0217905550827f47263ecda9ee979e294b3b972426ec18606938a3560942cccc5c74c682f9d29e4284604051611086929190612c95565b60405180910390a250611097611edb565b5050565b60046020528060005260406000206000915054906101000a900460ff1681565b6110c36123e3565b600560008381526020019081526020016000206040518060c00160405290816000820160009054906101000a900473ffffffffffffffffffffffffffffffffffffffff1673ffffffffffffffffffffffffffffffffffffffff1673ffffffffffffffffffffffffffffffffffffffff1681526020016001820160009054906101000a900473ffffffffffffffffffffffffffffffffffffffff1673ffffffffffffffffffffffffffffffffffffffff1673ffffffffffffffffffffffffffffffffffffffff1681526020016001820160149054906101000a900460ff1660088111156111b2576111b161250f565b5b60088111156111c4576111c361250f565b5b815260200160028201548152602001600382015481526020016004820154815250509050919050565b6111f5611e8c565b60006005600083815260200190815260200160002090503373ffffffffffffffffffffffffffffffffffffffff168160000160009054906101000a900473ffffffffffffffffffffffffffffffffffffffff1673ffffffffffffffffffffffffffffffffffffffff1614611295576040517feb18032a00000000000000000000000000000000000000000000000000000000815260040160405180910390fd5b600160088111156112a9576112a861250f565b5b8160010160149054906101000a900460ff1660088111156112cd576112cc61250f565b5b14611304576040517f02039fe000000000000000000000000000000000000000000000000000000000815260040160405180910390fd5b600060076000848152602001908152602001600020905060008160000154148015611333575060008160010154145b1561136a576040517f9980646a00000000000000000000000000000000000000000000000000000000815260040160405180910390fd5b60008160010154111561138557806001015482600301819055505b6000816000015411156114845781600401548160000154101561140d576000816000015483600401546113b89190612cf4565b90506114073382600360009054906101000a900473ffffffffffffffffffffffffffffffffffffffff1673ffffffffffffffffffffffffffffffffffffffff16611ef39092919063ffffffff16565b50611476565b6000826004015482600001546114239190612cf4565b9050611474333083600360009054906101000a900473ffffffffffffffffffffffffffffffffffffffff1673ffffffffffffffffffffffffffffffffffffffff16611ff7909392919063ffffffff16565b505b806000015482600401819055505b600081600001819055506000816001018190555060008160020181905550827f8423ea5fcc76d0ad679210fb974d3000738079aca8afd159eee4afeca496dde483600401548460030154426040516114de93929190612d28565b60405180910390a250506114f0611edb565b50565b6060600660008373ffffffffffffffffffffffffffffffffffffffff1673ffffffffffffffffffffffffffffffffffffffff16815260200190815260200160002080548060200260200160405190810160405280929190818152602001828054801561157e57602002820191906000526020600020905b81548152602001906001019080831161156a575b50505050509050919050565b611592611f79565b61159c6000612080565b565b6115a6611e8c565b6000600560008681526020019081526020016000209050600073ffffffffffffffffffffffffffffffffffffffff168160000160009054906101000a900473ffffffffffffffffffffffffffffffffffffffff1673ffffffffffffffffffffffffffffffffffffffff1603611647576040517f38fde52b00000000000000000000000000000000000000000000000000000000815260040160405180910390fd5b6001600881111561165b5761165a61250f565b5b8160010160149054906101000a900460ff16600881111561167f5761167e61250f565b5b146116b6576040517f02039fe000000000000000000000000000000000000000000000000000000000815260040160405180910390fd5b3373ffffffffffffffffffffffffffffffffffffffff168160010160009054906101000a900473ffffffffffffffffffffffffffffffffffffffff1673ffffffffffffffffffffffffffffffffffffffff161461173f576040517f8d0cecdd00000000000000000000000000000000000000000000000000000000815260040160405180910390fd5b6040518060800160405280848152602001858152602001428152602001838152506007600087815260200190815260200160002060008201518160000155602082015181600101556040820151816002015560608201518160030190816117a69190612f61565b50905050847f0ba5d9309e4ae279f85512e847a064efdc07b707b95c20a88098ff6eeefd431f8486426040516117de93929190612d28565b60405180910390a2506117ef611edb565b50505050565b6117fd611e8c565b60006005600084815260200190815260200160002090503373ffffffffffffffffffffffffffffffffffffffff168160000160009054906101000a900473ffffffffffffffffffffffffffffffffffffffff1673ffffffffffffffffffffffffffffffffffffffff161461189d576040517f2061d3d400000000000000000000000000000000000000000000000000000000815260040160405180910390fd5b600260088111156118b1576118b061250f565b5b8160010160149054906101000a900460ff1660088111156118d5576118d461250f565b5b1461190c576040517f87092a6800000000000000000000000000000000000000000000000000000000815260040160405180910390fd5b60048160010160146101000a81548160ff021916908360088111156119345761193361250f565b5b0217905550827f941dbf0237c4ff970e962d9c3fde1a2003d5076dfde4c0deeada6393cdde60b2428460405161196b929190612c95565b60405180910390a25061197c611edb565b5050565b6000600160009054906101000a900473ffffffffffffffffffffffffffffffffffffffff16905090565b6119b2611e8c565b600060056000848152602001908152602001600020905060001515600460003373ffffffffffffffffffffffffffffffffffffffff1673ffffffffffffffffffffffffffffffffffffffff16815260200190815260200160002060009054906101000a900460ff16151503611a53576040517f75f4ce8800000000000000000000000000000000000000000000000000000000815260040160405180910390fd5b60056008811115611a6757611a6661250f565b5b8160010160149054906101000a900460ff166008811115611a8b57611a8a61250f565b5b14611ac2576040517f4f66018b00000000000000000000000000000000000000000000000000000000815260040160405180910390fd5b611b378160000160009054906101000a900473ffffffffffffffffffffffffffffffffffffffff168260040154600360009054906101000a900473ffffffffffffffffffffffffffffffffffffffff1673ffffffffffffffffffffffffffffffffffffffff16611ef39092919063ffffffff16565b60078160010160146101000a81548160ff02191690836008811115611b5f57611b5e61250f565b5b0217905550827fb00f0ef2c9545d8dfded4cd4bee55b3761b8d5d9d6a8df164995635bfed3c07a42600085604051611b9993929190613033565b60405180910390a250611baa611edb565b5050565b600360009054906101000a900473ffffffffffffffffffffffffffffffffffffffff1681565b611bdc611f79565b600073ffffffffffffffffffffffffffffffffffffffff168173ffffffffffffffffffffffffffffffffffffffff1603611c4b576040517f08c379a0000000000000000000000000000000000000000000000000000000008152600401611c42906130e3565b60405180910390fd5b611c5481612080565b50565b60066020528160005260406000208181548110611c7357600080fd5b90600052602060002001600091509150505481565b611c90611e8c565b600060056000848152602001908152602001600020905060001515600460003373ffffffffffffffffffffffffffffffffffffffff1673ffffffffffffffffffffffffffffffffffffffff16815260200190815260200160002060009054906101000a900460ff16151503611d31576040517f75f4ce8800000000000000000000000000000000000000000000000000000000815260040160405180910390fd5b60056008811115611d4557611d4461250f565b5b8160010160149054906101000a900460ff166008811115611d6957611d6861250f565b5b14611da0576040517f4f66018b00000000000000000000000000000000000000000000000000000000815260040160405180910390fd5b611e158160010160009054906101000a900473ffffffffffffffffffffffffffffffffffffffff168260040154600360009054906101000a900473ffffffffffffffffffffffffffffffffffffffff1673ffffffffffffffffffffffffffffffffffffffff16611ef39092919063ffffffff16565b60078160010160146101000a81548160ff02191690836008811115611e3d57611e3c61250f565b5b0217905550827fb00f0ef2c9545d8dfded4cd4bee55b3761b8d5d9d6a8df164995635bfed3c07a42600185604051611e7793929190613033565b60405180910390a250611e88611edb565b5050565b600260005403611ed1576040517f08c379a0000000000000000000000000000000000000000000000000000000008152600401611ec89061314f565b60405180910390fd5b6002600081905550565b6001600081905550565b600081600001549050919050565b611f748363a9059cbb60e01b8484604051602401611f1292919061316f565b604051602081830303815290604052907bffffffffffffffffffffffffffffffffffffffffffffffffffffffff19166020820180517bffffffffffffffffffffffffffffffffffffffffffffffffffffffff8381831617835250505050612146565b505050565b611f8161220e565b73ffffffffffffffffffffffffffffffffffffffff16611f9f611980565b73ffffffffffffffffffffffffffffffffffffffff1614611ff5576040517f08c379a0000000000000000000000000000000000000000000000000000000008152600401611fec906131e4565b60405180910390fd5b565b61207a846323b872dd60e01b85858560405160240161201893929190613204565b604051602081830303815290604052907bffffffffffffffffffffffffffffffffffffffffffffffffffffffff19166020820180517bffffffffffffffffffffffffffffffffffffffffffffffffffffffff8381831617835250505050612146565b50505050565b6000600160009054906101000a900473ffffffffffffffffffffffffffffffffffffffff16905081600160006101000a81548173ffffffffffffffffffffffffffffffffffffffff021916908373ffffffffffffffffffffffffffffffffffffffff1602179055508173ffffffffffffffffffffffffffffffffffffffff168173ffffffffffffffffffffffffffffffffffffffff167f8be0079c531659141344cd1fd0a4f28419497f9722a3daafe3b4186f6b6457e060405160405180910390a35050565b60006121a8826040518060400160405280602081526020017f5361666545524332303a206c6f772d6c6576656c2063616c6c206661696c65648152508573ffffffffffffffffffffffffffffffffffffffff166122169092919063ffffffff16565b90506000815114806121ca5750808060200190518101906121c99190613250565b5b612209576040517f08c379a0000000000000000000000000000000000000000000000000000000008152600401612200906132ef565b60405180910390fd5b505050565b600033905090565b6060612225848460008561222e565b90509392505050565b606082471015612273576040517f08c379a000000000000000000000000000000000000000000000000000000000815260040161226a90613381565b60405180910390fd5b6000808673ffffffffffffffffffffffffffffffffffffffff16858760405161229c91906133e8565b60006040518083038185875af1925050503d80600081146122d9576040519150601f19603f3d011682016040523d82523d6000602084013e6122de565b606091505b50915091506122ef878383876122fb565b92505050949350505050565b6060831561235d5760008351036123555761231585612370565b612354576040517f08c379a000000000000000000000000000000000000000000000000000000000815260040161234b9061344b565b60405180910390fd5b5b829050612368565b6123678383612393565b5b949350505050565b6000808273ffffffffffffffffffffffffffffffffffffffff163b119050919050565b6000825111156123a65781518083602001fd5b806040517f08c379a00000000000000000000000000000000000000000000000000000000081526004016123da919061346b565b60405180910390fd5b6040518060c00160405280600073ffffffffffffffffffffffffffffffffffffffff168152602001600073ffffffffffffffffffffffffffffffffffffffff1681526020016000600881111561243c5761243b61250f565b5b81526020016000815260200160008152602001600081525090565b6000604051905090565b600080fd5b600080fd5b6000819050919050565b61247e8161246b565b811461248957600080fd5b50565b60008135905061249b81612475565b92915050565b6000602082840312156124b7576124b6612461565b5b60006124c58482850161248c565b91505092915050565b600073ffffffffffffffffffffffffffffffffffffffff82169050919050565b60006124f9826124ce565b9050919050565b612509816124ee565b82525050565b7f4e487b7100000000000000000000000000000000000000000000000000000000600052602160045260246000fd5b6009811061254f5761254e61250f565b5b50565b60008190506125608261253e565b919050565b600061257082612552565b9050919050565b61258081612565565b82525050565b61258f8161246b565b82525050565b600060c0820190506125aa6000830189612500565b6125b76020830188612500565b6125c46040830187612577565b6125d16060830186612586565b6125de6080830185612586565b6125eb60a0830184612586565b979650505050505050565b6125ff816124ee565b811461260a57600080fd5b50565b60008135905061261c816125f6565b92915050565b60008060006060848603121561263b5761263a612461565b5b60006126498682870161248c565b935050602061265a8682870161248c565b925050604061266b8682870161260d565b9150509250925092565b60008115159050919050565b61268a81612675565b811461269557600080fd5b50565b6000813590506126a781612681565b92915050565b600080604083850312156126c4576126c3612461565b5b60006126d28582860161260d565b92505060206126e385828601612698565b9150509250929050565b600080fd5b600080fd5b6000601f19601f8301169050919050565b7f4e487b7100000000000000000000000000000000000000000000000000000000600052604160045260246000fd5b612740826126f7565b810181811067ffffffffffffffff8211171561275f5761275e612708565b5b80604052505050565b6000612772612457565b905061277e8282612737565b919050565b600067ffffffffffffffff82111561279e5761279d612708565b5b6127a7826126f7565b9050602081019050919050565b82818337600083830152505050565b60006127d66127d184612783565b612768565b9050828152602081018484840111156127f2576127f16126f2565b5b6127fd8482856127b4565b509392505050565b600082601f83011261281a576128196126ed565b5b813561282a8482602086016127c3565b91505092915050565b6000806040838503121561284a57612849612461565b5b60006128588582860161248c565b925050602083013567ffffffffffffffff81111561287957612878612466565b5b61288585828601612805565b9150509250929050565b6000602082840312156128a5576128a4612461565b5b60006128b38482850161260d565b91505092915050565b6128c581612675565b82525050565b60006020820190506128e060008301846128bc565b92915050565b6128ef816124ee565b82525050565b6128fe81612565565b82525050565b61290d8161246b565b82525050565b60c08201600082015161292960008501826128e6565b50602082015161293c60208501826128e6565b50604082015161294f60408501826128f5565b5060608201516129626060850182612904565b5060808201516129756080850182612904565b5060a082015161298860a0850182612904565b50505050565b600060c0820190506129a36000830184612913565b92915050565b600081519050919050565b600082825260208201905092915050565b6000819050602082019050919050565b60006129e18383612904565b60208301905092915050565b6000602082019050919050565b6000612a05826129a9565b612a0f81856129b4565b9350612a1a836129c5565b8060005b83811015612a4b578151612a3288826129d5565b9750612a3d836129ed565b925050600181019050612a1e565b5085935050505092915050565b60006020820190508181036000830152612a7281846129fa565b905092915050565b60008060008060808587031215612a9457612a93612461565b5b6000612aa28782880161248c565b9450506020612ab38782880161248c565b9350506040612ac48782880161248c565b925050606085013567ffffffffffffffff811115612ae557612ae4612466565b5b612af187828801612805565b91505092959194509250565b6000602082019050612b126000830184612500565b92915050565b6000819050919050565b6000612b3d612b38612b33846124ce565b612b18565b6124ce565b9050919050565b6000612b4f82612b22565b9050919050565b6000612b6182612b44565b9050919050565b612b7181612b56565b82525050565b6000602082019050612b8c6000830184612b68565b92915050565b60008060408385031215612ba957612ba8612461565b5b6000612bb78582860161260d565b9250506020612bc88582860161248c565b9150509250929050565b6000602082019050612be76000830184612586565b92915050565b6000604082019050612c026000830185612586565b612c0f6020830184612586565b9392505050565b600081519050919050565b600082825260208201905092915050565b60005b83811015612c50578082015181840152602081019050612c35565b60008484015250505050565b6000612c6782612c16565b612c718185612c21565b9350612c81818560208601612c32565b612c8a816126f7565b840191505092915050565b6000604082019050612caa6000830185612586565b8181036020830152612cbc8184612c5c565b90509392505050565b7f4e487b7100000000000000000000000000000000000000000000000000000000600052601160045260246000fd5b6000612cff8261246b565b9150612d0a8361246b565b9250828203905081811115612d2257612d21612cc5565b5b92915050565b6000606082019050612d3d6000830186612586565b612d4a6020830185612586565b612d576040830184612586565b949350505050565b7f4e487b7100000000000000000000000000000000000000000000000000000000600052602260045260246000fd5b60006002820490506001821680612da657607f821691505b602082108103612db957612db8612d5f565b5b50919050565b60008190508160005260206000209050919050565b60006020601f8301049050919050565b600082821b905092915050565b600060088302612e217fffffffffffffffffffffffffffffffffffffffffffffffffffffffffffffffff82612de4565b612e2b8683612de4565b95508019841693508086168417925050509392505050565b6000612e5e612e59612e548461246b565b612b18565b61246b565b9050919050565b6000819050919050565b612e7883612e43565b612e8c612e8482612e65565b848454612df1565b825550505050565b600090565b612ea1612e94565b612eac818484612e6f565b505050565b5b81811015612ed057612ec5600082612e99565b600181019050612eb2565b5050565b601f821115612f1557612ee681612dbf565b612eef84612dd4565b81016020851015612efe578190505b612f12612f0a85612dd4565b830182612eb1565b50505b505050565b600082821c905092915050565b6000612f3860001984600802612f1a565b1980831691505092915050565b6000612f518383612f27565b9150826002028217905092915050565b612f6a82612c16565b67ffffffffffffffff811115612f8357612f82612708565b5b612f8d8254612d8e565b612f98828285612ed4565b600060209050601f831160018114612fcb5760008415612fb9578287015190505b612fc38582612f45565b86555061302b565b601f198416612fd986612dbf565b60005b8281101561300157848901518255600182019150602085019450602081019050612fdc565b8683101561301e578489015161301a601f891682612f27565b8355505b6001600288020188555050505b505050505050565b60006060820190506130486000830186612586565b61305560208301856128bc565b81810360408301526130678184612c5c565b9050949350505050565b7f4f776e61626c653a206e6577206f776e657220697320746865207a65726f206160008201527f6464726573730000000000000000000000000000000000000000000000000000602082015250565b60006130cd602683612c21565b91506130d882613071565b604082019050919050565b600060208201905081810360008301526130fc816130c0565b9050919050565b7f5265656e7472616e637947756172643a207265656e7472616e742063616c6c00600082015250565b6000613139601f83612c21565b915061314482613103565b602082019050919050565b600060208201905081810360008301526131688161312c565b9050919050565b60006040820190506131846000830185612500565b6131916020830184612586565b9392505050565b7f4f776e61626c653a2063616c6c6572206973206e6f7420746865206f776e6572600082015250565b60006131ce602083612c21565b91506131d982613198565b602082019050919050565b600060208201905081810360008301526131fd816131c1565b9050919050565b60006060820190506132196000830186612500565b6132266020830185612500565b6132336040830184612586565b949350505050565b60008151905061324a81612681565b92915050565b60006020828403121561326657613265612461565b5b60006132748482850161323b565b91505092915050565b7f5361666545524332303a204552433230206f7065726174696f6e20646964206e60008201527f6f74207375636365656400000000000000000000000000000000000000000000602082015250565b60006132d9602a83612c21565b91506132e48261327d565b604082019050919050565b60006020820190508181036000830152613308816132cc565b9050919050565b7f416464726573733a20696e73756666696369656e742062616c616e636520666f60008201527f722063616c6c0000000000000000000000000000000000000000000000000000602082015250565b600061336b602683612c21565b91506133768261330f565b604082019050919050565b6000602082019050818103600083015261339a8161335e565b9050919050565b600081519050919050565b600081905092915050565b60006133c2826133a1565b6133cc81856133ac565b93506133dc818560208601612c32565b80840191505092915050565b60006133f482846133b7565b915081905092915050565b7f416464726573733a2063616c6c20746f206e6f6e2d636f6e7472616374000000600082015250565b6000613435601d83612c21565b9150613440826133ff565b602082019050919050565b6000602082019050818103600083015261346481613428565b9050919050565b600060208201905081810360008301526134858184612c5c565b90509291505056fea2646970667358221220def2d98543e3d1c602e309e24c57179b6dc51b425c4f05adfa53711e834c0a9c64736f6c63430008120033",
  "linkReferences": {},
  "deployedLinkReferences": {}
}