{
  "_format": "hh-sol-artifact-1",
  "contractName": "ControllerFull",
  "sourceName": "contracts/ControllerFull.sol",
  "abi": [
    {
      "inputs": [
        {
          "internalType": "address payable",
          "name": "_depositToken",
          "type": "address"
        }
      ],
      "stateMutability": "nonpayable",
      "type": "constructor"
    },
    {
      "inputs": [],
      "name": "BidDoesNotBelongToProject",
      "type": "error"
    },
    {
      "inputs": [],
      "name": "BidsAreClosed",
      "type": "error"
    },
    {
      "inputs": [],
      "name": "ClientAlreadyExists",
      "type": "error"
    },
    {
      "inputs": [],
      "name": "EtherNotAccepted",
      "type": "error"
    },
    {
      "inputs": [],
      "name": "OnlyAdminCanResolveDispute",
      "type": "error"
    },
    {
      "inputs": [],
      "name": "OnlyProjectOwnerCanAcceptBids",
      "type": "error"
    },
    {
      "inputs": [],
      "name": "OnlyProjectOwnerCanAcceptDelivery",
      "type": "error"
    },
    {
      "inputs": [],
      "name": "OnlyProjectOwnerCanDenyDelivery",
      "type": "error"
    },
    {
      "inputs": [],
      "name": "OnlyProjectOwnerCanProcessExtension",
      "type": "error"
    },
    {
      "inputs": [],
      "name": "OnlyWorkerCanOpenDispute",
      "type": "error"
    },
    {
      "inputs": [],
      "name": "OnlyWorkerCanProposeExtension",
      "type": "error"
    },
    {
      "inputs": [],
      "name": "OnlyWorkerCanRequestDelivery",
      "type": "error"
    },
    {
      "inputs": [],
      "name": "OnlyWorkerCanStartProject",
      "type": "error"
    },
    {
      "inputs": [],
      "name": "ProjectAlreadyExists",
      "type": "error"
    },
    {
      "inputs": [],
      "name": "ProjectDoesNotExist",
      "type": "error"
    },
    {
      "inputs": [],
      "name": "ProjectNotInDeliveryProposed",
      "type": "error"
    },
    {
      "inputs": [],
      "name": "ProjectNotInDispute",
      "type": "error"
    },
    {
      "inputs": [],
      "name": "ProjectNotOpenToBids",
      "type": "error"
    },
    {
      "inputs": [],
      "name": "ProjectNotStarted",
      "type": "error"
    },
    {
      "inputs": [],
      "name": "ProposalExtensionDoesNotExist",
      "type": "error"
    },
    {
      "inputs": [],
      "name": "TooHighProposedBudget",
      "type": "error"
    },
    {
      "inputs": [],
      "name": "TooHighProposedDeadline",
      "type": "error"
    },
    {
      "inputs": [],
      "name": "WorkerAlreadyExists",
      "type": "error"
    },
    {
      "anonymous": false,
      "inputs": [
        {
          "indexed": true,
          "internalType": "uint256",
          "name": "projectId",
          "type": "uint256"
        },
        {
          "indexed": false,
          "internalType": "uint256",
          "name": "proposedBudget",
          "type": "uint256"
        },
        {
          "indexed": false,
          "internalType": "uint256",
          "name": "proposedDeadline",
          "type": "uint256"
        },
        {
          "indexed": false,
          "internalType": "uint256",
          "name": "proposedAt",
          "type": "uint256"
        }
      ],
      "name": "AcceptProposedExtension",
      "type": "event"
    },
    {
      "anonymous": false,
      "inputs": [
        {
          "indexed": true,
          "internalType": "address",
          "name": "arbitrator",
          "type": "address"
        },
        {
          "indexed": false,
          "internalType": "bool",
          "name": "status",
          "type": "bool"
        }
      ],
      "name": "ArbitratorStatusChanged",
      "type": "event"
    },
    {
      "anonymous": false,
      "inputs": [
        {
          "indexed": true,
          "internalType": "uint256",
          "name": "projectId",
          "type": "uint256"
        },
        {
          "indexed": true,
          "internalType": "uint256",
          "name": "bidId",
          "type": "uint256"
        },
        {
          "indexed": false,
          "internalType": "uint256",
          "name": "proposedBudget",
          "type": "uint256"
        },
        {
          "indexed": false,
          "internalType": "uint256",
          "name": "proposedDeadline",
          "type": "uint256"
        },
        {
          "indexed": false,
          "internalType": "uint256",
          "name": "acceptedIn",
          "type": "uint256"
        }
      ],
      "name": "BidAccepted",
      "type": "event"
    },
    {
      "anonymous": false,
      "inputs": [
        {
          "indexed": true,
          "internalType": "uint256",
          "name": "projectId",
          "type": "uint256"
        },
        {
          "indexed": true,
          "internalType": "address",
          "name": "worker",
          "type": "address"
        },
        {
          "indexed": false,
          "internalType": "uint256",
          "name": "proposedBudget",
          "type": "uint256"
        },
        {
          "indexed": false,
          "internalType": "uint256",
          "name": "proposedDeadline",
          "type": "uint256"
        }
      ],
      "name": "BidToProject",
      "type": "event"
    },
    {
      "anonymous": false,
      "inputs": [
        {
          "indexed": true,
          "internalType": "address",
          "name": "clientAddress",
          "type": "address"
        },
        {
          "indexed": false,
          "internalType": "string",
          "name": "name",
          "type": "string"
        }
      ],
      "name": "ClientRegistered",
      "type": "event"
    },
    {
      "anonymous": false,
      "inputs": [
        {
          "indexed": true,
          "internalType": "uint256",
          "name": "projectId",
          "type": "uint256"
        },
        {
          "indexed": false,
          "internalType": "uint256",
          "name": "acceptedAt",
          "type": "uint256"
        }
      ],
      "name": "DeliveryAccepted",
      "type": "event"
    },
    {
      "anonymous": false,
      "inputs": [
        {
          "indexed": true,
          "internalType": "uint256",
          "name": "projectId",
          "type": "uint256"
        },
        {
          "indexed": false,
          "internalType": "uint256",
          "name": "requestedAt",
          "type": "uint256"
        }
      ],
      "name": "DeliveryProposed",
      "type": "event"
    },
    {
      "anonymous": false,
      "inputs": [
        {
          "indexed": true,
          "internalType": "uint256",
          "name": "projectId",
          "type": "uint256"
        },
        {
          "indexed": false,
          "internalType": "uint256",
          "name": "acceptedAt",
          "type": "uint256"
        },
        {
          "indexed": false,
          "internalType": "string",
          "name": "reason",
          "type": "string"
        }
      ],
      "name": "DeliveryRejected",
      "type": "event"
    },
    {
      "anonymous": false,
      "inputs": [
        {
          "indexed": true,
          "internalType": "uint256",
          "name": "projectId",
          "type": "uint256"
        },
        {
          "indexed": false,
          "internalType": "uint256",
          "name": "openedAt",
          "type": "uint256"
        },
        {
          "indexed": false,
          "internalType": "string",
          "name": "reason",
          "type": "string"
        }
      ],
      "name": "DisputeOpened",
      "type": "event"
    },
    {
      "anonymous": false,
      "inputs": [
        {
          "indexed": true,
          "internalType": "uint256",
          "name": "projectId",
          "type": "uint256"
        },
        {
          "indexed": false,
          "internalType": "uint256",
          "name": "resolvedAt",
          "type": "uint256"
        },
        {
          "indexed": false,
          "internalType": "bool",
          "name": "inWorkersFavor",
          "type": "bool"
        },
        {
          "indexed": false,
          "internalType": "string",
          "name": "reason",
          "type": "string"
        }
      ],
      "name": "DisputeResolved",
      "type": "event"
    },
    {
      "anonymous": false,
      "inputs": [
        {
          "indexed": true,
          "internalType": "address",
          "name": "previousOwner",
          "type": "address"
        },
        {
          "indexed": true,
          "internalType": "address",
          "name": "newOwner",
          "type": "address"
        }
      ],
      "name": "OwnershipTransferred",
      "type": "event"
    },
    {
      "anonymous": false,
      "inputs": [
        {
          "indexed": true,
          "internalType": "address",
          "name": "clientAddress",
          "type": "address"
        },
        {
          "indexed": true,
          "internalType": "uint256",
          "name": "projectId",
          "type": "uint256"
        },
        {
          "indexed": false,
          "internalType": "uint256",
          "name": "maxAcceptableAmount",
          "type": "uint256"
        },
        {
          "indexed": false,
          "internalType": "uint256",
          "name": "maxAcceptableDeadline",
          "type": "uint256"
        },
        {
          "indexed": false,
          "internalType": "string",
          "name": "description",
          "type": "string"
        }
      ],
      "name": "ProjectCreated",
      "type": "event"
    },
    {
      "anonymous": false,
      "inputs": [
        {
          "indexed": true,
          "internalType": "uint256",
          "name": "projectId",
          "type": "uint256"
        },
        {
          "indexed": false,
          "internalType": "uint256",
          "name": "startedAt",
          "type": "uint256"
        }
      ],
      "name": "ProjectStarted",
      "type": "event"
    },
    {
      "anonymous": false,
      "inputs": [
        {
          "indexed": true,
          "internalType": "uint256",
          "name": "projectId",
          "type": "uint256"
        },
        {
          "indexed": false,
          "internalType": "uint256",
          "name": "proposedBudget",
          "type": "uint256"
        },
        {
          "indexed": false,
          "internalType": "uint256",
          "name": "proposedDeadline",
          "type": "uint256"
        },
        {
          "indexed": false,
          "internalType": "uint256",
          "name": "proposedAt",
          "type": "uint256"
        }
      ],
      "name": "ProposalExtension",
      "type": "event"
    },
    {
      "anonymous": false,
      "inputs": [
        {
          "indexed": true,
          "internalType": "address",
          "name": "worker",
          "type": "address"
        },
        {
          "indexed": false,
          "internalType": "string",
          "name": "name",
          "type": "string"
        }
      ],
      "name": "WorkerRegistered",
      "type": "event"
    },
    {
      "stateMutability": "payable",
      "type": "fallback"
    },
    {
      "inputs": [
        {
          "internalType": "uint256",
          "name": "bidId",
          "type": "uint256"
        }
      ],
      "name": "acceptBid",
      "outputs": [],
      "stateMutability": "nonpayable",
      "type": "function"
    },
    {
      "inputs": [
        {
          "internalType": "uint256",
          "name": "projectId",
          "type": "uint256"
        }
      ],
      "name": "acceptDeliveryAndPay",
      "outputs": [],
      "stateMutability": "nonpayable",
      "type": "function"
    },
    {
      "inputs": [
        {
          "internalType": "uint256",
          "name": "projectId",
          "type": "uint256"
        }
      ],
      "name": "acceptProposal",
      "outputs": [],
      "stateMutability": "nonpayable",
      "type": "function"
    },
    {
      "inputs": [
        {
          "internalType": "address",
          "name": "",
          "type": "address"
        }
      ],
      "name": "arbitrators",
      "outputs": [
        {
          "internalType": "bool",
          "name": "",
          "type": "bool"
        }
      ],
      "stateMutability": "view",
      "type": "function"
    },
    {
      "inputs": [
        {
          "internalType": "uint256",
          "name": "projectId",
          "type": "uint256"
        },
        {
          "internalType": "uint256",
          "name": "proposedBudget",
          "type": "uint256"
        },
        {
          "internalType": "uint256",
          "name": "proposedDeadline",
          "type": "uint256"
        }
      ],
      "name": "bidToProject",
      "outputs": [],
      "stateMutability": "nonpayable",
      "type": "function"
    },
    {
      "inputs": [
        {
          "internalType": "uint256",
          "name": "",
          "type": "uint256"
        },
        {
          "internalType": "uint256",
          "name": "",
          "type": "uint256"
        }
      ],
      "name": "bidsByProjectId",
      "outputs": [
        {
          "internalType": "uint256",
          "name": "",
          "type": "uint256"
        }
      ],
      "stateMutability": "view",
      "type": "function"
    },
    {
      "inputs": [
        {
          "internalType": "address",
          "name": "",
          "type": "address"
        }
      ],
      "name": "clientInfo",
      "outputs": [
        {
          "internalType": "string",
          "name": "name",
          "type": "string"
        },
        {
          "internalType": "address",
          "name": "clientAddress",
          "type": "address"
        },
        {
          "internalType": "uint256",
          "name": "since",
          "type": "uint256"
        },
        {
          "internalType": "uint256",
          "name": "projectsCount",
          "type": "uint256"
        }
      ],
      "stateMutability": "view",
      "type": "function"
    },
    {
      "inputs": [
        {
          "internalType": "uint256",
          "name": "_maxAcceptableAmount",
          "type": "uint256"
        },
        {
          "internalType": "uint256",
          "name": "_maxAcceptableDeadline",
          "type": "uint256"
        },
        {
          "internalType": "string",
          "name": "_description",
          "type": "string"
        }
      ],
      "name": "createProject",
      "outputs": [],
      "stateMutability": "nonpayable",
      "type": "function"
    },
    {
      "inputs": [
        {
          "internalType": "uint256",
          "name": "projectId",
          "type": "uint256"
        },
        {
          "internalType": "string",
          "name": "reason",
          "type": "string"
        }
      ],
      "name": "declineDelivery",
      "outputs": [],
      "stateMutability": "nonpayable",
      "type": "function"
    },
    {
      "inputs": [],
      "name": "depositToken",
      "outputs": [
        {
          "internalType": "contract IERC20",
          "name": "",
          "type": "address"
        }
      ],
      "stateMutability": "view",
      "type": "function"
    },
    {
      "inputs": [
        {
          "internalType": "uint256",
          "name": "projectId",
          "type": "uint256"
        }
      ],
      "name": "getAcceptedBidInfo",
      "outputs": [
        {
          "components": [
            {
              "internalType": "uint256",
              "name": "projectId",
              "type": "uint256"
            },
            {
              "internalType": "uint256",
              "name": "bidId",
              "type": "uint256"
            },
            {
              "internalType": "address",
              "name": "worker",
              "type": "address"
            },
            {
              "internalType": "uint256",
              "name": "proposedBudget",
              "type": "uint256"
            },
            {
              "internalType": "uint256",
              "name": "proposedDeadline",
              "type": "uint256"
            },
            {
              "internalType": "bool",
              "name": "accepted",
              "type": "bool"
            },
            {
              "internalType": "uint256",
              "name": "addedAt",
              "type": "uint256"
            },
            {
              "internalType": "uint256",
              "name": "acceptedAt",
              "type": "uint256"
            }
          ],
          "internalType": "struct ControllerFull.BidInfo",
          "name": "",
          "type": "tuple"
        }
      ],
      "stateMutability": "view",
      "type": "function"
    },
    {
      "inputs": [
        {
          "internalType": "uint256",
          "name": "bidId",
          "type": "uint256"
        }
      ],
      "name": "getBidInfoById",
      "outputs": [
        {
          "components": [
            {
              "internalType": "uint256",
              "name": "projectId",
              "type": "uint256"
            },
            {
              "internalType": "uint256",
              "name": "bidId",
              "type": "uint256"
            },
            {
              "internalType": "address",
              "name": "worker",
              "type": "address"
            },
            {
              "internalType": "uint256",
              "name": "proposedBudget",
              "type": "uint256"
            },
            {
              "internalType": "uint256",
              "name": "proposedDeadline",
              "type": "uint256"
            },
            {
              "internalType": "bool",
              "name": "accepted",
              "type": "bool"
            },
            {
              "internalType": "uint256",
              "name": "addedAt",
              "type": "uint256"
            },
            {
              "internalType": "uint256",
              "name": "acceptedAt",
              "type": "uint256"
            }
          ],
          "internalType": "struct ControllerFull.BidInfo",
          "name": "",
          "type": "tuple"
        }
      ],
      "stateMutability": "view",
      "type": "function"
    },
    {
      "inputs": [
        {
          "internalType": "address",
          "name": "_clientAddress",
          "type": "address"
        }
      ],
      "name": "getClientInfoByAddress",
      "outputs": [
        {
          "components": [
            {
              "internalType": "string",
              "name": "name",
              "type": "string"
            },
            {
              "internalType": "address",
              "name": "clientAddress",
              "type": "address"
            },
            {
              "internalType": "uint256",
              "name": "since",
              "type": "uint256"
            },
            {
              "internalType": "uint256",
              "name": "projectsCount",
              "type": "uint256"
            }
          ],
          "internalType": "struct ControllerFull.ClientInfo",
          "name": "client",
          "type": "tuple"
        }
      ],
      "stateMutability": "view",
      "type": "function"
    },
    {
      "inputs": [
        {
          "internalType": "uint256",
          "name": "projectId",
          "type": "uint256"
        }
      ],
      "name": "getProjectBids",
      "outputs": [
        {
          "internalType": "uint256[]",
          "name": "",
          "type": "uint256[]"
        }
      ],
      "stateMutability": "view",
      "type": "function"
    },
    {
      "inputs": [
        {
          "internalType": "address",
          "name": "owner",
          "type": "address"
        }
      ],
      "name": "getProjectIdsByOwner",
      "outputs": [
        {
          "internalType": "uint256[]",
          "name": "",
          "type": "uint256[]"
        }
      ],
      "stateMutability": "view",
      "type": "function"
    },
    {
      "inputs": [
        {
          "internalType": "uint256",
          "name": "projectId",
          "type": "uint256"
        }
      ],
      "name": "getProjectInfoById",
      "outputs": [
        {
          "components": [
            {
              "internalType": "address",
              "name": "clientAddress",
              "type": "address"
            },
            {
              "internalType": "uint256",
              "name": "maxAcceptableAmount",
              "type": "uint256"
            },
            {
              "internalType": "uint256",
              "name": "maxAcceptableDeadline",
              "type": "uint256"
            },
            {
              "internalType": "string",
              "name": "description",
              "type": "string"
            },
            {
              "internalType": "enum ControllerFull.ProjectStage",
              "name": "stage",
              "type": "uint8"
            },
            {
              "internalType": "uint256",
              "name": "addedAt",
              "type": "uint256"
            },
            {
              "internalType": "uint256",
              "name": "bidAccepted",
              "type": "uint256"
            },
            {
              "internalType": "uint256",
              "name": "bidAcceptedAt",
              "type": "uint256"
            },
            {
              "internalType": "uint256",
              "name": "bidAcceptedAmount",
              "type": "uint256"
            },
            {
              "internalType": "uint256",
              "name": "bidAcceptedDeadline",
              "type": "uint256"
            }
          ],
          "internalType": "struct ControllerFull.ProjectInfo",
          "name": "",
          "type": "tuple"
        }
      ],
      "stateMutability": "view",
      "type": "function"
    },
    {
      "inputs": [
        {
          "internalType": "address",
          "name": "_workerAddress",
          "type": "address"
        }
      ],
      "name": "getWorkerInfoByAddress",
      "outputs": [
        {
          "components": [
            {
              "internalType": "string",
              "name": "name",
              "type": "string"
            },
            {
              "internalType": "address",
              "name": "paymentAddress",
              "type": "address"
            },
            {
              "internalType": "uint256",
              "name": "since",
              "type": "uint256"
            },
            {
              "internalType": "uint256",
              "name": "projectsCount",
              "type": "uint256"
            }
          ],
          "internalType": "struct ControllerFull.WorkerInfo",
          "name": "worker",
          "type": "tuple"
        }
      ],
      "stateMutability": "view",
      "type": "function"
    },
    {
      "inputs": [
        {
          "internalType": "uint256",
          "name": "projectId",
          "type": "uint256"
        },
        {
          "internalType": "string",
          "name": "reason",
          "type": "string"
        }
      ],
      "name": "openDispute",
      "outputs": [],
      "stateMutability": "nonpayable",
      "type": "function"
    },
    {
      "inputs": [],
      "name": "owner",
      "outputs": [
        {
          "internalType": "address",
          "name": "",
          "type": "address"
        }
      ],
      "stateMutability": "view",
      "type": "function"
    },
    {
      "inputs": [
        {
          "internalType": "uint256",
          "name": "",
          "type": "uint256"
        }
      ],
      "name": "projects",
      "outputs": [
        {
          "internalType": "address",
          "name": "clientAddress",
          "type": "address"
        },
        {
          "internalType": "uint256",
          "name": "maxAcceptableAmount",
          "type": "uint256"
        },
        {
          "internalType": "uint256",
          "name": "maxAcceptableDeadline",
          "type": "uint256"
        },
        {
          "internalType": "string",
          "name": "description",
          "type": "string"
        },
        {
          "internalType": "enum ControllerFull.ProjectStage",
          "name": "stage",
          "type": "uint8"
        },
        {
          "internalType": "uint256",
          "name": "addedAt",
          "type": "uint256"
        },
        {
          "internalType": "uint256",
          "name": "bidAccepted",
          "type": "uint256"
        },
        {
          "internalType": "uint256",
          "name": "bidAcceptedAt",
          "type": "uint256"
        },
        {
          "internalType": "uint256",
          "name": "bidAcceptedAmount",
          "type": "uint256"
        },
        {
          "internalType": "uint256",
          "name": "bidAcceptedDeadline",
          "type": "uint256"
        }
      ],
      "stateMutability": "view",
      "type": "function"
    },
    {
      "inputs": [
        {
          "internalType": "address",
          "name": "",
          "type": "address"
        },
        {
          "internalType": "uint256",
          "name": "",
          "type": "uint256"
        }
      ],
      "name": "projectsByOwner",
      "outputs": [
        {
          "internalType": "uint256",
          "name": "",
          "type": "uint256"
        }
      ],
      "stateMutability": "view",
      "type": "function"
    },
    {
      "inputs": [
        {
          "internalType": "uint256",
          "name": "projectId",
          "type": "uint256"
        }
      ],
      "name": "proposeDelivery",
      "outputs": [],
      "stateMutability": "nonpayable",
      "type": "function"
    },
    {
      "inputs": [
        {
          "internalType": "uint256",
          "name": "projectId",
          "type": "uint256"
        },
        {
          "internalType": "uint256",
          "name": "proposedNewDeadLine",
          "type": "uint256"
        },
        {
          "internalType": "uint256",
          "name": "proposedNewBudget",
          "type": "uint256"
        },
        {
          "internalType": "string",
          "name": "reason",
          "type": "string"
        }
      ],
      "name": "proposeExtension",
      "outputs": [],
      "stateMutability": "nonpayable",
      "type": "function"
    },
    {
      "inputs": [
        {
          "internalType": "string",
          "name": "_name",
          "type": "string"
        }
      ],
      "name": "registerAsClient",
      "outputs": [],
      "stateMutability": "nonpayable",
      "type": "function"
    },
    {
      "inputs": [
        {
          "internalType": "string",
          "name": "_name",
          "type": "string"
        }
      ],
      "name": "registerAsWorker",
      "outputs": [],
      "stateMutability": "nonpayable",
      "type": "function"
    },
    {
      "inputs": [],
      "name": "renounceOwnership",
      "outputs": [],
      "stateMutability": "nonpayable",
      "type": "function"
    },
    {
      "inputs": [
        {
          "internalType": "uint256",
          "name": "projectId",
          "type": "uint256"
        },
        {
          "internalType": "string",
          "name": "reason",
          "type": "string"
        }
      ],
      "name": "resolveDisputeInClientFavor",
      "outputs": [],
      "stateMutability": "nonpayable",
      "type": "function"
    },
    {
      "inputs": [
        {
          "internalType": "uint256",
          "name": "projectId",
          "type": "uint256"
        },
        {
          "internalType": "string",
          "name": "reason",
          "type": "string"
        }
      ],
      "name": "resolveDisputeInWorkerFavor",
      "outputs": [],
      "stateMutability": "nonpayable",
      "type": "function"
    },
    {
      "inputs": [
        {
          "internalType": "address",
          "name": "_arbitratorAddress",
          "type": "address"
        },
        {
          "internalType": "bool",
          "name": "_status",
          "type": "bool"
        }
      ],
      "name": "setArbitrator",
      "outputs": [],
      "stateMutability": "nonpayable",
      "type": "function"
    },
    {
      "inputs": [
        {
          "internalType": "uint256",
          "name": "projectId",
          "type": "uint256"
        }
      ],
      "name": "startWork",
      "outputs": [],
      "stateMutability": "nonpayable",
      "type": "function"
    },
    {
      "inputs": [
        {
          "internalType": "address",
          "name": "newOwner",
          "type": "address"
        }
      ],
      "name": "transferOwnership",
      "outputs": [],
      "stateMutability": "nonpayable",
      "type": "function"
    },
    {
      "inputs": [
        {
          "internalType": "uint256",
          "name": "",
          "type": "uint256"
        }
      ],
      "name": "workerByAddress",
      "outputs": [
        {
          "internalType": "address",
          "name": "",
          "type": "address"
        }
      ],
      "stateMutability": "view",
      "type": "function"
    },
    {
      "inputs": [
        {
          "internalType": "address",
          "name": "",
          "type": "address"
        }
      ],
      "name": "workerInfo",
      "outputs": [
        {
          "internalType": "string",
          "name": "name",
          "type": "string"
        },
        {
          "internalType": "address",
          "name": "paymentAddress",
          "type": "address"
        },
        {
          "internalType": "uint256",
          "name": "since",
          "type": "uint256"
        },
        {
          "internalType": "uint256",
          "name": "projectsCount",
          "type": "uint256"
        }
      ],
      "stateMutability": "view",
      "type": "function"
    },
    {
      "stateMutability": "payable",
      "type": "receive"
    }
  ],
  "bytecode": "0x60806040523480156200001157600080fd5b506040516200568f3803806200568f8339818101604052810190620000379190620001df565b60016000819055506200005f62000053620000a760201b60201c565b620000af60201b60201c565b80600460006101000a81548173ffffffffffffffffffffffffffffffffffffffff021916908373ffffffffffffffffffffffffffffffffffffffff1602179055505062000211565b600033905090565b6000600160009054906101000a900473ffffffffffffffffffffffffffffffffffffffff16905081600160006101000a81548173ffffffffffffffffffffffffffffffffffffffff021916908373ffffffffffffffffffffffffffffffffffffffff1602179055508173ffffffffffffffffffffffffffffffffffffffff168173ffffffffffffffffffffffffffffffffffffffff167f8be0079c531659141344cd1fd0a4f28419497f9722a3daafe3b4186f6b6457e060405160405180910390a35050565b600080fd5b600073ffffffffffffffffffffffffffffffffffffffff82169050919050565b6000620001a7826200017a565b9050919050565b620001b9816200019a565b8114620001c557600080fd5b50565b600081519050620001d981620001ae565b92915050565b600060208284031215620001f857620001f762000175565b5b60006200020884828501620001c8565b91505092915050565b61546e80620002216000396000f3fe6080604052600436106101f25760003560e01c80635f19935c1161010d57806398116e19116100a0578063c89039c51161006f578063c89039c5146107da578063f2fde38b14610805578063f3472b3d1461082e578063f482086814610857578063f7e28f8e1461089457610229565b806398116e19146107225780639bd6f1fe1461074b578063a17fabb614610774578063b98389b1146107b157610229565b8063758dde96116100dc578063758dde961461066557806387f2b7da146106a5578063892e21bf146106ce5780638da5cb5b146106f757610229565b80635f19935c146105ab57806360c5cc3a146105e85780636c4d574314610611578063715018a61461064e57610229565b80632bb003c31161018557806331537e561161015457806331537e56146104cb57806336f691c41461050857806344bafb241461053157806351d0ea371461056e57610229565b80632bb003c3146103ff5780632bc0b0761461043c5780632f2a96d31461046557806330790b651461048e57610229565b80631b7d41eb116101c15780631b7d41eb1461034757806320f7a505146103705780632863db7b146103995780632b1fd58a146103d657610229565b806303a250f91461025b5780630a6f050314610284578063107046bd146102c45780631596a5d51461030a57610229565b36610229576040517f3733483400000000000000000000000000000000000000000000000000000000815260040160405180910390fd5b6040517f3733483400000000000000000000000000000000000000000000000000000000815260040160405180910390fd5b34801561026757600080fd5b50610282600480360381019061027d9190613f66565b6108bd565b005b34801561029057600080fd5b506102ab60048036038101906102a69190613ff1565b610b2f565b6040516102bb94939291906140cc565b60405180910390f35b3480156102d057600080fd5b506102eb60048036038101906102e69190613f66565b610c07565b6040516103019a9998979695949392919061418f565b60405180910390f35b34801561031657600080fd5b50610331600480360381019061032c9190613f66565b610d10565b60405161033e919061430d565b60405180910390f35b34801561035357600080fd5b5061036e60048036038101906103699190613f66565b610deb565b005b34801561037c57600080fd5b506103976004803603810190610392919061445e565b611004565b005b3480156103a557600080fd5b506103c060048036038101906103bb9190613f66565b6113bd565b6040516103cd919061430d565b60405180910390f35b3480156103e257600080fd5b506103fd60048036038101906103f89190613f66565b6114ae565b005b34801561040b57600080fd5b5061042660048036038101906104219190613f66565b611857565b604051610433919061457c565b60405180910390f35b34801561044857600080fd5b50610463600480360381019061045e91906145ca565b6118c2565b005b34801561047157600080fd5b5061048c60048036038101906104879190613f66565b611973565b005b34801561049a57600080fd5b506104b560048036038101906104b09190613f66565b611ba1565b6040516104c2919061460a565b60405180910390f35b3480156104d757600080fd5b506104f260048036038101906104ed9190614625565b611be0565b6040516104ff9190614665565b60405180910390f35b34801561051457600080fd5b5061052f600480360381019061052a9190614680565b611c11565b005b34801561053d57600080fd5b5061055860048036038101906105539190613ff1565b611db8565b6040516105659190614789565b60405180910390f35b34801561057a57600080fd5b5061059560048036038101906105909190613ff1565b611f0d565b6040516105a291906147ba565b60405180910390f35b3480156105b757600080fd5b506105d260048036038101906105cd9190613f66565b611f2d565b6040516105df91906148be565b60405180910390f35b3480156105f457600080fd5b5061060f600480360381019061060a9190613f66565b6120c4565b005b34801561061d57600080fd5b5061063860048036038101906106339190613ff1565b61240a565b604051610645919061457c565b60405180910390f35b34801561065a57600080fd5b506106636124a1565b005b34801561067157600080fd5b5061068c60048036038101906106879190613ff1565b6124b5565b60405161069c94939291906140cc565b60405180910390f35b3480156106b157600080fd5b506106cc60048036038101906106c791906148e0565b61258d565b005b3480156106da57600080fd5b506106f560048036038101906106f09190614680565b61287c565b005b34801561070357600080fd5b5061070c612a07565b604051610719919061460a565b60405180910390f35b34801561072e57600080fd5b5061074960048036038101906107449190614963565b612a31565b005b34801561075757600080fd5b50610772600480360381019061076d9190614680565b612c80565b005b34801561078057600080fd5b5061079b60048036038101906107969190613ff1565b612e84565b6040516107a89190614a0f565b60405180910390f35b3480156107bd57600080fd5b506107d860048036038101906107d39190614963565b612fd9565b005b3480156107e657600080fd5b506107ef613228565b6040516107fc9190614a90565b60405180910390f35b34801561081157600080fd5b5061082c60048036038101906108279190613ff1565b61324e565b005b34801561083a57600080fd5b5061085560048036038101906108509190614aab565b6132d1565b005b34801561086357600080fd5b5061087e60048036038101906108799190614afe565b613620565b60405161088b9190614665565b60405180910390f35b3480156108a057600080fd5b506108bb60048036038101906108b69190614680565b613651565b005b6108c5613871565b6000600c60008381526020019081526020016000209050600060116000836006015481526020019081526020016000209050600073ffffffffffffffffffffffffffffffffffffffff168260000160009054906101000a900473ffffffffffffffffffffffffffffffffffffffff1673ffffffffffffffffffffffffffffffffffffffff1603610981576040517f38fde52b00000000000000000000000000000000000000000000000000000000815260040160405180910390fd5b6001600981111561099557610994614118565b5b8260040160009054906101000a900460ff1660098111156109b9576109b8614118565b5b141580156109fd5750600560098111156109d6576109d5614118565b5b8260040160009054906101000a900460ff1660098111156109fa576109f9614118565b5b14155b15610a34576040517f02039fe000000000000000000000000000000000000000000000000000000000815260040160405180910390fd5b3373ffffffffffffffffffffffffffffffffffffffff168160020160009054906101000a900473ffffffffffffffffffffffffffffffffffffffff1673ffffffffffffffffffffffffffffffffffffffff1614610abd576040517ff29b7de400000000000000000000000000000000000000000000000000000000815260040160405180910390fd5b60028260040160006101000a81548160ff02191690836009811115610ae557610ae4614118565b5b0217905550827f0897c664c72bc8b676678ef3f10a93980aa3f57017782c69072afcea1d1eb0f642604051610b1a9190614665565b60405180910390a25050610b2c6138c0565b50565b6006602052806000526040600020600091509050806000018054610b5290614b6d565b80601f0160208091040260200160405190810160405280929190818152602001828054610b7e90614b6d565b8015610bcb5780601f10610ba057610100808354040283529160200191610bcb565b820191906000526020600020905b815481529060010190602001808311610bae57829003601f168201915b5050505050908060010160009054906101000a900473ffffffffffffffffffffffffffffffffffffffff16908060020154908060030154905084565b600c6020528060005260406000206000915090508060000160009054906101000a900473ffffffffffffffffffffffffffffffffffffffff1690806001015490806002015490806003018054610c5c90614b6d565b80601f0160208091040260200160405190810160405280929190818152602001828054610c8890614b6d565b8015610cd55780601f10610caa57610100808354040283529160200191610cd5565b820191906000526020600020905b815481529060010190602001808311610cb857829003601f168201915b5050505050908060040160009054906101000a900460ff1690806005015490806006015490806007015490806008015490806009015490508a565b610d18613dc8565b601160008381526020019081526020016000206040518061010001604052908160008201548152602001600182015481526020016002820160009054906101000a900473ffffffffffffffffffffffffffffffffffffffff1673ffffffffffffffffffffffffffffffffffffffff1673ffffffffffffffffffffffffffffffffffffffff16815260200160038201548152602001600482015481526020016005820160009054906101000a900460ff16151515158152602001600682015481526020016007820154815250509050919050565b610df3613871565b6000600c600083815260200190815260200160002090503373ffffffffffffffffffffffffffffffffffffffff168160000160009054906101000a900473ffffffffffffffffffffffffffffffffffffffff1673ffffffffffffffffffffffffffffffffffffffff1614610e93576040517f28cecb5b00000000000000000000000000000000000000000000000000000000815260040160405180910390fd5b60036009811115610ea757610ea6614118565b5b8160040160009054906101000a900460ff166009811115610ecb57610eca614118565b5b14610f02576040517f87092a6800000000000000000000000000000000000000000000000000000000815260040160405180910390fd5b60048160040160006101000a81548160ff02191690836009811115610f2a57610f29614118565b5b0217905550600060116000836006015481526020019081526020016000209050610fbf8160020160009054906101000a900473ffffffffffffffffffffffffffffffffffffffff168360080154600460009054906101000a900473ffffffffffffffffffffffffffffffffffffffff1673ffffffffffffffffffffffffffffffffffffffff166138ca9092919063ffffffff16565b827f9460073959a64ba94729236a882edf6c098a69ac586654e5a50b46351d643c0a42604051610fef9190614665565b60405180910390a250506110016138c0565b50565b61100c613871565b600e60003373ffffffffffffffffffffffffffffffffffffffff1673ffffffffffffffffffffffffffffffffffffffff168152602001908152602001600020816040516110599190614bda565b908152602001604051809103902060009054906101000a900460ff16156110ac576040517fb60c1ae400000000000000000000000000000000000000000000000000000000815260040160405180910390fd5b6001600e60003373ffffffffffffffffffffffffffffffffffffffff1673ffffffffffffffffffffffffffffffffffffffff168152602001908152602001600020826040516110fb9190614bda565b908152602001604051809103902060006101000a81548160ff021916908315150217905550600061112c6002613950565b9050600d60003373ffffffffffffffffffffffffffffffffffffffff1673ffffffffffffffffffffffffffffffffffffffff168152602001908152602001600020819080600181540180825580915050600190039060005260206000200160009091909190915055600960003373ffffffffffffffffffffffffffffffffffffffff1673ffffffffffffffffffffffffffffffffffffffff16815260200190815260200160002060030160008154809291906111e790614c20565b919050555060006040518061014001604052803373ffffffffffffffffffffffffffffffffffffffff1681526020018681526020018581526020018481526020016000600981111561123c5761123b614118565b5b81526020014281526020016000815260200160008152602001600081526020016000815250905080600c600084815260200190815260200160002060008201518160000160006101000a81548173ffffffffffffffffffffffffffffffffffffffff021916908373ffffffffffffffffffffffffffffffffffffffff160217905550602082015181600101556040820151816002015560608201518160030190816112e79190614e0a565b5060808201518160040160006101000a81548160ff0219169083600981111561131357611312614118565b5b021790555060a0820151816005015560c0820151816006015560e0820151816007015561010082015181600801556101208201518160090155905050813373ffffffffffffffffffffffffffffffffffffffff167fd8c9df6950e7ea521827d53af272e4b2f29df683b9557003a02d7a0a94f12f5a8360200151846040015185606001516040516113a693929190614edc565b60405180910390a350506113b86138c0565b505050565b6113c5613dc8565b60116000600c60008581526020019081526020016000206006015481526020019081526020016000206040518061010001604052908160008201548152602001600182015481526020016002820160009054906101000a900473ffffffffffffffffffffffffffffffffffffffff1673ffffffffffffffffffffffffffffffffffffffff1673ffffffffffffffffffffffffffffffffffffffff16815260200160038201548152602001600482015481526020016005820160009054906101000a900460ff16151515158152602001600682015481526020016007820154815250509050919050565b6114b6613871565b60006011600083815260200190815260200160002090506000600c60008360000154815260200190815260200160002090506000600960003373ffffffffffffffffffffffffffffffffffffffff1673ffffffffffffffffffffffffffffffffffffffff16815260200190815260200160002090506000600660008560020160009054906101000a900473ffffffffffffffffffffffffffffffffffffffff1673ffffffffffffffffffffffffffffffffffffffff1673ffffffffffffffffffffffffffffffffffffffff16815260200190815260200160002090503373ffffffffffffffffffffffffffffffffffffffff168360000160009054906101000a900473ffffffffffffffffffffffffffffffffffffffff1673ffffffffffffffffffffffffffffffffffffffff161461161b576040517f38fde52b00000000000000000000000000000000000000000000000000000000815260040160405180910390fd5b6000600981111561162f5761162e614118565b5b8360040160009054906101000a900460ff16600981111561165357611652614118565b5b0361168a576040517f9a264d0000000000000000000000000000000000000000000000000000000000815260040160405180910390fd5b3373ffffffffffffffffffffffffffffffffffffffff168260010160009054906101000a900473ffffffffffffffffffffffffffffffffffffffff1673ffffffffffffffffffffffffffffffffffffffff1614611713576040517f3556120b00000000000000000000000000000000000000000000000000000000815260040160405180910390fd5b60018360040160006101000a81548160ff0219169083600981111561173b5761173a614118565b5b0217905550848360060181905550428360070181905550836003015483600801819055508360040154836009018190555060018460050160006101000a81548160ff0219169083151502179055504284600701819055508060030160008154809291906117a790614c20565b91905055506117ff33308660030154600460009054906101000a900473ffffffffffffffffffffffffffffffffffffffff1673ffffffffffffffffffffffffffffffffffffffff1661395e909392919063ffffffff16565b8484600001547f26ced84e7fcbbaaebd2c7b4da6342643cb90fd15d56673dfabe3954aea0bbe08866003015487600401544260405161184093929190614f1a565b60405180910390a3505050506118546138c0565b50565b6060601060008381526020019081526020016000208054806020026020016040519081016040528092919081815260200182805480156118b657602002820191906000526020600020905b8154815260200190600101908083116118a2575b50505050509050919050565b6118ca6139e7565b80600560008473ffffffffffffffffffffffffffffffffffffffff1673ffffffffffffffffffffffffffffffffffffffff16815260200190815260200160002060006101000a81548160ff0219169083151502179055508173ffffffffffffffffffffffffffffffffffffffff167f6bb70bc24cee91214cf034d22050fa7a29d527493327b708fe7dc847cd9be4da8260405161196791906147ba565b60405180910390a25050565b61197b613871565b6000600c60008381526020019081526020016000209050600060116000836006015481526020019081526020016000209050600073ffffffffffffffffffffffffffffffffffffffff168260000160009054906101000a900473ffffffffffffffffffffffffffffffffffffffff1673ffffffffffffffffffffffffffffffffffffffff1603611a37576040517f38fde52b00000000000000000000000000000000000000000000000000000000815260040160405180910390fd5b3373ffffffffffffffffffffffffffffffffffffffff168160020160009054906101000a900473ffffffffffffffffffffffffffffffffffffffff1673ffffffffffffffffffffffffffffffffffffffff1614611ac0576040517f3a161e7700000000000000000000000000000000000000000000000000000000815260040160405180910390fd5b60026009811115611ad457611ad3614118565b5b8260040160009054906101000a900460ff166009811115611af857611af7614118565b5b14611b2f576040517f02039fe000000000000000000000000000000000000000000000000000000000815260040160405180910390fd5b60038260040160006101000a81548160ff02191690836009811115611b5757611b56614118565b5b0217905550827f0ba80f4dba9f04c4b9d3d0d790e86680390e337ef61aa42c8d28338e2e790f1142604051611b8c9190614665565b60405180910390a25050611b9e6138c0565b50565b60088181548110611bb157600080fd5b906000526020600020016000915054906101000a900473ffffffffffffffffffffffffffffffffffffffff1681565b60106020528160005260406000208181548110611bfc57600080fd5b90600052602060002001600091509150505481565b611c19613871565b6000600c600084815260200190815260200160002090506000601160008360060154815260200190815260200160002090503373ffffffffffffffffffffffffffffffffffffffff168160020160009054906101000a900473ffffffffffffffffffffffffffffffffffffffff1673ffffffffffffffffffffffffffffffffffffffff1614611cd4576040517fccb06f5e00000000000000000000000000000000000000000000000000000000815260040160405180910390fd5b60056009811115611ce857611ce7614118565b5b8260040160009054906101000a900460ff166009811115611d0c57611d0b614118565b5b14611d43576040517f4f66018b00000000000000000000000000000000000000000000000000000000815260040160405180910390fd5b60068260040160006101000a81548160ff02191690836009811115611d6b57611d6a614118565b5b0217905550837f47263ecda9ee979e294b3b972426ec18606938a3560942cccc5c74c682f9d29e4285604051611da2929190614f51565b60405180910390a25050611db46138c0565b5050565b611dc0613e25565b600660008373ffffffffffffffffffffffffffffffffffffffff1673ffffffffffffffffffffffffffffffffffffffff168152602001908152602001600020604051806080016040529081600082018054611e1a90614b6d565b80601f0160208091040260200160405190810160405280929190818152602001828054611e4690614b6d565b8015611e935780601f10611e6857610100808354040283529160200191611e93565b820191906000526020600020905b815481529060010190602001808311611e7657829003601f168201915b505050505081526020016001820160009054906101000a900473ffffffffffffffffffffffffffffffffffffffff1673ffffffffffffffffffffffffffffffffffffffff1673ffffffffffffffffffffffffffffffffffffffff168152602001600282015481526020016003820154815250509050919050565b60056020528060005260406000206000915054906101000a900460ff1681565b611f35613e63565b600c6000838152602001908152602001600020604051806101400160405290816000820160009054906101000a900473ffffffffffffffffffffffffffffffffffffffff1673ffffffffffffffffffffffffffffffffffffffff1673ffffffffffffffffffffffffffffffffffffffff1681526020016001820154815260200160028201548152602001600382018054611fce90614b6d565b80601f0160208091040260200160405190810160405280929190818152602001828054611ffa90614b6d565b80156120475780601f1061201c57610100808354040283529160200191612047565b820191906000526020600020905b81548152906001019060200180831161202a57829003601f168201915b505050505081526020016004820160009054906101000a900460ff16600981111561207557612074614118565b5b600981111561208757612086614118565b5b8152602001600582015481526020016006820154815260200160078201548152602001600882015481526020016009820154815250509050919050565b6120cc613871565b6000600c600083815260200190815260200160002090506000600960003373ffffffffffffffffffffffffffffffffffffffff1673ffffffffffffffffffffffffffffffffffffffff16815260200190815260200160002090503373ffffffffffffffffffffffffffffffffffffffff168160010160009054906101000a900473ffffffffffffffffffffffffffffffffffffffff1673ffffffffffffffffffffffffffffffffffffffff16146121af576040517feb18032a00000000000000000000000000000000000000000000000000000000815260040160405180910390fd5b600260098111156121c3576121c2614118565b5b8260040160009054906101000a900460ff1660098111156121e7576121e6614118565b5b1461221e576040517f02039fe000000000000000000000000000000000000000000000000000000000815260040160405180910390fd5b6000600f600085815260200190815260200160002090506000816000015414801561224d575060008160010154145b15612284576040517f9980646a00000000000000000000000000000000000000000000000000000000815260040160405180910390fd5b60008160010154111561229f57806001015483600901819055505b42836007018190555060008160000154111561239a57826008015481600001541015612330576000816000015484600801546122db9190614f81565b905061232a3382600460009054906101000a900473ffffffffffffffffffffffffffffffffffffffff1673ffffffffffffffffffffffffffffffffffffffff166138ca9092919063ffffffff16565b50612399565b6000836008015482600001546123469190614f81565b9050612397333083600460009054906101000a900473ffffffffffffffffffffffffffffffffffffffff1673ffffffffffffffffffffffffffffffffffffffff1661395e909392919063ffffffff16565b505b5b600081600001819055506000816001018190555060008160020181905550837f8423ea5fcc76d0ad679210fb974d3000738079aca8afd159eee4afeca496dde484600801548560090154426040516123f493929190614f1a565b60405180910390a25050506124076138c0565b50565b6060600d60008373ffffffffffffffffffffffffffffffffffffffff1673ffffffffffffffffffffffffffffffffffffffff16815260200190815260200160002080548060200260200160405190810160405280929190818152602001828054801561249557602002820191906000526020600020905b815481526020019060010190808311612481575b50505050509050919050565b6124a96139e7565b6124b36000613a65565b565b60096020528060005260406000206000915090508060000180546124d890614b6d565b80601f016020809104026020016040519081016040528092919081815260200182805461250490614b6d565b80156125515780601f1061252657610100808354040283529160200191612551565b820191906000526020600020905b81548152906001019060200180831161253457829003601f168201915b5050505050908060010160009054906101000a900473ffffffffffffffffffffffffffffffffffffffff16908060020154908060030154905084565b612595613871565b6000600c60008681526020019081526020016000209050600060116000836006015481526020019081526020016000209050600073ffffffffffffffffffffffffffffffffffffffff168260000160009054906101000a900473ffffffffffffffffffffffffffffffffffffffff1673ffffffffffffffffffffffffffffffffffffffff1603612651576040517f38fde52b00000000000000000000000000000000000000000000000000000000815260040160405180910390fd5b6002600981111561266557612664614118565b5b8260040160009054906101000a900460ff16600981111561268957612688614118565b5b146126c0576040517f02039fe000000000000000000000000000000000000000000000000000000000815260040160405180910390fd5b3373ffffffffffffffffffffffffffffffffffffffff168160020160009054906101000a900473ffffffffffffffffffffffffffffffffffffffff1673ffffffffffffffffffffffffffffffffffffffff1614612749576040517f8d0cecdd00000000000000000000000000000000000000000000000000000000815260040160405180910390fd5b8160010154841115612787576040517fba74cad300000000000000000000000000000000000000000000000000000000815260040160405180910390fd5b81600201548511156127c5576040517ff8f0715a00000000000000000000000000000000000000000000000000000000815260040160405180910390fd5b604051806080016040528085815260200186815260200142815260200184815250600f6000888152602001908152602001600020600082015181600001556020820151816001015560408201518160020155606082015181600301908161282c9190614e0a565b50905050857f0ba5d9309e4ae279f85512e847a064efdc07b707b95c20a88098ff6eeefd431f85874260405161286493929190614f1a565b60405180910390a250506128766138c0565b50505050565b612884613871565b6000600c600084815260200190815260200160002090503373ffffffffffffffffffffffffffffffffffffffff168160000160009054906101000a900473ffffffffffffffffffffffffffffffffffffffff1673ffffffffffffffffffffffffffffffffffffffff1614612924576040517f2061d3d400000000000000000000000000000000000000000000000000000000815260040160405180910390fd5b6003600981111561293857612937614118565b5b8160040160009054906101000a900460ff16600981111561295c5761295b614118565b5b14612993576040517f87092a6800000000000000000000000000000000000000000000000000000000815260040160405180910390fd5b60058160040160006101000a81548160ff021916908360098111156129bb576129ba614118565b5b0217905550827f941dbf0237c4ff970e962d9c3fde1a2003d5076dfde4c0deeada6393cdde60b242846040516129f2929190614f51565b60405180910390a250612a036138c0565b5050565b6000600160009054906101000a900473ffffffffffffffffffffffffffffffffffffffff16905090565b612a39613871565b600781604051612a499190614bda565b908152602001604051809103902060009054906101000a900460ff1615612a9c576040517f430f177600000000000000000000000000000000000000000000000000000000815260040160405180910390fd5b6001600782604051612aae9190614bda565b908152602001604051809103902060006101000a81548160ff021916908315150217905550600060405180608001604052808381526020013373ffffffffffffffffffffffffffffffffffffffff168152602001428152602001600081525090506008339080600181540180825580915050600190039060005260206000200160009091909190916101000a81548173ffffffffffffffffffffffffffffffffffffffff021916908373ffffffffffffffffffffffffffffffffffffffff16021790555080600660003373ffffffffffffffffffffffffffffffffffffffff1673ffffffffffffffffffffffffffffffffffffffff1681526020019081526020016000206000820151816000019081612bc79190614e0a565b5060208201518160010160006101000a81548173ffffffffffffffffffffffffffffffffffffffff021916908373ffffffffffffffffffffffffffffffffffffffff16021790555060408201518160020155606082015181600301559050503373ffffffffffffffffffffffffffffffffffffffff167fb2bc7d962e634836b6f2383ee5f842b8829c7771d414c3f8862c577f4730a3e883604051612c6c9190614fb5565b60405180910390a250612c7d6138c0565b50565b612c88613871565b6000600c6000848152602001908152602001600020905060001515600560003373ffffffffffffffffffffffffffffffffffffffff1673ffffffffffffffffffffffffffffffffffffffff16815260200190815260200160002060009054906101000a900460ff16151503612d29576040517f75f4ce8800000000000000000000000000000000000000000000000000000000815260040160405180910390fd5b60066009811115612d3d57612d3c614118565b5b8160040160009054906101000a900460ff166009811115612d6157612d60614118565b5b14612d98576040517f4f66018b00000000000000000000000000000000000000000000000000000000815260040160405180910390fd5b612e0d8160000160009054906101000a900473ffffffffffffffffffffffffffffffffffffffff168260080154600460009054906101000a900473ffffffffffffffffffffffffffffffffffffffff1673ffffffffffffffffffffffffffffffffffffffff166138ca9092919063ffffffff16565b60088160040160006101000a81548160ff02191690836009811115612e3557612e34614118565b5b0217905550827fb00f0ef2c9545d8dfded4cd4bee55b3761b8d5d9d6a8df164995635bfed3c07a42600085604051612e6f93929190614fd7565b60405180910390a250612e806138c0565b5050565b612e8c613ede565b600960008373ffffffffffffffffffffffffffffffffffffffff1673ffffffffffffffffffffffffffffffffffffffff168152602001908152602001600020604051806080016040529081600082018054612ee690614b6d565b80601f0160208091040260200160405190810160405280929190818152602001828054612f1290614b6d565b8015612f5f5780601f10612f3457610100808354040283529160200191612f5f565b820191906000526020600020905b815481529060010190602001808311612f4257829003601f168201915b505050505081526020016001820160009054906101000a900473ffffffffffffffffffffffffffffffffffffffff1673ffffffffffffffffffffffffffffffffffffffff1673ffffffffffffffffffffffffffffffffffffffff168152602001600282015481526020016003820154815250509050919050565b612fe1613871565b600a81604051612ff19190614bda565b908152602001604051809103902060009054906101000a900460ff1615613044576040517fe3cd3ad400000000000000000000000000000000000000000000000000000000815260040160405180910390fd5b6001600a826040516130569190614bda565b908152602001604051809103902060006101000a81548160ff021916908315150217905550600060405180608001604052808381526020013373ffffffffffffffffffffffffffffffffffffffff16815260200142815260200160008152509050600b339080600181540180825580915050600190039060005260206000200160009091909190916101000a81548173ffffffffffffffffffffffffffffffffffffffff021916908373ffffffffffffffffffffffffffffffffffffffff16021790555080600960003373ffffffffffffffffffffffffffffffffffffffff1673ffffffffffffffffffffffffffffffffffffffff168152602001908152602001600020600082015181600001908161316f9190614e0a565b5060208201518160010160006101000a81548173ffffffffffffffffffffffffffffffffffffffff021916908373ffffffffffffffffffffffffffffffffffffffff16021790555060408201518160020155606082015181600301559050503373ffffffffffffffffffffffffffffffffffffffff167f1095d5bb47535aabc9770acbcd3f5f182a26902a02d9eaa8b8c1450e71412078836040516132149190614fb5565b60405180910390a2506132256138c0565b50565b600460009054906101000a900473ffffffffffffffffffffffffffffffffffffffff1681565b6132566139e7565b600073ffffffffffffffffffffffffffffffffffffffff168173ffffffffffffffffffffffffffffffffffffffff16036132c5576040517f08c379a00000000000000000000000000000000000000000000000000000000081526004016132bc90615087565b60405180910390fd5b6132ce81613a65565b50565b6132d9613871565b6000600c60008581526020019081526020016000209050600073ffffffffffffffffffffffffffffffffffffffff168160000160009054906101000a900473ffffffffffffffffffffffffffffffffffffffff1673ffffffffffffffffffffffffffffffffffffffff160361337a576040517f38fde52b00000000000000000000000000000000000000000000000000000000815260040160405180910390fd5b6000600981111561338e5761338d614118565b5b8160040160009054906101000a900460ff1660098111156133b2576133b1614118565b5b146133e9576040517f84ab70bb00000000000000000000000000000000000000000000000000000000815260040160405180910390fd5b8060010154831015613427576040517fba74cad300000000000000000000000000000000000000000000000000000000815260040160405180910390fd5b8060020154821115613465576040517ff8f0715a00000000000000000000000000000000000000000000000000000000815260040160405180910390fd5b60006134716003613950565b905060006040518061010001604052808781526020018381526020013373ffffffffffffffffffffffffffffffffffffffff16815260200186815260200185815260200160001515815260200142815260200160008152509050601060008781526020019081526020016000208290806001815401808255809150506001900390600052602060002001600090919091909150558060116000848152602001908152602001600020600082015181600001556020820151816001015560408201518160020160006101000a81548173ffffffffffffffffffffffffffffffffffffffff021916908373ffffffffffffffffffffffffffffffffffffffff160217905550606082015181600301556080820151816004015560a08201518160050160006101000a81548160ff02191690831515021790555060c0820151816006015560e082015181600701559050503373ffffffffffffffffffffffffffffffffffffffff16867f35a5422db59a8240104ba9a73e22ab1f401b3e478d570724a447b81f3c916d8e87876040516136089291906150a7565b60405180910390a350505061361b6138c0565b505050565b600d602052816000526040600020818154811061363c57600080fd5b90600052602060002001600091509150505481565b613659613871565b6000600c6000848152602001908152602001600020905060001515600560003373ffffffffffffffffffffffffffffffffffffffff1673ffffffffffffffffffffffffffffffffffffffff16815260200190815260200160002060009054906101000a900460ff161515036136fa576040517f75f4ce8800000000000000000000000000000000000000000000000000000000815260040160405180910390fd5b6006600981111561370e5761370d614118565b5b8160040160009054906101000a900460ff16600981111561373257613731614118565b5b14613769576040517f4f66018b00000000000000000000000000000000000000000000000000000000815260040160405180910390fd5b6000601160008360060154815260200190815260200160002090506137f98160020160009054906101000a900473ffffffffffffffffffffffffffffffffffffffff168360080154600460009054906101000a900473ffffffffffffffffffffffffffffffffffffffff1673ffffffffffffffffffffffffffffffffffffffff166138ca9092919063ffffffff16565b60088260040160006101000a81548160ff0219169083600981111561382157613820614118565b5b0217905550837fb00f0ef2c9545d8dfded4cd4bee55b3761b8d5d9d6a8df164995635bfed3c07a4260018660405161385b93929190614fd7565b60405180910390a2505061386d6138c0565b5050565b6002600054036138b6576040517f08c379a00000000000000000000000000000000000000000000000000000000081526004016138ad9061511c565b60405180910390fd5b6002600081905550565b6001600081905550565b61394b8363a9059cbb60e01b84846040516024016138e992919061513c565b604051602081830303815290604052907bffffffffffffffffffffffffffffffffffffffffffffffffffffffff19166020820180517bffffffffffffffffffffffffffffffffffffffffffffffffffffffff8381831617835250505050613b2b565b505050565b600081600001549050919050565b6139e1846323b872dd60e01b85858560405160240161397f93929190615165565b604051602081830303815290604052907bffffffffffffffffffffffffffffffffffffffffffffffffffffffff19166020820180517bffffffffffffffffffffffffffffffffffffffffffffffffffffffff8381831617835250505050613b2b565b50505050565b6139ef613bf3565b73ffffffffffffffffffffffffffffffffffffffff16613a0d612a07565b73ffffffffffffffffffffffffffffffffffffffff1614613a63576040517f08c379a0000000000000000000000000000000000000000000000000000000008152600401613a5a906151e8565b60405180910390fd5b565b6000600160009054906101000a900473ffffffffffffffffffffffffffffffffffffffff16905081600160006101000a81548173ffffffffffffffffffffffffffffffffffffffff021916908373ffffffffffffffffffffffffffffffffffffffff1602179055508173ffffffffffffffffffffffffffffffffffffffff168173ffffffffffffffffffffffffffffffffffffffff167f8be0079c531659141344cd1fd0a4f28419497f9722a3daafe3b4186f6b6457e060405160405180910390a35050565b6000613b8d826040518060400160405280602081526020017f5361666545524332303a206c6f772d6c6576656c2063616c6c206661696c65648152508573ffffffffffffffffffffffffffffffffffffffff16613bfb9092919063ffffffff16565b9050600081511480613baf575080806020019051810190613bae919061521d565b5b613bee576040517f08c379a0000000000000000000000000000000000000000000000000000000008152600401613be5906152bc565b60405180910390fd5b505050565b600033905090565b6060613c0a8484600085613c13565b90509392505050565b606082471015613c58576040517f08c379a0000000000000000000000000000000000000000000000000000000008152600401613c4f9061534e565b60405180910390fd5b6000808673ffffffffffffffffffffffffffffffffffffffff168587604051613c8191906153b5565b60006040518083038185875af1925050503d8060008114613cbe576040519150601f19603f3d011682016040523d82523d6000602084013e613cc3565b606091505b5091509150613cd487838387613ce0565b92505050949350505050565b60608315613d42576000835103613d3a57613cfa85613d55565b613d39576040517f08c379a0000000000000000000000000000000000000000000000000000000008152600401613d3090615418565b60405180910390fd5b5b829050613d4d565b613d4c8383613d78565b5b949350505050565b6000808273ffffffffffffffffffffffffffffffffffffffff163b119050919050565b600082511115613d8b5781518083602001fd5b806040517f08c379a0000000000000000000000000000000000000000000000000000000008152600401613dbf9190614fb5565b60405180910390fd5b6040518061010001604052806000815260200160008152602001600073ffffffffffffffffffffffffffffffffffffffff168152602001600081526020016000815260200160001515815260200160008152602001600081525090565b604051806080016040528060608152602001600073ffffffffffffffffffffffffffffffffffffffff16815260200160008152602001600081525090565b604051806101400160405280600073ffffffffffffffffffffffffffffffffffffffff16815260200160008152602001600081526020016060815260200160006009811115613eb557613eb4614118565b5b815260200160008152602001600081526020016000815260200160008152602001600081525090565b604051806080016040528060608152602001600073ffffffffffffffffffffffffffffffffffffffff16815260200160008152602001600081525090565b6000604051905090565b600080fd5b600080fd5b6000819050919050565b613f4381613f30565b8114613f4e57600080fd5b50565b600081359050613f6081613f3a565b92915050565b600060208284031215613f7c57613f7b613f26565b5b6000613f8a84828501613f51565b91505092915050565b600073ffffffffffffffffffffffffffffffffffffffff82169050919050565b6000613fbe82613f93565b9050919050565b613fce81613fb3565b8114613fd957600080fd5b50565b600081359050613feb81613fc5565b92915050565b60006020828403121561400757614006613f26565b5b600061401584828501613fdc565b91505092915050565b600081519050919050565b600082825260208201905092915050565b60005b8381101561405857808201518184015260208101905061403d565b60008484015250505050565b6000601f19601f8301169050919050565b60006140808261401e565b61408a8185614029565b935061409a81856020860161403a565b6140a381614064565b840191505092915050565b6140b781613fb3565b82525050565b6140c681613f30565b82525050565b600060808201905081810360008301526140e68187614075565b90506140f560208301866140ae565b61410260408301856140bd565b61410f60608301846140bd565b95945050505050565b7f4e487b7100000000000000000000000000000000000000000000000000000000600052602160045260246000fd5b600a811061415857614157614118565b5b50565b600081905061416982614147565b919050565b60006141798261415b565b9050919050565b6141898161416e565b82525050565b6000610140820190506141a5600083018d6140ae565b6141b2602083018c6140bd565b6141bf604083018b6140bd565b81810360608301526141d1818a614075565b90506141e06080830189614180565b6141ed60a08301886140bd565b6141fa60c08301876140bd565b61420760e08301866140bd565b6142156101008301856140bd565b6142236101208301846140bd565b9b9a5050505050505050505050565b61423b81613f30565b82525050565b61424a81613fb3565b82525050565b60008115159050919050565b61426581614250565b82525050565b610100820160008201516142826000850182614232565b5060208201516142956020850182614232565b5060408201516142a86040850182614241565b5060608201516142bb6060850182614232565b5060808201516142ce6080850182614232565b5060a08201516142e160a085018261425c565b5060c08201516142f460c0850182614232565b5060e082015161430760e0850182614232565b50505050565b600061010082019050614323600083018461426b565b92915050565b600080fd5b600080fd5b7f4e487b7100000000000000000000000000000000000000000000000000000000600052604160045260246000fd5b61436b82614064565b810181811067ffffffffffffffff8211171561438a57614389614333565b5b80604052505050565b600061439d613f1c565b90506143a98282614362565b919050565b600067ffffffffffffffff8211156143c9576143c8614333565b5b6143d282614064565b9050602081019050919050565b82818337600083830152505050565b60006144016143fc846143ae565b614393565b90508281526020810184848401111561441d5761441c61432e565b5b6144288482856143df565b509392505050565b600082601f83011261444557614444614329565b5b81356144558482602086016143ee565b91505092915050565b60008060006060848603121561447757614476613f26565b5b600061448586828701613f51565b935050602061449686828701613f51565b925050604084013567ffffffffffffffff8111156144b7576144b6613f2b565b5b6144c386828701614430565b9150509250925092565b600081519050919050565b600082825260208201905092915050565b6000819050602082019050919050565b60006145058383614232565b60208301905092915050565b6000602082019050919050565b6000614529826144cd565b61453381856144d8565b935061453e836144e9565b8060005b8381101561456f57815161455688826144f9565b975061456183614511565b925050600181019050614542565b5085935050505092915050565b60006020820190508181036000830152614596818461451e565b905092915050565b6145a781614250565b81146145b257600080fd5b50565b6000813590506145c48161459e565b92915050565b600080604083850312156145e1576145e0613f26565b5b60006145ef85828601613fdc565b9250506020614600858286016145b5565b9150509250929050565b600060208201905061461f60008301846140ae565b92915050565b6000806040838503121561463c5761463b613f26565b5b600061464a85828601613f51565b925050602061465b85828601613f51565b9150509250929050565b600060208201905061467a60008301846140bd565b92915050565b6000806040838503121561469757614696613f26565b5b60006146a585828601613f51565b925050602083013567ffffffffffffffff8111156146c6576146c5613f2b565b5b6146d285828601614430565b9150509250929050565b600082825260208201905092915050565b60006146f88261401e565b61470281856146dc565b935061471281856020860161403a565b61471b81614064565b840191505092915050565b6000608083016000830151848203600086015261474382826146ed565b91505060208301516147586020860182614241565b50604083015161476b6040860182614232565b50606083015161477e6060860182614232565b508091505092915050565b600060208201905081810360008301526147a38184614726565b905092915050565b6147b481614250565b82525050565b60006020820190506147cf60008301846147ab565b92915050565b6147de8161416e565b82525050565b6000610140830160008301516147fd6000860182614241565b5060208301516148106020860182614232565b5060408301516148236040860182614232565b506060830151848203606086015261483b82826146ed565b915050608083015161485060808601826147d5565b5060a083015161486360a0860182614232565b5060c083015161487660c0860182614232565b5060e083015161488960e0860182614232565b5061010083015161489e610100860182614232565b506101208301516148b3610120860182614232565b508091505092915050565b600060208201905081810360008301526148d881846147e4565b905092915050565b600080600080608085870312156148fa576148f9613f26565b5b600061490887828801613f51565b945050602061491987828801613f51565b935050604061492a87828801613f51565b925050606085013567ffffffffffffffff81111561494b5761494a613f2b565b5b61495787828801614430565b91505092959194509250565b60006020828403121561497957614978613f26565b5b600082013567ffffffffffffffff81111561499757614996613f2b565b5b6149a384828501614430565b91505092915050565b600060808301600083015184820360008601526149c982826146ed565b91505060208301516149de6020860182614241565b5060408301516149f16040860182614232565b506060830151614a046060860182614232565b508091505092915050565b60006020820190508181036000830152614a2981846149ac565b905092915050565b6000819050919050565b6000614a56614a51614a4c84613f93565b614a31565b613f93565b9050919050565b6000614a6882614a3b565b9050919050565b6000614a7a82614a5d565b9050919050565b614a8a81614a6f565b82525050565b6000602082019050614aa56000830184614a81565b92915050565b600080600060608486031215614ac457614ac3613f26565b5b6000614ad286828701613f51565b9350506020614ae386828701613f51565b9250506040614af486828701613f51565b9150509250925092565b60008060408385031215614b1557614b14613f26565b5b6000614b2385828601613fdc565b9250506020614b3485828601613f51565b9150509250929050565b7f4e487b7100000000000000000000000000000000000000000000000000000000600052602260045260246000fd5b60006002820490506001821680614b8557607f821691505b602082108103614b9857614b97614b3e565b5b50919050565b600081905092915050565b6000614bb48261401e565b614bbe8185614b9e565b9350614bce81856020860161403a565b80840191505092915050565b6000614be68284614ba9565b915081905092915050565b7f4e487b7100000000000000000000000000000000000000000000000000000000600052601160045260246000fd5b6000614c2b82613f30565b91507fffffffffffffffffffffffffffffffffffffffffffffffffffffffffffffffff8203614c5d57614c5c614bf1565b5b600182019050919050565b60008190508160005260206000209050919050565b60006020601f8301049050919050565b600082821b905092915050565b600060088302614cca7fffffffffffffffffffffffffffffffffffffffffffffffffffffffffffffffff82614c8d565b614cd48683614c8d565b95508019841693508086168417925050509392505050565b6000614d07614d02614cfd84613f30565b614a31565b613f30565b9050919050565b6000819050919050565b614d2183614cec565b614d35614d2d82614d0e565b848454614c9a565b825550505050565b600090565b614d4a614d3d565b614d55818484614d18565b505050565b5b81811015614d7957614d6e600082614d42565b600181019050614d5b565b5050565b601f821115614dbe57614d8f81614c68565b614d9884614c7d565b81016020851015614da7578190505b614dbb614db385614c7d565b830182614d5a565b50505b505050565b600082821c905092915050565b6000614de160001984600802614dc3565b1980831691505092915050565b6000614dfa8383614dd0565b9150826002028217905092915050565b614e138261401e565b67ffffffffffffffff811115614e2c57614e2b614333565b5b614e368254614b6d565b614e41828285614d7d565b600060209050601f831160018114614e745760008415614e62578287015190505b614e6c8582614dee565b865550614ed4565b601f198416614e8286614c68565b60005b82811015614eaa57848901518255600182019150602085019450602081019050614e85565b86831015614ec75784890151614ec3601f891682614dd0565b8355505b6001600288020188555050505b505050505050565b6000606082019050614ef160008301866140bd565b614efe60208301856140bd565b8181036040830152614f108184614075565b9050949350505050565b6000606082019050614f2f60008301866140bd565b614f3c60208301856140bd565b614f4960408301846140bd565b949350505050565b6000604082019050614f6660008301856140bd565b8181036020830152614f788184614075565b90509392505050565b6000614f8c82613f30565b9150614f9783613f30565b9250828203905081811115614faf57614fae614bf1565b5b92915050565b60006020820190508181036000830152614fcf8184614075565b905092915050565b6000606082019050614fec60008301866140bd565b614ff960208301856147ab565b818103604083015261500b8184614075565b9050949350505050565b7f4f776e61626c653a206e6577206f776e657220697320746865207a65726f206160008201527f6464726573730000000000000000000000000000000000000000000000000000602082015250565b6000615071602683614029565b915061507c82615015565b604082019050919050565b600060208201905081810360008301526150a081615064565b9050919050565b60006040820190506150bc60008301856140bd565b6150c960208301846140bd565b9392505050565b7f5265656e7472616e637947756172643a207265656e7472616e742063616c6c00600082015250565b6000615106601f83614029565b9150615111826150d0565b602082019050919050565b60006020820190508181036000830152615135816150f9565b9050919050565b600060408201905061515160008301856140ae565b61515e60208301846140bd565b9392505050565b600060608201905061517a60008301866140ae565b61518760208301856140ae565b61519460408301846140bd565b949350505050565b7f4f776e61626c653a2063616c6c6572206973206e6f7420746865206f776e6572600082015250565b60006151d2602083614029565b91506151dd8261519c565b602082019050919050565b60006020820190508181036000830152615201816151c5565b9050919050565b6000815190506152178161459e565b92915050565b60006020828403121561523357615232613f26565b5b600061524184828501615208565b91505092915050565b7f5361666545524332303a204552433230206f7065726174696f6e20646964206e60008201527f6f74207375636365656400000000000000000000000000000000000000000000602082015250565b60006152a6602a83614029565b91506152b18261524a565b604082019050919050565b600060208201905081810360008301526152d581615299565b9050919050565b7f416464726573733a20696e73756666696369656e742062616c616e636520666f60008201527f722063616c6c0000000000000000000000000000000000000000000000000000602082015250565b6000615338602683614029565b9150615343826152dc565b604082019050919050565b600060208201905081810360008301526153678161532b565b9050919050565b600081519050919050565b600081905092915050565b600061538f8261536e565b6153998185615379565b93506153a981856020860161403a565b80840191505092915050565b60006153c18284615384565b915081905092915050565b7f416464726573733a2063616c6c20746f206e6f6e2d636f6e7472616374000000600082015250565b6000615402601d83614029565b915061540d826153cc565b602082019050919050565b60006020820190508181036000830152615431816153f5565b905091905056fea26469706673582212205c1d285dc49ed6698ff29b44583babe0bb8029c16c44071193a1a73622bd329764736f6c63430008120033",
  "linkReferences": {},
  "deployedLinkReferences": {}
}