{
  "_format": "hh-sol-artifact-1",
  "contractName": "ControllerFull",
  "sourceName": "contracts/ControllerFull.sol",
  "abi": [
    {
      "inputs": [
        {
          "internalType": "address payable",
          "name": "_depositToken",
          "type": "address"
        }
      ],
      "stateMutability": "nonpayable",
      "type": "constructor"
    },
    {
      "inputs": [],
      "name": "BidDoesNotBelongToProject",
      "type": "error"
    },
    {
      "inputs": [],
      "name": "BidsAreClosed",
      "type": "error"
    },
    {
      "inputs": [],
      "name": "ClientAlreadyExists",
      "type": "error"
    },
    {
      "inputs": [],
      "name": "EtherNotAccepted",
      "type": "error"
    },
    {
      "inputs": [],
      "name": "OnlyAdminCanResolveDispute",
      "type": "error"
    },
    {
      "inputs": [],
      "name": "OnlyProjectOwnerCanAcceptBids",
      "type": "error"
    },
    {
      "inputs": [],
      "name": "OnlyProjectOwnerCanAcceptDelivery",
      "type": "error"
    },
    {
      "inputs": [],
      "name": "OnlyProjectOwnerCanDenyDelivery",
      "type": "error"
    },
    {
      "inputs": [],
      "name": "OnlyProjectOwnerCanProcessExtension",
      "type": "error"
    },
    {
      "inputs": [],
      "name": "OnlyWorkerCanOpenDispute",
      "type": "error"
    },
    {
      "inputs": [],
      "name": "OnlyWorkerCanProposeExtension",
      "type": "error"
    },
    {
      "inputs": [],
      "name": "OnlyWorkerCanRequestDelivery",
      "type": "error"
    },
    {
      "inputs": [],
      "name": "OnlyWorkerCanStartProject",
      "type": "error"
    },
    {
      "inputs": [],
      "name": "ProjectAlreadyExists",
      "type": "error"
    },
    {
      "inputs": [],
      "name": "ProjectDoesNotExist",
      "type": "error"
    },
    {
      "inputs": [],
      "name": "ProjectNotInDeliveryProposed",
      "type": "error"
    },
    {
      "inputs": [],
      "name": "ProjectNotInDispute",
      "type": "error"
    },
    {
      "inputs": [],
      "name": "ProjectNotOpenToBids",
      "type": "error"
    },
    {
      "inputs": [],
      "name": "ProjectNotStarted",
      "type": "error"
    },
    {
      "inputs": [],
      "name": "ProposalExtensionDoesNotExist",
      "type": "error"
    },
    {
      "inputs": [],
      "name": "TooHighProposedBudget",
      "type": "error"
    },
    {
      "inputs": [],
      "name": "TooHighProposedDeadline",
      "type": "error"
    },
    {
      "inputs": [],
      "name": "WorkerAlreadyExists",
      "type": "error"
    },
    {
      "anonymous": false,
      "inputs": [
        {
          "indexed": true,
          "internalType": "uint256",
          "name": "projectId",
          "type": "uint256"
        },
        {
          "indexed": false,
          "internalType": "uint256",
          "name": "proposedBudget",
          "type": "uint256"
        },
        {
          "indexed": false,
          "internalType": "uint256",
          "name": "proposedDeadline",
          "type": "uint256"
        },
        {
          "indexed": false,
          "internalType": "uint256",
          "name": "proposedAt",
          "type": "uint256"
        }
      ],
      "name": "AcceptProposedExtension",
      "type": "event"
    },
    {
      "anonymous": false,
      "inputs": [
        {
          "indexed": true,
          "internalType": "address",
          "name": "arbitrator",
          "type": "address"
        },
        {
          "indexed": false,
          "internalType": "bool",
          "name": "status",
          "type": "bool"
        }
      ],
      "name": "ArbitratorStatusChanged",
      "type": "event"
    },
    {
      "anonymous": false,
      "inputs": [
        {
          "indexed": true,
          "internalType": "uint256",
          "name": "projectId",
          "type": "uint256"
        },
        {
          "indexed": true,
          "internalType": "uint256",
          "name": "bidId",
          "type": "uint256"
        },
        {
          "indexed": false,
          "internalType": "uint256",
          "name": "proposedBudget",
          "type": "uint256"
        },
        {
          "indexed": false,
          "internalType": "uint256",
          "name": "proposedDeadline",
          "type": "uint256"
        },
        {
          "indexed": false,
          "internalType": "uint256",
          "name": "acceptedIn",
          "type": "uint256"
        }
      ],
      "name": "BidAccepted",
      "type": "event"
    },
    {
      "anonymous": false,
      "inputs": [
        {
          "indexed": true,
          "internalType": "uint256",
          "name": "projectId",
          "type": "uint256"
        },
        {
          "indexed": true,
          "internalType": "address",
          "name": "worker",
          "type": "address"
        },
        {
          "indexed": false,
          "internalType": "uint256",
          "name": "proposedBudget",
          "type": "uint256"
        },
        {
          "indexed": false,
          "internalType": "uint256",
          "name": "proposedDeadline",
          "type": "uint256"
        }
      ],
      "name": "BidToProject",
      "type": "event"
    },
    {
      "anonymous": false,
      "inputs": [
        {
          "indexed": true,
          "internalType": "address",
          "name": "clientAddress",
          "type": "address"
        },
        {
          "indexed": false,
          "internalType": "string",
          "name": "name",
          "type": "string"
        }
      ],
      "name": "ClientRegistered",
      "type": "event"
    },
    {
      "anonymous": false,
      "inputs": [
        {
          "indexed": true,
          "internalType": "uint256",
          "name": "projectId",
          "type": "uint256"
        },
        {
          "indexed": false,
          "internalType": "uint256",
          "name": "acceptedAt",
          "type": "uint256"
        }
      ],
      "name": "DeliveryAccepted",
      "type": "event"
    },
    {
      "anonymous": false,
      "inputs": [
        {
          "indexed": true,
          "internalType": "uint256",
          "name": "projectId",
          "type": "uint256"
        },
        {
          "indexed": false,
          "internalType": "uint256",
          "name": "requestedAt",
          "type": "uint256"
        }
      ],
      "name": "DeliveryProposed",
      "type": "event"
    },
    {
      "anonymous": false,
      "inputs": [
        {
          "indexed": true,
          "internalType": "uint256",
          "name": "projectId",
          "type": "uint256"
        },
        {
          "indexed": false,
          "internalType": "uint256",
          "name": "acceptedAt",
          "type": "uint256"
        },
        {
          "indexed": false,
          "internalType": "string",
          "name": "reason",
          "type": "string"
        }
      ],
      "name": "DeliveryRejected",
      "type": "event"
    },
    {
      "anonymous": false,
      "inputs": [
        {
          "indexed": true,
          "internalType": "uint256",
          "name": "projectId",
          "type": "uint256"
        },
        {
          "indexed": false,
          "internalType": "uint256",
          "name": "openedAt",
          "type": "uint256"
        },
        {
          "indexed": false,
          "internalType": "string",
          "name": "reason",
          "type": "string"
        }
      ],
      "name": "DisputeOpened",
      "type": "event"
    },
    {
      "anonymous": false,
      "inputs": [
        {
          "indexed": true,
          "internalType": "uint256",
          "name": "projectId",
          "type": "uint256"
        },
        {
          "indexed": false,
          "internalType": "uint256",
          "name": "resolvedAt",
          "type": "uint256"
        },
        {
          "indexed": false,
          "internalType": "bool",
          "name": "inWorkersFavor",
          "type": "bool"
        },
        {
          "indexed": false,
          "internalType": "string",
          "name": "reason",
          "type": "string"
        }
      ],
      "name": "DisputeResolved",
      "type": "event"
    },
    {
      "anonymous": false,
      "inputs": [
        {
          "indexed": true,
          "internalType": "address",
          "name": "previousOwner",
          "type": "address"
        },
        {
          "indexed": true,
          "internalType": "address",
          "name": "newOwner",
          "type": "address"
        }
      ],
      "name": "OwnershipTransferred",
      "type": "event"
    },
    {
      "anonymous": false,
      "inputs": [
        {
          "indexed": true,
          "internalType": "address",
          "name": "clientAddress",
          "type": "address"
        },
        {
          "indexed": true,
          "internalType": "uint256",
          "name": "projectId",
          "type": "uint256"
        },
        {
          "indexed": false,
          "internalType": "uint256",
          "name": "maxAcceptableAmount",
          "type": "uint256"
        },
        {
          "indexed": false,
          "internalType": "uint256",
          "name": "maxAcceptableDeadline",
          "type": "uint256"
        },
        {
          "indexed": false,
          "internalType": "string",
          "name": "description",
          "type": "string"
        }
      ],
      "name": "ProjectCreated",
      "type": "event"
    },
    {
      "anonymous": false,
      "inputs": [
        {
          "indexed": true,
          "internalType": "uint256",
          "name": "projectId",
          "type": "uint256"
        },
        {
          "indexed": false,
          "internalType": "uint256",
          "name": "startedAt",
          "type": "uint256"
        }
      ],
      "name": "ProjectStarted",
      "type": "event"
    },
    {
      "anonymous": false,
      "inputs": [
        {
          "indexed": true,
          "internalType": "uint256",
          "name": "projectId",
          "type": "uint256"
        },
        {
          "indexed": false,
          "internalType": "uint256",
          "name": "proposedBudget",
          "type": "uint256"
        },
        {
          "indexed": false,
          "internalType": "uint256",
          "name": "proposedDeadline",
          "type": "uint256"
        },
        {
          "indexed": false,
          "internalType": "uint256",
          "name": "proposedAt",
          "type": "uint256"
        }
      ],
      "name": "ProposalExtension",
      "type": "event"
    },
    {
      "anonymous": false,
      "inputs": [
        {
          "indexed": true,
          "internalType": "address",
          "name": "worker",
          "type": "address"
        },
        {
          "indexed": false,
          "internalType": "string",
          "name": "name",
          "type": "string"
        }
      ],
      "name": "WorkerRegistered",
      "type": "event"
    },
    {
      "stateMutability": "payable",
      "type": "fallback"
    },
    {
      "inputs": [
        {
          "internalType": "uint256",
          "name": "bidId",
          "type": "uint256"
        }
      ],
      "name": "acceptBid",
      "outputs": [],
      "stateMutability": "nonpayable",
      "type": "function"
    },
    {
      "inputs": [
        {
          "internalType": "uint256",
          "name": "projectId",
          "type": "uint256"
        }
      ],
      "name": "acceptDeliveryAndPay",
      "outputs": [],
      "stateMutability": "nonpayable",
      "type": "function"
    },
    {
      "inputs": [
        {
          "internalType": "uint256",
          "name": "projectId",
          "type": "uint256"
        }
      ],
      "name": "acceptProposal",
      "outputs": [],
      "stateMutability": "nonpayable",
      "type": "function"
    },
    {
      "inputs": [
        {
          "internalType": "address",
          "name": "",
          "type": "address"
        }
      ],
      "name": "arbitrators",
      "outputs": [
        {
          "internalType": "bool",
          "name": "",
          "type": "bool"
        }
      ],
      "stateMutability": "view",
      "type": "function"
    },
    {
      "inputs": [
        {
          "internalType": "uint256",
          "name": "projectId",
          "type": "uint256"
        },
        {
          "internalType": "uint256",
          "name": "proposedBudget",
          "type": "uint256"
        },
        {
          "internalType": "uint256",
          "name": "proposedDeadline",
          "type": "uint256"
        }
      ],
      "name": "bidToProject",
      "outputs": [],
      "stateMutability": "nonpayable",
      "type": "function"
    },
    {
      "inputs": [
        {
          "internalType": "uint256",
          "name": "",
          "type": "uint256"
        },
        {
          "internalType": "uint256",
          "name": "",
          "type": "uint256"
        }
      ],
      "name": "bidsByProjectId",
      "outputs": [
        {
          "internalType": "uint256",
          "name": "",
          "type": "uint256"
        }
      ],
      "stateMutability": "view",
      "type": "function"
    },
    {
      "inputs": [
        {
          "internalType": "address",
          "name": "",
          "type": "address"
        }
      ],
      "name": "clientInfo",
      "outputs": [
        {
          "internalType": "string",
          "name": "name",
          "type": "string"
        },
        {
          "internalType": "address",
          "name": "clientAddress",
          "type": "address"
        },
        {
          "internalType": "uint256",
          "name": "since",
          "type": "uint256"
        },
        {
          "internalType": "uint256",
          "name": "projectsCount",
          "type": "uint256"
        }
      ],
      "stateMutability": "view",
      "type": "function"
    },
    {
      "inputs": [
        {
          "internalType": "uint256",
          "name": "_maxAcceptableAmount",
          "type": "uint256"
        },
        {
          "internalType": "uint256",
          "name": "_maxAcceptableDeadline",
          "type": "uint256"
        },
        {
          "internalType": "string",
          "name": "_description",
          "type": "string"
        }
      ],
      "name": "createProject",
      "outputs": [],
      "stateMutability": "nonpayable",
      "type": "function"
    },
    {
      "inputs": [
        {
          "internalType": "uint256",
          "name": "projectId",
          "type": "uint256"
        },
        {
          "internalType": "string",
          "name": "reason",
          "type": "string"
        }
      ],
      "name": "declineDelivery",
      "outputs": [],
      "stateMutability": "nonpayable",
      "type": "function"
    },
    {
      "inputs": [],
      "name": "depositToken",
      "outputs": [
        {
          "internalType": "contract IERC20",
          "name": "",
          "type": "address"
        }
      ],
      "stateMutability": "view",
      "type": "function"
    },
    {
      "inputs": [
        {
          "internalType": "uint256",
          "name": "projectId",
          "type": "uint256"
        }
      ],
      "name": "getAcceptedBidInfo",
      "outputs": [
        {
          "components": [
            {
              "internalType": "uint256",
              "name": "projectId",
              "type": "uint256"
            },
            {
              "internalType": "uint256",
              "name": "bidId",
              "type": "uint256"
            },
            {
              "internalType": "address",
              "name": "worker",
              "type": "address"
            },
            {
              "internalType": "uint256",
              "name": "proposedBudget",
              "type": "uint256"
            },
            {
              "internalType": "uint256",
              "name": "proposedDeadline",
              "type": "uint256"
            },
            {
              "internalType": "bool",
              "name": "accepted",
              "type": "bool"
            },
            {
              "internalType": "uint256",
              "name": "addedAt",
              "type": "uint256"
            },
            {
              "internalType": "uint256",
              "name": "acceptedAt",
              "type": "uint256"
            }
          ],
          "internalType": "struct ControllerFull.BidInfo",
          "name": "",
          "type": "tuple"
        }
      ],
      "stateMutability": "view",
      "type": "function"
    },
    {
      "inputs": [
        {
          "internalType": "uint256",
          "name": "bidId",
          "type": "uint256"
        }
      ],
      "name": "getBidInfoById",
      "outputs": [
        {
          "components": [
            {
              "internalType": "uint256",
              "name": "projectId",
              "type": "uint256"
            },
            {
              "internalType": "uint256",
              "name": "bidId",
              "type": "uint256"
            },
            {
              "internalType": "address",
              "name": "worker",
              "type": "address"
            },
            {
              "internalType": "uint256",
              "name": "proposedBudget",
              "type": "uint256"
            },
            {
              "internalType": "uint256",
              "name": "proposedDeadline",
              "type": "uint256"
            },
            {
              "internalType": "bool",
              "name": "accepted",
              "type": "bool"
            },
            {
              "internalType": "uint256",
              "name": "addedAt",
              "type": "uint256"
            },
            {
              "internalType": "uint256",
              "name": "acceptedAt",
              "type": "uint256"
            }
          ],
          "internalType": "struct ControllerFull.BidInfo",
          "name": "",
          "type": "tuple"
        }
      ],
      "stateMutability": "view",
      "type": "function"
    },
    {
      "inputs": [
        {
          "internalType": "address",
          "name": "_clientAddress",
          "type": "address"
        }
      ],
      "name": "getClientInfoByAddress",
      "outputs": [
        {
          "components": [
            {
              "internalType": "string",
              "name": "name",
              "type": "string"
            },
            {
              "internalType": "address",
              "name": "clientAddress",
              "type": "address"
            },
            {
              "internalType": "uint256",
              "name": "since",
              "type": "uint256"
            },
            {
              "internalType": "uint256",
              "name": "projectsCount",
              "type": "uint256"
            }
          ],
          "internalType": "struct ControllerFull.ClientInfo",
          "name": "client",
          "type": "tuple"
        }
      ],
      "stateMutability": "view",
      "type": "function"
    },
    {
      "inputs": [
        {
          "internalType": "uint256",
          "name": "projectId",
          "type": "uint256"
        }
      ],
      "name": "getProjectBids",
      "outputs": [
        {
          "internalType": "uint256[]",
          "name": "",
          "type": "uint256[]"
        }
      ],
      "stateMutability": "view",
      "type": "function"
    },
    {
      "inputs": [
        {
          "internalType": "address",
          "name": "owner",
          "type": "address"
        }
      ],
      "name": "getProjectIdsByOwner",
      "outputs": [
        {
          "internalType": "uint256[]",
          "name": "",
          "type": "uint256[]"
        }
      ],
      "stateMutability": "view",
      "type": "function"
    },
    {
      "inputs": [
        {
          "internalType": "uint256",
          "name": "projectId",
          "type": "uint256"
        }
      ],
      "name": "getProjectInfoById",
      "outputs": [
        {
          "components": [
            {
              "internalType": "address",
              "name": "clientAddress",
              "type": "address"
            },
            {
              "internalType": "uint256",
              "name": "maxAcceptableAmount",
              "type": "uint256"
            },
            {
              "internalType": "uint256",
              "name": "maxAcceptableDeadline",
              "type": "uint256"
            },
            {
              "internalType": "string",
              "name": "description",
              "type": "string"
            },
            {
              "internalType": "enum ControllerFull.ProjectStage",
              "name": "stage",
              "type": "uint8"
            },
            {
              "internalType": "uint256",
              "name": "addedAt",
              "type": "uint256"
            },
            {
              "internalType": "uint256",
              "name": "bidAccepted",
              "type": "uint256"
            },
            {
              "internalType": "uint256",
              "name": "bidAcceptedAt",
              "type": "uint256"
            },
            {
              "internalType": "uint256",
              "name": "bidAcceptedAmount",
              "type": "uint256"
            },
            {
              "internalType": "uint256",
              "name": "bidAcceptedDeadline",
              "type": "uint256"
            }
          ],
          "internalType": "struct ControllerFull.ProjectInfo",
          "name": "",
          "type": "tuple"
        }
      ],
      "stateMutability": "view",
      "type": "function"
    },
    {
      "inputs": [
        {
          "internalType": "address",
          "name": "_workerAddress",
          "type": "address"
        }
      ],
      "name": "getWorkerInfoByAddress",
      "outputs": [
        {
          "components": [
            {
              "internalType": "string",
              "name": "name",
              "type": "string"
            },
            {
              "internalType": "address",
              "name": "paymentAddress",
              "type": "address"
            },
            {
              "internalType": "uint256",
              "name": "since",
              "type": "uint256"
            },
            {
              "internalType": "uint256",
              "name": "projectsCount",
              "type": "uint256"
            }
          ],
          "internalType": "struct ControllerFull.WorkerInfo",
          "name": "worker",
          "type": "tuple"
        }
      ],
      "stateMutability": "view",
      "type": "function"
    },
    {
      "inputs": [
        {
          "internalType": "uint256",
          "name": "projectId",
          "type": "uint256"
        },
        {
          "internalType": "string",
          "name": "reason",
          "type": "string"
        }
      ],
      "name": "openDispute",
      "outputs": [],
      "stateMutability": "nonpayable",
      "type": "function"
    },
    {
      "inputs": [],
      "name": "owner",
      "outputs": [
        {
          "internalType": "address",
          "name": "",
          "type": "address"
        }
      ],
      "stateMutability": "view",
      "type": "function"
    },
    {
      "inputs": [
        {
          "internalType": "uint256",
          "name": "",
          "type": "uint256"
        }
      ],
      "name": "projects",
      "outputs": [
        {
          "internalType": "address",
          "name": "clientAddress",
          "type": "address"
        },
        {
          "internalType": "uint256",
          "name": "maxAcceptableAmount",
          "type": "uint256"
        },
        {
          "internalType": "uint256",
          "name": "maxAcceptableDeadline",
          "type": "uint256"
        },
        {
          "internalType": "string",
          "name": "description",
          "type": "string"
        },
        {
          "internalType": "enum ControllerFull.ProjectStage",
          "name": "stage",
          "type": "uint8"
        },
        {
          "internalType": "uint256",
          "name": "addedAt",
          "type": "uint256"
        },
        {
          "internalType": "uint256",
          "name": "bidAccepted",
          "type": "uint256"
        },
        {
          "internalType": "uint256",
          "name": "bidAcceptedAt",
          "type": "uint256"
        },
        {
          "internalType": "uint256",
          "name": "bidAcceptedAmount",
          "type": "uint256"
        },
        {
          "internalType": "uint256",
          "name": "bidAcceptedDeadline",
          "type": "uint256"
        }
      ],
      "stateMutability": "view",
      "type": "function"
    },
    {
      "inputs": [
        {
          "internalType": "address",
          "name": "",
          "type": "address"
        },
        {
          "internalType": "uint256",
          "name": "",
          "type": "uint256"
        }
      ],
      "name": "projectsByOwner",
      "outputs": [
        {
          "internalType": "uint256",
          "name": "",
          "type": "uint256"
        }
      ],
      "stateMutability": "view",
      "type": "function"
    },
    {
      "inputs": [
        {
          "internalType": "uint256",
          "name": "projectId",
          "type": "uint256"
        }
      ],
      "name": "proposeDelivery",
      "outputs": [],
      "stateMutability": "nonpayable",
      "type": "function"
    },
    {
      "inputs": [
        {
          "internalType": "uint256",
          "name": "projectId",
          "type": "uint256"
        },
        {
          "internalType": "uint256",
          "name": "proposedNewDeadLine",
          "type": "uint256"
        },
        {
          "internalType": "uint256",
          "name": "proposedNewBudget",
          "type": "uint256"
        },
        {
          "internalType": "string",
          "name": "reason",
          "type": "string"
        }
      ],
      "name": "proposeExtension",
      "outputs": [],
      "stateMutability": "nonpayable",
      "type": "function"
    },
    {
      "inputs": [
        {
          "internalType": "string",
          "name": "_name",
          "type": "string"
        }
      ],
      "name": "registerAsClient",
      "outputs": [],
      "stateMutability": "nonpayable",
      "type": "function"
    },
    {
      "inputs": [
        {
          "internalType": "string",
          "name": "_name",
          "type": "string"
        }
      ],
      "name": "registerAsWorker",
      "outputs": [],
      "stateMutability": "nonpayable",
      "type": "function"
    },
    {
      "inputs": [],
      "name": "renounceOwnership",
      "outputs": [],
      "stateMutability": "nonpayable",
      "type": "function"
    },
    {
      "inputs": [
        {
          "internalType": "uint256",
          "name": "projectId",
          "type": "uint256"
        },
        {
          "internalType": "string",
          "name": "reason",
          "type": "string"
        }
      ],
      "name": "resolveDisputeInClientFavor",
      "outputs": [],
      "stateMutability": "nonpayable",
      "type": "function"
    },
    {
      "inputs": [
        {
          "internalType": "uint256",
          "name": "projectId",
          "type": "uint256"
        },
        {
          "internalType": "string",
          "name": "reason",
          "type": "string"
        }
      ],
      "name": "resolveDisputeInWorkerFavor",
      "outputs": [],
      "stateMutability": "nonpayable",
      "type": "function"
    },
    {
      "inputs": [
        {
          "internalType": "address",
          "name": "_arbitratorAddress",
          "type": "address"
        },
        {
          "internalType": "bool",
          "name": "_status",
          "type": "bool"
        }
      ],
      "name": "setArbitrator",
      "outputs": [],
      "stateMutability": "nonpayable",
      "type": "function"
    },
    {
      "inputs": [
        {
          "internalType": "uint256",
          "name": "projectId",
          "type": "uint256"
        }
      ],
      "name": "startWork",
      "outputs": [],
      "stateMutability": "nonpayable",
      "type": "function"
    },
    {
      "inputs": [
        {
          "internalType": "address",
          "name": "newOwner",
          "type": "address"
        }
      ],
      "name": "transferOwnership",
      "outputs": [],
      "stateMutability": "nonpayable",
      "type": "function"
    },
    {
      "inputs": [
        {
          "internalType": "uint256",
          "name": "",
          "type": "uint256"
        }
      ],
      "name": "workerByAddress",
      "outputs": [
        {
          "internalType": "address",
          "name": "",
          "type": "address"
        }
      ],
      "stateMutability": "view",
      "type": "function"
    },
    {
      "inputs": [
        {
          "internalType": "address",
          "name": "",
          "type": "address"
        }
      ],
      "name": "workerInfo",
      "outputs": [
        {
          "internalType": "string",
          "name": "name",
          "type": "string"
        },
        {
          "internalType": "address",
          "name": "paymentAddress",
          "type": "address"
        },
        {
          "internalType": "uint256",
          "name": "since",
          "type": "uint256"
        },
        {
          "internalType": "uint256",
          "name": "projectsCount",
          "type": "uint256"
        }
      ],
      "stateMutability": "view",
      "type": "function"
    },
    {
      "stateMutability": "payable",
      "type": "receive"
    }
  ],
  "bytecode": "0x60806040523480156200001157600080fd5b5060405162002fcc38038062002fcc8339810160408190526200003491620000bc565b600160005562000044336200006a565b600480546001600160a01b0319166001600160a01b0392909216919091179055620000ee565b600180546001600160a01b038381166001600160a01b0319831681179093556040519116919082907f8be0079c531659141344cd1fd0a4f28419497f9722a3daafe3b4186f6b6457e090600090a35050565b600060208284031215620000cf57600080fd5b81516001600160a01b0381168114620000e757600080fd5b9392505050565b612ece80620000fe6000396000f3fe6080604052600436106101f25760003560e01c80635f19935c1161010d57806398116e19116100a0578063c89039c51161006f578063c89039c5146106a1578063f2fde38b146106c1578063f3472b3d146106e1578063f482086814610701578063f7e28f8e1461072157610210565b806398116e19146106215780639bd6f1fe14610641578063a17fabb614610661578063b98389b11461068157610210565b8063758dde96116100dc578063758dde96146105a357806387f2b7da146105c3578063892e21bf146105e35780638da5cb5b1461060357610210565b80635f19935c1461052157806360c5cc3a1461054e5780636c4d57431461056e578063715018a61461058e57610210565b80632bb003c31161018557806331537e561161015457806331537e561461046657806336f691c41461049457806344bafb24146104b457806351d0ea37146104e157610210565b80632bb003c3146103c15780632bc0b076146103ee5780632f2a96d31461040e57806330790b651461042e57610210565b80631b7d41eb116101c15780631b7d41eb1461034157806320f7a505146103615780632863db7b146103815780632b1fd58a146103a157610210565b806303a250f9146102295780630a6f05031461024b578063107046bd146102845780631596a5d5146102ba57610210565b3661021057604051630dccd20d60e21b815260040160405180910390fd5b604051630dccd20d60e21b815260040160405180910390fd5b34801561023557600080fd5b5061024961024436600461270d565b610741565b005b34801561025757600080fd5b5061026b610266366004612742565b610871565b60405161027b94939291906127b4565b60405180910390f35b34801561029057600080fd5b506102a461029f36600461270d565b61092d565b60405161027b9a99989796959493929190612824565b3480156102c657600080fd5b506102da6102d536600461270d565b610a15565b60405161027b919081518152602080830151908201526040808301516001600160a01b031690820152606080830151908201526080808301519082015260a08083015115159082015260c0808301519082015260e091820151918101919091526101000190565b34801561034d57600080fd5b5061024961035c36600461270d565b610a99565b34801561036d57600080fd5b5061024961037c366004612933565b610b8b565b34801561038d57600080fd5b506102da61039c36600461270d565b610dd2565b3480156103ad57600080fd5b506102496103bc36600461270d565b610e64565b3480156103cd57600080fd5b506103e16103dc36600461270d565b61101e565b60405161027b9190612983565b3480156103fa57600080fd5b506102496104093660046129d5565b611080565b34801561041a57600080fd5b5061024961042936600461270d565b6110e7565b34801561043a57600080fd5b5061044e61044936600461270d565b6111dd565b6040516001600160a01b03909116815260200161027b565b34801561047257600080fd5b50610486610481366004612a0c565b611207565b60405190815260200161027b565b3480156104a057600080fd5b506102496104af366004612a2e565b611238565b3480156104c057600080fd5b506104d46104cf366004612742565b611321565b60405161027b9190612abc565b3480156104ed57600080fd5b506105116104fc366004612742565b60056020526000908152604090205460ff1681565b604051901515815260200161027b565b34801561052d57600080fd5b5061054161053c36600461270d565b611437565b60405161027b9190612acf565b34801561055a57600080fd5b5061024961056936600461270d565b6115d1565b34801561057a57600080fd5b506103e1610589366004612742565b611797565b34801561059a57600080fd5b50610249611801565b3480156105af57600080fd5b5061026b6105be366004612742565b611815565b3480156105cf57600080fd5b506102496105de366004612b75565b611830565b3480156105ef57600080fd5b506102496105fe366004612a2e565b6119dc565b34801561060f57600080fd5b506001546001600160a01b031661044e565b34801561062d57600080fd5b5061024961063c366004612bcf565b611aab565b34801561064d57600080fd5b5061024961065c366004612a2e565b611c1e565b34801561066d57600080fd5b506104d461067c366004612742565b611d0b565b34801561068d57600080fd5b5061024961069c366004612bcf565b611d71565b3480156106ad57600080fd5b5060045461044e906001600160a01b031681565b3480156106cd57600080fd5b506102496106dc366004612742565b611ed1565b3480156106ed57600080fd5b506102496106fc366004612c04565b611f4c565b34801561070d57600080fd5b5061048661071c366004612c30565b612199565b34801561072d57600080fd5b5061024961073c366004612a2e565b6121b5565b6107496122b8565b6000818152600c6020908152604080832060068101548452601190925290912081546001600160a01b0316610791576040516338fde52b60e01b815260040160405180910390fd5b6001600483015460ff1660098111156107ac576107ac6127ec565b141580156107d357506005600483015460ff1660098111156107d0576107d06127ec565b14155b156107f05760405162101cff60e51b815260040160405180910390fd5b60028101546001600160a01b0316331461081d57604051633ca6df7960e21b815260040160405180910390fd5b60048201805460ff1916600217905560405142815283907f0897c664c72bc8b676678ef3f10a93980aa3f57017782c69072afcea1d1eb0f6906020015b60405180910390a2505061086e6001600055565b50565b60066020526000908152604090208054819061088c90612c5a565b80601f01602080910402602001604051908101604052809291908181526020018280546108b890612c5a565b80156109055780601f106108da57610100808354040283529160200191610905565b820191906000526020600020905b8154815290600101906020018083116108e857829003601f168201915b505050506001830154600284015460039094015492936001600160a01b039091169290915084565b600c6020526000908152604090208054600182015460028301546003840180546001600160a01b0390941694929391929161096790612c5a565b80601f016020809104026020016040519081016040528092919081815260200182805461099390612c5a565b80156109e05780601f106109b5576101008083540402835291602001916109e0565b820191906000526020600020905b8154815290600101906020018083116109c357829003601f168201915b50505060048401546005850154600686015460078701546008880154600990980154969760ff9094169692955090935091908a565b610a1d6126bd565b506000908152601160209081526040918290208251610100810184528154815260018201549281019290925260028101546001600160a01b0316928201929092526003820154606082015260048201546080820152600582015460ff16151560a0820152600682015460c082015260079091015460e082015290565b610aa16122b8565b6000818152600c6020526040902080546001600160a01b03163314610ad9576040516328cecb5b60e01b815260040160405180910390fd5b6003600482015460ff166009811115610af457610af46127ec565b14610b12576040516310e1254d60e31b815260040160405180910390fd5b6004818101805460ff191682179055600682015460009081526011602052604090206002810154600884015492549192610b59926001600160a01b03908116921690612311565b827f9460073959a64ba94729236a882edf6c098a69ac586654e5a50b46351d643c0a4260405161085a91815260200190565b610b936122b8565b336000908152600e6020526040908190209051610bb1908390612c94565b9081526040519081900360200190205460ff1615610be257604051632d8306b960e21b815260040160405180910390fd5b336000908152600e602052604090819020905160019190610c04908490612c94565b908152604051908190036020019020805491151560ff199092169190911790556000610c2f60025490565b336000818152600d6020908152604080832080546001810182559084528284200185905592825260099052908120600301805492935090610c6f83612cc6565b909155505060408051610140810182523381526020808201878152828401878152606084018781526000608086018190524260a087015260c0860181905260e0860181905261010086018190526101208601819052878152600c90945294909220835181546001600160a01b0319166001600160a01b0390911617815590516001820155905160028201559151909182916003820190610d0f9082612d2d565b50608082015160048201805460ff19166001836009811115610d3357610d336127ec565b021790555060a0820151816005015560c0820151816006015560e082015181600701556101008201518160080155610120820151816009015590505081336001600160a01b03167fd8c9df6950e7ea521827d53af272e4b2f29df683b9557003a02d7a0a94f12f5a836020015184604001518560600151604051610db993929190612ded565b60405180910390a35050610dcd6001600055565b505050565b610dda6126bd565b506000908152600c60209081526040808320600690810154845260118352928190208151610100810183528154815260018201549381019390935260028101546001600160a01b0316918301919091526003810154606083015260048101546080830152600581015460ff16151560a08301529182015460c082015260079091015460e082015290565b610e6c6122b8565b600081815260116020908152604080832080548452600c8352818420338086526009855283862060028401546001600160a01b03908116885260069096529390952081549295919490921614610ed5576040516338fde52b60e01b815260040160405180910390fd5b6000600484015460ff166009811115610ef057610ef06127ec565b03610f0d57604051629a264d60e81b815260040160405180910390fd5b60018201546001600160a01b03163314610f3a57604051633556120b60e01b815260040160405180910390fd5b6004830180546001919060ff1916828002179055506006830185905542600780850182905560038087015460088701556004870154600987015560058701805460ff191660011790559086019190915581018054906000610f9a83612cc6565b90915550506003840154600454610fc0916001600160a01b039091169033903090612374565b83546003850154600486015460408051928352602083019190915242908201528691907f26ced84e7fcbbaaebd2c7b4da6342643cb90fd15d56673dfabe3954aea0bbe089060600160405180910390a35050505061086e6001600055565b60008181526010602090815260409182902080548351818402810184019094528084526060939283018282801561107457602002820191906000526020600020905b815481526020019060010190808311611060575b50505050509050919050565b6110886123ac565b6001600160a01b038216600081815260056020908152604091829020805460ff191685151590811790915591519182527f6bb70bc24cee91214cf034d22050fa7a29d527493327b708fe7dc847cd9be4da910160405180910390a25050565b6110ef6122b8565b6000818152600c6020908152604080832060068101548452601190925290912081546001600160a01b0316611137576040516338fde52b60e01b815260040160405180910390fd5b60028101546001600160a01b0316331461116457604051633a161e7760e01b815260040160405180910390fd5b6002600483015460ff16600981111561117f5761117f6127ec565b1461119c5760405162101cff60e51b815260040160405180910390fd5b60048201805460ff1916600317905560405142815283907f0ba80f4dba9f04c4b9d3d0d790e86680390e337ef61aa42c8d28338e2e790f119060200161085a565b600881815481106111ed57600080fd5b6000918252602090912001546001600160a01b0316905081565b6010602052816000526040600020818154811061122357600080fd5b90600052602060002001600091509150505481565b6112406122b8565b6000828152600c6020908152604080832060068101548452601190925290912060028101546001600160a01b0316331461128d5760405163665837af60e11b815260040160405180910390fd5b6005600483015460ff1660098111156112a8576112a86127ec565b146112c657604051634f66018b60e01b815260040160405180910390fd5b60048201805460ff1916600617905560405184907f47263ecda9ee979e294b3b972426ec18606938a3560942cccc5c74c682f9d29e906113099042908790612e15565b60405180910390a2505061131d6001600055565b5050565b61135560405180608001604052806060815260200160006001600160a01b0316815260200160008152602001600081525090565b6001600160a01b0382166000908152600660205260409081902081516080810190925280548290829061138790612c5a565b80601f01602080910402602001604051908101604052809291908181526020018280546113b390612c5a565b80156114005780601f106113d557610100808354040283529160200191611400565b820191906000526020600020905b8154815290600101906020018083116113e357829003601f168201915b505050918352505060018201546001600160a01b031660208201526002820154604082015260039091015460609091015292915050565b61148c6040805161014081018252600080825260208201819052918101829052606080820152906080820190815260200160008152602001600081526020016000815260200160008152602001600081525090565b6000828152600c602090815260409182902082516101408101845281546001600160a01b031681526001820154928101929092526002810154928201929092526003820180549192916060840191906114e490612c5a565b80601f016020809104026020016040519081016040528092919081815260200182805461151090612c5a565b801561155d5780601f106115325761010080835404028352916020019161155d565b820191906000526020600020905b81548152906001019060200180831161154057829003601f168201915b5050509183525050600482015460209091019060ff166009811115611584576115846127ec565b6009811115611595576115956127ec565b81526005820154602082015260068201546040820152600782015460608201526008820154608082015260099091015460a09091015292915050565b6115d96122b8565b6000818152600c602090815260408083203380855260099093529220600181015490916001600160a01b03909116146116255760405163758c019560e11b815260040160405180910390fd5b6002600483015460ff166009811115611640576116406127ec565b1461165d5760405162101cff60e51b815260040160405180910390fd5b6000838152600f60205260409020805415801561167c57506001810154155b1561169a57604051634cc0323560e11b815260040160405180910390fd5b6001810154156116af57600181015460098401555b42600784015580541561172c576008830154815410156116fc57805460088401546000916116dc91612e2e565b6004549091506116f6906001600160a01b03163383612311565b5061172c565b6008830154815460009161170f91612e2e565b60045490915061172a906001600160a01b0316333084612374565b505b600080825560018201819055600282015560088301546009840154604080519283526020830191909152429082015284907f8423ea5fcc76d0ad679210fb974d3000738079aca8afd159eee4afeca496dde49060600160405180910390a250505061086e6001600055565b6001600160a01b0381166000908152600d602090815260409182902080548351818402810184019094528084526060939283018282801561107457602002820191906000526020600020908154815260200190600101908083116110605750505050509050919050565b6118096123ac565b6118136000612406565b565b60096020526000908152604090208054819061088c90612c5a565b6118386122b8565b6000848152600c6020908152604080832060068101548452601190925290912081546001600160a01b0316611880576040516338fde52b60e01b815260040160405180910390fd5b6002600483015460ff16600981111561189b5761189b6127ec565b146118b85760405162101cff60e51b815260040160405180910390fd5b60028101546001600160a01b031633146118e557604051638d0cecdd60e01b815260040160405180910390fd5b816001015484111561190a5760405163ba74cad360e01b815260040160405180910390fd5b816002015485111561192f57604051637c7838ad60e11b815260040160405180910390fd5b604080516080810182528581526020808201888152428385019081526060840188815260008c8152600f90945294909220835181559051600182015590516002820155915190919060038201906119869082612d2d565b50506040805186815260208101889052428183015290518892507f0ba5d9309e4ae279f85512e847a064efdc07b707b95c20a88098ff6eeefd431f9181900360600190a250506119d66001600055565b50505050565b6119e46122b8565b6000828152600c6020526040902080546001600160a01b03163314611a1c5760405163081874f560e21b815260040160405180910390fd5b6003600482015460ff166009811115611a3757611a376127ec565b14611a55576040516310e1254d60e31b815260040160405180910390fd5b60048101805460ff1916600517905560405183907f941dbf0237c4ff970e962d9c3fde1a2003d5076dfde4c0deeada6393cdde60b290611a989042908690612e15565b60405180910390a25061131d6001600055565b611ab36122b8565b600781604051611ac39190612c94565b9081526040519081900360200190205460ff1615611af4576040516321878bbb60e11b815260040160405180910390fd5b6001600782604051611b069190612c94565b9081526040805160209281900383018120805460ff19169415159490941790935560808301815283835233828401819052428483015260006060850181905260088054600181019091557ff3f7a9fe364faab93b216da50a3214154f22a0a2b415b23a84c8169e8b636ee30180546001600160a01b031916831790559081526006909252902081518291908190611b9d9082612d2d565b5060208201516001820180546001600160a01b0319166001600160a01b0390921691909117905560408083015160028301556060909201516003909101555133907fb2bc7d962e634836b6f2383ee5f842b8829c7771d414c3f8862c577f4730a3e890611c0b908590612e47565b60405180910390a25061086e6001600055565b611c266122b8565b6000828152600c602090815260408083203384526005909252822054909160ff90911615159003611c6a57604051630ebe99d160e31b815260040160405180910390fd5b6006600482015460ff166009811115611c8557611c856127ec565b14611ca357604051634f66018b60e01b815260040160405180910390fd5b80546008820154600454611cc5926001600160a01b0391821692911690612311565b60048101805460ff1916600817905560405183907fb00f0ef2c9545d8dfded4cd4bee55b3761b8d5d9d6a8df164995635bfed3c07a90611a989042906000908790612e5a565b611d3f60405180608001604052806060815260200160006001600160a01b0316815260200160008152602001600081525090565b6001600160a01b0382166000908152600960205260409081902081516080810190925280548290829061138790612c5a565b611d796122b8565b600a81604051611d899190612c94565b9081526040519081900360200190205460ff1615611dba576040516338f34eb560e21b815260040160405180910390fd5b6001600a82604051611dcc9190612c94565b9081526040805160209281900383018120805460ff191694151594909417909355608083018152838352338284018190524284830152600060608501819052600b8054600181019091557f0175b7a638427703f0dbe7bb9bbf987a2551717b34e79f33b5b1008d1fa01db90180546001600160a01b031916831790559081526009909252902081518291908190611e639082612d2d565b5060208201516001820180546001600160a01b0319166001600160a01b0390921691909117905560408083015160028301556060909201516003909101555133907f1095d5bb47535aabc9770acbcd3f5f182a26902a02d9eaa8b8c1450e7141207890611c0b908590612e47565b611ed96123ac565b6001600160a01b038116611f435760405162461bcd60e51b815260206004820152602660248201527f4f776e61626c653a206e6577206f776e657220697320746865207a65726f206160448201526564647265737360d01b60648201526084015b60405180910390fd5b61086e81612406565b611f546122b8565b6000838152600c6020526040902080546001600160a01b0316611f8a576040516338fde52b60e01b815260040160405180910390fd5b6000600482015460ff166009811115611fa557611fa56127ec565b14611fc3576040516384ab70bb60e01b815260040160405180910390fd5b8060010154831015611fe85760405163ba74cad360e01b815260040160405180910390fd5b806002015482111561200d57604051637c7838ad60e11b815260040160405180910390fd5b600061201860035490565b90506000604051806101000160405280878152602001838152602001336001600160a01b0316815260200186815260200185815260200160001515815260200142815260200160008152509050601060008781526020019081526020016000208290806001815401808255809150506001900390600052602060002001600090919091909150558060116000848152602001908152602001600020600082015181600001556020820151816001015560408201518160020160006101000a8154816001600160a01b0302191690836001600160a01b03160217905550606082015181600301556080820151816004015560a08201518160050160006101000a81548160ff02191690831515021790555060c0820151816006015560e08201518160070155905050336001600160a01b0316867f35a5422db59a8240104ba9a73e22ab1f401b3e478d570724a447b81f3c916d8e8787604051612184929190918252602082015260400190565b60405180910390a3505050610dcd6001600055565b600d602052816000526040600020818154811061122357600080fd5b6121bd6122b8565b6000828152600c602090815260408083203384526005909252822054909160ff9091161515900361220157604051630ebe99d160e31b815260040160405180910390fd5b6006600482015460ff16600981111561221c5761221c6127ec565b1461223a57604051634f66018b60e01b815260040160405180910390fd5b6006810154600090815260116020526040902060028101546008830154600454612272926001600160a01b0391821692911690612311565b60048201805460ff1916600817905560405184907fb00f0ef2c9545d8dfded4cd4bee55b3761b8d5d9d6a8df164995635bfed3c07a906113099042906001908890612e5a565b60026000540361230a5760405162461bcd60e51b815260206004820152601f60248201527f5265656e7472616e637947756172643a207265656e7472616e742063616c6c006044820152606401611f3a565b6002600055565b6040516001600160a01b038316602482015260448101829052610dcd90849063a9059cbb60e01b906064015b60408051601f198184030181529190526020810180516001600160e01b03166001600160e01b031990931692909217909152612458565b6040516001600160a01b03808516602483015283166044820152606481018290526119d69085906323b872dd60e01b9060840161233d565b6001546001600160a01b031633146118135760405162461bcd60e51b815260206004820181905260248201527f4f776e61626c653a2063616c6c6572206973206e6f7420746865206f776e65726044820152606401611f3a565b600180546001600160a01b038381166001600160a01b0319831681179093556040519116919082907f8be0079c531659141344cd1fd0a4f28419497f9722a3daafe3b4186f6b6457e090600090a35050565b60006124ad826040518060400160405280602081526020017f5361666545524332303a206c6f772d6c6576656c2063616c6c206661696c6564815250856001600160a01b031661252d9092919063ffffffff16565b90508051600014806124ce5750808060200190518101906124ce9190612e7b565b610dcd5760405162461bcd60e51b815260206004820152602a60248201527f5361666545524332303a204552433230206f7065726174696f6e20646964206e6044820152691bdd081cdd58d8d9595960b21b6064820152608401611f3a565b606061253c8484600085612544565b949350505050565b6060824710156125a55760405162461bcd60e51b815260206004820152602660248201527f416464726573733a20696e73756666696369656e742062616c616e636520666f6044820152651c8818d85b1b60d21b6064820152608401611f3a565b600080866001600160a01b031685876040516125c19190612c94565b60006040518083038185875af1925050503d80600081146125fe576040519150601f19603f3d011682016040523d82523d6000602084013e612603565b606091505b50915091506126148783838761261f565b979650505050505050565b6060831561268e578251600003612687576001600160a01b0385163b6126875760405162461bcd60e51b815260206004820152601d60248201527f416464726573733a2063616c6c20746f206e6f6e2d636f6e74726163740000006044820152606401611f3a565b508161253c565b61253c83838151156126a35781518083602001fd5b8060405162461bcd60e51b8152600401611f3a9190612e47565b604051806101000160405280600081526020016000815260200160006001600160a01b03168152602001600081526020016000815260200160001515815260200160008152602001600081525090565b60006020828403121561271f57600080fd5b5035919050565b80356001600160a01b038116811461273d57600080fd5b919050565b60006020828403121561275457600080fd5b61275d82612726565b9392505050565b60005b8381101561277f578181015183820152602001612767565b50506000910152565b600081518084526127a0816020860160208601612764565b601f01601f19169290920160200192915050565b6080815260006127c76080830187612788565b6001600160a01b03959095166020830152506040810192909252606090910152919050565b634e487b7160e01b600052602160045260246000fd5b600a811061282057634e487b7160e01b600052602160045260246000fd5b9052565b600061014060018060a01b038d1683528b60208401528a60408401528060608401526128528184018b612788565b9150506128626080830189612802565b60a082019690965260c081019490945260e08401929092526101008301526101209091015295945050505050565b634e487b7160e01b600052604160045260246000fd5b600082601f8301126128b757600080fd5b813567ffffffffffffffff808211156128d2576128d2612890565b604051601f8301601f19908116603f011681019082821181831017156128fa576128fa612890565b8160405283815286602085880101111561291357600080fd5b836020870160208301376000602085830101528094505050505092915050565b60008060006060848603121561294857600080fd5b8335925060208401359150604084013567ffffffffffffffff81111561296d57600080fd5b612979868287016128a6565b9150509250925092565b6020808252825182820181905260009190848201906040850190845b818110156129bb5783518352928401929184019160010161299f565b50909695505050505050565b801515811461086e57600080fd5b600080604083850312156129e857600080fd5b6129f183612726565b91506020830135612a01816129c7565b809150509250929050565b60008060408385031215612a1f57600080fd5b50508035926020909101359150565b60008060408385031215612a4157600080fd5b82359150602083013567ffffffffffffffff811115612a5f57600080fd5b612a6b858286016128a6565b9150509250929050565b6000815160808452612a8a6080850182612788565b6020848101516001600160a01b0316908601526040808501519086015260609384015193909401929092525090919050565b60208152600061275d6020830184612a75565b60208152612ae96020820183516001600160a01b03169052565b602082015160408201526040820151606082015260006060830151610140806080850152612b1b610160850183612788565b91506080850151612b2f60a0860182612802565b5060a085015160c085015260c085015160e085015260e0850151610100818187015280870151915050610120818187015280870151838701525050508091505092915050565b60008060008060808587031215612b8b57600080fd5b843593506020850135925060408501359150606085013567ffffffffffffffff811115612bb757600080fd5b612bc3878288016128a6565b91505092959194509250565b600060208284031215612be157600080fd5b813567ffffffffffffffff811115612bf857600080fd5b61253c848285016128a6565b600080600060608486031215612c1957600080fd5b505081359360208301359350604090920135919050565b60008060408385031215612c4357600080fd5b612c4c83612726565b946020939093013593505050565b600181811c90821680612c6e57607f821691505b602082108103612c8e57634e487b7160e01b600052602260045260246000fd5b50919050565b60008251612ca6818460208701612764565b9190910192915050565b634e487b7160e01b600052601160045260246000fd5b600060018201612cd857612cd8612cb0565b5060010190565b601f821115610dcd57600081815260208120601f850160051c81016020861015612d065750805b601f850160051c820191505b81811015612d2557828155600101612d12565b505050505050565b815167ffffffffffffffff811115612d4757612d47612890565b612d5b81612d558454612c5a565b84612cdf565b602080601f831160018114612d905760008415612d785750858301515b600019600386901b1c1916600185901b178555612d25565b600085815260208120601f198616915b82811015612dbf57888601518255948401946001909101908401612da0565b5085821015612ddd5787850151600019600388901b60f8161c191681555b5050505050600190811b01905550565b838152826020820152606060408201526000612e0c6060830184612788565b95945050505050565b82815260406020820152600061253c6040830184612788565b81810381811115612e4157612e41612cb0565b92915050565b60208152600061275d6020830184612788565b8381528215156020820152606060408201526000612e0c6060830184612788565b600060208284031215612e8d57600080fd5b815161275d816129c756fea26469706673582212209ff6462dadaf5c957d72dd4af96f4a4621ef0277cce602d87ce25231eb49ea4c64736f6c63430008120033",
  "linkReferences": {},
  "deployedLinkReferences": {}
}